:020000040800F2
:100000009804002005010008F10C00085B0A0008B4
:10001000650B0008F5060008171E00080000000028
:10002000000000000000000000000000F5110008C2
:10003000A1080008000000009D1000080913000836
:100040001F0100081F0100081F0100081F01000810
:100050001F0100081F0100081F0100081F01000800
:100060001F0100081F0100081F0100081F010008F0
:100070001F0100081F0100081F0100081F010008E0
:100080001F0100081F0100081F0100081F010008D0
:100090001F0100081F0100081F0100081F010008C0
:1000A0001F0100081F0100081F0100081F010008B0
:1000B0001F0100081F0100086D1300081F01000840
:1000C0001F0100081F0100081F0100081F01000890
:1000D0001F0100081F010008E51900081F010008A2
:1000E0001F0100081F0100081F010008DFF810D0E1
:1000F00000F0C2FA00480047E9270008AFF300808B
:10010000980400200648804706480047FEE7FEE7BF
:10011000FEE7FEE7FEE7FEE7FEE7FEE7FEE7FEE7B7
:100120000D130008ED000008D2B201E000F8012B29
:10013000491EFBD270470022F6E710B513460A4667
:1001400004461946FFF7F0FF204610BD034611F89C
:10015000012B00F8012B002AF9D1184670472DE930
:10016000FE4F804681EA0300C00F0C46009021F04C
:10017000004123F00045B8EB0200A94105D24046FA
:10018000214690461C460B46024623F00040104391
:1001900047D0270DC7F30A00C3F30A510290401A53
:1001A000019040286BDAC3F3130040F4801B0098E1
:1001B000924620B10023D2EB030A63EB0B0B0198AC
:1001C0005946C0F14002504600F098F906460D46E7
:1001D00050465946019A00F0B0F910EB0800614111
:1001E000002487EA115284EAE7731A4340D0009A48
:1001F00062B3019A012A4FEA075215DC001B61EB3A
:1002000002014FF0004202EA0752CDE90042001C11
:1002100041F5801132462B4600F0B0F903B0BDE83D
:10022000F08F40462146F9E7001B61EB0201001CFC
:1002300041F5801300185B412018A2F5001747EB29
:10024000030140EAD570B6196D4111E06D084FEA1F
:10025000360645EAC0754FEA0752001B61EB020102
:10026000001C41F5801149084FEA30000019514146
:1002700032462B4603B0BDE8F04F00F070B900984D
:10028000012240000023D0EB020263EBE0730098F0
:1002900021464FEAE074B8EB000061EB0401E9E7A6
:1002A00083F000435BE781F0004158E72DE9FE4F02
:1002B00081EA030404F0004421F0004100944FF06F
:1002C000000B23F0004350EA01045ED052EA03041D
:1002D0005BD0C3F30A54C1F30A552C44A4F2F3349F
:1002E0000194A0FB0254C1F3130141F48011C3F344
:1002F000130343F4801301FB024400FB034E840A02
:10030000970A44EA815447EA8357A4FB0768029599
:100310008D0A05FB07854FEA932C04FB0C54270537
:10032000029D4FEA065847EA1637B5EB08056EEB13
:10033000070C870E920E47EA811742EA8312A7FB49
:100340000201B6EB0B0164EB00042B0D43EA0C3306
:100350005E1844EB1C50DA465146E7FB0201C5F338
:1003600013044FEA0B3343EA14534FEA0432019C5F
:1003700043EA0603A4F10C040294009CCDE900B406
:1003800000F0FCF803B0BDE8F08F00200146F9E76B
:100390002DE9F04D81EA030404F0004B21F0004503
:1003A00014464FF0000A23F0004150EA050220D025
:1003B00054EA01021DD0C5F30A570246C5F31303E0
:1003C000C1F31300C1F30A5640F4801543F48013BF
:1003D000A7EB0608101BD64608F2FD3873EB0500A4
:1003E00002D308F1010801E092185B41B8F1000F57
:1003F00003DA00200146BDE8F08D00204FF48011A3
:10040000064684460EE0171B73EB050705D3121B47
:1004100063EB050306434CEA010C49084FEA300040
:1004200092185B4150EA0107EDD152EA030012D065
:1004300082EA040083EA0501084305D0101BAB41A2
:1004400006D20122002306E000224FF0004302E022
:100450006FF0010253101AEB06004CEB085110EB41
:100460000A0041EB0B01BDE8F04D00F078B830B563
:100470000B46014600202022012409E021FA02F562
:100480009D4205D303FA02F5491B04FA02F52844FC
:10049000151EA2F10102F1DC30BD2DE9F05F054629
:1004A000002092469B4688460646814640241BE033
:1004B000284641464746224600F02FF853465A4602
:1004C000C01A914110D311461846224600F016F882
:1004D0002D1A67EB01084F4622460120002100F04B
:1004E0000DF817EB00094E41201EA4F10104DFDCDA
:1004F000484631462A464346BDE8F09F202A04DBA1
:10050000203A00FA02F1002070479140C2F1200326
:1005100020FA03F3194390407047202A04DB203A65
:1005200021FA02F00021704721FA02F3D040C2F113
:1005300020029140084319467047202A06DBCB175A
:10054000203A41FA02F043EAE07306E041FA02F38E
:10055000D040C2F12002914008431946704710B5BF
:10056000141E73F1000408DA401C41F100019218D6
:100570005B411A4301D120F0010010BD2DE9F04D7F
:1005800092469B4611B1B1FA81F202E0B0FA80F2D4
:1005900020329046FFF7B2FF04460F4640EA0A00B9
:1005A00041EA0B0153465A46084313D0114653EA19
:1005B000010019D0C8F140025046FFF7AEFF0546D2
:1005C0000E46504659464246FFF798FF084305D06D
:1005D000012004E020463946BDE8F08D00200543A7
:1005E00046EAE0762C4337430A986305E40AA0EB19
:1005F00008000022FD0A44EA47540A3002D50020D0
:100600000146E9E7010510196941DDE908450019CE
:100610006941BDE8F04DA2E7C1F30A52C1F31301ED
:1006200040F2FF3341F480119A4202DA0020014681
:10063000704740F233439A42A2F2334202DC524204
:10064000FFF76BBFFFF75ABF30B5041E71F100040E
:1006500004DB4FF00044404264EB0101141E73F1CF
:10066000000405DB1C464FF00043524263EB0403D9
:10067000994208BF904230BD064C074D06E0E06845
:1006800040F0010394E8070098471034AC42F6D3D9
:10069000FFF730FD002F0008202F000808B50121CA
:1006A000102000F01DFD4FF48040ADF80000102038
:1006B0008DF8030003208DF802006946044800F01D
:1006C000F0F84FF48041024800F0C0F908BD000086
:1006D0000010014010B5002004490860C82002F055
:1006E00025F801200249C1F8B80110BDB801224225
:1006F0000000224200BFFEE710B500241548406804
:1007000020F07040134948600846406840F00040BF
:10071000486004E0601CC4B2012002F02DF80E48CD
:10072000006808B1642CF5DB642C01DB012010BDEE
:10073000002404E0601CC4B2012002F01DF8064849
:10074000006808B9642CF5DB642C01DB0120EEE7BE
:100750000020ECE7001001403C01224208B50121D5
:10076000082000F0BDFC4FF40040ADF80000102060
:100770008DF8030003208DF802006946064800F05A
:1007800090F84FF40041044800F060F900F068F878
:10079000FFF7B2FF08BD00000010014010B50024B3
:1007A00004E0601CC4B2012001F0E6FF0D480068BF
:1007B00008B1642CF5DB002404E0601CC4B2012005
:1007C00001F0DAFF0748006808B9642CF5DB28203F
:1007D00001F0D2FF0348006808B1012010BD0020DD
:1007E000FCE700003C01224270B50024002506E031
:1007F0006006040EFFF7D2FF0443681CC5B2082D43
:10080000F6DB204670BD7CB505460E4600F028F8A4
:10081000FFF772FFF8B9002405E0FFF7E5FF0DF8D8
:100820000400601CC4B2052CF7DB9DF800009DF8A5
:10083000011008449DF8021008449DF80310084474
:100840009DF80410884208D19DF8000030709DF892
:100850000200287001E001207CBD0020FCE70000C0
:1008600010B50C48406820F070400A4948600846BE
:10087000406840F04050486000200749086014205C
:1008800001F054FF01200549C1F8BC011E2001F010
:1008900073FF10BD00100140BC0122420000224243
:1008A00070472DE9F0410246002500260020002374
:1008B0000024002791F803C00CF00F0591F803C045
:1008C0000CF0100CBCF1000F03D091F802C04CEA00
:1008D000050591F800C0BCF1000F31D0146800206C
:1008E0002BE04FF0010C0CFA00F3B1F800C00CEA59
:1008F00003069E4220D183004FF00F0C0CFA03F741
:10090000BC4305FA03FC4CEA040491F803C0BCF1B3
:10091000280F06D14FF0010C0CFA00FCC2F814C0ED
:100920000AE091F803C0BCF1480F05D14FF0010C6B
:100930000CFA00FCC2F810C0401C0828D1D3146087
:10094000B1F800C0BCF1FF0F34DD546800202EE088
:1009500000F1080C4FF0010808FA0CF3B1F800C0E0
:100960000CEA03069E4221D183004FF00F0C0CFAD3
:1009700003F7BC4305FA03FC4CEA040491F803C0F6
:10098000BCF1280F05D100F1080C08FA0CF8C2F8E8
:10099000148091F803C0BCF1480F07D100F1080C96
:1009A0004FF0010808FA0CF8C2F81080401C082823
:1009B000CED35460BDE8F081F0B50A460023002490
:1009C0000021002500F00046B6F1004F02D11D4E77
:1009D000F16901E01B4E7168C0F3034583B200F476
:1009E0004016B6F5401F08D121F07061154E7668AB
:1009F00026F07066134F7E6012E000F48016B6F5A4
:100A0000801F06D1032606FA05F4A14341F0706168
:100A100006E0460D360103FA06F6B14341F0706177
:100A200022B1460D360103FA06F6314300F00046C6
:100A3000B6F1004F02D1034EF16101E0014E716049
:100A4000F0BD000000000140416170470161704746
:100A50000AB1016100E04161704700BFFEE700009C
:100A60001FB50121082000F03BFB0121042000F00C
:100A700017FB4FF48070ADF80C0003208DF80E00CA
:100A800010208DF80F0003A91E48FFF70AFF4FF44E
:100A900080711C48FFF7D8FF4FF40070ADF80C00D0
:100AA00004208DF80F0003A91648FFF7FAFE4FF453
:100AB00000711448FFF7C8FF134800F07DFC68463A
:100AC00000F046FF40F2E730ADF804004720ADF8F3
:100AD00000000020ADF80600ADF8020069460A48A3
:100AE00000F0E4FE0121084800F054FC0122114608
:100AF000054800F066FD00F009F80021024800F00A
:100B00004FFC1FBD000C01400008004008B51E202E
:100B10008DF8000000208DF801008DF80200012002
:100B20008DF80300684600F0E5F808BD08B501211E
:100B3000102000F0D5FA4FF40050ADF8000010205E
:100B40008DF8030003208DF8020069460448FFF782
:100B5000A8FE4FF400510248FFF778FF08BD0000DF
:100B60000010014000BFFEE700B589B00121084632
:100B700000F0B6FA0121042000F0B2FA01210820A9
:100B800000F0AEFA0121084600F08AFA01210220A5
:100B900000F086FA01215148FFF70EFF012150486D
:100BA000FFF70AFF18208DF8230040F60B40ADF840
:100BB000200003208DF8220008A94A48FFF771FEA3
:100BC00018208DF8230048F2C000ADF82000032063
:100BD0008DF8220008A94448FFF763FE434800F05F
:100BE000F9FC4FF0804000F0F5FC05A800F0B0FEE5
:100BF0000020ADF81A00ADF8160040F2CF20ADF895
:100C0000140040F2E730ADF8180000208DF81C0009
:100C100005A9364800F04AFE05A94FF0804000F0D3
:100C200045FE01A800F037FE6020ADF8040000206A
:100C3000ADF80C000120ADF806000020ADF80A0068
:100C400001A92A4800F0CCFC01A9284800F01EFDAB
:100C500001A9264800F07AFD01A9244800F0D0FD42
:100C600001A94FF0804000F0BBFC01A94FF080408B
:100C700000F00CFD01A94FF0804000F067FD01A9D4
:100C80004FF0804000F0BCFD0821184800F0F4FC53
:100C90000821164800F04CFD0821144800F0A6FD7C
:100CA0000821124800F0EAFD0821C80600F0E4FC23
:100CB0000821C80600F03CFD0821C80600F096FD9A
:100CC0000821C80600F0DAFD0121084800F068FBA1
:100CD0000121880700F064FB09B000BD000230006C
:100CE00000031800000C014000080140000400400F
:100CF0007047000070B5002100230F22C47804B3B0
:100D0000154C246804F4E064C4F5E064210AC1F1E0
:100D10000403CA40447804FA03F184781440214360
:100D200009010E4C0678A155047804F01F05012432
:100D3000AC4005786D11AD0005F1E025C5F8004126
:100D400009E0047804F01F050124AC40044D067846
:100D5000761145F8264070BD0CED00E000E400E09F
:100D600080E100E002490143024A1160704700003F
:100D70000000FA050CED00E070B500240EE0002143
:100D8000204600F0EAF8002504E0002000F076F9A3
:100D9000681CC5B2802DF8DB601CC4B2082CEEDBE9
:100DA00070BD000008B50121082000F099F9142059
:100DB0008DF8030003208DF802004020ADF80000FC
:100DC00069460A48FFF76DFD8020ADF800006946CE
:100DD0000648FFF766FD012240210448FFF738FE70
:100DE000012280210148FFF733FE08BD000C0140BD
:100DF00070B50546002413E08020204100EA05027A
:100E000080210E48FFF724FE012240210B48FFF706
:100E10001FFE002240210948FFF71AFE601CC4B2E1
:100E2000082CE9DB012240210448FFF711FE0022D3
:100E300040210248FFF70CFE70BD0000000C01408D
:100E400010B5012280210948FFF702FE012240214E
:100E50000648FFF7FDFD002280210448FFF7F8FD5A
:100E6000002240210148FFF7F3FD10BD000C0140B6
:100E700010B5002280210748FFF7EAFD012240213A
:100E80000448FFF7E5FD012280210248FFF7E0FD5D
:100E900010BD0000000C014070B5002406E00025E4
:100EA00000E06D1CB5F57A7FFBD3641CB4F57A7F46
:100EB000F5D3FFF777FFAE2000F0D0F8D52000F093
:100EC000CDF8802000F0CAF8A82000F0C7F83F2035
:100ED00000F0C4F8D32000F0C1F8002000F0BEF804
:100EE000402000F0BBF8A12000F0B8F8C82000F0C6
:100EF000B5F8DA2000F0B2F8122000F0AFF8812047
:100F000000F0ACF8CF2000F0A9F8D92000F0A6F846
:100F1000F12000F0A3F8DB2000F0A0F8302000F072
:100F20009DF8A42000F09AF8A62000F097F88D20F4
:100F300000F094F8142000F091F8AF2000F08EF843
:100F4000FFF71AFF70BD10B50246012000E05043C4
:100F50000B1EA1F10101FAD110BD70B505460C467A
:100F600045F0B00000F07AF8102141EA141000F0CA
:100F700075F804F00F0000F071F870BD2DE9F04134
:100F800005460E461746721ED206110E6A1E5206FE
:100F9000100EFFF7E2FF002409E0A7F12001134A39
:100FA00002EB0111085D00F069F8601CC4B2082C66
:100FB000F3DB721ED206110E6A1E012303EB4202FE
:100FC000D0B2FFF7CAFF00240BE0A7F12001074AC7
:100FD00002EB011204F10801505C00F04FF8601CB4
:100FE000C4B2082CF1DBBDE8F08100001029000834
:100FF0002DE9F04780460E4617461D46002415E0B1
:10100000281B411E0A20FFF79EFFB7FBF0F00A21C4
:10101000B0FBF1F201FB120000F130093019C1B24E
:101020004A464046FFF7AAFF601CC4B2AC42E7DB69
:10103000BDE8F0872DE9F04107460E46154600242D
:1010400007E02A5D3019C1B23846FFF797FF601CF0
:10105000C4B2285D0028F4D1BDE8F08110B5044683
:10106000FFF7EEFE7820FFF7C3FE0020FFF7C0FE7B
:101070002046FFF7BDFEFFF7FBFE10BD10B504468E
:10108000FFF7DEFE7820FFF7B3FE4020FFF7B0FE4B
:101090002046FFF7ADFEFFF7EBFE10BD70470000E6
:1010A00029B1064AD2690243044BDA6104E0034ADB
:1010B000D2698243014BDA617047000000100240A0
:1010C00029B1064A12690243044B1A6104E0034A3B
:1010D00012698243014B1A61704700000010024000
:1010E00029B1064A92690243044B9A6104E0034A1B
:1010F00092698243014B9A617047000000100240E0
:1011000029B1064AD2680243044BDA6004E0034A7C
:10111000D2688243014BDA60704700000010024041
:1011200030B500210022002400232D4D6D6805F00C
:101130000C0121B1042905D0082923D105E0294D4E
:10114000056022E0274D05601FE0254D6D6805F420
:101150007012234D6D6805F48034022505EB924230
:101160001CB9214D554305600BE01D4D6D6805F41C
:1011700000351DB11C4D5543056002E0194D554326
:10118000056002E0174D056000BF00BF144D6D689B
:1011900005F0F0010909154D6B5C0568DD404560FF
:1011A0000F4D6D6805F4E061090A104D6B5C4568F0
:1011B000DD4085600A4D6D6805F46051C90A0B4D2C
:1011C0006B5C4568DD40C560054D6D6805F44041C8
:1011D000890B074D6B5CC568B5FBF3F5056130BD48
:1011E0000010024000127A0000093D002700002094
:1011F00037000020704710B500F002F810BD000065
:101200000CB50020019000903348006840F4803015
:101210003149086000BF3048006800F40030009099
:101220000198401C0190009818B90198B0F5A06F82
:10123000F1D12948006800F4003010B1012000907D
:1012400001E0002000900098012843D12348006865
:1012500040F01000214908600846006820F00300B3
:1012600008600846006840F0020008601A484068BC
:10127000194948600846406848600846406840F49C
:10128000806048600846406820F47C10486008464A
:10129000406840F4E81048600846006840F08070FC
:1012A000086000BF0C48006800F000700028F9D00A
:1012B0000948406820F00300074948600846406834
:1012C00040F00200486000BF0348406800F00C0096
:1012D0000828F9D10CBD0000001002400020024097
:1012E000042808D14FF0E021096941F004014FF0D2
:1012F000E022116107E04FF0E021096921F00401CB
:101300004FF0E022116170477047000010B513489C
:10131000006840F001001149086008464068104923
:1013200008400E494860084600680E4908400B49CD
:1013300008600846006820F480200860084640687D
:1013400020F4FE0048604FF41F008860FFF753FF51
:101350004FF000600449086010BD0000001002401A
:101360000000FFF8FFFFF6FE08ED00E010B50121D8
:10137000064800F015F940B10121044800F00DF8CD
:1013800003480088401C0249088010BD0008004046
:101390003C000020CA4302827047CA430282704761
:1013A00021B1028842F00102028004E002884FF677
:1013B000FE731A400280704710B5044668488442A4
:1013C00008D10121C014FFF79BFE0021E014FFF7B4
:1013D00097FEC4E0B4F1804F08D101210846FFF721
:1013E0006FFE00210120FFF76BFEB8E05D488442EC
:1013F00008D101210220FFF763FE00210220FFF740
:101400005FFEACE05848844208D101210420FFF778
:1014100057FE00210420FFF753FEA0E0534884420A
:1014200008D101210820FFF74BFE00210820FFF71B
:1014300047FE94E04E48844208D101211020FFF776
:101440003FFE00211020FFF73BFE88E04948844220
:1014500008D101212020FFF733FE00212020FFF7D3
:101460002FFE7CE04448844208D101214014FFF75C
:1014700047FE00216014FFF743FE70E03F488442BE
:1014800009D10121C804FFF73BFE00214FF40020E1
:10149000FFF736FE63E03A48844209D1012108058E
:1014A000FFF72EFE00214FF48010FFF729FE56E0D3
:1014B0003448844209D101214805FFF721FE00216B
:1014C0004FF40010FFF71CFE49E02F48844208D17A
:1014D00001214020FFF7F4FD00214020FFF7F0FD3F
:1014E0003DE02A48844208D101218020FFF7E8FD31
:1014F00000218020FFF7E4FD31E02548844208D137
:1015000001218015FFF7DCFD0021A015FFF7D8FDB4
:1015100025E02048844209D101210804FFF7F0FDAD
:1015200000214FF48030FFF7EBFD18E01A488442A9
:1015300009D101214804FFF7E3FD00214FF40030F9
:10154000FFF7DEFD0BE01548844208D10121880435
:10155000FFF7D6FD00214FF48020FFF7D1FD10BD2D
:10156000002C01400004004000080040000C004036
:10157000001000400014004000340140004C0140C5
:10158000005001400054014000180040001C004081
:10159000002000400040014000440140004801405C
:1015A00030B50246002000230024158A05EA010315
:1015B000958905EA010413B10CB1012000E0002077
:1015C00030BD1AB183890B43838102E083898B4349
:1015D0008381704701894FF6F8721140018170478D
:1015E00070B5002400220023058C4FF6FE763540AE
:1015F0000584028C8388048B4FF68F752C40B51EB2
:101600002C400D882C43751E2A400D892A434D8895
:101610002A43144DA8420BD0134DA84208D0134DB5
:10162000A84205D0124DA84202D0124DA84213D1B3
:101630004FF6F7752A404D892A434FF6FB752A402D
:101640008D882A434FF6FF652B404FF6FF552B4000
:101650008D892B43CD892B4383800483CD88858658
:10166000028470BD002C0140003401400040014064
:1016700000440140004801400A460021018B4FF61A
:10168000F7731940114301837047000070B50024BF
:1016900000220023058C4FF6EF7635400584028C3E
:1016A0008388048B48F6FF752C404FF6FF452C408D
:1016B0000D884FF6FF7606EA05252C434FF6DF75B9
:1016C0002A400D8906EA05152A434D8806EA0515C4
:1016D0002A43154DA84202D0144DA8421DD14FF601
:1016E0007F752A404D894FF6FF7606EA05152A4395
:1016F0004FF6BF752A408D8806EA05152A434FF636
:10170000FF352B404FF2FF752B408D8906EA85058A
:101710002B43CD8906EA85052B4383800483CD883E
:101720000587028470BD0000002C01400034014098
:101730000A460021018B4FF2FF7319404FF6FF73E9
:1017400003EA0223194301837047000070B50024A7
:1017500000220023058C4FF6FF6635400584028C7D
:101760008388848B4FF68F752C404FF6FC752C4088
:101770000D882C434FF6FF552A400D894FF6FF7612
:1017800006EA05252A434D8806EA05252A43154D14
:10179000A84202D0144DA8421DD14FF2FF752A4035
:1017A0004D894FF6FF7606EA05252A434FF6FF35A9
:1017B0002A408D8806EA05252A434EF6FF752B4000
:1017C0004DF6FF752B408D8906EA05152B43CD8913
:1017D00006EA05152B4383808483CD8885870284A0
:1017E00070BD0000002C0140003401400A46002179
:1017F000818B4FF6F77319401143818370470000C6
:1018000070B5002200230024058C4EF6FF7635408B
:101810000584038C8488828B48F6FF752A404FF636
:10182000FF452A400D884FF6FF7606EA05252A4334
:101830004DF6FF752B400D8906EA05352B434D8883
:1018400006EA05352B430B4DA84202D00A4DA842AB
:1018500008D14BF6FF752C408D894FF6FF7606EACE
:1018600085152C4384808283CD88A0F84050038462
:1018700070BD0000002C0140003401400A460021E8
:10188000818B4FF2FF7319404FF6FF7303EA022377
:101890001943818370470021018041808180C1808C
:1018A000018141818181C18170470000002202884D
:1018B0001D4B98420ED01D4B98420BD0B0F1804F7B
:1018C00008D01B4B984205D01A4B984202D01A4BB5
:1018D000984204D14FF68F731A404B881A43174B26
:1018E000984207D0164B984204D04FF6FF431A4057
:1018F000CB881A4302808B8883850B8803850A4B2B
:1019000098420BD0094B984208D00E4B984205D014
:101910000D4B984202D00D4B984201D10B7A0386B1
:101920000123838270470000002C014000340140F5
:101930000004004000080040000C0040001000407F
:1019400000140040004001400044014000480140B4
:101950004FF6FF71818000210180C18041800172BA
:101960007047000010B586B0044601210420FFF73F
:10197000B7FB01218803FFF7B3FB4FF40070ADF80C
:10198000140003208DF8160018208DF8170005A903
:101990001248FEF786FF4FF48060ADF81400042073
:1019A0008DF8170005A90D48FEF77BFF0194002074
:1019B000ADF80800ADF80A00ADF80C00ADF8100065
:1019C0000C20ADF80E0001A9054800F0AFF9012187
:1019D000034800F043F906B010BD000000080140C4
:1019E0000038014010B540F22551624800F04FF92F
:1019F00000287DD05F4800F005FAC4B2612C03D105
:101A000001205D49087022E0622C03D102205A496E
:101A100008701CE0632C03D103205749087016E0BE
:101A2000642C03D104205449087010E0652C03D1C4
:101A30000520514908700AE0662C03D106204E4962
:101A4000087004E0672C02D107204B4908704B480E
:101A5000007848B948480078042805D10020464954
:101A600008700120454908704348007802285AD080
:101A70004C2C02D1012042490870414800780128CD
:101A800022D140484049097844543F480078401CDE
:101A90003D4908702A2C17D13C48007858B93C4879
:101AA000002101604160018136480160416001818F
:101AB00001203649087033493548FEF747FB0020BE
:101AC0002F49087030490870522C02D10120314949
:101AD00008703048007801284AD12F482F490978EA
:101AE00044542E480078401C2C4908702A2C00E0F1
:101AF00018E03DD12A48007858B92A4800210160F1
:101B00004160018124480160416001810120244934
:101B1000087021492348FEF719FB00201D49087071
:101B20001E49087024E0412C0AD101201E4908708A
:101B300014211E48FEF7FFFA14211D48FEF7FBFA98
:101B400019480078012813D119481A4909784454D2
:101B500018480078401C174908702A2C08D11449ED
:101B60001248FEF7F3FA00200F4908701149087077
:101B700010BD0000004400401D0000201E00002099
:101B8000240000206C000020210000201F00002005
:101B900044000020250000207600002022000020C4
:101BA000200000204E0000202600002058000020C9
:101BB000800000202300002010B586B004460121DB
:101BC0000420FFF78DFA01214804FFF769FA042089
:101BD000ADF8140003208DF8160018208DF81700BA
:101BE00005A91C48FEF75DFE0820ADF8140004208E
:101BF0008DF8170005A91748FEF753FE26208DF82B
:101C0000000003208DF801008DF8020001208DF8FE
:101C100003006846FFF76EF801940020ADF8080055
:101C2000ADF80A00ADF80C00ADF810000C20ADF8CE
:101C30000E0001A9084800F079F8012240F2255170
:101C4000054800F04EF80121034800F007F806B0FF
:101C500010BD0000000801400044004021B182890D
:101C600042F40052828104E082894DF6FF731A40EB
:101C70008281704702460020B1F5007F00D100BF8D
:101C800013880B400BB1012000E00020704770B5B5
:101C90000246002400230025002040F66A16B142C7
:101CA00000D100BFC1F3421501F01F03012606FA5F
:101CB00003F3012D02D19689334006E0022D02D1B3
:101CC000168A334001E0968A33400C12012606FA48
:101CD00004F41688344013B10CB1012000E0002058
:101CE00070BDF0B50346002400260025002040F614
:101CF0006A17B94200D100BF1846C1F3421401F07F
:101D00001F06012707FA06F5012C01D10C3004E06B
:101D1000022C01D1103000E014301AB107682F43B3
:101D2000076002E00768AF430760F0BD2DE9F047A8
:101D300086B005460E460024A24600BFA1460027F5
:101D4000B08900B100BF2F462C8A4CF6FF700440CA
:101D5000F08804432C82AC894EF6F3100440B0881E
:101D600031890843718908430443AC81AC8A4FF63A
:101D7000FF400440B0890443AC8201A8FFF7D0F9CA
:101D80001F48874202D1DDF810A001E0DDF80CA069
:101D9000A88900F4004040B10AEBCA0000EB0A1029
:101DA00031684900B0FBF1F807E00AEBCA0000EB2C
:101DB0000A1031688900B0FBF1F86420B8FBF0F03C
:101DC00004012009642101FB1089A88900F4004066
:101DD00040B1322000EBC900B0FBF1F000F0070089
:101DE000044308E0322000EB09106421B0FBF1F05D
:101DF00000F00F0004432C8106B0BDE8F08700001E
:101E00000038014001468888C0F308007047C1F3DC
:101E100008028280704700BFFEE700000FB4054B48
:101E200010B503A9044A029800F0DAF810BC5DF876
:101E300014FB0000C52700084000002002E008C88D
:101E4000121F08C1002AFAD170477047002001E034
:101E500001C1121F002AFBD1704700002DE9FF5F6E
:101E600082B00021DDE90430020DDDF840B003430B
:101E700018D044F61050A2F2FF32424315141198C4
:101E800001281FD0A5EB0B00401C5FEA000A4FF0B1
:101E900000064E4FDFF83891B046504615D5CAF1CE
:101EA000000413E0119801244AA3012801D16FEA2C
:101EB0000B010298119AC0E90031C0E9024206B054
:101EC000BDE8F09FCBF10000DFE704460021404A67
:101ED000491842EB0450CDE9001012E0E00707D0AA
:101EE00032463B4640464946FEF7E0F98046894681
:101EF00032463B4610461946FEF7D8F906460F46CD
:101F00006410002CEAD1DDE90401DDE90023BAF117
:101F1000000F06DAFEF7CAF942464B46FEF7C6F94D
:101F200005E0FEF735FA42464B46FEF731FA044625
:101F30000E460022284BFEF787FB03D84FF0FF30F8
:101F4000014607E00022254B20463146FEF707F9FF
:101F5000FEF762FB102409E0002C0ADB0A220023B2
:101F6000FEF79BFA039B30321A55641E50EA0102B9
:101F7000F2D1641C039AC4F111031444119A012A8A
:101F800003D0012208430DD10AE0084304D0002009
:101F90004FF0110B119072E7A3EB0B056D1E0DE0D6
:101FA0005B4504DD4FF0000205F1010504E003DAB2
:101FB0004FF00002A5F10105002AECD0029811991A
:101FC000C0E90231C0E9004579E700000000144093
:101FD0000000F03F300000000000F0430000E03F50
:101FE0002DE9FF4F95B09A46884606460025EEE15A
:101FF000252877D100242746F94A0121039400E0DF
:10200000044316F8013F203B01FA03F01042F7D1D8
:1020100030782A2811D06FF02F033078A0F13002E9
:10202000092A16D8039A44F0020402EB820203EB59
:1020300042021044761C0390EFE758F8042B0392F9
:10204000002A03DA504244F40054039044F002049E
:10205000761C30782E2816D116F8010F44F00404AF
:102060002A280DD06FF02F023078A0F13003092B11
:1020700009D807EB870302EB4303C718761CF3E785
:1020800058F8047B761C30786C280FD006DC4C287E
:1020900017D068280DD06A2814D104E0742810D015
:1020A0007A280FD10DE044F400140AE044F48014BF
:1020B00001E044F440147278824202D104F58014A5
:1020C000761C761C307866280BD013DC582877D025
:1020D00009DC002875D04528F6D04628F4D04728DA
:1020E0001AD193E118E0632835D0642879D06528A7
:1020F00012D18BE1702873D008DC6728F1D06928F1
:102100006FD06E280DD06F2806D1ACE073282CD08C
:10211000752874D0782853D05246179990476D1C73
:1021200054E1C4F30250022809D003280DD0D8F896
:10213000001004280DD00D6008F1040846E1D8F81D
:102140000010EA17C1E90052F6E7D8F800100D8038
:10215000F2E70D70F0E718F8041B8DF8001000206E
:102160008DF80100EB46012003E058F804BB4FF066
:10217000FF3061074FF0000102D40DE009F10101C9
:102180008946B9420FDA8145F8DB1BF809100029AE
:10219000F4D108E009F1010189468142FADB1BF81C
:1021A00009100029F6D103985346A0EB09072146F0
:1021B0003846179A00F080FA284400EB090507E03A
:1021C00044E008E10DE01BF8010B524617999047D7
:1021D000B9F10109F7D2534621463846179AF2E081
:1021E00039E00A21C4F302524FF0000B0091022A99
:1021F00006D058F8040BC117032A09D00AE023E0DF
:1022000008F1070020F00702F2E80201904605E01D
:1022100000B2C117042A01D140B2C117002906DA61
:102220000A460021404261EB02012D2202E0220514
:1022300004D52B228DF80420012203E0E20701D00F
:102240002022F7E7914657E00A2100E010214FF0E5
:10225000000B00910BE010214FF0000B44F0040440
:102260000827009103E008204FF0000B0090C4F312
:102270000252022A05D058F8040B0021032A08D084
:1022800008E008F1070020F00702F2E8020190469A
:1022900003E080B2042A00D1C0B24FF00009220747
:1022A0002AD53278702A07D0DDF800C08CF0100CE7
:1022B0005CEA0B0C05D00EE040228DF804200122D0
:1022C00008E050EA010306D030238DF804308DF881
:1022D000052002229146009B83F0080353EA0B037A
:1022E0000AD150EA010201D1620705D530228DF8EA
:1022F00004204FF001097F1E3278582A04D039A2F9
:102300000C920CAA02920BE03BA2F9E75B46009A02
:10231000FEF7C3F80C9B9B5C029A521E029213704C
:1023200050EA0102F2D1029804A9081A00F1200B28
:10233000600702D524F4803400E001275F4502DD08
:10234000A7EB0B0000E0002000EB0B0100900398CE
:102350004944401A0390E00306D453462146179A95
:10236000039800F0A9F90544002706E001A85246A9
:10237000C05D179990476D1C7F1C4F45F6DBE0034D
:102380000CD553462146179A039800F095F9054459
:1023900004E030205246179990476D1C0099481E62
:1023A00000900029F5DC08E0029802995246007876
:1023B000491C0291179990476D1CBBF10001ABF1CC
:1023C000010BF1DC5BE100F065F90544761C307827
:1023D00000287FF40DAE19B02846BDE8F08F00004C
:1023E00009280100303132333435363738396162EB
:1023F00063646566000000003031323334353637AF
:10240000383941424344454600000000600700D48B
:10241000062708F1070020F00700F0E802238046B5
:1024200003F0004C5FEA0C0001D097A009E0200502
:1024300001D596A005E0E00701D095A001E0AFF23C
:102440004C001390307823F0004365280CD006DC54
:10245000452809D046281DD047287FD13BE0662873
:1024600018D067287AD136E00021112F01DB112026
:1024700000E0781CCDE9000104A90CA8FFF7EEFCF0
:10248000DDE90D010C9A4FF0000B07F101091092E4
:1024900000914EE04FF000400097CDE9011004A9F3
:1024A0000CA8FFF7DBFCDDE90D020C9B0F994FF048
:1024B000000B91461093009211B9791C00EB0109B1
:1024C000B7EB090003D4C0F1FF3B07F10109A9EB09
:1024D0000700019042E0012F00DA01270021112FAF
:1024E00001DD112000E03846CDE9000104A90CA867
:1024F000FFF7B4FCDDE90D010C9A00914FF0000BE1
:10250000B946109221070FD4009A4A4503DA914642
:1025100001E0A9F10109B9F1010F05DD109AA9F156
:102520000101515C3029F4D0B84202DA10F1040FF5
:1025300003DA0121CDE9011010E0002803DC834417
:10254000A9EB000102E0411C494500DD8946A0EBF2
:102550000B00401C01904FF000400290200705D472
:102560000198484502DB4FF0FF30019000208DF8C4
:102570004B0002980DF14B07B0F1004F25D002201F
:102580000C902B200D90029800280CDA404202900B
:102590002D200D9007E00A210298FDF768FF3031E9
:1025A000029007F8011D0C99481E0C900029F2DCDE
:1025B00002980028EFD1791E0D980870307800F04D
:1025C000200040F0450007F8020D11A8C01BC01DF7
:1025D00002901398007800B1012000EB09010198E6
:1025E00001EBE071029801440398401A401E0390E9
:1025F000E00306D453462146179A039800F05CF88E
:1026000005441398007818B15246179990476D1CED
:10261000E00323D553462146179A039800F04CF85F
:1026200005441BE0BBF1000F07DB0098584504DDB3
:102630001098179910F80B0001E0179930205246B6
:10264000904701980BF1010B401E05F10105019027
:1026500004D12E205246179990476D1CB9F1000104
:10266000A9F10109DEDC05E017F8010B52461799C4
:1026700090476D1C0299481E02900029F4DC5346D5
:102680002146179A03989EE62D0000002B000000BB
:10269000200000002DE9F041044600251E461746A3
:1026A000880404D405E039462020B0476D1C641E20
:1026B000F9D52846BDE8F0812DE9F0410446002512
:1026C0001E469046C80301D5302700E02027880425
:1026D00004D505E041463846B0476D1C641EF9D567
:1026E0002846BDE8F081000010B56FF00400FEF749
:1026F000F7FD0A4800680A49B0FBF1F00949087083
:102700000846007800EB4001C1EBC0104FF6FF71A6
:1027100001EAC0000449088010BD00000400002048
:1027200000127A00180000201A0000200146114A09
:1027300012884A434FF0E0235A6100229A611A46F8
:10274000126942F001021A6100BF4FF0E0221069E5
:1027500000F001021AB100F48032002AF5D04FF0E7
:10276000E022126922F001024FF0E0231A610022F8
:102770009A6170471A0000200146114A12784A43B4
:102780004FF0E0235A6100229A611A46126942F022
:1027900001021A6100BF4FF0E022106900F001024F
:1027A0001AB100F48032002AF5D04FF0E02212690D
:1027B00022F001024FF0E0231A6100229A61704773
:1027C0001800002070B504460D46E1B20548FFF739
:1027D0001EFB00BF80210348FFF74CFA0128F9D106
:1027E000204670BD00380140FFF77EFF4FF4A06027
:1027F000FEF7B8FAFEF79AF94FF4E130FFF7B2F8B6
:102800004FF41650FFF7D8F9FEF7AEF9FEF728F9A6
:10281000FEF742FBFDF742FFFDF75CFF28A2012116
:102820000846FEF707FC28A201210220FEF702FC61
:1028300005E027A0FFF7F2FAC820FFF777FFFDF7C2
:102840008DFF0028F5D139E0254800780A2190FB5A
:10285000F1F201FB1200D8B922492348FDF7D3FF5A
:1028600002232148027806210120FEF7C1FB022342
:102870001C48027806211846FEF7BAFB1A48017870
:102880001AA0FFF7CBFA174801781CA0FFF7C6FA89
:102890000A20FFF74BFF12480078401C10490870CF
:1028A00008460078142809D10020087017480068ED
:1028B00008B9012000E0002014490860C4E70000C6
:1028C00054656D703A00000048756D693A0000006B
:1028D0004448543131204572726F720D0A00000075
:1028E00000000020020000200100002074656D70CF
:1028F000657261747572653A2564090068756D6961
:10290000646974793A25640D0A000000B40122421A
:1029100000000000000000000000000000000000B7
:10292000000000F80000000000000033300000004C
:1029300000100C06100C0600000000000000000053
:1029400040C07840C0784000043F04043F040400C5
:10295000007088FC08300000001820FF211E0000D5
:10296000F008F000E018000000211C031E211E00EA
:1029700000F00888700000001E2123241927211070
:1029800010160E0000000000000000000000000013
:10299000000000E0180402000000000718204000BA
:1029A00000020418E00000000040201807000000AA
:1029B000404080F0804040000202010F010202000E
:1029C000000000F0000000000101011F01010100F2
:1029D000000000000000000080B070000000000057
:1029E00000000000000000000001010101010101E0
:1029F0000000000000000000003030000000000077
:102A0000000000008060180400601806010000004B
:102A100000E010080810E000000F102020100F0048
:102A2000001010F8000000000020203F20200000CF
:102A30000070080808887000003028242221300027
:102A400000300888884830000018202020110E002F
:102A50000000C02010F8000000070424243F2400D8
:102A600000F80888880808000019212020110E00AD
:102A700000E0108888180000000F112020110E00BF
:102A800000380808C83808000000003F00000000B7
:102A90000070880808887000001C222121221C0078
:102AA00000E010080810E0000000312222110F00A1
:102AB000000000C0C0000000000000303000000036
:102AC00000000080000000000000806000000000A6
:102AD00000008040201008000001020408102000BF
:102AE000404040404040400004040404040404000A
:102AF000000810204080000000201008040201009F
:102B0000007048080808F00000000030360100009E
:102B1000C030C828E810E0000718272423140B0051
:102B20000000C038E0000000203C230202273820CB
:102B300008F8888888700000203F202020110E00AF
:102B4000C0300808080838000718202020100800A6
:102B500008F808080810E000203F202020100F008F
:102B600008F88888E8081000203F2020232018005B
:102B700008F88888E8081000203F200003000000C3
:102B8000C03008080838000007182020221E020064
:102B900008F808000008F808203F210101213F2023
:102BA000000808F8080800000020203F202000004E
:102BB00000000808F8080800C08080807F0000003E
:102BC00008F888C028180800203F20012638200077
:102BD00008F8080000000000203F202020203000DE
:102BE00008F8F800F8F80800203F003F003F2000F8
:102BF00008F830C00008F808203F200007183F0000
:102C0000E01008080810E0000F10202020100F002E
:102C100008F808080808F000203F21010101000021
:102C2000E01008080810E0000F18242438504F0066
:102C300008F8888888887000203F2000030C302026
:102C400000708808080838000038202121221C0064
:102C5000180808F8080818000000203F20000000AD
:102C600008F808000008F808001F202020201F0096
:102C70000878880000C83808000007380E010000F6
:102C8000F80800F80008F800033C0700073C0300C0
:102C9000081868808068180820302C03032C302026
:102CA0000838C800C83808000000203F2000000095
:102CB00010080808C83808002038262120201800ED
:102CC000000000FE020202000000007F40404000C1
:102CD000000C30C000000000000000010638C000F9
:102CE00000020202FE000000004040407F000000A1
:102CF00000000402020204000000000000000000C6
:102D000000000000000000008080808080808080C3
:102D100000020204000000000000000000000000AB
:102D200000008080808000000019242222223F20A1
:102D300008F8008080000000003F112020110E00E4
:102D40000000008080800000000E11202020110073
:102D5000000000808088F800000E112020103F2025
:102D60000000808080800000001F222222221300A9
:102D7000008080F0888888180020203F20200000F4
:102D80000000808080808000006B949494936000A9
:102D900008F8008080800000203F210000203F20B4
:102DA00000809898000000000020203F20200000B4
:102DB000000000809898000000C08080807F0000A4
:102DC00008F8000080808000203F24022D30200081
:102DD000000808F8000000000020203F202000002C
:102DE0008080808080808000203F20003F20003F46
:102DF0008080008080800000203F210000203F2054
:102E00000000808080800000001F202020201F0004
:102E1000808000808000000080FFA12020110E0033
:102E20000000008080808000000E112020A0FF8024
:102E3000808080008080800020203F2120000100D1
:102E40000000808080808000003324242424190026
:102E5000008080E0808000000000001F2020000033
:102E60008080000000808000001F202020103F2074
:102E7000808080000080808000010E300806010004
:102E800080800080008080800F300C030C300F00A9
:102E900000808000808080000020312E0E312000D4
:102EA000808080000080808080818E701806010004
:102EB00000808080808080000021302C2221300022
:102EC00000000000807C020200000000003F404043
:102ED00000000000FF00000000000000FF000000F4
:102EE0000002027C800000000040403F0000000023
:102EF00000060101020204040000000000000000BE
:102F0000202F000800000020440000003C1E0008A4
:102F1000642F000844000020540400004C1E0008E8
:102F20000000000000A24A040000000000000000B1
:102F30000102030406070809000000000000000069
:102F40000000000000000000000000010203040176
:102F50000203040607080902040608000000000036
:042F6000000000006D
:0400000508000105E9
:00000001FF
