:020000040800F2
:100000008007002035020008D92D00082D2A00089D
:10001000472C000835210008F745000800000000C3
:10002000000000000000000000000000313900085E
:10003000B52200080000000085310008453A00089C
:100040004F0200084F0200084F0200084F0200084C
:100050004F0200084F020008B92200084F020008B2
:100060004F0200084F020008E12200084F0200087A
:100070004F0200084F0200084F0200084F0200081C
:100080004F0200084F0200084F0200084F0200080C
:100090004F0200084F0200084F0200084F020008FC
:1000A0004F0200084F0200084F0200084F020008EC
:1000B0004F0200084F020008A93A00084F0200084A
:1000C0004F0200084F0200084F0200084F020008CC
:1000D0004F0200088940000899430008DD430008EA
:1000E0004F0200084F0200084F02000800F002F81B
:1000F00000F090F80AA090E8000C82448344AAF132
:100100000107DA4501D100F085F8AFF2090EBAE82F
:100110000F0013F0010F18BFFB1A43F0010318473B
:10012000846E0000A46E0000103A24BF78C878C125
:10013000FAD8520724BF30C830C144BF04680C60ED
:10014000704700000023002400250026103A28BF35
:1001500078C1FBD8520728BF30C148BF0B60704739
:100160006E2900F02283702900F06981662906F06B
:10017000E685652906F0E385672906F0E0856129B3
:10018000AFF3008003681B0A28BF41F08001692992
:1001900000F0DA80642900F0D780752900F0D4805F
:1001A0006F2900F02286782900F03581E92900F0D6
:1001B000BD85E42900F0BA85F52900F0B785EF295F
:1001C00000F01F86F82900F034810368DB0928BF9E
:1001D00041F08001632900F02D85732900F03285FC
:1001E000E32900F0B186F32900F0B68600207047BD
:1001F0001FB500F011FE04000020002105F008FCEE
:10020000401C60600020002105F0ECFBE0601FBD99
:1002100010B510BD00F03EFF1146FFF7E9FF04F0F6
:10022000A9FE00F065FF03B4FFF7F2FF03BC04F082
:1002300006FD00000948804709480047FEE7FEE741
:10024000FEE7FEE7FEE7FEE7FEE7FEE7FEE7FEE786
:1002500004480549054A064B70470000493A000822
:10026000ED000008800100208007002080030020AE
:1002700080030020704700000FB4044910B503AAA2
:10028000029800F0E3FC10BC5DF814FB1C00002099
:100290000FB4044910B503AA029800F0D7FC10BCB3
:1002A0005DF814FB1C00002070B5044685690068E9
:1002B000C10601D5302600E02026C00707D070BD5A
:1002C000D4E9012130469047206A401C20626D1E0F
:1002D000F6D570BD70B5044685690078C00707D1B2
:1002E00070BDD4E9012120209047206A401C206283
:1002F0006D1EF6D570BD70B50C460546012A05D0B9
:100300002878800600D5EA69002302E0012305E091
:100310005B1C934202D2E05C0028F9D1A869E61880
:10032000C01AA861286A184428622846FFF7BCFF53
:1003300004E0D5E9012114F8010B9047B442F8D349
:100340002846FFF7C7FF70BD2DE9F041064600249F
:1003500010687529314616A510D000F0BBF90028A9
:1003600002DA404213A507E031688A0701D512A5D9
:1003700002E0490704D511A5012401E000F0B3F91A
:1003800000210A2206F1240709E0B0FBF2FCB0FBD1
:10039000F2F302FB1C00303078541846491C002848
:1003A000F3D123462A463046BDE8F04100F0A4B917
:1003B000000000002D0000002B00000020000000C5
:1003C000F0B40D460188090502D5214C7C4402E0B9
:1003D0001F4C7C440E34002100F1240608E002F09A
:1003E0000F071209E75D42EA03721B097754491CA3
:1003F00052EA0307F3D102780023120704D5702DC7
:1004000006D009B1022311342246F0BC00F074B9C1
:1004100001231034F8E770B504460D4621461068F4
:1004200000F061F9024629462046BDE870400023ED
:10043000C6E7D21D22F00703D3E90023C0E7036813
:10044000126843F0200303600823C3610023B7E769
:100450006C6A00002DE9F05F894604464FF0000AFF
:10046000DFF874B1FB44C0F820A02046E16888475B
:10047000002874D0252806D0D4E901219047206AAD
:10048000401C2062F1E700265F462046E16888476D
:100490002028054607DB312D05D2781910F8200CED
:1004A00008B10643F1E7B00701D526F00406C4F809
:1004B0001CA00027C4F818A02A2D09D0284604F053
:1004C000B7FB38B304EB8708303DC8F8185019E083
:1004D00059F8041B204604EB87029161E1688847C4
:1004E000012F054618D1E069002820DA26F0200601
:1004F0001DE0D8F8180000EB800005EB4000303814
:10050000C8F818002046E1688847054604F090FBCB
:100510000028EED1012F0AD02E2D08D12046E16807
:1005200088477F1C0546022F46F02006C4DBA069E1
:10053000002803DA404246F00106A061F00701D02E
:1005400026F010066C2D0BD0682D09D04C2D39D01B
:100550006A2D35D0742D35D07A2D33D016E038E0A1
:10056000E1682F4620468847B842054609D16C2FDE
:1005700026D04FF48060E168064320468847054650
:1005800004E06C2F1AD04FF4807006430DB3A5F130
:100590004100192802D8203546F400664A4629460B
:1005A000204626604E46FFF7DBFD80B101280BD0C8
:1005B000F61D26F0070000F1080956E74020E4E7A1
:1005C0008020D8E70020D6E706F104094DE7284649
:1005D00052E7206ABDE8F09FFC69000040EA010391
:1005E000024630B59B0710D14FF0013400E008C23D
:1005F00008C91D1B9D4315EAC41FF8D013F0FF0165
:1006000002F8011B0DD01B0AF8E711F8013B002B83
:1006100002F8013B05D011F8013B002B02F8013B29
:10062000F3D130BD4FF000020429C0F0128010F069
:10063000030C00F01B80CCF1040CBCF1020F18BFBE
:1006400000F8012BA8BF20F8022BA1EB0C0100F051
:100650000DB85FEAC17C24BF00F8012B00F8012B24
:1006600048BF00F8012B70474FF0000200B5134659
:1006700094469646203922BFA0E80C50A0E80C50C2
:10068000B1F12001BFF4F7AF090728BFA0E80C5073
:1006900048BF0CC05DF804EB890028BF40F8042B6C
:1006A00008BF704748BF20F8022B11F0804F18BFD9
:1006B00000F8012B7047704770477047704710B5BE
:1006C00000F0AEFB006810BD10B5044600F0A8FBBA
:1006D000046010BD09684A0501D540B27047C905DC
:1006E000FCD500B2704709684A0501D5C0B2704711
:1006F000C905FCD580B270472DE9F0470D469946F3
:100700009246044600F124080168880604D5E06991
:1007100021F01001216000E00120A84201DD471B0B
:1007200000E00027A1697A1902EB0900081AA0610C
:100730002078C00602D42046FFF7B6FD002608E068
:10074000D4E901211AF806009047206A401C761C63
:1007500020624E45F4DB2078C0060AD52046FFF71C
:10076000A3FD06E0D4E9012130209047206A401C17
:100770002062381EA7F10107F4DC07E0D4E901216B
:1007800018F805009047206A401C2062281EA5F139
:100790000105F3DC2046FFF79DFD2078000602D519
:1007A0000220BDE8F0870120FBE711680268006ABB
:1007B000530501D508700AE0D30501D5088006E08D
:1007C000130603D5C217C1E9000200E0086001204A
:1007D000704770472DE9FF4F0C461E464FF0FF371C
:1007E0008BB0D2E90001DDF860800A908A46C1F33F
:1007F0000A5505B93D46002108464FF00000BAF100
:10080000000F00F4400005DA00EB80004FF44001D7
:1008100001EA50004FEA9059B9F1010F00DDB946E5
:100820000A9850EA4A000ED044F61050A5F2FF355F
:1008300045432F14B8F1000F1ED07542291E1EDD4E
:10084000C9F100021CE0B8F1010F4FF0000001D027
:10085000302103E0F24305E02154401CB042FBDBB1
:1008600030460022002121540B99C1F80880C1E9CB
:1008700000200FB0BDE8F08FBD1B6D1CDEE74A46BF
:1008800000DA694206A800F06BFB06AB93E80700AC
:1008900003AB83E8070050460A9900F073FC8DE82B
:1008A0000700A0F500501F3800900398002D0ADDC6
:1008B00042F21F014A460844002303A903906846F8
:1008C00000F0DCFE09E0A0F500504A461F38002386
:1008D00003A90390684600F0E6FE8DE807000004D7
:1008E000000C03D04FF0FF30410800E01046B8F193
:1008F000000F03D00022009215461EE0751E05D49D
:1009000000F092FA303262556D1EF9D5B3460122DD
:10091000084302D000227F1C04E02078302801D157
:1009200000227F1E002A099784D01DE0112D07DACE
:1009300000F07AFA303262556D1C50EA0102F5D1AE
:10094000084302D00098C8B10EE00021681E05E0FF
:10095000235C625C63542254401E491C8142F7DBD5
:10096000AB46A81B401E0990002004F80B000B9812
:10097000099AC0F80880C0E9002B7AE711264FF0E9
:10098000000857E72DE9F04F88460446D21D22F0B3
:10099000070191B0D1E90001CDE90A0104F0BEF8E8
:1009A00002460B98C00F01D02D2007E02068810778
:1009B00001D52B2002E0202101EAC000032A099082
:1009C00001D0072A05DB03464146204600F072FAB3
:1009D0000BE12078800601D5E06900E00620B8F13F
:1009E000650F814606D0B8F1660F18D0B8F1670FD1
:1009F00070D131E00020B9F1110F009001DB11231B
:100A000001E009F101030AAA01A90CA8FFF7E2FE1F
:100A1000DDE90C70002609F10105834647E001205D
:100A20004B4600904FF000470AAA01A90CA8FFF717
:100A3000D1FEDDE90DB00C995D46002610B909F133
:100A400001000D18B9EB050003D4C0F1FF3609F120
:100A50000105A5EB09002BE0B9F1010F01DA4FF018
:100A600001090020B9F1110F0090484601DD112362
:100A700000E003460AAA01A90CA8FFF7ABFEDDE9D6
:100A80000C704D4600268346207800070AD4AB45FB
:100A900000DA5D4601A8012D04DD411911F8011CA1
:100AA000302907D04F4502DA17F1040F04DA01208C
:100AB00082460FE06D1EEEE7002F02DCED1B3E4488
:100AC00003E0781CA84200DD7D1CB81B00F1010A80
:100AD0004FF000472078000703D4AA4501DB4FF010
:100AE000FF3A0021B7F1004F0DF143088DF8431094
:100AF00024D002202B23002F01DA7F422D230A214C
:100B0000021EA0F1010000DC5FB197FBF1FC97FB36
:100B1000F1F201FB1C7C17460CF1300C08F801CDFA
:100B2000EEE7A8F1010003702188090501D54521F0
:100B300000E06521A0F1010800F8011C09980FA947
:100B4000A1EB0807FF1D00B10120411901EBEA707C
:100B5000A1693844081A401EA0612078C00602D45A
:100B60002046FFF7A1FB099828B1D4E9012190475D
:100B7000206A401C20622078C00622D52046FFF75C
:100B800093FB1EE0002E04DBB34502DD01A8805D6F
:100B900000E03020D4E901219047206A401C206207
:100BA000761CAAF101005FEA000A0AD100F034F9CC
:100BB000C0680168405CD4E901219047206A401C6C
:100BC0002062281EA5F10105DCDC07E0D4E9012143
:100BD00018F8010B9047206A401C2062381EA7F1CC
:100BE0000107F3DC2046FFF775FB032011B041E657
:100BF00001694A1C02610878704700B58FB0CDE9E1
:100C000001310021059105497944CDE903101146D0
:100C10006846FFF71FFC0FB000BD0000E5FFFFFFB7
:100C200010B5436913B1AFF3008001E0FFF763FB38
:100C3000012010BD127800F124010A7000224A70D0
:100C40000122EDE711684FF0FF32E9E7074B70B57D
:100C50000D467B44FFF7D1FF0446284600F0F2F929
:100C600010B14FF0FF3070BD204670BD83410000D1
:100C70002DE9FF5F15468A460446DFF8AC80F8444C
:100C80000027D8E900103E46CDE9001010E03AF800
:100C900016106A4602A800F0D9F9411C07D0217845
:100CA000890603D5E269391891420DD80744761CAC
:100CB0002078800602D5E069B84205DDAE42E6DB69
:100CC0003AF816000028E2D1A069C01BA0612046B6
:100CD000FFF7EAFAD8E90010CDE90010002017E08C
:100CE0003AF818106A4602A800F0B0F9B0F1FF3FD8
:100CF00081460BD000250DF1080B05E0D4E9012158
:100D00001BF8050090476D1C4D45F7D308F1010015
:100D1000B0428046E4DB206A384420622046FFF778
:100D2000D9FABDE8FF9F00007E6200002DE9F04186
:100D30008046D21D22F007020025D2E90002F529E3
:100D400015A614D0011E72F1000106DA0023D0EBC3
:100D5000030063EB020211A608E0D8F800108B072D
:100D600001D50FA602E0490701D50EA601251146BF
:100D7000002408F1240704E000F056F830323A5518
:100D8000641C50EA0102F7D12B4632462146404608
:100D9000BDE8F041FFF7B0BC000000002D000000EE
:100DA0002B0000002000000030B4002100F12404DA
:100DB00008E002F00705D208303542EA4372DB084A
:100DC0006554491C52EA0305F3D10468002310A2BC
:100DD000250707D5A40600D421B1C46901230DA2BB
:100DE000641EC46130BCFFF787BC10B504462146C1
:100DF0001068FFF778FC02462046BDE8104000234B
:100E0000D2E7D21D22F00701D1E90023CCE7000090
:100E10000000000030000000004870474001002042
:100E2000004870472001002030B5B0F10A024FEAB7
:100E3000900E71F100034EEA817EB0EB0E0061EB83
:100E400091014FEA101E4EEA017E10EB0E0041EBBD
:100E500011114FEA102E4EEA016E10EB0E0041EB1D
:100E600011214FEA104E4EEA014E10EB0E0041EBFD
:100E70001141401841F100014FEAD00040EA4170B1
:100E80004FEAD10110EB80054FEA810444EA9074E7
:100E900044EB01046D1944EB0404521BA3414FF0D1
:100EA000000348BF0A3200D530BD401C41F10001AB
:100EB00030BD00002DE9F0411F46044603260168BD
:100EC000072A01F4006004DB08B116A505E016A5A9
:100ED00003E008B115A500E015A521F01000206081
:100EE000A069C01EA0610FB1401EA0612046FFF79F
:100EF000DBF94FB1D4E9012138469047206A401C04
:100F00002062C01C206206E0206AFAE7D4E90121D1
:100F100015F8010B9047761EF8D22046FFF7DAF954
:100F2000BDE8F0814E414E006E616E00494E4600B4
:100F3000696E660010B5436913B1AFF3008001E03C
:100F4000FFF796FE012010BD128800F12401828473
:100F50000022C2840122EDE711684FF0FF32E9E779
:100F60002DE9F047814616468AB0354878440DC8C9
:100F70008DE80D0032487844801C03AC0DC884E82D
:100F80000D0041F69B300844372190FBF1F290FBB5
:100F9000F1F5A5F1800501FB12041B3C02D564426A
:100FA000012000E00020DFF898A080460027FA44E6
:100FB000AAF1BE0A0EE0E0070AD03246684607EB07
:100FC000470101230AEB810100F06DFB8DE807006A
:100FD00064107F1C002CEED1194F7F44AE3F19E006
:100FE000E80715D007EB04100DF1180A90E80E0081
:100FF0008AE80E00C068F04201D198190890324684
:10100000012306A903A800F04EFB03AB83E8070009
:101010006D10641C002DE3D14FF001033246694688
:10102000B8F1000F03A802D000F028FB01E000F0A7
:101030003AFBC9E90001C9F808200AB0BDE8F08709
:101040001C600000007B00F08000704770B5164601
:101050000C46054600F044F8036893F801010128A6
:1010600006D0FF2C0FD8185D68B101202C7070BD20
:10107000D3F807013246214603F2071303442846FA
:10108000BDE8704018474FF0FF3070BD0048704712
:10109000200100207546FFF7F9FFAE4605006946BE
:1010A000534620F00700854618B020B5FFF7D0F86A
:1010B000BDE820404FF000064FF000074FF0000859
:1010C0004FF0000B21F00701AC46ACE8C009ACE8DA
:1010D000C009ACE8C009ACE8C0098D467047000003
:1010E00010B5FFF799FE001D10BD00BF2549000097
:1010F00010B50446AFF300802046BDE81040FFF76E
:1011000092B800004FF0013C50F8042B51F8043B1A
:101110009A4221D1A2EB0C03934313EACC1317D1CB
:1011200050F8042B51F8043B9A4215D1A2EB0C0362
:10113000934313EACC130BD150F8042B51F8043B22
:101140009A4209D1A2EB0C03934313EACC13DBD0F0
:101150004FF00000704700BFD01A01BAB1FA81F118
:1011600001F0180122FA01F0CB40C1F12001DBB2FD
:10117000C0B2C01A2CFA01F3D11A914311EAC3117B
:10118000E6D170475FEA400C08BF91F0000F4FEACC
:101190008C234FEAC12243EA51514FEA1C5018BF39
:1011A00000F5F0404FEA300018BF41F000415FEA1F
:1011B0006C5C00F02980BCF1FF3F08BF40F080402C
:1011C0007047130C06BF12044FF0100C4FF0000CC8
:1011D000130E04BF12020CF1080C130F04BF12010E
:1011E0000CF1040C930F04BF92000CF1020CD30F0E
:1011F00004BF52000CF1010C11464FF00002A0F1A7
:101200001F00A0EB0C00704711F0004F08BF7047A3
:1012100031F000413FF4D5AF0B0C06BF09044FF08D
:10122000100C4FF0000C0B0E04BF09020CF1080C5F
:101230000B0F04BF09010CF1040C8B0F04BF8900D4
:101240000CF1020CCB0F04BF49000CF1010CCCF1E6
:101250002003A0EB0C0022FA03F302FA0CF241EA9D
:10126000030100F10100704720F07F4C80EA030089
:1012700023F07F47ACEB070303F57C5300F00040FD
:1012800003F1FF032DE980494FEA154B09B44FEAFA
:10129000144325EA0B4E24EA03480FF2042606EB1A
:1012A000132749083E785FEA320203FB0667C7F559
:1012B000000707FB06F64FEA54374FEAD64606F119
:1012C000020607FB066CCCF1005C4FEA1C472CEAD7
:1012D000074C07FB06F40CFB06F504EB15464FEA3A
:1012E000961634BF00204FF000404FEAD13706FB7E
:1012F00007FC4FEA1C4C0CFB0BF7D21B03FB0CF753
:1013000061EB07010CFB0EF7B0EB074072EB1742E5
:101310000CFB08F734BFA2EB0742B2EB074261EBCC
:1013200017414FEA0C444FEA910706FB07FC4FEACE
:101330001C4C0CFB0BF7B0EBC74072EB573203FBB6
:101340000CF734BFA2EBC742B2EBC74261EB573197
:101350000CFB0EF7B0EBC70072EB57720CFB08F7F3
:1013600034BFA2EBC702B2EBC70261EB5771039F18
:101370004FEA816141EA921104EBCC044FEAD13784
:101380004FEA826206FB07FC42EA90124FEA806055
:101390004FEA1C4C0CFB0BF7D21B03FB0CF761EB69
:1013A00007010CFB0EF7B0EB074072EB17420CFB8A
:1013B00008F734BFA2EB0742B2EB074261EB1741DB
:1013C0004FEA8C554FEA910704EB9C2406FB07FC7F
:1013D0004FEA1C4C0CFB0BF7B0EBC74072EB5732DB
:1013E00003FB0CF734BFA2EBC742B2EBC74261EB81
:1013F00057310CFB0EF7B0EBC70072EB57720CFBCA
:1014000008F734BFA2EBC702B2EBC70261EB57711A
:1014100015EB4C254FEA816141EA92114FEA826255
:101420004FEAD13742EA901206FB07FC44F1000470
:101430004FEA80604FEA1C4C0CFB0BF7D21B03FBFE
:101440000CF761EB07010CFB0EF7B0EB074072EBFA
:1014500017420CFB08F734BFA2EB0742B2EB07427E
:1014600061EB174115EB1C154FEA813141EA9241BE
:101470004FEA823242EA90424FEA80304FEA0C76DD
:1014800044F1000448EA03434EEA0B484FF0000ED3
:10149000B2EB080C71EB030724BF624639464EEBF2
:1014A0000E0E4FF0000B0018524149414BEB0B0B55
:1014B000B2EB080C71EB03077BF1000B24BF624613
:1014C00039464EEB0E0E4FF0000B001852414941C9
:1014D0004BEB0B0BB2EB080C71EB03077BF1000B32
:1014E00024BF624639464EEB0E0E51EA020718BF82
:1014F00046F0010616EB0E7655F1000254F100019C
:1015000003D5BDE88901BDE80088BDE88901BDE8D3
:101510000048B619524141EB0101A3F101037047A4
:1015200080807F7E7D7C7B7A797877767675747320
:10153000727171706F6E6E6D6C6C6B6A6A696868DF
:10154000676666656464636362616160605F5F5E75
:101550005E5D5D5C5C5B5B5A5A59595858575756EB
:101560005655555554545353525252515150505050
:101570004F4F4F4E4E4D4D4D4C4C4C4B4B4B4A4AA2
:101580004A494949484848474747474646464545E6
:10159000454444444443434343424242424141411F
:1015A000002B9C4630D477002BD01CB54FEA370770
:1015B00003B44FF010004FF01001BAF1000F06D045
:1015C000BCF1000FDCBF40F0080040F008014FF014
:1015D00000000FBCBDE810400BF1010BBBF1010F87
:1015E00008BF5FEA170722BF12F1010211F10101E2
:1015F0004FF0004143F1000300F0004043EA0000D7
:101600007047F9D35708D0E746EA064613F1400F72
:101610004FEA16461FDD13F1200FDFBF16430A46BF
:10162000002120335B42BED0C3F1200746EA0646C4
:1016300002FA07F74FEA164646EA0706C3F1200703
:1016400022FA03F201FA07F721FA03F14FF000033F
:1016500042EA0702A7E746EA020646EA06464FEADA
:10166000164646EA0106BCBF46EA0646360C4FF06F
:1016700000034FF000024FF0000194E72DE9804C89
:101680009A46934670B491E8380007C831EA400C96
:1016900048BF34EA430C03D5FFF7E6FDFFF780FFB0
:1016A000F0BCBDE8008C2DE9804C9A46934670B49E
:1016B00091E8380007C810F0804F08BF13F0804F42
:1016C00003D100F005F8FFF76BFFF0BCBDE8008C1C
:1016D00020F07F4780EA030023F07F4C07EB0C03E8
:1016E000A3F57C5300F00040A3F1FE0392F0000F3D
:1016F00000F0B38095F0000F00F077802DE90149EC
:101700004FEA11404FEA144621EA004800FB06FC6C
:1017100024EA064708FB06F607FB08F800FB07F774
:1017200018EB06484CEB164C4FEA124B18EB0748E7
:101730004FEA15464CEB174022EA0B4E0BFB06FC1A
:1017400025EA06470EFB06F607FB0EFE0BFB07F726
:101750001EEB064E4CEB164C4FF000061EEB074EF0
:101760004CEB174B18EB0B0840F1000018EB0E0B7D
:1017700058EB000840F100008F1A4FF000013CBF09
:10178000C943661B14BFB5EB040C00213CBFC94321
:10179000F61B4FEA17444EEA8E0E27EA04454FEA3D
:1017A0001C4704FB07622CEA074C05FB07F70CFB00
:1017B00005F604FB0CFC16EB074642EB174216EB52
:1017C0000C4642EB1C421BEB060658EB0202414161
:1017D00046EA9E0601D5BDE80189B619524141EBA2
:1017E0000101A3F10103BDE801894FEA14454FEA65
:1017F000114724EA054621EA074C05FB07F406FBDE
:1018000007F70CFB06F105FB0CFC11EB074144EB61
:1018100017444FEA124711EB0C4144EB1C4422EAF7
:10182000074C05FB07F206FB07F70CFB06F605FB6A
:101830000CFC16EB074642EB174216EB0C4642EB4C
:101840001C456A1854F1000148BF7047B61952414F
:1018500041EB0101A3F10103704795F0000F37D070
:101860004FEA11424FEA144721EA024624EA074CA4
:1018700002FB07F106FB07F70CFB06F402FB0CFC6E
:1018800014EB074441EB17414FEA154714EB0C44A6
:1018900041EB1C4125EA074C02FB07F506FB07F765
:1018A0000CFB06F602FB0CFC16EB074645EB174556
:1018B00016EB0C4645EB1C42121951F1000148BFD2
:1018C0007047B619524141EB0101A3F10103704782
:1018D0004FEA14454FEA114724EA054621EA074C2E
:1018E00005FB07F106FB07F70CFB06F24FF00006BD
:1018F00005FB0CFC12EB074241EB174112EB0C42CB
:1019000051EB1C4148BF7047921841EB0101A3F114
:10191000010370472DE9F04F99B04FF00009002006
:101920001890179016900120159014901021FA48E5
:1019300000F01EFE4FF40071F74800F019FE01247C
:101940000AE0F648005D2E2800D107E0F348015D6B
:10195000601E0EAA1154641C142CF2DB00BF00247C
:1019600018E0EE48005D2C2802D101201890641C7C
:10197000189801280DD1E948005D2E2802D14FF0BA
:10198000000909E0E548005D11A901F8090009F125
:101990000109641C142CE4DB00BF4FF000090A2489
:1019A0003AE00EA8005D30282EDB0EA8005D392835
:1019B0002ADC484604F0B7FA02460B46CDE900019E
:1019C0000020D74903F0FCFACDE904010EA9095D16
:1019D000A1F1300004F0A7FACDE90201DDE904230A
:1019E00004F0F4FACDE90801169804F09CFACDE968
:1019F0000601DDE9082304F053F8CDE90A0104F0FB
:101A000063FA169009F101099DF838002D2802D1DA
:101A10004FF0FF301490641E002CC2DA4FF0000922
:101A20000A243AE011A8005D30282EDB11A8005DE1
:101A300039282ADC484604F076FA02460B46CDE9FE
:101A400000010020B64903F0BBFACDE9040111A959
:101A5000095DA1F1300004F066FACDE90201DDE98B
:101A6000042304F0B3FACDE90801179804F05BFAF7
:101A7000CDE90601DDE9082304F012F8CDE90A01F9
:101A800004F022FA179009F101099DF844002D286D
:101A900002D14FF0FF301590641E002CC2DA179966
:101AA00015984843179016991498484316909D49E5
:101AB0009D4A1798126841F822009C499A4A169844
:101AC000126841F8220098480068401C9649086056
:101AD0000846006805287DD100200860814636E070
:101AE00000242EE08F4850F824100246601C52F863
:101AF000200081420DDD104650F824000D90114663
:101B0000601C51F8200041F82400611C0D9842F837
:101B10002100864850F824100246601C52F820002C
:101B200081420DDD104650F824000C901146601CD7
:101B300051F8200041F82400611C0C9842F8210063
:101B4000641CC9F10500A042CCDC09F10109B9F11E
:101B5000040FC5DB7348806817907448806816903E
:101B60007F2043425A2251420090179801F060F8BA
:101B700082467F2043425A2251420090169801F03B
:101B800057F88346CAF1000000EB0B05CAF10000CC
:101B9000A0EB0B06CAF1000000EB0B07CAF1000036
:101BA000A0EB0B0840F2F31043427F225142009019
:101BB000284601F03DF8054640F2F31043427F22EB
:101BC00051420090304601F033F8064640F2F310DF
:101BD000434200E0ECE07F2251420090384601F0A1
:101BE00027F8074640F2F31043427F22514200900B
:101BF000404601F01DF88046142D03DA15F1140F4C
:101C000000DD0025142E03DA16F1140F00DD002686
:101C1000142F03DA17F1140F00DD0027B8F1140FA9
:101C200004DA18F1140F01DD4FF00008B5F5FA7F62
:101C300001DB40F2F315B6F5FA7F01DB40F2F31653
:101C4000B7F5FA7F01DB40F2F317B8F5FA7F01DB55
:101C500040F2F31815F5FA7F01DC6FF4F97516F50B
:101C6000FA7F01DC6FF4F97617F5FA7F01DC6FF487
:101C7000F97718F5FA7F01DC6FF4F978002D0BDBAA
:101C8000C5F5FA7081B24FF0804002F0A6F940210C
:101C9000214800F06DFC10E0002D0EDA281E01DB5B
:101CA000014600E041420D46A9B24FF0804002F0EB
:101CB00094F94021184800F059FC002E09DBB1B21C
:101CC0004FF0804002F087F92021134800F04EFCCD
:101CD00012E0002E10DA301E01DB014600E0414226
:101CE0000E46C6F5FA7081B24FF0804002F073F9EB
:101CF0002021094800F03CFC002F19DBC7F5FA70E1
:101D000081B24FF0804002F062F94FF480710248D6
:101D100000F02EFC1EE00000000C014088000020B6
:101D200000002440F8000020640000200C01002086
:101D3000002F0FDA381E01DB014600E041420F465A
:101D4000B9B24FF0804002F042F94FF480711F4861
:101D500000F00CFCB8F1000F0ADB1FFA88F14FF01D
:101D6000804002F036F98021184800F0FFFB14E0B3
:101D7000B8F1000F11DAB8F1000001DB014600E014
:101D800041428846C8F5FA7081B24FF0804002F0B7
:101D900020F980210D4800F0EBFB14210C48FEF7E0
:101DA00063FC14210B48FEF75FFC012002F09AFF50
:101DB00000200E900F90109011901290139001201F
:101DC00002F090FF19B0BDE8F08F0000000C014058
:101DD000F80000200C0100202DE9F04F85B03220E2
:101DE0000490039002900190B04800784C2815D1DF
:101DF000AE48C0783038AD498978303901EB81017F
:101E000000EB41000490A94880793038A74949790E
:101E1000303901EB810100EB41000390A4480078C8
:101E2000522815D1A248C0783038A1498978303974
:101E300001EB810100EB410002909D488079303830
:101E40009B494979303901EB810100EB4100019058
:101E50007F2043425A220A210090049800F0E8FEB5
:101E600080467F2043425A220A210090039800F0C6
:101E7000DFFE81467F2043425A220A2100900298C9
:101E800000F0D6FE82467F2043425A220A2100906B
:101E9000019800F0CDFE8346C9F100004044A0EB5C
:101EA0000B0000EB0A04C9F10000A0EB0800A0EB56
:101EB0000B00A0EB0A05C9F100004044A0EB0B00A9
:101EC000A0EB0A06C9F10000A0EB0800A0EB0B0094
:101ED00000EB0A0740F2F31043427F225142009088
:101EE000204600F0A5FE044640F2F31043427F2254
:101EF00051420090284600F09BFE054640F2F31048
:101F000043427F2251420090304600F091FE064647
:101F100040F2F31043427F2251420090384600F0D5
:101F200087FE0746142C03DA14F1140F00DD002499
:101F3000142D03DA15F1140F00DD0025142E03DA39
:101F400016F1140F00DD0026142F03DA17F1140F19
:101F500000DD0027B4F5FA7F01DB40F2F314B5F59C
:101F6000FA7F01DB40F2F315B6F5FA7F01DB40F2B0
:101F7000F316B7F5FA7F01DB40F2F31714F5FA7F99
:101F800001DC6FF4F97415F5FA7F01DC6FF4F97573
:101F900016F5FA7F01DC6FF4F97617F5FA7F01DCAC
:101FA0006FF4F977002C0BDBC4F5FA7081B24FF0B7
:101FB000804002F012F840213E4800F0D9FA10E0CB
:101FC000002C0EDA201E01DB014600E041420C46E7
:101FD000A1B24FF0804002F000F84021354800F0F7
:101FE000C5FA002D09DBA9B24FF0804001F0F3FFE4
:101FF0002021304800F0BAFA12E0002D10DA281E35
:1020000001DB014600E041420D46C5F5FA7081B2A0
:102010004FF0804001F0DFFF2021264800F0A8FAB1
:10202000002E0CDBC6F5FA7081B24FF0804001F053
:10203000CEFF4FF480711F4800F09AFA11E0002E95
:102040000FDA301E01DB014600E041420E46B1B21C
:102050004FF0804001F0BBFF4FF48071154800F055
:1020600085FA002F09DBB9B24FF0804001F0B1FFD3
:102070008021104800F07AFA12E0002F10DA381EA2
:1020800001DB014600E041420F46C7F5FA7081B21C
:102090004FF0804001F09DFF8021064800F068FA73
:1020A0000A2002F01FFE05B0BDE8F08F740000208A
:1020B0007E000020000C014010B51C48007801286B
:1020C00002D1FFF789FE2FE018480078022802D1DC
:1020D000FFF720FC28E015480078032802D100F023
:1020E0002DF921E011480078042802D100F044F9CC
:1020F0001AE00E480078052803D100200C4908702A
:1021000012E00A480078062803D101200849087027
:102110000AE006480078072803D102200449087025
:1021200002E0062000F092FD10BD00001900002022
:102130004E00002000BFFEE710B50021014801F06D
:10214000CDFC10BD0008004010B500F013FF54484E
:1021500000F070FF00284ED15148007820284AD066
:102160004F4800784C2807D14D484078592803D172
:1021700001204C4908703AE0494800784C2807D1C2
:1021800047484078582803D10220464908702EE07D
:1021900043480078502807DB4148C078522803DCC8
:1021A00003204049087022E03D480078422807D1CA
:1021B0003B4840785A2803D104203A49087016E079
:1021C00037480078472807D135484078532803D14D
:1021D0000520344908700AE031480078432806D1C8
:1021E0002F484078442802D106202E4908700A2042
:1021F00002F078FD02E001202A4908700A2002F06E
:1022000071FD28480078012802D1FFF755FF3DE015
:102210002448007802280BD108E002F0EFF92248A8
:102220000078012802D11F49087000E0F5E72DE091
:102230001C48007803280BD108E000F0B5F91B48D2
:102240000078012802D11749087000E0F5E71DE089
:1022500014480078042802D100F070F816E0114804
:102260000078052802D100F087F80FE00D480078CB
:1022700006280BD108E001F03FF90D48007801284D
:1022800002D10849087000E0F5E700BF00200749C7
:102290000870054908700649087001F07DF910BD05
:1022A000EC0000204A0000204B0000204C000020E1
:1022B0004D0000207047000010B5012000F02AF802
:1022C00040B105480068C0430449C1F8B401012089
:1022D00000F01AF810BD0000B401224200002242B2
:1022E00010B5102000F016F840B105480068C04352
:1022F0000449C1F8B401102000F006F810BD000038
:10230000B4012242000022420149086070470000E7
:1023100014040140014600200022074B1B6803EA19
:102320000102054B14331B680B4013B10AB10120A5
:1023300000E00020704700000004014010B500F0EC
:1023400077FB0446C82002F019FD0A49204604F034
:1023500045FB0DD8C82002F075FC4FF4C87002F0A0
:10236000C1FCC82000F036FC4FF4C87002F0BAFC83
:1023700010BD00000000704110B500F059FB04468C
:102380000D49204604F02AFB03D8C82002F05AFC6D
:1023900010E00A49204604F021FB08D808492046ED
:1023A00004F01CFC03D8C82002F0E8FC02E0062080
:1023B00000F04CFC10BD0000000020410000F04186
:1023C0000000A0412DE9F041024600250026002032
:1023D00000230024002791F803C00CF00F0591F8AA
:1023E00003C00CF0100CBCF1000F03D091F802C038
:1023F0004CEA050591F800C0BCF1000F31D014681B
:1024000000202BE04FF0010C0CFA00F3B1F800C0F3
:102410000CEA03069E4220D183004FF00F0C0CFA09
:1024200003F7BC4305FA03FC4CEA040491F803C02B
:10243000BCF1280F06D14FF0010C0CFA00FCC2F8D9
:1024400014C00AE091F803C0BCF1480F05D14FF069
:10245000010C0CFA00FCC2F810C0401C0828D1D3B3
:102460001460B1F800C0BCF1FF0F34DD54680020E7
:102470002EE000F1080C4FF0010808FA0CF3B1F857
:1024800000C00CEA03069E4221D183004FF00F0CDE
:102490000CFA03F7BC4305FA03FC4CEA040491F878
:1024A00003C0BCF1280F05D100F1080C08FA0CF8A4
:1024B000C2F8148091F803C0BCF1480F07D100F1B5
:1024C000080C4FF0010808FA0CF8C2F81080401C04
:1024D0000828CED35460BDE8F0810000F0B50A466C
:1024E000002300240021002500F00046B6F1004F33
:1024F00002D11D4EF16901E01B4E7168C0F3034526
:1025000083B200F44016B6F5401F08D121F0706187
:10251000154E766826F07066134F7E6012E000F468
:102520008016B6F5801F06D1032606FA05F4A143EE
:1025300041F0706106E0460D360103FA06F6B1433C
:1025400041F0706122B1460D360103FA06F63143BF
:1025500000F00046B6F1004F02D1034EF16101E0F8
:10256000014E7160F0BD0000000001404161704704
:102570000161704710B500BF094800884FF47A71B7
:1025800000FB01F4074801F0A9FB044400200549C1
:1025900024310880322002F0A5FB204610BD000047
:1025A0003E000020000800402DE9FF5F322003902C
:1025B000029000F0DFFC1021FE48FFF7D9FF4FF436
:1025C0000071FC48FFF7D4FFFB4800F033FD002802
:1025D0007DD1F94880783038F7494978303901EBB6
:1025E000810100EB41000390F34840793038F24913
:1025F0000979303901EB810100EB410002907F2025
:1026000043425A220A210090039800F011FB8046B1
:102610007F2043425A220A210090029800F008FBD2
:10262000814608EB0904A8EB090508EB0906A8EBAD
:10263000090740F2F31043427F22514200902046A6
:1026400000F0F6FA044640F2F31043427F22514272
:102650000090284600F0ECFA054640F2F3104342A1
:102660007F2251420090304600F0E2FA064640F2E6
:10267000F31043427F2251420090384600F0D8FACE
:102680000746142C03DA14F1140F00DD0024142D76
:1026900003DA15F1140F00DD0025142E03DA16F10C
:1026A000140F00DD0026142F03DA17F1140F00DDDC
:1026B0000027B4F5FA7F01DB40F2F314B5F5FA7F99
:1026C00001DB40F2F315B6F5FA7F03DB00E0ABE087
:1026D00040F2F316B7F5FA7F01DB40F2F31714F579
:1026E000FA7F01DC6FF4F97415F5FA7F01DC6FF401
:1026F000F97516F5FA7F01DC6FF4F97617F5FA7FB4
:1027000001DC6FF4F977002C0BDBC4F5FA7081B2B1
:102710004FF0804001F061FC4021A648FFF728FF00
:1027200010E0002C0EDA201E01DB014600E04142E1
:102730000C46A1B24FF0804001F04FFC40219D4873
:10274000FFF714FF002D09DBA9B24FF0804001F024
:1027500042FC20219748FFF709FF12E0002D10DA14
:10276000281E01DB014600E041420D46C5F5FA7026
:1027700081B24FF0804001F02EFC20218D48FFF700
:10278000F7FE002E0CDBC6F5FA7081B24FF08040E8
:1027900001F01DFC4FF480718648FFF7E9FE11E05F
:1027A000002E0FDA301E01DB014600E041420E46EA
:1027B000B1B24FF0804001F00AFC4FF480717D48C7
:1027C000FFF7D4FE002F09DBB9B24FF0804001F0D3
:1027D00000FC80217748FFF7C9FE12E0002F10DAD5
:1027E000381E01DB014600E041420F46C7F5FA7092
:1027F00081B24FF0804001F0ECFB80216D48FFF783
:10280000B7FE6D4800784D2811D16B4840785028AC
:102810000DD169488078552809D1062000F016FAB4
:1028200001206649087002E065A0FDF731FD6948A6
:10283000007878BB68486949694B6422CDE900108B
:1028400011466848006802F0D9FA66480068B0F599
:10285000B47F03D101206449087005E06148006835
:1028600010B90020604908705F48007828B95D48B9
:102870000068801C5B49086008E05B48007801281C
:1028800004D158480068801E564908600020574906
:1028900008701CE020E05048006804F053F800F095
:1028A000FF0A4E48006804F04DF8C0B201904C4851
:1028B000006804F047F800F0FF0B524658460199B3
:1028C00000F0F8FD49480078401C48490870474826
:1028D00000780628DFDBA0E03E480078012852D1CE
:1028E00043480078142190FBF1F201FB1200E8BB91
:1028F00000203E4908703CE03E4800784FF4B47137
:1029000090FBF1F201FB120A33483449344B642244
:10291000CDE900101146504602F070FA2E480068CA
:1029200004F010F800F0FF0A2C48006804F00AF8E0
:1029300000F0FF0B2A48006804F004F8C0B25246C9
:102940005946019000F0B6FD2A4800783C302949EC
:10295000087008460078B0F5B47F03DD00200870E9
:102960002349087021480078401C00E005E01F4919
:1029700008701E4800780628BEDB1D480078401C01
:102980001B49087049E013480078022845D11A48CD
:10299000007800F0A3FC19480078142190FBF1F2B4
:1029A00001FB120020B914480078401C124908703D
:1029B000114825E0000C0140D80000204C00002008
:1029C00052656365697665206661696C656420217E
:1029D0000A0000004E000020700000206C00002063
:1029E0006800002050000020540000205500002006
:1029F0005B0000205A0000205C0000205D000020E9
:102A00000078082804DD002006490870064908708F
:102A100004480078401C034908700A2002F062F95B
:102A2000BDE8FF9F5D0000205C00002000BFFEE7C6
:102A30002DE9F84F4FF0000A0024A346A14631E0EB
:102A4000012021490860142002F072F900201F497A
:102A5000C1F8A80100BF1C487C3800680028FAD0E3
:102A600000F07EFB641C00BF17487C38006801281A
:102A7000FAD0FFF761FBFFF77DFD8246504603F079
:102A800099FF009003F0B2FD07460022104B03F0BF
:102A9000C3F8054602F0D2FF83464946584603F084
:102AA000D1FD8146052CCBD1484603F09FFD07465A
:102AB0000022084B03F0B0F8054602F0BFFF834642
:102AC0005846BDE8F88F0000A881214200802142CD
:102AD00000004D40000014401FB50121082000F007
:102AE00073FB4FF48060ADF8000003208DF8020006
:102AF00010208DF8030069461F48FFF763FC4FF470
:102B000080611D48FFF732FD4FF40060ADF8000012
:102B100004208DF8030069461748FFF753FC4FF473
:102B200000611548FFF722FD0121042000F02CFB75
:102B3000124800F0DFFF40F2E730ADF80800472010
:102B4000ADF804000020ADF80A00ADF8060001A9B8
:102B50000A4801F047FA0121084800F0B9FF0122B4
:102B60001146064801F0CEF800F00AF800210348AB
:102B700000F0B4FF1FBD0000000C01400008004041
:102B800008B54FF4A06000F0E1FA1E208DF80000B7
:102B900000208DF801008DF8020001208DF803005F
:102BA000684600F09BFA08BD08B50121102000F02E
:102BB0000BFB4FF40050ADF8000010208DF803001F
:102BC00003208DF8020069460148FFF7FBFB08BDB2
:102BD0000010014010B50446C4F5FA7081B24FF000
:102BE000804001F0F4F94FF480711048FFF7C0FC09
:102BF000C4F5FA7081B24FF0804001F0EAF980210B
:102C00000A48FFF7B5FC21464FF0804001F0E3F998
:102C100020210648FFF7AAFC21464FF0804001F032
:102C2000DCF940210148FFF7A1FC10BD000C014078
:102C300070B50446049D601AEE1A7043561A90FB54
:102C4000F6F0184470BD00BFFEE7000010B5044662
:102C5000062C2ED110211D48FFF78AFC4FF400717D
:102C60001A48FFF785FC4FF4FA71080701F0AFF935
:102C70004FF480711548FFF77BFC00214FF0804036
:102C800001F0A7F980211148FFF770FC00214FF0F7
:102C9000804001F0A0F920210C48FFF767FC4FF4B9
:102CA000FA71080701F099F940210848FFF760FC24
:102CB0000AE0072C08D110210448FFF757FC4FF415
:102CC00000710248FFF752FC10BD0000000C0140EB
:102CD00008B50121082000F077FA4FF4F070ADF844
:102CE000000010208DF8030003208DF802006946D3
:102CF0000148FFF767FB08BD000C014010B54821F3
:102D00004FF4FA7000F006F8FFF7E2FF00F0EAFD7A
:102D100010BD000030B589B005460C4601210420E5
:102D200000F052FA0121084600F02EFA0F20ADF80B
:102D3000200003208DF8220018208DF8230008A918
:102D40002448FFF73FFB681E80B2ADF81800601EF4
:102D500080B2ADF814000020ADF81A00ADF81600EE
:102D60008DF81C0005A94FF0804001F03BF90121CE
:102D7000880700F0B3FE6020ADF804000120ADF834
:102D800006000020ADF80C0001A94FF0804000F0D3
:102D9000C3FF01A94FF0804001F014F801A94FF0E2
:102DA000804001F06FF801A94FF0804001F0C4F8B5
:102DB0000821C80600F0FCFF0821C80601F054F8FD
:102DC0000821C80601F0AEF80821C80601F0F2F8A3
:102DD00009B030BD00080140704700001CB511A1CA
:102DE00003C9CDE90001102000F030FD052269463D
:102DF000302000F03DF905226946102000F0E6F889
:102E0000002406E01DF80400A52800D003E0601CA3
:102E1000C4B2052CF6DB00BF052C01D001201CBD7F
:102E20000020FCE7A5A5A5A5A500000010B509E0B8
:102E30000AA0FDF72DFA0FA0FDF72AFA4FF47A70D9
:102E400001F050FFFFF7CAFF0028F1D10AA0FDF7FB
:102E50001FFA08A0FDF71CFA10BD00004E524632C2
:102E6000344C30315F436865636B206661696C6523
:102E7000642021000A0000004E524632344C3031AA
:102E80005F436865636B20737563636565642021C8
:102E90000000000000B587B00121082000F094F97F
:102EA0004FF48050ADF8180010208DF81B0003205F
:102EB0008DF81A0006A92B48FFF784FA4FF48051C9
:102EC0002848FFF755FB4FF4C040ADF8180006A99D
:102ED0002448FFF777FA4FF4C0412248FFF746FB3A
:102EE0004FF40040ADF8180028208DF81B0006A90B
:102EF0001C48FFF767FA4FF400411A48FFF736FB0A
:102F000000F034FC0021184800F0B4FC0020ADF8BB
:102F100004004FF48270ADF806000020ADF8080000
:102F2000ADF80A00ADF80C004FF40070ADF80E00DB
:102F30001820ADF810000020ADF812000720ADF801
:102F4000140001A9084800F0AFFC0121064800F078
:102F500091FC00200549086001200549C1F8B8012D
:102F600007B000BD000C014000300140B481214297
:102F70000080214210B50020114908600522114946
:102F80002A2000F075F80121212000F08FF801219E
:102F9000222000F08BF82821252000F087F820213E
:102FA000312000F083F80F21262000F07FF80F2158
:102FB000202000F07BF801200349C1F8B40110BDC6
:102FC000B4812142376E0008008021422DE9F04192
:102FD00007460D46164600200A490860384600F0AC
:102FE0000BFC8046002405E0FF2000F005FC28557E
:102FF000601CC4B2B442F7DB0120024908604046BD
:10300000BDE8F081B881214270B50446002007492F
:103010000860204600F0F0FBFF2000F0EDFB0546C5
:1030200001200349C1F8B801284670BDB88121428A
:103030000080214270B50446102000F007FC0720F4
:10304000FFF7E2FF05462946272000F02FF805F09C
:10305000400050B1202221466120FFF7B7FFFF2139
:10306000E22000F023F8002070BD0120FCE7000002
:103070002DE9F04107460C46154600200A49086034
:10308000384600F0B9FB8046002605E014F8010B35
:1030900000F0B2FB701CC6B2AE42F7DB0120024961
:1030A00008604046BDE8F081B881214270B5054610
:1030B0000C46002007490860284600F09DFB0646A4
:1030C000204600F099FB01200349C1F8B8013046C1
:1030D00070BD0000B88121420080214270B50021FE
:1030E00000230F22C47804B3154C246804F4E06470
:1030F000C4F5E064210AC1F10403CA40447804FA2B
:1031000003F184781440214309010E4C0678A1553F
:10311000047804F01F050124AC4005786D11AD0062
:1031200005F1E025C5F8004109E0047804F01F0529
:103130000124AC40044D0678761145F8264070BD58
:103140000CED00E000E400E080E100E00249014312
:10315000024A1160704700000000FA050CED00E023
:1031600010B50021054800F03BFF0020044908800D
:103170000121024800F0B2FC10BD00000008004030
:103180003E0000207047000029B1064AD269024380
:10319000044BDA6104E0034AD2698243014BDA61ED
:1031A000704700000010024029B1064A126902432C
:1031B000044B1A6104E0034A12698243014B1A610D
:1031C000704700000010024029B1064A926902438C
:1031D000044B9A6104E0034A92698243014B9A616D
:1031E000704700000010024029B1064AD26802432D
:1031F000044BDA6004E0034AD2688243014BDA6090
:10320000704700000010024030B500210022002469
:1032100000232D4D6D6805F00C0121B1042905D066
:10322000082923D105E0294D056022E0274D0560DE
:103230001FE0254D6D6805F47012234D6D6805F48F
:103240008034022505EB92421CB9214D554305609F
:103250000BE01D4D6D6805F400351DB11C4D554347
:10326000056002E0194D5543056002E0174D056009
:1032700000BF00BF144D6D6805F0F0010909154D40
:103280006B5C0568DD4045600F4D6D6805F4E061DD
:10329000090A104D6B5C4568DD4085600A4D6D681C
:1032A00005F46051C90A0B4D6B5C4568DD40C56093
:1032B000054D6D6805F44041890B074D6B5CC56891
:1032C000B5FBF3F5056130BD0010024000127A0035
:1032D00000093D00290000203900002070B5054696
:1032E000012D0BD1002406E000221146FF2000F042
:1032F000E1F8601CC4B2062CF6DB60E0022D0BD1B5
:10330000002406E00022A521FF2000F0D3F8601C75
:10331000C4B2062CF6DB52E0032D0BD1002406E0EC
:103320000022FF21084600F0C5F8601CC4B2062C3C
:10333000F6DB44E0042D0BD1002406E00022FF213F
:10334000104600F0B7F8601CC4B2062CF6DB36E07D
:10335000052D0BD1002406E0FF221146002000F0CD
:10336000A9F8601CC4B2062CF6DB28E0062D0BD1B0
:10337000002406E0FF220021084600F09BF8601CB4
:10338000C4B2062CF6DB1AE0072D0BD1002406E0B0
:10339000CB22C021FF2000F08DF8601CC4B2062CA7
:1033A000F6DB0CE0082D0AD1002406E0FF22002104
:1033B000104600F07FF8601CC4B2062CF6DB70BD2E
:1033C00008B501210820FFF7FFFE0120ADF800003D
:1033D00010208DF8030003208DF802006946044890
:1033E000FEF7F0FF01210248FFF7C2F808BD000018
:1033F000000C014010B501211648FFF7B9F800BFD5
:1034000000BF00BF00BF00BF00BF01211148FFF790
:10341000ADF800BF00BF00BF00BF00BF00BF00BFCE
:1034200000BF00BF00BF00BF00BF00BF00BF00BFA4
:1034300000BF00BF00BF00BF00BF00BF00BF00BF94
:1034400000BF00BF00BF00BF00BF00BF00BF00BF84
:1034500000BF10BD000C014010B501211448FFF75A
:1034600087F800BF00BF00BF00BF00BF00BF00BFA4
:1034700000BF00BF00BF00BF00BF00BF00BF00BF54
:1034800000BF00BF00BF00BF00BF00BF00BF0121E1
:103490000748FFF76BF800BF00BF00BF00BF00BFC9
:1034A00000BF00BF00BF00BF00BF00BF00BF10BD16
:1034B000000C014070B506460C461546304600F03B
:1034C00007F8204600F004F8284600F001F870BD27
:1034D00070B5044600250BE004F0800010B1FFF742
:1034E000BBFF01E0FFF786FF6006040E681CC5B253
:1034F000082DF1DB70BD000010B50620FFF7A6FB1C
:10350000FFF738FD1D48FFF795FD28BB1B480078E5
:10351000202829D01948007853280ED11748407820
:1035200054280AD1154880784F2806D11348C0780E
:10353000502802D1012012490870104880783028A4
:1035400003D100200F4908700EE00C488078312824
:1035500003D101200B49087006E008488078322822
:1035600002D10220074908700A2001F0BBFB054880
:10357000017805A0FCF78CFE10BD0000460000207D
:103580004D0000204E0000205247425F6D6F646581
:103590003D25640A000000007CB5694800780028D9
:1035A00050D168486849694B6422CDE90010114642
:1035B0006748006801F022FC65480068B0F5B47FF8
:1035C00003D101206349087005E06148006810B923
:1035D0000020604908705F48007828B95C4800689E
:1035E0000A305B49086008E05A480078012804D195
:1035F000574800680A385649086000205649087044
:1036000018E05048006803F09DF9C4B24E480068C5
:1036100003F098F9C5B24D48006803F093F9C6B2BB
:10362000224629463046FFF745FF4B480078401CAC
:1036300049490870484800780628E2DB642001F018
:1036400051FB7BE03E480078012851D14348007887
:10365000032190FBF1F201FB120000283FD13E490B
:10366000087038E03E4800784FF4B47190FBF1F2F6
:1036700001FB120433483449344B6422CDE9001075
:103680001146204601F0BAFB2E48006803F05AF9B3
:10369000C4B22D48006803F055F9C5B22B48006844
:1036A00003F050F9C6B2224629463046FFF702FF22
:1036B0002B4800783C302A49087008460078B0F55D
:1036C000B47F03DD00200870244908702248007888
:1036D000401C21490870204800780628C2DB1F489A
:1036E0000078401C1D490870642001F0FBFA25E0B9
:1036F00013480078022821D11A480078FFF7EEFD20
:1037000019480078032190FBF1F201FB120020B967
:1037100014480078401C13490870124800780828A3
:1037200004DD0020104908700E4908700E4800782A
:10373000401C0D490870642001F0D4FA7CBD0000E3
:103740004E000020700000206C0000206800002067
:103750005000002054000020550000205F00002091
:103760005E000020600000206100002000B587B0EE
:1037700001210420FFF728FD01210803FFF724FDA4
:10378000E020ADF8180018208DF81B0003208DF8FC
:103790001A0006A91648FEF715FEE0211448FEF7A8
:1037A000E7FE0020ADF804004FF48270ADF806008B
:1037B0000020ADF808000220ADF80A000120ADF8A5
:1037C0000C004002ADF80E003820ADF810000020CB
:1037D000ADF812000720ADF8140001A9054800F06B
:1037E00063F80121034800F045F807B000BD000070
:1037F000000801400030014070B50546002405E096
:10380000601CC4B2C82C01DD002070BD02210E482E
:1038100000F03CF80028F3D029460B4800F042F8AD
:10382000002405E0601CC4B2C82C01DD0020ECE7D8
:103830000121054800F02AF80028F3D0024800F0E2
:103840002EF8C0B2E1E700000030014010B5044698
:10385000074800884FF6C7710840054908800846A8
:103860000088204308800121014800F003F810BDC2
:103870000030014021B1028842F04002028004E0A1
:1038800002884FF6BF731A4002807047024600203C
:1038900013890B400BB1012000E000207047014666
:1038A000888970478181704710B50022028802F430
:1038B00041520B884C8823438C882343CC88234374
:1038C0000C8923434C8923438C892343CC8923438C
:1038D0001A430280838B4FF2FF74234083830B8A49
:1038E000038210BD08B501210820FFF76DFC0121FE
:1038F0000846FFF769FC01210B48FEF7EFFD4FF486
:103900000470ADF8000010208DF8030003208DF83E
:10391000020069460548FEF755FD4FF4047103485F
:10392000FEF724FE08BD000000023000000C01403C
:10393000704710B500F002F810BD00000CB5002073
:10394000019000903348006840F4803031490860AD
:1039500000BF3048006800F4003000900198401C1F
:103960000190009818B90198B0F5A06FF1D12948DD
:10397000006800F4003010B10120009001E0002048
:1039800000900098012843D12348006840F01000BF
:10399000214908600846006820F0030008600846D6
:1039A000006840F0020008601A4840681949486001
:1039B0000846406848600846406840F480604860B7
:1039C0000846406820F47C1048600846406840F48F
:1039D000E81048600846006840F08070086000BF4A
:1039E0000C48006800F000700028F9D009484068D1
:1039F00020F00300074948600846406840F0020094
:103A0000486000BF0348406800F00C000828F9D166
:103A10000CBD00000010024000200240042808D124
:103A20004FF0E021096941F004014FF0E0221161FB
:103A300007E04FF0E021096921F004014FF0E02296
:103A4000116170477047000010B51348006840F0DE
:103A500001001149086008464068104908400E49B5
:103A60004860084600680E4908400B49086008464F
:103A7000006820F4802008600846406820F4FE00BA
:103A800048604FF41F008860FFF753FF4FF000605D
:103A90000449086010BD0000001002400000FFF85B
:103AA000FFFFF6FE08ED00E010B50121064800F02A
:103AB00018F940B10121044800F00DF803480088CE
:103AC000401C0249088010BD000800403E00002054
:103AD000CA4302827047CA430282704721B10288FA
:103AE00042F00102028004E002884FF6FE731A40A1
:103AF0000280704710B504466848844208D101210D
:103B0000C014FFF771FB0021E014FFF76DFBC4E068
:103B1000B4F1804F08D101210846FFF745FB002191
:103B20000120FFF741FBB8E05D48844208D1012144
:103B30000220FFF739FB00210220FFF735FBACE044
:103B40005848844208D101210420FFF72DFB0021B1
:103B50000420FFF729FBA0E05348844208D101214B
:103B60000820FFF721FB00210820FFF71DFB94E050
:103B70004E48844208D101211020FFF715FB002197
:103B80001020FFF711FB88E04948844208D1012149
:103B90002020FFF709FB00212020FFF705FB7CE038
:103BA0004448844208D101214014FFF71DFB002145
:103BB0006014FFF719FB70E03F48844209D10121EE
:103BC000C804FFF711FB00214FF40020FFF70CFBA6
:103BD00063E03A48844209D101210805FFF704FB5C
:103BE00000214FF48010FFF7FFFA56E0344884427A
:103BF00009D101214805FFF7F7FA00214FF4001021
:103C0000FFF7F2FA49E02F48844208D10121402011
:103C1000FFF7CAFA00214020FFF7C6FA3DE02A4824
:103C2000844208D101218020FFF7BEFA00218020C4
:103C3000FFF7BAFA31E02548844208D10121801506
:103C4000FFF7B2FA0021A015FFF7AEFA25E02048F1
:103C5000844209D101210804FFF7C6FA00214FF47C
:103C60008030FFF7C1FA18E01A48844209D10121D7
:103C70004804FFF7B9FA00214FF40030FFF7B4FA17
:103C80000BE01548844208D101218804FFF7ACFA03
:103C900000214FF48020FFF7A7FA10BD002C01404F
:103CA0000004004000080040000C004000100040EC
:103CB0000014004000340140004C0140005001401D
:103CC0000054014000180040001C0040002000404B
:103CD0000040014000440140004801400146888CFA
:103CE000704730B50246002000230024158A05EAFB
:103CF0000103958905EA010413B10CB1012000E02C
:103D0000002030BD1AB183890B43838102E083898F
:103D10008B4383817047000070B50024002200238C
:103D2000058C4FF6FE7635400584028C8388048B23
:103D30004FF68F752C40B51E2C400D882C43751EF8
:103D40002A400D892A434D882A43144DA8420BD09E
:103D5000134DA84208D0134DA84205D0124DA842D9
:103D600002D0124DA84213D14FF6F7752A404D8963
:103D70002A434FF6FB752A408D882A434FF6FF658C
:103D80002B404FF6FF552B408D892B43CD892B437C
:103D900083800483CD888586028470BD002C014019
:103DA000003401400040014000440140004801400F
:103DB0000A460021018B4FF6F77319401143018326
:103DC0007047000070B5002400220023058C4FF6D8
:103DD000EF7635400584028C8388048B48F6FF75A6
:103DE0002C404FF6FF452C400D884FF6FF7606EA33
:103DF00005252C434FF6DF752A400D8906EA051587
:103E00002A434D8806EA05152A43154DA84202D0DB
:103E1000144DA8421DD14FF67F752A404D894FF6AB
:103E2000FF7606EA05152A434FF6BF752A408D88AE
:103E300006EA05152A434FF6FF352B404FF2FF7572
:103E40002B408D8906EA85052B43CD8906EA850539
:103E50002B4383800483CD880587028470BD0000D6
:103E6000002C0140003401400A460021018B4FF232
:103E7000FF7319404FF6FF7303EA022319430183CE
:103E80007047000070B5002400220023058C4FF617
:103E9000FF6635400584028C8388848B4FF68F75CE
:103EA0002C404FF6FC752C400D882C434FF6FF55E7
:103EB0002A400D894FF6FF7606EA05252A434D88EC
:103EC00006EA05252A43154DA84202D0144DA84202
:103ED0001DD14FF2FF752A404D894FF6FF7606EA55
:103EE00005252A434FF6FF352A408D8806EA052529
:103EF0002A434EF6FF752B404DF6FF752B408D89FA
:103F000006EA05152B43CD8906EA05152B43838068
:103F10008483CD888587028470BD0000002C014019
:103F2000003401400A460021818B4FF6F773194097
:103F3000114381837047000070B5002200230024E4
:103F4000058C4EF6FF7635400584038C8488828B81
:103F500048F6FF752A404FF6FF452A400D884FF678
:103F6000FF7606EA05252A434DF6FF752B400D899D
:103F700006EA05352B434D8806EA05352B430B4DE4
:103F8000A84202D00A4DA84208D14BF6FF752C403A
:103F90008D894FF6FF7606EA85152C43848082834F
:103FA000CD88A0F84050038470BD0000002C014073
:103FB000003401400A460021818B4FF2FF73194003
:103FC0004FF6FF7303EA022319438183704781860A
:103FD00070470187704781877047A0F8401070478D
:103FE00081847047002202881D4B98420ED01D4BE1
:103FF00098420BD0B0F1804F08D01B4B984205D0AF
:104000001A4B984202D01A4B984204D14FF68F7344
:104010001A404B881A43174B984207D0164B9842C8
:1040200004D04FF6FF431A40CB881A4302808B8896
:1040300083850B8803850A4B98420BD0094B984225
:1040400008D00E4B984205D00D4B984202D00D4B34
:10405000984201D10B7A03860123838270470000C6
:10406000002C0140003401400004004000080040E2
:10407000000C0040001000400014004000400140CF
:10408000004401400048014010B540F225518748E6
:1040900000F0DFF900287DD0844800F095FAC4B222
:1040A000612C03D101208249087022E0622C03D1E7
:1040B00002207F4908701CE0632C03D103207C4957
:1040C000087016E0642C03D104207949087010E0D0
:1040D000652C03D10520764908700AE0662C03D1CF
:1040E00006207349087004E0672C02D1072070494C
:1040F00008707048007848B96D480078042805D1E8
:1041000000206B49087001206A49087068480078EF
:1041100002287DD04C2C0ED1612C0CD0622C0AD000
:10412000632C08D0642C06D0652C04D0662C02D0F9
:1041300001206149087060480078012830D1612C65
:104140002ED0622C2CD0632C2AD0642C28D0652C45
:1041500026D0662C24D059485949097844545848E7
:104160000078401C564908702A2C19D1554800780F
:1041700058B9554800210160416001814F480160F4
:104180004160018101204F4908704C494E48FCF7BD
:1041900025FA00E04AE000204749087048490870C5
:1041A000522C0ED1612C0CD0622C0AD0632C08D07A
:1041B000642C06D0652C04D0662C02D00120434923
:1041C00008704248007801286ED1612C6CD0622CB6
:1041D0006AD0632C68D0642C66D0652C64D0662CC1
:1041E00062D03B483B49097844543A480078401C27
:1041F000384908702A2C57D13748007868B93748B1
:10420000002101604160018131480160416000E0AE
:104210000DE001810120304908702D492F48FCF73D
:10422000DDF90020294908702A4908703CE0412C3A
:1042300016D1612C14D0622C12D0632C10D0642CB7
:104240000ED0652C0CD0662C0AD0012024490870B1
:1042500014212448FCF7E6F914212348FCF7E2F97D
:104260001F48007801281FD1612C1DD0622C1BD063
:10427000632C19D0642C17D0652C15D0662C13D064
:1042800019481A490978445418480078401C1749BD
:1042900008702A2C08D114491248FCF79FF9002015
:1042A0000F4908701149087010BD00000038014026
:1042B0001900002020000020260000209C00002083
:1042C000230000202100002074000020270000208F
:1042D000A600002024000020220000207E000020F4
:1042E0002800002088000020B000002025000020C9
:1042F00010B586B00446012144F20400FEF764FFC5
:1043000001210846FEF760FF4FF40070ADF814007D
:1043100003208DF8160018208DF8170005A91C48F9
:10432000FEF750F84FF48060ADF8140004208DF8CB
:10433000170005A91648FEF745F825208DF800005E
:1043400003208DF801008DF8020001208DF8030094
:104350006846FEF7C3FE01940020ADF80800ADF8F2
:104360000A00ADF80C00ADF810000C20ADF80E00FE
:1043700001A9084800F0BCF8012240F22551054887
:1043800000F091F80121034800F04AF806B010BD92
:10439000000801400038014010B540F225510D4899
:1043A00000F057F888B10B4800F00EF9C4B2612C48
:1043B00002D0622C08D103E001200749087003E015
:1043C00002200549087000BF00BF2146014800F0E7
:1043D00000F910BD004400401800002010B540F264
:1043E00025510D4800F035F888B10B4800F0ECF885
:1043F000C4B2612C02D0622C08D103E0012007492D
:10440000087003E002200549087000BF00BF214684
:10441000014800F0DEF810BD004800401800002000
:1044200021B1828942F40052828104E082894DF6F2
:10443000FF731A408281704702460020B1F5007F69
:1044400000D100BF13880B400BB1012000E0002019
:10445000704770B50246002400230025002040F676
:104460006A16B14200D100BFC1F3421501F01F032B
:10447000012606FA03F3012D02D19689334006E0A6
:10448000022D02D1168A334001E0968A33400C1285
:10449000012606FA04F41688344013B10CB1012049
:1044A00000E0002070BDF0B5034600240026002582
:1044B000002040F66A17B94200D100BF1846C1F388
:1044C000421401F01F06012707FA06F5012C01D15D
:1044D0000C3004E0022C01D1103000E014301AB18D
:1044E00007682F43076002E00768AF430760F0BD2D
:1044F0002DE9F04786B005460E460024A24600BFCF
:10450000A1460027B08900B100BF2F462C8A4CF687
:10451000FF700440F08804432C82AC894EF6F310FF
:104520000440B08831890843718908430443AC8151
:10453000AC8A4FF6FF400440B0890443AC8201A826
:10454000FEF762FE1F48874202D1DDF810A001E0AD
:10455000DDF80CA0A88900F4004040B10AEBCA00C5
:1045600000EB0A1031684900B0FBF1F807E00AEBF4
:10457000CA0000EB0A1031688900B0FBF1F8642032
:10458000B8FBF0F004012009642101FB1089A8891F
:1045900000F4004040B1322000EBC900B0FBF1F064
:1045A00000F00700044308E0322000EB091064210A
:1045B000B0FBF1F000F00F0004432C8106B0BDE821
:1045C000F08700000038014001468888C0F30800E9
:1045D000704770B504460D46C5F30800A08000BFC3
:1045E00080212046FFF728FF0028F9D070BDC1F3D5
:1045F00008028280704700BFFEE700002DE9F04FFF
:1046000087B032200690059004900390FEF7B2FC2C
:104610001021FE48FDF7ACFF4FF40071FB48FDF799
:10462000A7FFFB48FEF706FD00287DD1F848C078BB
:104630003038F7498978303901EB810100EB4100CE
:104640000690F34880793038F1494979303901EBE7
:10465000810100EB41000590ED48807A3038EC494B
:10466000497A303901EB810100EB41000490E848C0
:10467000407B3038E649097B303901EB810100EBA2
:10468000410003907F2043425A220A21009006985D
:10469000FEF7CEFA80467F2043425A220A2100903C
:1046A0000598FEF7C5FA81467F2043425A220A2127
:1046B00000900498FEF7BCFA82467F2043425A22BB
:1046C0000A2100900398FEF7B3FA8346C9F100006F
:1046D000A0EB0800A0EB0B00A0EB0A04C9F100005E
:1046E0004044A0EB0B0000EB0A05C9F10000A0EB71
:1046F0000800A0EB0B0000EB0A06C9F100004044E3
:10470000A0EB0B00A0EB0A0740F2F31043427F221C
:10471000514200902046FEF78BFA044640F2F31017
:1047200043427F22514200E0EBE000902846FEF732
:104730007FFA054640F2F31043427F225142009037
:104740003046FEF775FA064640F2F31043427F22E8
:10475000514200903846FEF76BFA0746142C03DAF4
:1047600014F1140F00DD0024142D03DA15F1140FD9
:1047700000DD0025142E03DA16F1140F00DD0026EB
:10478000142F03DA17F1140F00DD0027B4F5FA7FB8
:1047900001DB40F2F314B5F5FA7F01DB40F2F315CB
:1047A000B6F5FA7F01DB40F2F316B7F5FA7F01DBCD
:1047B00040F2F31714F5FA7F01DC6FF4F97415F584
:1047C000FA7F01DC6FF4F97516F5FA7F01DC6FF4FE
:1047D000F97617F5FA7F01DC6FF4F977002C0BDB23
:1047E000C4F5FA7081B24FF08040FFF7F6FB40212C
:1047F0008648FDF7BDFE10E0002C0EDA201E01DB1E
:10480000014600E041420C46A1B24FF08040FFF764
:10481000E4FB40217D48FDF7A9FE002D09DBA9B28C
:104820004FF08040FFF7D7FB20217848FDF79EFE30
:1048300012E0002D10DA281E01DB014600E04142A3
:104840000D46C5F5FA7081B24FF08040FFF7C3FB0B
:1048500020216E48FDF78CFE002E0CDBC6F5FA70A9
:1048600081B24FF08040FFF7B2FB4FF48071674890
:10487000FDF77EFE11E0002E0FDA301E01DB01464F
:1048800000E041420E46B1B24FF08040FFF79FFB7F
:104890004FF480715D48FDF769FE002F09DBB9B266
:1048A0004FF08040FFF795FB80215848FDF75EFEF2
:1048B00012E0002F10DA381E01DB014600E0414211
:1048C0000F46C7F5FA7081B24FF08040FFF781FBC9
:1048D00080214E48FDF74CFE4D4800784C2809D108
:1048E0004B48C078522805D10620FEF7AFF90120C9
:1048F000484908704648FBF7BFFC47A0FBF7C8FCD7
:1049000002E046A0FBF7C4FC4948007878BB494860
:1049100049494A4B6422CDE90010114648480068D5
:1049200000F06CFA46480068B0F5B47F03D101206E
:104930004449087005E04248006810B90020414928
:1049400008704048007828B93D480068801C3C4900
:10495000086008E03B480078012804D13848006826
:10496000801E374908600020374908701BE01FE0AF
:104970003048006801F0E6FFC0B202902E4800689F
:1049800001F0E0FFC0B201902C48006801F0DAFFAE
:10499000C0B20090DDE90112FEF78CFD2A480078D4
:1049A000401C29490870284800780628E0DBA0E070
:1049B0001F480078012879D124480078142190FB01
:1049C000F1F201FB1200F8B900201F49087062E003
:1049D0001F4800784FF4B47190FBF1F201FB120014
:1049E000029014481449154B6422CDE90010114679
:1049F000029800F003FA0F48006801F0A3FFC0B26C
:104A000002900D48006825E049E00000000C0140DC
:104A1000C40000204B0000200A00000052656365BE
:104A2000697665206661696C656420210A00000072
:104A30004E000020700000206C0000206800002064
:104A40005000002054000020550000205700002096
:104A50005600002001F076FFC0B20190284800689F
:104A600001F070FFC0B20090DDE90112FEF722FDF7
:104A7000244800783C302349087008460078B0F597
:104A8000B47F03DD002008701F4908701F480078BC
:104A9000401C1E4908701D480078062898DB1A48FB
:104AA0000078401C1849087023E0FFE71848007898
:104AB00002281ED117480078FEF710FC164800782F
:104AC000142190FBF1F201FB120020B9114800788B
:104AD000401C104908700F480078082804DD0020A9
:104AE0000D4908700B4908700B480078401C0A49B2
:104AF00008700A2000F0F6F807B0BDE8F08F00005B
:104B000068000020560000205700002055000020BB
:104B10004E0000205800002059000020490050EAB3
:104B2000C12018BF04204A0D18BF40F0010040F218
:104B3000FF72B2EB515F08BF40F00200012808BFCE
:104B4000052070472DE9F0414F1E00EBC7010446D8
:104B5000D1E9000115461E4637F006020DD02A465F
:104B6000334601F033FA7F1E04EBC703D3E9002379
:104B700000F096FF37F00602F1D1022F25D0042F66
:104B800013D0062F18BFBDE8F0812A46334601F046
:104B90001DFAD4E90A2300F083FF2A46334601F0C8
:104BA00015FAD4E9082300F07BFF2A46334601F0CA
:104BB0000DFAD4E9062300F073FF2A46334601F0CC
:104BC00005FAD4E9042300F06BFF2A46334601F0CE
:104BD000FDF9D4E9022300F063FF2A46334601F0D1
:104BE000F5F9D4E90023BDE8F04100F059BF000019
:104BF000002213461046014901F00EB80000F03FB4
:104C000000F04EBF002213461046114601F004B8D2
:104C100040F2013200204FF0E04102F0C4B8000041
:104C2000024A0020110702F0BEB8000001FDFFFF9C
:104C300030380A2801D20120704700207047014611
:104C400000BF704710B5044621464FF08040FFF783
:104C5000BEF94FF480711148FDF788FCC4F5FA7075
:104C600081B24FF08040FFF7B4F980210B48FDF787
:104C70007FFCC4F5FA7081B24FF08040FFF7ABF9CA
:104C800020210648FDF774FC21464FF08040FFF7D5
:104C9000A4F940210148FDF769FC10BD000C01405A
:104CA00010B56FF00400FEF7B9FE0A4800680A4923
:104CB000B0FBF1F0094908700846007800EB4001AC
:104CC000C1EBC0104FF6FF7101EAC0000449088033
:104CD00010BD00000000002000127A001400002027
:104CE000160000200146114A12884A434FF0E02383
:104CF0005A6100229A611A46126942F001021A6151
:104D000000BF4FF0E022106900F001021AB100F478
:104D10008032002AF5D04FF0E022126922F0010221
:104D20004FF0E0231A6100229A61704716000020BC
:104D30000146114A12784A434FF0E0235A6100229B
:104D40009A611A46126942F001021A6100BF4FF0DF
:104D5000E022106900F001021AB100F48032002A4A
:104D6000F5D04FF0E022126922F001024FF0E0236B
:104D70001A6100229A6170471400002010B50446A1
:104D8000C4F5FA7081B24FF08040FFF720F94FF47C
:104D900080711048FDF7ECFB21464FF08040FFF793
:104DA00018F980210B48FDF7E1FB21464FF08040C8
:104DB000FFF711F920210748FDF7D8FBC4F5FA7079
:104DC00081B24FF08040FFF708F940210148FDF71C
:104DD000CFFB10BD000C014070B504460D46E1B29A
:104DE0000548FFF704FC00BF80210348FFF724FBC0
:104DF0000028F9D0204670BD003801402DE9FF4F52
:104E000089B01C46DDE91656002008908046814690
:104E100082468346099801F0B5FD07900A9801F093
:104E2000B1FD019001F0E2FB00224F4BCDE9020100
:104E300000F0F2FECDE9040100F000FE06900B98B0
:104E400001F0A0FD019001F0D1FB0022464BCDE91D
:104E5000020100F0E1FECDE9040100F0EFFD07469C
:104E60000021069801F01EFD03D137602F602760F6
:104E700068E03E49079801F053FC0790079801F05D
:104E800045FD8346584601F07DFD0590079901F0E8
:104E9000D6FE08904FF07E50069901F0DBFE3946B1
:104EA000059001F0CFFD80460899069801F0CAFDF3
:104EB0004FF07E51049001F0C2FE3946059001F09A
:104EC000C1FD81464FF07E50089901F0C3FE03906A
:104ED000069901F0B7FD4FF07E51049001F0AFFE4E
:104EE0003946059001F0AEFD8246BBF1060F28D28F
:104EF000DFE80BF003090F151B212760C5F800A0A0
:104F0000C6F800801DE0C4F800902F60C6F800804D
:104F100017E0C4F800802F60C6F800A011E0C4F8C4
:104F20000080C5F8009037600BE0C4F800A0C5F819
:104F30000080376005E02760C5F80080C6F8009063
:104F400000BF00BF0A49206801F07CFD20600849CD
:104F5000286801F077FD28600549306801F072FD8E
:104F600030600DB0BDE8F08F000059400000704285
:104F700000007F43FFF794FE4FF4A060FEF7E6F8D1
:104F8000FDF712FE4FF41650FFF7B2F9FDF782FF5E
:104F9000FDF74CFFFDF7B2FEFDF79EFD0720FDF784
:104FA00055FEFEF70DFA4FF47A70FFF79BFE0020D6
:104FB0000249086001E0FDF7C7F8FCE7B4012242AE
:104FC0002DE9F04D1D460C4698B0174621F00041E2
:104FD00023F00043002814BF4FF0010C4FF0000CE9
:104FE0000CEB440CFE4A0CEB02064FEA620C6645E1
:104FF0002BD33E0018BF012606EB45061644F94A9E
:10500000964222D3F84A53EA070C02D0944205D1C3
:1050100048B918B000201146BDE8F08D002808BF3F
:105020004FF0000C01D04FF0010C0CEB440212F5D4
:10503000001F0AD8002F14BF4FF0010C4FF0000CD6
:105040000CEB450212F5001F07D918B03A462B4663
:105050002146BDE8F04DFFF7D3BD0022DFF88CA359
:10506000002CB8BF534526DADFF884C36345A8BFD8
:10507000022220DADFF870C39C451CDCDFF874C321
:105080000CEB235CBCF1140F08DDCCF1340627FADD
:1050900006FC0CFA06F6BE420DD108E05FB9CCF171
:1050A000140623FA06FC0CFA06F69E4203D10CF015
:1050B0000102C2F1020251EA000C19D1002D17DAE7
:1050C000002C18BF022A01D0012A07D00220FBF7CA
:1050D000FBFA18B0BDE8F04DFFF78ABD0220FBF7E0
:1050E000F3FAFFF785FD18B081F00041BDE8F08DBF
:1050F000B7F1000C6CD1534525D104F1804212F573
:10510000801201BF00280020B74918B008BFBDE8D1
:10511000F08DB548884207DC002DA1BF60462946C6
:1051200018B0BDE8F08D07E0281E05DA80F00041D8
:1051300018B06046BDE8F08DAF497944D1E900016F
:1051400018B0BDE8F08DDFF8A0C2634525D1002D71
:105150001FDA19B1514512D1D8B909E0002840F041
:10516000EC82A24A214618B062F31E01BDE8F08D20
:105170000020214618B060F31E01BDE8F08D08DA6A
:1051800018B02346BDE8F04D02460020614600F00D
:1051900043BD18B02146BDE8F08D514518DAB5F190
:1051A000804F0DD0A5F1005CBCF1FF5C10D1B4F1D3
:1051B000000C0DDB18B06146BDE8F04D00F0ECBB13
:1051C000234618B00246BDE8F04D194600F0FEBE79
:1051D000060024F0004C3BD1D9B1514533D1002C0D
:1051E00006DD002DA1BF0020514618B0BDE8F08DAE
:1051F000002C01DD002D1BDB002C13DA002D11DB50
:10520000012A4FF0000014BF78497C4918B0BDE86E
:10521000F08D022A18BF002C0AD0012A08D1002CD8
:1052200006DA0AE0002CB8BF002D11DA012A04D0FA
:10523000002018B00146BDE8F08D18B000204FF0F6
:105240000041BDE8F08DA1F14050B0F17F601AD06F
:10525000012000EBE47050EA020421D0624C521E9F
:105260004FF0000B104304BF4FF0000B644C654837
:1052700083427CDD644A654893421FDD884217DB28
:10528000002D25DB37E0002C00DA4AB1022A0CBFE2
:1052900001204FF0FF3018B0BDE8F04D00F043BEE4
:1052A0000120FBF711FA18B0BDE8F04DFFF7AABCDA
:1052B0004D4A8A4202DC002D0ADC1CE0814202DAFF
:1052C000002D18DA04E0484B994220DD002D12DD54
:1052D0000220FBF7F9F9FFF79BFC05460E4600227A
:1052E00053465846214600F071FE18B066F31E0181
:1052F0002846BDE8F08D0220FBF7E6F9FFF790FCA9
:105300000A46214618B062F31E01BDE8F08D002266
:105310003046614601F080F880460E466FF001028B
:1053200001F041FD4FF05532394B00F083FF42460A
:10533000334600F04BFE0022364B00F07BFF8246E6
:105340004246334604911046194600F03FFE52464D
:10535000049B00F03BFE8A4600904FF0C0422E4B6B
:105360004046314600F032FE2C4A2B4B00E027E04D
:10537000CDE906015146009800F028FE82460191D1
:10538000274A284B4046314600F020FE5246019BFA
:1053900001F042F882460B4602460591DDE906011E
:1053A00000F07EFBDDE9062300268846304601F04A
:1053B00033F85246059B00F03DFF024600F07EB9EF
:1053C0000020B1F5801F07DA35223046614601F032
:1053D000EAFC06466FF0340000EB215024E00000A8
:1053E000FFFF1F00FFFF0F000000F03F0000F07FF5
:1053F0000000404301FCFFFFCA1D00000000F0FF59
:105400000000F0BF0000E0410000F043FFFFEF3F6D
:105410005555D53F0000E03F4715F73FFE822B650D
:1054200044DF5DF80BAE543EA0F2FF300190C1F3B3
:10543000130040F07F6141F040510291FE498842E3
:10544000D8BF002004DDFD498142C8BF012001DD35
:105450000D9008E000200D900198401C01900298EA
:10546000A0F5801002900299F54878440B910D99AF
:1054700000EBC100D0E900230F9330460A920B994C
:1054800000F0CAFFCDE90601DDE90A2130460F9B95
:1054900000F006FB02460B460020EA4900F0BCFB88
:1054A000059102460B460090DDE9060100F08EFDF5
:1054B0001490E5488A464FF0000878440299006845
:1054C00012904FF0005040EA61010D980F9B01EBE4
:1054D000804000F5002109910A9A129800F09CFF83
:1054E00032460B9B00F0A6FE4246534600F06EFD8E
:1054F0000646029140465146099B129A00F066FD0D
:10550000DDE9062300F096FE3246029B00F084FFA0
:10551000059B009A00F05AFD0091149A049053469E
:105520001046194600F052FD06460246C7480B4693
:10553000029106217844FFF705FBCDE90510029B97
:1055400032461046194600F041FDDDE9053200F013
:105550003DFD05910646534640461946149A00F013
:105560009FFA009B049A00F031FD3246059B00F043
:1055700097FACDE90510424653461046194600F009
:1055800025FD0022B24B02910A9000F089FADDE974
:10559000053200F085FA0E464246AD4B404600F01B
:1055A0003BFF029B0A9A00F037FFDDE9053200F06D
:1055B00041FE424602910A9033461046514600F0A1
:1055C00005FDCDE906015346149A02990A9800F0A8
:1055D000FDFC8A460290334642460099049800F04A
:1055E000F5FC5346029A00F05BFA82460B460246EF
:1055F0000591DDE9060100F053FADDE906230020FC
:105600008846064600F008FF5246059B00F012FE51
:10561000824609914FF060428E4B3046414600F081
:10562000D5FC049006918C4A8A4B5046099900F0AB
:10563000CDFC82460291894A894B3046414600F0B2
:10564000C5FC5246029B00F02BFA864B7B440D9A18
:1056500003EBC203D3E9002300F022FA0E90079176
:10566000019800F060FC0591DDE9061382460E9A70
:10567000049800F015FA7C4A7A440D9B02EBC303B0
:10568000D3E900230093029200F00AFA5246059BE8
:1056900000F006FA0026884652463046059B00F088
:1056A000BBFE009B029A00F0B7FE069B049A00F036
:1056B000B3FE079B0E9A00F0BDFD024600200B468C
:1056C00002903846294600F081FC824601912B4623
:1056D00038461946029A00F09FFE3246434600F0D3
:1056E00075FC5246019B00F0DBF907468A463246BC
:1056F00043462946029800F069FC05460E463A46A4
:10570000534600F0CDF9594A8846914221DBA8EB77
:10571000020353EA000210D12A46334600F07CFE11
:10572000CDE90401524A534B3846514600F0B8F9CE
:10573000DDE9042300F048FD21D20220FAF7C4FF7E
:10574000FFF766FA0A46214618B062F31E01BDE86B
:10575000F08D494B28F000429A4210D3474A08EB9B
:10576000020353EA00027FF4C6AD2A46334600F036
:1057700053FE3A46534600F027FD7FF6BCAD0022AB
:10578000019228F000403E493E4A01EB20518242FE
:1057900023DA481C4FF4801121FA00F040443A4AC1
:1057A000C0F30A517A44394BA1F2FF31CB4020EAD1
:1057B0000303C0F3130040F48010C1F11401C8408A
:1057C00012680190B8F1000FBCBF4042019028461A
:1057D000314600F021FE05460E462A46334638463D
:1057E000514600F05DF94FF000084246284B404614
:1057F000059100F0EBFBCDE90601264A264B404619
:10580000059900F0E3FB009102902A46334640469A
:10581000059900F001FE3A46534600F00BFD1F4A81
:105820001F4B00F0D3FB009B029A00F039F90746AA
:10583000884602460B4635E08E9803007AB60B0088
:105840000A1A00000000F03F4A1A00007019000018
:105850000000084009C7EE3FFD033ADCF5015B1488
:10586000E02F3EBE481800000C18000000009040D9
:10587000FE822B654715973C00CC904000346F3F6B
:1058800001FCFFFF0000E03F60170000FFFF0F007A
:10589000432EE63F396CA80C615C20BEEF39FAFE5E
:1058A000422EE63FDDE9060100F0FAF8DDE90623C5
:1058B00005460E4600F0B0FD3A46434600F0BAFCFD
:1058C0000F462A46334600901046194600F07EFBEC
:1058D000824602462E4888460B4605217844FFF74B
:1058E00031F95246434600F071FB2A46334600F038
:1058F000A1FC80468A463B4628463146009A00F085
:1059000065FB3B46009A00F0CBF806910090002220
:105910004FF080434046514600F07EFD0F460C900C
:10592000424653462846314600F050FB3B460C9A0F
:1059300000F072F9069B009A00F06EFD2A4633468D
:1059400000F06AFD0022134B00F074FC054601983C
:105950000E4601EB00510815002810DC28463146A0
:10596000019A01F020FAFFF7D9F8042808BFFFF7E1
:1059700057F928463146019A01F015FA05460B46BB
:1059800018B02A4658462146BDE8F04D00F01EBB2F
:10599000F81500000000F03F2DE9F04106460F46E3
:1059A00000F054FC041E0D4618BF0120284320F0CF
:1059B0000040C0F17F6000F1E040C00F0ED0301C0D
:1059C00018BF0120384320F00040C0F17F6000F193
:1059D000E040C00F04BF0120FAF776FE20462946BA
:1059E000BDE8F08110B500290AD00878002807D05A
:1059F00005487844FBF786FB002801D0002010BD45
:105A00000248784410BD0000D2150000CA150000FD
:105A100010B500290AD00878002807D00548784436
:105A2000FBF770FB002801D0002010BD024878442D
:105A300010BD0000C2150000BA15000021F00042A0
:105A4000A2F16052B2F5801F01F0004328BFD2F1ED
:105A50007F6C0BD95FEA001C43EAC20242EB507034
:105A600018BF704728BF20F001007047B2F5801FB3
:105A7000BCBF184670474FEA410C1CF5001F02D20C
:105A8000084601F0A6B870B500F04AFB0000008996
:105A9000FFF7F6BF4FF00040A0F580007047000010
:105AA00010B591EA030F48BF83F0004300F1BC84B6
:105AB000841A71EB030C05D2121943EB0C03001B83
:105AC00061EB0C01DFF824E14FEA1154A4EB135C05
:105AD0001EEA430F18BF9EEA445F73D023EA0E0309
