:020000040800F2
:10000000C00400200501000851120008850F0008F7
:10001000CB0F0008D10D0008D31D00080000000020
:10002000000000000000000000000000F1130008C4
:10003000DD0D000800000000D912000805150008B9
:100040001F0100081F0100081F0100081F01000810
:100050001F0100081F0100081F0100081F01000800
:100060001F0100081F0100081F0100081F010008F0
:100070001F0100081F0100081F0100081F010008E0
:100080001F0100081F0100081F0100081F010008D0
:100090001F0100081F0100081F0100081F010008C0
:1000A0001F0100081F0100081F0100081F010008B0
:1000B0001F0100081F0100081F0100081F010008A0
:1000C0001F0100081F0100081F0100081F01000890
:1000D0001F0100081F010008A11900081F010008E6
:1000E0001F0100081F0100081F010008DFF810D0E1
:1000F00000F0C0FA0048004741210008AFF300803B
:10010000C00400200648804706480047FEE7FEE797
:10011000FEE7FEE7FEE7FEE7FEE7FEE7FEE7FEE7B7
:1001200009150008ED000008D2B201E000F8012B2B
:10013000491EFBD270470022F6E710B513460A4667
:1001400004461946FFF7F0FF204610BD034611F89C
:10015000012B00F8012B002AF9D1184670472DE930
:10016000FE4F804681EA0300C00F0C46009021F04C
:10017000004123F00045B8EB0200A94105D24046FA
:10018000214690461C460B46024623F00040104391
:1001900047D0270DC7F30A00C3F30A510290401A53
:1001A000019040286BDAC3F3130040F4801B0098E1
:1001B000924620B10023D2EB030A63EB0B0B0198AC
:1001C0005946C0F14002504600F028F906460D4657
:1001D00050465946019A00F040F910EB0800614181
:1001E000002487EA115284EAE7731A4340D0009A48
:1001F00062B3019A012A4FEA075215DC001B61EB3A
:1002000002014FF0004202EA0752CDE90042001C11
:1002100041F5801132462B4600F040F903B0BDE8AD
:10022000F08F40462146F9E7001B61EB0201001CFC
:1002300041F5801300185B412018A2F5001747EB29
:10024000030140EAD570B6196D4111E06D084FEA1F
:10025000360645EAC0754FEA0752001B61EB020102
:10026000001C41F5801149084FEA30000019514146
:1002700032462B4603B0BDE8F04F00F000B90098BD
:10028000012240000023D0EB020263EBE0730098F0
:1002900021464FEAE074B8EB000061EB0401E9E7A6
:1002A00083F000435BE781F0004158E72DE9FE4F02
:1002B00081EA030404F0004421F0004100944FF06F
:1002C000000B23F0004350EA01045ED052EA03041D
:1002D0005BD0C3F30A54C1F30A552C44A4F2F3349F
:1002E0000194A0FB0254C1F3130141F48011C3F344
:1002F000130343F4801301FB024400FB034E840A02
:10030000970A44EA815447EA8357A4FB0768029599
:100310008D0A05FB07854FEA932C04FB0C54270537
:10032000029D4FEA065847EA1637B5EB08056EEB13
:10033000070C870E920E47EA811742EA8312A7FB49
:100340000201B6EB0B0164EB00042B0D43EA0C3306
:100350005E1844EB1C50DA465146E7FB0201C5F338
:1003600013044FEA0B3343EA14534FEA0432019C5F
:1003700043EA0603A4F10C040294009CCDE900B406
:1003800000F08CF803B0BDE8F08F00200146F9E7DB
:100390000EB5C10F80EAE0700844CA07002140F2A0
:1003A00033438DE80E000A460B4600F077F803B0A1
:1003B00000BD70B5C1F30A5201F000450024C1F33D
:1003C000130140F2FF3341F480119A4201DA002018
:1003D00070BD40F233439A42A2F2334203DC5242F0
:1003E00000F02BF800E090402C43F1D0404270BD6B
:1003F00030B50B46014600202022012409E021FAF5
:1004000002F59D4205D303FA02F5491B04FA02F5F1
:100410002844151EA2F10102F1DC30BD202A04DBC4
:10042000203A00FA02F1002070479140C2F1200307
:1004300020FA03F3194390407047202A04DB203A46
:1004400021FA02F00021704721FA02F3D040C2F1F4
:1004500020029140084319467047202A06DBCB173B
:10046000203A41FA02F043EAE07306E041FA02F36F
:10047000D040C2F12002914008431946704710B5A0
:10048000141E73F1000408DA401C41F100019218B7
:100490005B411A4301D120F0010010BD2DE9F04D60
:1004A00092469B4611B1B1FA81F202E0B0FA80F2B5
:1004B00020329046FFF7B2FF04460F4640EA0A009A
:1004C00041EA0B0153465A46084313D0114653EAFA
:1004D000010019D0C8F140025046FFF7AEFF0546B3
:1004E0000E46504659464246FFF798FF084305D04E
:1004F000012004E020463946BDE8F08D0020054388
:1005000046EAE0762C4337430A986305E40AA0EBF9
:1005100008000022FD0A44EA47540A3002D50020B0
:100520000146E9E7010510196941DDE908450019AF
:100530006941BDE8F04DA2E72DE9F04D81EA0304E1
:1005400004F0004B21F0004514464FF0000A23F060
:10055000004150EA050220D054EA01021DD0C5F343
:100560000A570246C5F31303C1F31300C1F30A5639
:1005700040F4801543F48013A7EB0608101BD64601
:1005800008F2FD3873EB050002D308F1010801E021
:1005900092185B41B8F1000F03DA00200146BDE874
:1005A000F08D00204FF48011064684460EE0171BA4
:1005B00073EB050705D3121B63EB050306434CEAF7
:1005C000010C49084FEA300092185B4150EA0107DC
:1005D000EDD152EA030012D082EA040083EA050159
:1005E000084305D0101BAB4106D20122002306E0D0
:1005F00000224FF0004302E06FF0010253101AEBAB
:1006000006004CEB085110EB0A0041EB0B01BDE872
:10061000F04DFFF734BF70B521F0004303430CD019
:10062000C1F30A550024D5EB040564EB0403D61787
:10063000AD1AB34102DB0020014670BD201841EB2A
:10064000025170BD30B5041E71F1000404DB4FF09F
:100650000044404264EB0101141E73F1000405DB09
:100660001C464FF00043524263EB0403994208BF1B
:10067000904230BD064C074D06E0E06840F00103B3
:1006800094E8070098471034AC42F6D3FFF732FDE8
:10069000202C0008402C00082DE9F04D00231A46BC
:1006A0001B1A8A4103DB00200146BDE8F08DC1F32F
:1006B0000A52C1F3130141F480154FF0000BD1072A
:1006C00002D100186D41521E0027044640F2FF116E
:1006D000384601EB620A3E468046024600204FF44F
:1006E0008011FFF7AAFEC2197141BB1846EB010049
:1006F000B4EB030C75EB000C04D3E41A65EB0005B6
:1007000017460E46241908F101006D418046342831
:10071000E3DDF91946EB0600091BA84103D24FF0AF
:10072000FF32134601E0002213461BEB070046EBA5
:100730000A51BDE8F04DFFF7A2BE00002DE9F04FD1
:1007400099B0002500201890179016900120159060
:10075000149001240AE0DE48005D2E2800D107E055
:10076000DB48015D601E0EAA1154641C142CF2DBE0
:1007700000BF002415E0D648005D2C2802D10120DE
:100780001890641C189801280AD1D148005D2E28C1
:1007900001D1002507E0CE48005D11A948556D1C28
:1007A000641C142CE7DB00BF00250A2439E00EA8E6
:1007B000005D30282DDB0EA8005D392829DC284695
:1007C000FFF7E6FD02460B46CDE900010020C149D6
:1007D00001F0CCFCCDE904010EA9095DA1F13000C6
:1007E000FFF7D6FDCDE90201DDE90423FFF75EFD49
:1007F000CDE908011698FFF7CBFDCDE90601DDE94B
:100800000823FFF7ACFCCDE90A01FFF7D2FD1690F3
:100810006D1C9DF838002D2802D14FF0FF30149048
:10082000641E002CC3DA00250A2439E011A8005DFB
:1008300030282DDB11A8005D392829DC2846FFF778
:10084000A7FD02460B46CDE900010020A14901F0B9
:100850008DFCCDE9040111A9095DA1F13000FFF77C
:1008600097FDCDE90201DDE90423FFF71FFDCDE986
:1008700008011798FFF78CFDCDE90601DDE9082393
:10088000FFF76DFCCDE90A01FFF793FD17906D1C92
:100890009DF844002D2802D14FF0FF301590641EC2
:1008A000002CC3DA17991598484317901699149895
:1008B000484316908849894A1798126841F82200DF
:1008C0008749864A1698126841F8220083480068D2
:1008D000401C824908600846006805287ED1002037
:1008E0000860002535E000242EE07B4850F82410F5
:1008F0000246601C52F8200081420DDD104650F87F
:1009000024000D901146601C51F8200041F824008D
:10091000611C0D9842F82100714850F824100246DD
:10092000601C52F8200081420DDD104650F8240072
:100930000C901146601C51F8200041F82400611C05
:100940000C9842F82100641CC5F10500A042CCDCE3
:100950006D1C042DC7DB6048806817906048806874
:1009600016907F2043425A2251420090179800F07F
:1009700021FB82467F2043425A2251420090169822
:1009800000F018FB8346CAF1000000EB0B06CAF129
:100990000000A0EB0B07CAF1000000EB0B08CAF146
:1009A0000000A0EB0B0940F2F31043427F225142BA
:1009B0000090304600F0FEFA064640F2F310434243
:1009C0007F2251420090384600F0F4FA074640F288
:1009D000F31043427F225142009000E06AE040461B
:1009E00000F0E8FA804640F2F31043427F22514281
:1009F0000090484600F0DEFA8146142E03DA16F124
:100A0000140F00DD0026142F03DA17F1140F00DD98
:100A10000027B8F1140F04DA18F1140F01DD4FF0BC
:100A20000008B9F1140F04DA19F1140F01DD4FF0C9
:100A30000009B6F5FA7F01DB40F2F316B7F5FA7F4D
:100A400001DB40F2F317B8F5FA7F01DB40F2F3184F
:100A5000B9F5FA7F01DB40F2F31916F5FA7F01DCF4
:100A60006FF4F97617F5FA7F01DC6FF4F97718F572
:100A7000FA7F01DC6FF4F97819F5FA7F01DC6FF485
:100A8000F979002E00DA00BF002F00DA00BFB8F1BC
:100A9000000F00DA00BFB9F1000F00DA00BF142127
:100AA0000D48FFF748FB14210D48FFF744FB0120D8
:100AB00001F00EFB00200E900F90109011901290FC
:100AC0001390012001F004FB19B0BDE8F08F000085
:100AD000580000200000244094000020380000202E
:100AE000A80000202DE9F04F85B03220049003903B
:100AF00002900190974800784C2815D19548C0780D
:100B0000303894498978303901EB810100EB41009C
:100B100004909048807930388E494979303901EB1A
:100B2000810100EB410003908B480078522815D1D9
:100B30008948C078303888498978303901EB81019B
:100B400000EB41000290844880793038824949792D
:100B5000303901EB810100EB410001907F204342DD
:100B60005A220A210090049800F024FA80467F203F
:100B700043425A220A210090039800F01BFA814652
:100B80007F2043425A220A210090029800F012FA74
:100B900082467F2043425A220A210090019800F0A9
:100BA00009FA8346C9F100004044A0EB0B0000EBBA
:100BB0000A04C9F10000A0EB0800A0EB0B00A0EBB9
:100BC0000A05C9F100004044A0EB0B00A0EB0A06A7
:100BD000C9F10000A0EB0800A0EB0B0000EB0A0736
:100BE00040F2F31043427F2251420090204600F031
:100BF000E1F9044640F2F31043427F225142009053
:100C0000284600F0D7F9054640F2F31043427F2210
:100C100051420090304600F0CDF9064640F2F31004
:100C200043427F2251420090384600F0C3F9074604
:100C3000142C03DA14F1140F00DD0024142D03DA50
:100C400015F1140F00DD0025142E03DA16F1140F30
:100C500000DD0026142F03DA17F1140F00DD002742
:100C6000B4F5FA7F01DB40F2F314B5F5FA7F01DB4E
:100C700040F2F315B6F5FA7F01DB40F2F316B7F553
:100C8000FA7F01DB40F2F31714F5FA7F01DC6FF411
:100C9000F97415F5FA7F01DC6FF4F97516F5FA7F32
:100CA00001DC6FF4F97617F5FA7F01DC6FF4F97760
:100CB00021462AA001F090F821462BA001F08CF8E3
:100CC00021462CA001F088F821462DA001F084F8DF
:100CD0002EA001F081F8002C04DBA1B2012000F06D
:100CE00095F906E0002C04DA604281B2002000F0A1
:100CF0008DF9002D04DBA9B2012000F0A5F906E072
:100D0000002D04DA684281B2002000F09DF9002E27
:100D100004DBB1B2012000F0B7F906E0002E04DADE
:100D2000704281B2002000F0AFF9002F04DBB9B2AD
:100D3000012000F04DF906E0002F04DA784281B27C
:100D4000002000F045F90A2001F0C2F905B0BDE825
:100D5000F08F0000440000204E00002070776D31BD
:100D60003A2564090000000070776D323A25640965
:100D70000000000070776D333A2564090000000020
:100D800070776D343A256409000000000D0A0000F8
:100D900010B50A480078012802D1FFF7A3FE0BE046
:100DA00006480078022802D1FFF7C8FC04E0034897
:100DB000017803A001F010F810BD00001900002018
:100DC0006D6F64655F666C61673A25640D0A0000AB
:100DD00000BFFEE710B5FFF7DBFF10BD70472DE940
:100DE000F0410246002500260020002300240027B1
:100DF00091F803C00CF00F0591F803C00CF0100C33
:100E0000BCF1000F03D091F802C04CEA050591F83F
:100E100000C0BCF1000F31D0146800202BE04FF06F
:100E2000010C0CFA00F3B1F800C00CEA03069E4274
:100E300020D183004FF00F0C0CFA03F7BC4305FAE6
:100E400003FC4CEA040491F803C0BCF1280F06D15E
:100E50004FF0010C0CFA00FCC2F814C00AE091F843
:100E600003C0BCF1480F05D14FF0010C0CFA00FC97
:100E7000C2F810C0401C0828D1D31460B1F800C0DB
:100E8000BCF1FF0F34DD546800202EE000F1080CA7
:100E90004FF0010808FA0CF3B1F800C00CEA0306A1
:100EA0009E4221D183004FF00F0C0CFA03F7BC4394
:100EB00005FA03FC4CEA040491F803C0BCF1280FC6
:100EC00005D100F1080C08FA0CF8C2F8148091F86A
:100ED00003C0BCF1480F07D100F1080C4FF0010826
:100EE00008FA0CF8C2F81080401C0828CED35460D1
:100EF000BDE8F081F0B50A4600230024002100255A
:100F000000F00046B6F1004F02D11D4EF16901E03C
:100F10001B4E7168C0F3034583B200F44016B6F56A
:100F2000401F08D121F07061154E766826F070667A
:100F3000134F7E6012E000F48016B6F5801F06D1D4
:100F4000032606FA05F4A14341F0706106E0460D60
:100F5000360103FA06F6B14341F0706122B1460D45
:100F6000360103FA06F6314300F00046B6F1004FB1
:100F700002D1034EF16101E0014E7160F0BD00004D
:100F80000000014000BFFEE708B50121042000F089
:100F9000B5F90320ADF8000010208DF80300032000
:100FA0008DF8020069460248FFF719FF08BD0000EE
:100FB0000008014070B50446049D601AEE1A7043A3
:100FC000561A90FBF6F0184470BD00BFFEE7000013
:100FD00070B504460D46B5F57A7F01DB4FF47A759E
:100FE00044B10021084800F03CFC2946064800F0C6
:100FF00036FC08E03CB90021034800F030FC2946EB
:10100000014800F02EFC70BD0004004070B504469D
:101010000D46B5F57A7F01DB4FF47A7544B10021B6
:10102000084800F01AFC2946064800F014FC08E0C5
:101030003CB90021034800F00EFC2946014800F0AD
:101040000CFC70BD0004004070B504460D46B5F5BB
:101050007A7F01DB4FF47A7554B100214FF0804064
:1010600000F0FDFB29464FF0804000F0FAFB0AE05B
:101070004CB900214FF0804000F0F3FB29464FF0BF
:10108000804000F0ECFB70BD70B504460D46B5F530
:101090007A7F01DB4FF47A7554B100214FF0804024
:1010A00000F0D9FB29464FF0804000F0D6FB0AE063
:1010B0004CB900214FF0804000F0CFFB29464FF0A3
:1010C000804000F0C8FB70BD00B589B00121084622
:1010D00000F014F90121042000F010F9012108208A
:1010E00000F00CF90121084600F0F8F80121022077
:1010F00000F0F4F801215148FFF7FCFE01215048AF
:10110000FFF7F8FE18208DF8230040F60B40ADF8ED
:10111000200003208DF8220008A94A48FFF75FFE4F
:1011200018208DF8230048F2C000ADF820000320FD
:101130008DF8220008A94448FFF751FE434800F00B
:101140001FFA4FF0804000F01BFA05A800F0DEFB0C
:101150000020ADF81A00ADF816004720ADF81400D5
:1011600040F2F310ADF8180000208DF81C0005A91E
:10117000364800F079FB05A94FF0804000F074FB81
:1011800001A800F05EFB6020ADF804000020ADF87F
:101190000C000120ADF806000020ADF80A0001A9FE
:1011A0002A4800F0F3F901A9284800F045FA01A9FE
:1011B000264800F0A1FA01A9244800F0F7FA01A995
:1011C0004FF0804000F0E2F901A94FF0804000F0BC
:1011D00033FA01A94FF0804000F08EFA01A94FF0D8
:1011E000804000F0E3FA0821184800F01BFA0821BB
:1011F000164800F073FA0821144800F0CDFA0821CF
:10120000124800F011FB0821C80600F00BFA082173
:10121000C80600F063FA0821C80600F0BDFA0821EC
:10122000C80600F001FB0121084800F09DF90121EA
:10123000880700F099F909B000BD000000023000F5
:1012400000031800000C01400008014000040040A9
:101250007047000070B5002100230F22C47804B34A
:10126000154C246804F4E064C4F5E064210AC1F17B
:101270000403CA40447804FA03F1847814402143FB
:1012800009010E4C0678A155047804F01F050124CD
:10129000AC4005786D11AD0005F1E025C5F80041C1
:1012A00009E0047804F01F050124AC40044D0678E1
:1012B000761145F8264070BD0CED00E000E400E03A
:1012C00080E100E002490143024A116070470000DA
:1012D0000000FA050CED00E07047000029B1064A55
:1012E000D2690243044BDA6104E0034AD2698243C3
:1012F000014BDA61704700000010024029B1064A34
:1013000092690243044B9A6104E0034A9269824362
:10131000014B9A61704700000010024030B5002177
:101320000022002400232D4D6D6805F00C0121B131
:10133000042905D0082923D105E0294D056022E0C4
:10134000274D05601FE0254D6D6805F47012234D93
:101350006D6805F48034022505EB92421CB9214DDD
:10136000554305600BE01D4D6D6805F400351DB15A
:101370001C4D5543056002E0194D5543056002E0E0
:10138000174D056000BF00BF144D6D6805F0F001FA
:101390000909154D6B5C0568DD4045600F4D6D68B2
:1013A00005F4E061090A104D6B5C4568DD4085601D
:1013B0000A4D6D6805F46051C90A0B4D6B5C4568B8
:1013C000DD40C560054D6D6805F44041890B074D52
:1013D0006B5CC568B5FBF3F5056130BD00100240DC
:1013E00000127A0000093D00230000203300002095
:1013F000704710B500F002F810BD00000CB50020D9
:10140000019000903348006840F480303149086012
:1014100000BF3048006800F4003000900198401C84
:101420000190009818B90198B0F5A06FF1D1294842
:10143000006800F4003010B10120009001E00020AD
:1014400000900098012843D12348006840F0100024
:10145000214908600846006820F00300086008463B
:10146000006840F0020008601A4840681949486066
:101470000846406848600846406840F4806048601C
:101480000846406820F47C1048600846406840F4F4
:10149000E81048600846006840F08070086000BFAF
:1014A0000C48006800F000700028F9D00948406836
:1014B00020F00300074948600846406840F00200F9
:1014C000486000BF0348406800F00C000828F9D1CC
:1014D0000CBD00000010024000200240042808D18A
:1014E0004FF0E021096941F004014FF0E022116161
:1014F00007E04FF0E021096921F004014FF0E022FC
:10150000116170477047000010B51348006840F043
:1015100001001149086008464068104908400E491A
:101520004860084600680E4908400B4908600846B4
:10153000006820F4802008600846406820F4FE001F
:1015400048604FF41F008860FFF753FF4FF00060C2
:101550000449086010BD0000001002400000FFF8C0
:10156000FFFFF6FE08ED00E021B1028842F0010223
:10157000028004E002884FF6FE731A400280704732
:1015800001894FF6F87211400181704770B500244F
:1015900000220023058C4FF6FE7635400584028C30
:1015A0008388048B4FF68F752C40B51E2C400D8818
:1015B0002C43751E2A400D892A434D882A43144D19
:1015C000A8420BD0134DA84208D0134DA84205D015
:1015D000124DA84202D0124DA84213D14FF6F77512
:1015E0002A404D892A434FF6FB752A408D882A43AD
:1015F0004FF6FF652B404FF6FF552B408D892B434F
:10160000CD892B4383800483CD888586028470BD79
:10161000002C0140003401400040014000440140E2
:10162000004801400A460021018B4FF6F77319402C
:10163000114301837047000070B50024002200238D
:10164000058C4FF6EF7635400584028C8388048B39
:1016500048F6FF752C404FF6FF452C400D884FF69D
:10166000FF7606EA05252C434FF6DF752A400D89E3
:1016700006EA05152A434D8806EA05152A43154D45
:10168000A84202D0144DA8421DD14FF67F752A40C2
:101690004D894FF6FF7606EA05152A434FF6BF75CA
:1016A0002A408D8806EA05152A434FF6FF352B4060
:1016B0004FF2FF752B408D8906EA85052B43CD89B6
:1016C00006EA85052B4383800483CD880587028441
:1016D00070BD0000002C0140003401400A4600218A
:1016E000018B4FF2FF7319404FF6FF7303EA022399
:1016F000194301837047000070B5002400220023C5
:10170000058C4FF6FF6635400584028C8388848BF8
:101710004FF68F752C404FF6FC752C400D882C43EE
:101720004FF6FF552A400D894FF6FF7606EA05254C
:101730002A434D8806EA05252A43154DA84202D0C2
:10174000144DA8421DD14FF2FF752A404D894FF626
:10175000FF7606EA05252A434FF6FF352A408D8895
:1017600006EA05252A434EF6FF752B404DF6FF7518
:101770002B408D8906EA05152B43CD8906EA051510
:101780002B4383808483CD888587028470BD0000CD
:10179000002C0140003401400A460021818B4FF6A5
:1017A000F7731940114381837047000070B5002220
:1017B00000230024058C4EF6FF7635400584038C0B
:1017C0008488828B48F6FF752A404FF6FF452A40F1
:1017D0000D884FF6FF7606EA05252A434DF6FF757C
:1017E0002B400D8906EA05352B434D8806EA053561
:1017F0002B430B4DA84202D00A4DA84208D14BF60C
:10180000FF752C408D894FF6FF7606EA85152C432F
:1018100084808283CD88A0F84050038470BD00008E
:10182000002C0140003401400A460021818B4FF218
:10183000FF7319404FF6FF7303EA022319438183B4
:1018400070470021018041808180C18001814181F8
:101850008181C18170478186704701877047818788
:101860007047A0F840107047002202881D4B984234
:101870000ED01D4B98420BD0B0F1804F08D01B4BBF
:10188000984205D01A4B984202D01A4B984204D184
:101890004FF68F731A404B881A43174B984207D064
:1018A000164B984204D04FF6FF431A40CB881A4398
:1018B00002808B8883850B8803850A4B98420BD066
:1018C000094B984208D00E4B984205D00D4B9842D8
:1018D00002D00D4B984201D10B7A038601238382FB
:1018E00070470000002C014000340140000400401B
:1018F00000080040000C00400010004000140040B0
:101900000040014000440140004801404FF6FF7193
:10191000818000210180C1804180017270470000F8
:1019200010B586B0044601210420FFF7E7FC012131
:101930008803FFF7E3FC4FF40070ADF814000320B8
:101940008DF8160018208DF8170005A91248FFF72A
:1019500046FA4FF48060ADF8140004208DF81700AB
:1019600005A90D48FFF73BFA01940020ADF80800E7
:10197000ADF80A00ADF80C00ADF810000C20ADF881
:101980000E0001A9054800F0AFF90121034800F05D
:1019900043F906B010BD00000008014000380140C6
:1019A00010B540F22551624800F04FF900287DD073
:1019B0005F4800F005FAC4B2612C03D101205D49F3
:1019C000087022E0622C03D102205A4908701CE002
:1019D000632C03D103205749087016E0642C03D10F
:1019E00004205449087010E0652C03D105205149AA
:1019F00008700AE0662C03D106204E49087004E006
:101A0000672C02D107204B4908704B48007848B931
:101A100048480078042805D1002046490870012074
:101A2000454908704348007802285AD04C2C02D10E
:101A300001204249087041480078012822D14048DD
:101A40004049097844543F480078401C3D4908709B
:101A50002A2C17D13C48007858B93C480021016035
:101A600041600181364801604160018101203649B1
:101A7000087033493548FEF769FB00202F4908708C
:101A800030490870522C02D1012031490870304889
:101A9000007801284AD12F482F49097844542E480C
:101AA0000078401C2C4908702A2C00E018E03DD139
:101AB0002A48007858B92A48002101604160018114
:101AC00024480160416001810120244908702149B6
:101AD0002348FEF73BFB00201D4908701E49087093
:101AE00024E0412C0AD101201E49087014211E480F
:101AF000FEF721FB14211D48FEF71DFB1948007855
:101B0000012813D119481A49097844541848007813
:101B1000401C174908702A2C08D114491248FEF7B6
:101B200015FB00200F4908701149087010BD000016
:101B300000440040190000201A000020200000206E
:101B40006C0000201D0000201B000020440000202D
:101B500021000020760000201E0000201C00002034
:101B60004E000020220000205800002080000020AD
:101B70001F00002010B586B0044601210420FFF7A5
:101B8000BDFB01214804FFF7A9FB0420ADF81400B8
:101B900003208DF8160018208DF8170005A91C48A1
:101BA000FFF71DF90820ADF8140004208DF8170088
:101BB00005A91748FFF713F926208DF80000032028
:101BC0008DF801008DF8020001208DF803006846B1
:101BD000FFF740FB01940020ADF80800ADF80A00C3
:101BE000ADF80C00ADF810000C20ADF80E0001A906
:101BF000084800F079F8012240F22551054800F02C
:101C00004EF80121034800F007F806B010BD0000AF
:101C1000000801400044004021B1828942F4005292
:101C2000828104E082894DF6FF731A4082817047F9
:101C300002460020B1F5007F00D100BF13880B40A1
:101C40000BB1012000E00020704770B5024600246F
:101C500000230025002040F66A16B14200D100BFE3
:101C6000C1F3421501F01F03012606FA03F3012D0B
:101C700002D19689334006E0022D02D1168A334004
:101C800001E0968A33400C12012606FA04F4168805
:101C9000344013B10CB1012000E0002070BDF0B55C
:101CA0000346002400260025002040F66A17B942AA
:101CB00000D100BF1846C1F3421401F01F060127EE
:101CC00007FA06F5012C01D10C3004E0022C01D1F9
:101CD000103000E014301AB107682F43076002E0AB
:101CE0000768AF430760F0BD2DE9F04786B00546B1
:101CF0000E460024A24600BFA1460027B08900B1CD
:101D000000BF2F462C8A4CF6FF700440F088044335
:101D10002C82AC894EF6F3100440B0883189084318
:101D2000718908430443AC81AC8A4FF6FF400440FC
:101D3000B0890443AC8201A8FFF7F0FA1F4887423C
:101D400002D1DDF810A001E0DDF80CA0A88900F4B4
:101D5000004040B10AEBCA0000EB0A1031684900AC
:101D6000B0FBF1F807E00AEBCA0000EB0A1031689B
:101D70008900B0FBF1F86420B8FBF0F00401200901
:101D8000642101FB1089A88900F4004040B1322091
:101D900000EBC900B0FBF1F000F00700044308E0DD
:101DA000322000EB09106421B0FBF1F000F00F00CD
:101DB00004432C8106B0BDE8F087000000380140E4
:101DC00001468888C0F308007047C1F3080282808A
:101DD000704700BFFEE700000FB4054B10B503A924
:101DE000044A029800F0A8F810BC5DF814FB00004B
:101DF0001D2100083C000020490050EAC12018BF06
:101E000004204A0D18BF40F0010040F2FF72B2EB0F
:101E1000515F08BF40F00200012808BF052070474D
:101E20002DE9F0414F1E00EBC7010446D1E9000146
:101E300015461E4637F006020DD02A463346FEF7F9
:101E400035FA7F1E04EBC703D3E90023FEF787F9B9
:101E500037F00602F1D1022F25D0042F13D0062F20
:101E600018BFBDE8F0812A463346FEF71FFAD4E9D1
:101E70000A23FEF774F92A463346FEF717FAD4E927
:101E80000823FEF76CF92A463346FEF70FFAD4E929
:101E90000623FEF764F92A463346FEF707FAD4E92B
:101EA0000423FEF75CF92A463346FEF7FFF9D4E92E
:101EB0000223FEF754F92A463346FEF7F7F9D4E930
:101EC0000023BDE8F041FEF74AB9000000221346A6
:101ED00010460149FEF730BB0000F03FFEF73FB966
:101EE0000022134610461146FEF726BB40F201328F
:101EF00000204FF0E041FEF78EBB0000024A0020B8
:101F00001107FEF788BB000001FDFFFF02E008C8D3
:101F1000121F08C1002AFAD170477047002001E063
:101F200001C1121F002AFBD170470000014908605F
:101F300070470000400000202DE9FF4F89B09B460C
:101F40000446002506E025280BD05A460B999047F9
:101F5000641C6D1C20780028F5D10DB02846BDE822
:101F6000F08F0027B8460122474900E0074314F8E4
:101F7000013F203B02FA03F00842F7D120782E28D7
:101F800019D114F8010F47F004072A280ED06FF07A
:101F90002F022078A0F1300109290CD808EB880124
:101FA00002EB410100EB0108641CF2E70A98641C93
:101FB00050F8048B0A9020780028CED0642808D0EE
:101FC000692806D075281ED05A460B9990476D1C7B
:101FD00058E00A994FF00A0901C90A91002802DA6B
:101FE00040422D2102E0390504D52B218DF8201027
:101FF000012103E0F90704D02021F7E78A4608AE63
:102000000DE00021FAE70A994FF00A0901C90A9187
:10201000F7E74946FEF7ECF9303106F8011D0028D4
:10202000F7D1ADEB060000F12009780701D44FF09D
:102030000108C84502DDA8EB090000E00020804649
:10204000002706E008A85A46C05D0B9990476D1C12
:102050007F1C5745F6DB04E030205A460B99904729
:102060006D1CB8F10001A8F10108F5DC05E016F8D7
:10207000010B5A460B9990476D1CB9F10001A9F16B
:102080000109F4DC641C65E70928010010B56FF054
:102090000400FFF723FA0A4800680A49B0FBF1F090
:1020A000094908700846007800EB4001C1EBC010F8
:1020B0004FF6FF7101EAC0000449088010BD00001E
:1020C0000000002000127A001400002016000020FA
:1020D0000146114A12884A434FF0E0235A61002218
:1020E0009A611A46126942F001021A6100BF4FF06C
:1020F000E022106900F001021AB100F48032002AD7
:10210000F5D04FF0E022126922F001024FF0E023F7
:102110001A6100229A6170471600002070B50446CB
:102120000D46E1B20548FFF750FE00BF802103488D
:10213000FFF77EFD0128F9D1204670BD003801402F
:10214000FFF7A4FF4FF4A060FFF7BCF8FEF71CFFF9
:102150004FF4E130FFF7E4FB4FF41650FFF70AFDB0
:10216000FEF7B2FF01E0FEF735FEFCE72DE9F04D8A
:102170001D460C4698B0174621F0004123F000435D
:10218000002814BF4FF0010C4FF0000C0CEB440C76
:10219000FE4A0CEB02064FEA620C66452BD33E006A
:1021A00018BF012606EB45061644F94A964222D38B
:1021B000F84A53EA070C02D0944205D148B918B046
:1021C00000201146BDE8F08D002808BF4FF0000C3C
:1021D00001D04FF0010C0CEB440212F5001F0AD89D
:1021E000002F14BF4FF0010C4FF0000C0CEB450218
:1021F00012F5001F07D918B03A462B462146BDE814
:10220000F04DFFF76BBE0022DFF88CA3002CB8BFA7
:10221000534526DADFF884C36345A8BF022220DADB
:10222000DFF870C39C451CDCDFF874C30CEB235C47
:10223000BCF1140F08DDCCF1340627FA06FC0CFAC9
:1022400006F6BE420DD108E05FB9CCF1140623FAC0
:1022500006FC0CFA06F69E4203D10CF00102C2F114
:10226000020251EA000C19D1002D17DA002C18BF18
:10227000022A01D0012A07D00220FFF757FE18B02A
:10228000BDE8F04DFFF722BE0220FFF74FFEFFF73B
:102290001DFE18B081F00041BDE8F08DB7F1000CD3
:1022A0006CD1534525D104F1804212F5801201BF53
:1022B00000280020B74918B008BFBDE8F08DB54828
:1022C000884207DC002DA1BF6046294618B0BDE852
:1022D000F08D07E0281E05DA80F0004118B0604656
:1022E000BDE8F08DAF497944D1E9000118B0BDE8EF
:1022F000F08DDFF8A0C2634525D1002D1FDA19B19A
:10230000514512D1D8B909E0002840F0EC82A24A28
:10231000214618B062F31E01BDE8F08D0020214671
:1023200018B060F31E01BDE8F08D08DA18B023463E
:10233000BDE8F04D024600206146FEF7FDB818B03A
:102340002146BDE8F08D514518DAB5F1804F0DD02A
:10235000A5F1005CBCF1FF5C10D1B4F1000C0DDB09
:1023600018B06146BDE8F04D00F0ECBB234618B054
:102370000246BDE8F04D1946FDF798BF060024F06F
:10238000004C3BD1D9B1514533D1002C06DD002D95
:10239000A1BF0020514618B0BDE8F08D002C01DD32
:1023A000002D1BDB002C13DA002D11DB012A4FF06E
:1023B000000014BF78497C4918B0BDE8F08D022AAE
:1023C00018BF002C0AD0012A08D1002C06DA0AE036
:1023D000002CB8BF002D11DA012A04D0002018B05B
:1023E0000146BDE8F08D18B000204FF00041BDE877
:1023F000F08DA1F14050B0F17F601AD0012000EBC8
:10240000E47050EA020421D0624C521E4FF0000BDF
:10241000104304BF4FF0000B644C654883427CDDE1
:10242000644A654893421FDD884217DB002D25DB97
:1024300037E0002C00DA4AB1022A0CBF01204FF02D
:10244000FF3018B0BDE8F04DFDF7A2BF0120FFF747
:102450006DFD18B0BDE8F04DFFF742BD4D4A8A4210
:1024600002DC002D0ADC1CE0814202DA002D18DAC1
:1024700004E0484B994220DD002D12DD0220FFF7D9
:1024800055FDFFF733FD05460E46002253465846DC
:102490002146FDF70BFF18B066F31E012846BDE884
:1024A000F08D0220FFF742FDFFF728FD0A46214686
:1024B00018B062F31E01BDE8F08D0022304661467F
:1024C000FDF7EEFE80460E466FF00102FEF7A3F820
:1024D0004FF05532394BFDF7E6FE42463346FDF7E5
:1024E000E5FE0022364BFDF7DEFE824642463346CD
:1024F000049110461946FDF7D9FE5246049BFDF79C
:10250000D5FE8A4600904FF0C0422E4B40463146E1
:10251000FDF7CCFE2C4A2B4B00E027E0CDE906016D
:1025200051460098FDF7C2FE82460191274A284B8A
:1025300040463146FDF7BAFE5246019BFDF7B0FE1C
:1025400082460B4602460591DDE90601FDF707FECE
:10255000DDE90623002688463046FDF7A1FE5246F7
:10256000059BFDF7A0FE024600F07EB90020B1F504
:10257000801F07DA352230466146FEF74CF80646E2
:102580006FF0340000EB215024E00000FFFF1F003B
:10259000FFFF0F000000F03F0000F07F000040430D
:1025A00001FCFFFF2E0900000000F0FF0000F0BF5B
:1025B0000000E0410000F043FFFFEF3F5555D53FDD
:1025C0000000E03F4715F73FFE822B6544DF5DF8D2
:1025D0000BAE543EA0F2FF300190C1F3130040F067
:1025E0007F6141F040510291FE498842D8BF0020EE
:1025F00004DDFD498142C8BF012001DD0D9008E0E6
:1026000000200D900198401C01900298A0F58010C8
:1026100002900299F54878440B910D9900EBC100A6
:10262000D0E900230F9330460A920B99FDF738FE4C
:10263000CDE90601DDE90A2130460F9BFDF78FFD4C
:1026400002460B460020EA49FDF776FF0591024657
:102650000B460090DDE90601FDF728FE1490E548E1
:102660008A464FF0000878440299006812904FF0B3
:10267000005040EA61010D980F9B01EB804000F58E
:10268000002109910A9A1298FDF70AFE32460B9B27
:10269000FDF709FE42465346FDF708FE0646029145
:1026A00040465146099B129AFDF700FEDDE90623DC
:1026B000FDF7F9FD3246029BFDF7F2FD059B009AFE
:1026C000FDF7F4FD0091149A049053461046194604
:1026D000FDF7ECFD06460246C7480B46029106216F
:1026E0007844FFF79DFBCDE90510029B324610466A
:1026F0001946FDF7DBFDDDE90532FDF7D7FD059154
:102700000646534640461946149AFDF728FD009B9D
:10271000049AFDF7CBFD3246059BFDF720FDCDE980
:1027200005104246534610461946FDF7BFFD0022EC
:10273000B24B02910A90FDF712FDDDE90532FDF77B
:102740000EFD0E464246AD4B4046FDF7A9FD029BED
:102750000A9AFDF7A5FDDDE90532FDF7A4FD424625
:1027600002910A90334610465146FDF79FFDCDE990
:1027700006015346149A02990A98FDF797FD8A4676
:1027800002903346424600990498FDF78FFD534668
:10279000029AFDF7E4FC82460B4602460591DDE90C
:1027A0000601FDF7DCFCDDE906230020884606462D
:1027B000FDF776FD5246059BFDF775FD82460991B2
:1027C0004FF060428E4B30464146FDF76FFD04905E
:1027D00006918C4A8A4B50460999FDF767FD82465F
:1027E0000291894A894B30464146FDF75FFD5246CA
:1027F000029BFDF7B4FC864B7B440D9A03EBC203AE
:10280000D3E90023FDF7ABFC0E9007910198FDF78B
:10281000BFFD0591DDE9061382460E9A0498FDF787
:102820009EFC7C4A7A440D9B02EBC303D3E9002350
:1028300000930292FDF793FC5246059BFDF78FFC37
:102840000026884652463046059BFDF729FD009B31
:10285000029AFDF725FD069B049AFDF721FD079BD3
:102860000E9AFDF720FD024600200B4602903846E6
:102870002946FDF71BFD824601912B463846194635
:10288000029AFDF70DFD32464346FDF70FFD524615
:10289000019BFDF764FC07468A46324643462946BB
:1028A0000298FDF703FD05460E463A465346FDF7EE
:1028B00056FC594A8846914221DBA8EB020353EAB1
:1028C000000210D12A463346FDF7EAFCCDE90401A7
:1028D000524A534B38465146FDF741FCDDE904238B
:1028E000FDF7B0FE21D20220FFF720FBFFF7FEFA32
:1028F0000A46214618B062F31E01BDE8F08D494B2F
:1029000028F000429A4210D3474A08EB020353EAE8
:1029100000027FF4C6AD2A463346FDF7C1FC3A46B5
:102920005346FDF78FFE7FF6BCAD0022019228F0E2
:1029300000403E493E4A01EB2051824223DA481CC6
:102940004FF4801121FA00F040443A4AC0F30A5192
:102950007A44394BA1F2FF31CB4020EA0303C0F3A4
:10296000130040F48010C1F11401C84012680190B6
:10297000B8F1000FBCBF4042019028463146FDF738
:102980008FFC05460E462A46334638465146FDF72B
:10299000E6FB4FF000084246284B40460591FDF704
:1029A00085FCCDE90601264A264B40460599FDF7F0
:1029B0007DFC009102902A46334640460599FDF77A
:1029C0006FFC3A465346FDF76EFC1F4A1F4BFDF75E
:1029D0006DFC009B029AFDF7C2FB07468846024643
:1029E0000B4635E08E9803007AB60B0076050000A2
:1029F0000000F03FAE050000DC04000000000840CD
:102A000009C7EE3FFD033ADCF5015B14E02F3EBE43
:102A1000B40300007803000000009040FE822B65A4
:102A20004715973C00CC904000346F3F01FCFFFFFE
:102A30000000E03FC4020000FFFF0F00432EE63F0E
:102A4000396CA80C615C20BEEF39FAFE422EE63FDD
:102A5000DDE90601FDF783FBDDE9062305460E46A9
:102A6000FDF71EFC3A464346FDF71DFC0F462A467D
:102A70003346009010461946FDF718FC8246024680
:102A80002E4888460B4605217844FFF7C9F952467F
:102A90004346FDF70BFC2A463346FDF704FC80460F
:102AA0008A463B4628463146009AFDF7FFFB3B46E7
:102AB000009AFDF754FB0691009000224FF08043EE
:102AC00040465146FDF7ECFB0F460C9042465346FC
:102AD00028463146FDF7EAFB3B460C9AFDF72CFDF4
:102AE000069B009AFDF7DCFB2A463346FDF7D8FB30
:102AF0000022134BFDF7D7FB054601980E4601EB6C
:102B000000510815002810DC28463146019AFDF7CF
:102B100082FDFFF771F9042808BFFFF7EFF9284697
:102B20003146019AFDF777FD05460B4618B02A4657
:102B300058462146BDE8F04DFDF7B8BB64010000E2
:102B40000000F03F2DE9F04106460F46FDF7A4FDD9
:102B5000041E0D4618BF0120284320F00040C0F19C
:102B60007F6000F1E040C00F0ED0301C18BF012084
:102B7000384320F00040C0F17F6000F1E040C00F1A
:102B800004BF0120FFF7D2F920462946BDE8F081B5
:102B9000000000000000F03F000000000000F83FCF
:102BA00000000000000000000000004003B8E23F09
:102BB000000000000000000006D0CF43EBFD4C3EBB
:102BC000033333333333E33FFFAB6FDBB66DDB3FB0
:102BD0004D268F515555D53F01411DA96074D13FF8
:102BE00065DBC9934A86CD3FEF4E454A287ECA3FF2
:102BF0003E5555555555C53F93BDBE166CC166BF74
:102C00002CDE25AF6A56113FF16BD2C541BDBBBE6C
:102C1000D0A4BE726937663E0000000000000000CC
:102C2000402C000800000020440000000C1F000899
:102C3000842C0008440000207C0400001C1F0008B5
:102C400000A24A040000000000000000010203048A
:102C50000607080900000000000000000000000056
:102C6000000000000000000102030401020304064A
:102C70000708090204060800000000000000000028
:042C80000000000050
:0400000508000105E9
:00000001FF
