:020000040800F2
:10000000383D0020B502000815360008C12200085E
:1000100043350008171C00086B580008000000005A
:10002000000000000000000000000000BD500008BB
:10003000511E000800000000F74D0008B9520008EA
:10004000CF020008CF020008CF020008CF0200084C
:10005000CF020008CF020008551E0008851E0008C8
:10006000CF020008CF020008B51E0008CF0200082A
:10007000CF020008CF020008CF020008CF0200081C
:10008000CF020008CF020008CF020008CF0200080C
:10009000CF020008CF020008CF020008CF020008FC
:1000A000CF020008CF020008CF020008CF020008EC
:1000B0001D53000849530008E1530008CF0200080F
:1000C000CF020008CF020008CF020008CF020008CC
:1000D000CF020008095500080D56000851560008C7
:1000E000CF020008CF020008CF02000800F002F89B
:1000F00000F0B6F80AA090E8000C82448344AAF10C
:100100000107DA4501D100F0ABF8AFF2090EBAE809
:100110000F0013F0010F18BFFB1A43F0010318473B
:100120001CC000003CC0000010F8013B0A4413F062
:10013000030408BF10F8014B1D1108BF10F8015B44
:10014000641E05D010F8016B641E01F8016BF9D133
:10015000002D15D010F8014B03F00C030C2BA1EB74
:1001600004040ABF10F8013BA4EB8314A4EB03249E
:1001700005F1010314F8016B5B1E01F8016BF9D561
:10018000914238BF10F8013BD1D3704700230024BF
:1001900000250026103A28BF78C1FBD8520728BF97
:1001A00030C148BF0B6070476E2900F093837029FF
:1001B00000F07381662908F05C86652908F059868D
:1001C000672908F056866129AFF3008003681B0A8F
:1001D00028BF41F08001692900F0E480642900F023
:1001E000E180752900F0DE806F2900F0848678298F
:1001F00000F03F81E92900F01F86E42900F01C8609
:10020000F52900F01986EF2900F08186F82900F021
:100210003E810368DB0928BF41F08001632900F0BB
:100220003B87732900F04087E32900F04B87F329CF
:1002300000F05087002070471FB500F012FA00F060
:1002400093FE04000020002107F0F4FC401C6060D5
:100250000020002107F0D8FCE0601FBD10B510BDE4
:1002600000F0D6FF1146FFF7E7FF06F053FC00F061
:10027000FDFF03B4FFF7F2FF03BC05F07CFB0000B9
:100280000B49D1F800C04A685CF8043B1068184478
:1002900042F8040B8C4528BFA1F1DC0C8A4228BF30
:1002A000A1F1DC02C1F800C04A6020F000407047B4
:1002B000CC3600200948804709480047FEE7FEE7A2
:1002C000FEE7FEE7FEE7FEE7FEE7FEE7FEE7FEE706
:1002D00004480549054A064B70470000BD52000816
:1002E000ED00000838370020383D00203839002064
:1002F00038390020704700000FB4044910B503AA34
:10030000029800F029FD10BC5DF814FB1C000020D1
:100310000FB4044910B503AA029800F01DFD10BCEB
:100320005DF814FB1C0000200FB41CB5084B06AA96
:100330007B4469460090059800F0F5FC04460020D7
:10034000694600F003FD20461CBC5DF814FB00006C
:10035000190A000070B5044685690068C10601D518
:10036000302600E02026C00707D070BDD4E9012167
:1003700030469047206A401C20626D1EF6D570BD45
:1003800070B5044685690078C00707D170BDD4E90F
:10039000012120209047206A401C20626D1EF6D566
:1003A00070BD00002DE9F041064600241068752953
:1003B000314616A510D000F0F9F9002802DA4042C3
:1003C00013A507E031688A0701D512A502E04907A5
:1003D00004D511A5012401E000F0F1F900210A2261
:1003E00006F1240709E0B0FBF2FCB0FBF2F302FBDC
:1003F0001C00303078541846491C0028F3D123469D
:100400002A463046BDE8F04100F00BBA000000007B
:100410002D0000002B00000020000000F0B40D466D
:100420000188090502D5214C7C4402E01F4C7C4424
:100430000E34002100F1240608E002F00F07120933
:10044000E75D42EA03721B097754491C52EA03072D
:10045000F3D102780023120704D5702D06D009B11C
:10046000022311342246F0BC00F0DBB90123103422
:10047000F8E770B504460D462146106800F09FF974
:10048000024629462046BDE870400023C6E7D21D3B
:1004900022F00703D3E90023C0E70368126843F0A2
:1004A000200303600823C3610023B7E7FABA000002
:1004B0002DE9F05F894604464FF0000ADFF874B179
:1004C000FB44C0F820A02046E1688847002874D08B
:1004D000252806D0D4E901219047206A401C2062DB
:1004E000F1E700265F462046E16888472028054658
:1004F00007DB312D05D2781910F8200C08B106431E
:10050000F1E7B00701D526F00406C4F81CA00027C7
:10051000C4F818A02A2D09D0284605F025FA38B3CA
:1005200004EB8708303DC8F8185019E059F8041B4F
:10053000204604EB87029161E1688847012F054658
:1005400018D1E069002820DA26F020061DE0D8F84E
:10055000180000EB800005EB40003038C8F81800A8
:100560002046E1688847054605F0FEF90028EED1EF
:10057000012F0AD02E2D08D12046E16888477F1C24
:100580000546022F46F02006C4DBA069002803DAE6
:10059000404246F00106A061F00701D026F01006A7
:1005A0006C2D0BD0682D09D04C2D39D06A2D35D04B
:1005B000742D35D07A2D33D016E038E0E1682F461F
:1005C00020468847B842054609D16C2F26D04FF403
:1005D0008060E168064320468847054604E06C2FAA
:1005E0001AD04FF4807006430DB3A5F141001928CD
:1005F00002D8203546F400664A4629462046266041
:100600004E46FFF7D1FD80B101280BD0F61D26F034
:10061000070000F1080956E74020E4E78020D8E70A
:100620000020D6E706F104094DE7284652E7206A84
:10063000BDE8F09F8ABA00000B4910B5A1F17C0219
:100640000A4CC2E93712372106E000EB104342F8AA
:100650002130074B00FB03400B1EA1F10101F4DC2C
:1006600010BD0120E8E700006C360020E119D666D5
:10067000CD0D010040EA010310B59B070FD1042AFC
:100680000DD310C808C9121F9C42F8D020BA19BA5D
:10069000884201D9012010BD4FF0FF3010BD1AB1C2
:1006A000D30703D0521C07E0002010BD10F8013B17
:1006B00011F8014B1B1B07D110F8013B11F8014B3E
:1006C0001B1B01D1921EF1D1184610BD10B5203A66
:1006D000C0F00B80B1E81850203AA0E81850B1E8FB
:1006E0001850A0E81850BFF4F5AF5FEA027C24BFB1
:1006F000B1E81850A0E8185044BF18C918C0BDE8A8
:1007000010405FEA827C24BF51F8043B40F8043B70
:1007100008BF7047D20728BF31F8023B48BF11F825
:10072000012B28BF20F8023B48BF00F8012B70477F
:1007300002F0FF0343EA032242EA024200F0F4BB64
:100740004FF0000200B5134694469646203922BF6A
:10075000A0E80C50A0E80C50B1F12001BFF4F7AFB5
:10076000090728BFA0E80C5048BF0CC05DF804EB97
:10077000890028BF40F8042B08BF704748BF20F805
:10078000022B11F0804F18BF00F8012B7047704703
:1007900070477047704710B500F0EAFB006810BD65
:1007A00010B5044600F0E4FB046010BD09684A057A
:1007B00001D540B27047C905FCD500B27047096841
:1007C0004A0501D5C0B27047C905FCD580B2704753
:1007D00070B50C460546012A05D02878800600D55C
:1007E000EA69002302E0012305E05B1C934202D288
:1007F000E05C0028F9D1A869E618C01AA861286A47
:10080000184428622846FFF7A5FD04E0D5E9012138
:1008100014F8010B9047B442F8D32846FFF7B0FD17
:1008200070BD2DE9F0470D4699469246044600F109
:1008300024080168880604D5E06921F010012160D0
:1008400000E00120A84201DD471B00E00027A1696C
:100850007A1902EB0900081AA0612078C00602D4B8
:100860002046FFF777FD002608E0D4E901211AF8B9
:1008700006009047206A401C761C20624E45F4DB3F
:100880002078C0060AD52046FFF764FD06E0D4E9CB
:10089000012130209047206A401C2062381EA7F1B9
:1008A0000107F4DC07E0D4E9012118F805009047BE
:1008B000206A401C2062281EA5F10105F3DC2046B9
:1008C000FFF75EFD2078000602D50220BDE8F08724
:1008D0000120FBE711680268006A530501D5087022
:1008E0000AE0D30501D5088006E0130603D5C21738
:1008F000C1E9000200E008600120704770472DE95F
:10090000FF4F0C461E464FF0FF378BB0D2E9000177
:10091000DDF860800A908A46C1F30A5505B93D4664
:10092000002108464FF00000BAF1000F00F440002B
:1009300005DA00EB80004FF4400101EA50004FEA75
:100940009059B9F1010F00DDB9460A9850EA4A0002
:100950000ED044F61050A5F2FF3545432F14B8F1E0
:10096000000F1ED07542291E1EDDC9F100021CE0D9
:10097000B8F1010F4FF0000001D0302103E0F24345
:1009800005E02154401CB042FBDB30460022002130
:1009900021540B99C1F80880C1E900200FB0BDE8CF
:1009A000F08FBD1B6D1CDEE74A4600DA694206A8DF
:1009B00000F094FB06AB93E8070003AB83E8070065
:1009C00050460A9900F09CFC8DE80700A0F5005005
:1009D0001F3800900398002D0ADD42F21F014A469D
:1009E0000844002303A90390684600F005FF09E0CE
:1009F000A0F500504A461F38002303A9039068461B
:100A000000F00FFF8DE807000004000C03D04FF04A
:100A1000FF30410800E01046B8F1000F03D000227B
:100A2000009215461EE0751E05D400F0A5FA30327E
:100A300062556D1EF9D5B3460122084302D000224B
:100A40007F1C04E02078302801D100227F1E002A7C
:100A5000099784D01DE0112D07DA00F08DFA3032AD
:100A600062556D1C50EA0102F5D1084302D000988E
:100A7000C8B10EE00021681E05E0235C625C63548F
:100A80002254401E491C8142F7DBAB46A81B401E86
:100A90000990002004F80B000B98099AC0F8088010
:100AA000C0E9002B7AE711264FF0000857E72DE93F
:100AB000F04F88460446D21D22F0070191B0D1E9DB
:100AC0000001CDE90A0104F0D2FE02460B98C00FE6
:100AD00001D02D2007E02068810701D52B2002E0FE
:100AE000202101EAC000032A099001D0072A05DB72
:100AF00003464146204600F085FA0BE12078800647
:100B000001D5E06900E00620B8F1650F814606D006
:100B1000B8F1660F18D0B8F1670F70D131E000203E
:100B2000B9F1110F009001DB112301E009F101037C
:100B30000AAA01A90CA8FFF7E2FEDDE90C70002665
:100B400009F10105834647E001204B4600904FF034
:100B500000470AAA01A90CA8FFF7D1FEDDE90DB0F4
:100B60000C995D46002610B909F101000D18B9EB8A
:100B7000050003D4C0F1FF3609F10105A5EB09001A
:100B80002BE0B9F1010F01DA4FF001090020B9F1B2
:100B9000110F0090484601DD112300E003460AAA28
:100BA00001A90CA8FFF7ABFEDDE90C704D4600264D
:100BB0008346207800070AD4AB4500DA5D4601A8D9
:100BC000012D04DD411911F8011C302907D04F45D2
:100BD00002DA17F1040F04DA012082460FE06D1EDD
:100BE000EEE7002F02DCED1B3E4403E0781CA84238
:100BF00000DD7D1CB81B00F1010A4FF00047207892
:100C0000000703D4AA4501DB4FF0FF3A0021B7F1FA
:100C1000004F0DF143088DF8431024D002202B2300
:100C2000002F01DA7F422D230A21021EA0F10100CC
:100C300000DC5FB197FBF1FC97FBF1F201FB1C7C40
:100C400017460CF1300C08F801CDEEE7A8F10100D1
:100C500003702188090501D5452100E06521A0F137
:100C6000010800F8011C09980FA9A1EB0807FF1D56
:100C700000B10120411901EBEA70A1693844081A5A
:100C8000401EA0612078C00602D42046FFF762FB18
:100C9000099828B1D4E901219047206A401C2062BC
:100CA0002078C00622D52046FFF754FB1EE0002E18
:100CB00004DBB34502DD01A8805D00E03020D4E90B
:100CC00001219047206A401C2062761CAAF1010095
:100CD0005FEA000A0AD100F047F9C0680168405C89
:100CE000D4E901219047206A401C2062281EA5F10A
:100CF0000105DCDC07E0D4E9012118F8010B90477D
:100D0000206A401C2062381EA7F10107F3DC204650
:100D1000FFF736FB032011B041E6000001694A1CD1
:100D200002610878704700B58FB0CDE9013100212C
:100D3000059105497944CDE9031011466846FFF74E
:100D4000B7FB0FB000BD0000E5FFFFFF0A6802F827
:100D5000010B0A6070470000074B70B50D467B44DD
:100D6000FFF7E1FF0446284600F02AFA10B14FF0E1
:100D7000FF3070BD204670BD175D00002DE9FF5F9C
:100D800015468A460446DFF8AC80F8440027D8E9C7
:100D900000103E46CDE9001010E03AF816106A4601
:100DA00002A800F011FA411C07D02178890603D56A
:100DB000E269391891420DD80744761C20788006E4
:100DC00002D5E069B84205DDAE42E6DB3AF816002E
:100DD0000028E2D1A069C01BA0612046FFF7BAFA43
:100DE000D8E90010CDE90010002017E03AF81810FB
:100DF0006A4602A800F0E8F9B0F1FF3F81460BD047
:100E000000250DF1080B05E0D4E901211BF80500D0
:100E100090476D1C4D45F7D308F10100B042804664
:100E2000E4DB206A384420622046FFF7A9FABDE8D7
:100E3000FF9F000022B200002DE9F0418046D21D44
:100E400022F007020025D2E90002F52915A614D0E8
:100E5000011E72F1000106DA0023D0EB030063EB00
:100E6000020211A608E0D8F800108B0701D50FA6E2
:100E700002E0490701D50EA601251146002408F11C
:100E8000240704E000F078F830323A55641C50EA48
:100E90000102F7D12B46324621464046BDE8F041DB
:100EA000FFF7BFBC000000002D0000002B00000079
:100EB0002000000030B4002100F1240408E002F01A
:100EC0000705D208303542EA4372DB086554491CF5
:100ED00052EA0305F3D10468002310A2250707D5C1
:100EE000A40600D421B1C46901230DA2641EC4610B
:100EF00030BCFFF796BC10B5044621461068FFF7DA
:100F00005EFC02462046BDE810400023D2E7D21D19
:100F100022F00701D1E90023CCE700000000000027
:100F2000300000004FF000020429C0F0128010F0E1
:100F3000030C3FF407ACCCF1040CBCF1020F18BF5A
:100F400000F8012BA8BF20F8022BA1EB0C01FFF742
:100F5000F9BB5FEAC17C24BF00F8012B00F8012B2C
:100F600048BF00F8012B704700487047F436002056
:100F700000487047D436002030B5B0F10A024FEA7D
:100F8000900E71F100034EEA817EB0EB0E0061EB32
:100F900091014FEA101E4EEA017E10EB0E0041EB6C
:100FA00011114FEA102E4EEA016E10EB0E0041EBCC
:100FB00011214FEA104E4EEA014E10EB0E0041EBAC
:100FC0001141401841F100014FEAD00040EA417060
:100FD0004FEAD10110EB80054FEA810444EA907496
:100FE00044EB01046D1944EB0404521BA3414FF080
:100FF000000348BF0A3200D530BD401C41F100015A
:1010000030BD00002DE9F0411F460446032601686B
:10101000072A01F4006004DB08B116A505E016A557
:1010200003E008B115A500E015A521F0100020602F
:10103000A069C01EA0610FB1401EA0612046FFF74D
:1010400089F94FB1D4E9012138469047206A401C04
:101050002062C01C206206E0206AFAE7D4E9012180
:1010600015F8010B9047761EF8D22046FFF788F955
:10107000BDE8F0814E414E006E616E00494E460063
:10108000696E660010B5436913B1AFF3008001E0EB
:10109000FFF79EFB012010BD127800F124010A70B9
:1010A00000224A700122EDE711684FF0FF32E9E7B4
:1010B00010B5436913B1AFF3008001E0FFF75EFEA6
:1010C000012010BD128800F1240182840022C28414
:1010D0000122EDE711684FF0FF32E9E72DE9F04713
:1010E000814616468AB0354878440DC88DE80D0013
:1010F00032487844801C03AC0DC884E80D0041F6EA
:101100009B300844372190FBF1F290FBF1F5A5F1FB
:10111000800501FB12041B3C02D56442012000E063
:101120000020DFF898A080460027FA44AAF1BE0A02
:101130000EE0E0070AD03246684607EB470101237C
:101140000AEB810100F06DFB8DE8070064107F1C45
:10115000002CEED1194F7F44AE3F19E0E80715D0BF
:1011600007EB04100DF1180A90E80E008AE80E0053
:10117000C068F04201D1981908903246012306A9AF
:1011800003A800F04EFB03AB83E807006D10641C5E
:10119000002DE3D14FF0010332466946B8F1000F4C
:1011A00003A802D000F028FB01E000F03AFBC9E9F7
:1011B0000001C9F808200AB0BDE8F087E8AF0000D8
:1011C000007B00F08000704770B516460C4605465F
:1011D00000F044F8036893F80101012806D0FF2CC1
:1011E0000FD8185D68B101202C7070BDD3F80701CD
:1011F0003246214603F2071303442846BDE87040F7
:1012000018474FF0FF3070BD00487047D4360020BB
:101210007546FFF7F9FFAE4605006946534620F0D4
:101220000700854618B020B5FFF752F8BDE820400A
:101230004FF000064FF000074FF000084FF0000B92
:1012400021F00701AC46ACE8C009ACE8C009ACE845
:10125000C009ACE8C0098D467047000010B5FFF723
:1012600083FE001D10BD00BFCD69000010B504460F
:10127000AFF300802046BDE81040FEF7FABF000043
:101280004FF0013C50F8042B51F8043B9A4221D115
:10129000A2EB0C03934313EACC1317D150F8042BA1
:1012A00051F8043B9A4215D1A2EB0C03934313EA85
:1012B000CC130BD150F8042B51F8043B9A4209D1BE
:1012C000A2EB0C03934313EACC13DBD04FF00000E6
:1012D000704700BFD01A01BAB1FA81F101F01801CC
:1012E00022FA01F0CB40C1F12001DBB2C0B2C01A3A
:1012F0002CFA01F3D11A914311EAC311E6D17047D8
:101300005FEA400C08BF91F0000F4FEA8C234FEAD0
:10131000C12243EA51514FEA1C5018BF00F5F0407A
:101320004FEA300018BF41F000415FEA6C5C00F00A
:101330002980BCF1FF3F08BF40F080407047130C8C
:1013400006BF12044FF0100C4FF0000C130E04BF38
:1013500012020CF1080C130F04BF12010CF1040C63
:10136000930F04BF92000CF1020CD30F04BF520084
:101370000CF1010C11464FF00002A0F11F00A0EB90
:101380000C00704711F0004F08BF704731F000416A
:101390003FF4D5AF0B0C06BF09044FF0100C4FF013
:1013A000000C0B0E04BF09020CF1080C0B0F04BF5C
:1013B00009010CF1040C8B0F04BF89000CF1020C25
:1013C000CB0F04BF49000CF1010CCCF12003A0EBC2
:1013D0000C0022FA03F302FA0CF241EA030100F1D5
:1013E0000100704720F07F4C80EA030023F07F4724
:1013F000ACEB070303F57C5300F0004003F1FF035F
:101400002DE980494FEA154B09B44FEA144325EA08
:101410000B4E24EA03480FF2042606EB1327490873
:101420003E785FEA320203FB0667C7F5000707FB59
:1014300006F64FEA54374FEAD64606F1020607FB96
:10144000066CCCF1005C4FEA1C472CEA074C07FB0A
:1014500006F40CFB06F504EB15464FEA961634BF6E
:1014600000204FF000404FEAD13706FB07FC4FEA5F
:101470001C4C0CFB0BF7D21B03FB0CF761EB0701B9
:101480000CFB0EF7B0EB074072EB17420CFB08F7B2
:1014900034BFA2EB0742B2EB074261EB17414FEAC0
:1014A0000C444FEA910706FB07FC4FEA1C4C0CFB6F
:1014B0000BF7B0EBC74072EB573203FB0CF734BFAE
:1014C000A2EBC742B2EBC74261EB57310CFB0EF700
:1014D000B0EBC70072EB57720CFB08F734BFA2EBFE
:1014E000C702B2EBC70261EB5771039F4FEA8161FC
:1014F00041EA921104EBCC044FEAD1374FEA826201
:1015000006FB07FC42EA90124FEA80604FEA1C4C4F
:101510000CFB0BF7D21B03FB0CF761EB07010CFB79
:101520000EF7B0EB074072EB17420CFB08F734BF25
:10153000A2EB0742B2EB074261EB17414FEA8C5531
:101540004FEA910704EB9C2406FB07FC4FEA1C4C76
:101550000CFB0BF7B0EBC74072EB573203FB0CF7F9
:1015600034BFA2EBC742B2EBC74261EB57310CFB71
:101570000EF7B0EBC70072EB57720CFB08F734BFE5
:10158000A2EBC702B2EBC70261EB577115EB4C251A
:101590004FEA816141EA92114FEA82624FEAD13704
:1015A00042EA901206FB07FC44F100044FEA806017
:1015B0004FEA1C4C0CFB0BF7D21B03FB0CF761EB47
:1015C00007010CFB0EF7B0EB074072EB17420CFB68
:1015D00008F734BFA2EB0742B2EB074261EB1741B9
:1015E00015EB1C154FEA813141EA92414FEA8232F4
:1015F00042EA90424FEA80304FEA0C7644F1000410
:1016000048EA03434EEA0B484FF0000EB2EB080CD9
:1016100071EB030724BF624639464EEB0E0E4FF0C6
:10162000000B0018524149414BEB0B0BB2EB080C7D
:1016300071EB03077BF1000B24BF624639464EEB8A
:101640000E0E4FF0000B0018524149414BEB0B0BB3
:10165000B2EB080C71EB03077BF1000B24BF624671
:1016600039464EEB0E0E51EA020718BF46F001064E
:1016700016EB0E7655F1000254F1000103D5BDE8DA
:101680008901BDE80088BDE88901BDE80048B619B8
:10169000524141EB0101A3F10103704780807F7E3D
:1016A0007D7C7B7A797877767675747372717170D8
:1016B0006F6E6E6D6C6C6B6A6A696868676666658A
:1016C0006464636362616160605F5F5E5E5D5D5C18
:1016D0005C5B5B5A5A595958585757565655555589
:1016E0005454535352525251515050504F4F4F4EE9
:1016F0004E4D4D4D4C4C4C4B4B4B4A4A4A49494937
:101700004848484747474746464645454544444478
:10171000444343434342424242414141002B9C46A1
:1017200030D477002BD01CB54FEA370703B44FF005
:1017300010004FF01001BAF1000F06D0BCF1000FFD
:10174000DCBF40F0080040F008014FF000000FBC83
:10175000BDE810400BF1010BBBF1010F08BF5FEAC0
:10176000170722BF12F1010211F101014FF00041F0
:1017700043F1000300F0004043EA00007047F9D352
:101780005708D0E746EA064613F1400F4FEA1646DF
:101790001FDD13F1200FDFBF16430A46002120335F
:1017A0005B42BED0C3F1200746EA064602FA07F7BD
:1017B0004FEA164646EA0706C3F1200722FA03F26B
:1017C00001FA07F721FA03F14FF0000342EA07029A
:1017D000A7E746EA020646EA06464FEA164646EA02
:1017E0000106BCBF46EA0646360C4FF000034FF038
:1017F00000024FF0000194E72DE9804C9A46934691
:1018000070B491E8380007C831EA400C48BF34EAA8
:10181000430C03D5FFF7E6FDFFF780FFF0BCBDE802
:10182000008C2DE9804C9A46934670B491E83800BC
:1018300007C810F0804F08BF13F0804F03D100F0AD
:1018400005F8FFF76BFFF0BCBDE8008C20F07F4788
:1018500080EA030023F07F4C07EB0C03A3F57C53D5
:1018600000F00040A3F1FE0392F0000F00F0B380FF
:1018700095F0000F00F077802DE901494FEA114003
:101880004FEA144621EA004800FB06FC24EA06471A
:1018900008FB06F607FB08F800FB07F718EB0648FD
:1018A0004CEB164C4FEA124B18EB07484FEA154623
:1018B0004CEB174022EA0B4E0BFB06FC25EA0647D1
:1018C0000EFB06F607FB0EFE0BFB07F71EEB064EA4
:1018D0004CEB164C4FF000061EEB074E4CEB174B33
:1018E00018EB0B0840F1000018EB0E0B58EB00084A
:1018F00040F100008F1A4FF000013CBFC943661B46
:1019000014BFB5EB040C00213CBFC943F61B4FEAE2
:1019100017444EEA8E0E27EA04454FEA1C4704FBA3
:1019200007622CEA074C05FB07F70CFB05F604FBE6
:101930000CFC16EB074642EB174216EB0C4642EB4B
:101940001C421BEB060658EB0202414146EA9E068A
:1019500001D5BDE80189B619524141EB0101A3F15E
:101960000103BDE801894FEA14454FEA114724EA13
:10197000054621EA074C05FB07F406FB07F70CFBBD
:1019800006F105FB0CFC11EB074144EB17444FEA51
:10199000124711EB0C4144EB1C4422EA074C05FBB7
:1019A00007F206FB07F70CFB06F605FB0CFC16EB33
:1019B000074642EB174216EB0C4642EB1C456A18F1
:1019C00054F1000148BF7047B619524141EB010183
:1019D000A3F10103704795F0000F37D04FEA114291
:1019E0004FEA144721EA024624EA074C02FB07F1BA
:1019F00006FB07F70CFB06F402FB0CFC14EB074498
:101A000041EB17414FEA154714EB0C4441EB1C41E5
:101A100025EA074C02FB07F506FB07F70CFB06F669
:101A200002FB0CFC16EB074645EB174516EB0C4684
:101A300045EB1C42121951F1000148BF7047B6191D
:101A4000524141EB0101A3F1010370474FEA1445F4
:101A50004FEA114724EA054621EA074C05FB07F146
:101A600006FB07F70CFB06F24FF0000605FB0CFC2B
:101A700012EB074241EB174112EB0C4251EB1C41B8
:101A800048BF7047921841EB0101A3F10103704771
:101A900021B1826842F00102826003E0826822F094
:101AA00001028260704721B1826842F480728260D4
:101AB00003E0826822F48072826070470146002051
:101AC0008A6802F004020AB1012000E00020704799
:101AD000014600208A6802F008020AB1012000E0F5
:101AE0000020704730B502460020002350680F4C9C
:101AF00020400D790C6844EA05242043506090682A
:101B00000B4C2040D1E902542C434D7944EA450462
:101B100020439060D06A20F470000C7C641EE4B214
:101B2000234340EA0350D06230BD0000FFFEF0FFC7
:101B3000FDF7F1FFF0B504460D4600200021092D08
:101B400011DDE068A5F10A0606EB4607072606FA4E
:101B500007F18843A5F10A0606EB460603FA06F1EB
:101B60000843E0600CE0206905EB4507072606FA0C
:101B700007F1884305EB450603FA06F108432061A7
:101B8000072A0FDA606B561E06EB86071F2606FA39
:101B900007F18843561E06EB860605FA06F1084350
:101BA000606322E00D2A0FDA206BD61F06EB860752
:101BB0001F2606FA07F18843D61F06EB860605FAAC
:101BC00006F10843206310E0E06AA2F10D0606EB7F
:101BD00086071F2606FA07F18843A2F10D0606EBD9
:101BE000860605FA06F10843E062F0BD816841F01F
:101BF00008018160704721B1826842F4A0028260CE
:101C000003E0826822F4A00282607047816841F09C
:101C100004018160704700BFFEE70000024602EB4E
:101C20004200054B03EB001050F8210008B10020E2
:101C300070470120FCE70000F02E002010B502469E
:101C400000201BE0002116E008B10B2807D16FF03F
:101C5000010301EB410402EB041444F8203009B104
:101C60001F2907D16FF0010301EB410402EB0414BB
:101C700044F82030491C2029E6DB401C0C28E1DB1D
:101C800010BD21B1026842F00102026004E0026866
:101C90004FF6FE731A4002607047000001684FF66D
:101CA000FE72114001600021016041608160C160ED
:101CB0004B49884208D14A490839496841F00F0127
:101CC000474A083A51608AE045491431884208D1B0
:101CD00043490839496841F0F001414A083A5160E6
:101CE0007DE03F492831884208D13D49083949689B
:101CF00041F470613A4A083A516070E038493C3129
:101D0000884208D136490839496841F47041344A5B
:101D1000083A516063E032495031884208D1304975
:101D20000839496841F470212D4A083A516056E05B
:101D30002B496431884208D129490839496841F45E
:101D40007001274A083A516049E0254978318842B4
:101D500008D123490839496841F07061204A083A9E
:101D600051603CE01F49884206D1011F096841F0DB
:101D70000F01021F116032E01A491431884208D164
:101D80001849091F096841F0F001164A121F116035
:101D900025E014492831884208D11249091F0968F1
:101DA00041F470610F4A121F116018E00D493C3177
:101DB000884208D10B49091F096841F47041094A5A
:101DC000121F11600BE007495031884207D10549C5
:101DD000091F096841F47021024A121F11607047FF
:101DE000080002400804024010B50022026847F6CD
:101DF000F0739A430C6A8B6823430C6923434C6944
:101E000023438C692343CC6923434C6A23438C6A64
:101E100023431A430260CB6843600B6883604B68BE
:101E2000C36010BD10B54FF4C0610648FEF788FCD2
:101E30004FF480710448FEF783FC012003490860D9
:101E400010BD0000F02E0020F0340020302A0020C9
:101E50007047000010B5012000F046F850B1064868
:101E60000068C0430549C1F8B40101200449086075
:101E700000F034F810BD0000B401224200002242FC
:101E8000BC00002010B5022000F02EF850B106482A
:101E90000068C0430549C1F8B40102200449086044
:101EA00000F01CF810BD0000B401224200002242E4
:101EB000BC00002010B5102000F016F840B1054815
:101EC0000068C0430449C1F8B401102000F006F8CE
:101ED00010BD0000B4012242000022420149086006
:101EE0007047000014040140014600200022074B07
:101EF0001B6803EA0102054B14331B680B4013B146
:101F00000AB1012000E000207047000000040140F9
:101F1000002123498279002A3AD00A4612680368D0
:101F20009A430B461A600A1D126803689A430B1DF8
:101F30001A60027911440A6803681A430A60184A51
:101F40000832126803689A43154B08331A601A1D49
:101F5000126803689A43124B0C331A604279102AB4
:101F60000ED11A1F126803681A430D4B08331A600A
:101F70001A1D126803681A43094B0C331A600DE0EE
:101F80000749427911440A6803681A430A6005E068
:101F9000027911440A6803689A430A607047000096
:101FA0000004014010B51248006800EB40001149E0
:101FB00001EB00100E49496850F82100401CA8B9F7
:101FC00001200D4908700D480068401C0B4908604D
:101FD00000F016F800200649096801EB4101054AA6
:101FE00002EB0111024A526841F8220010BD0000C4
:101FF000F0340020F02E0020382A00202C2A002067
:1020000070B500BFFEF73CF91E2190FBF1F201FB19
:102010001204FEF735F90A2190FBF1F201FB1205DB
:1020200029462046FFF7FAFD0028EBD04FF0FF309D
:1020300004EB4401024A02EB011141F8250070BD96
:10204000F02E00202DE9F041024600250026002058
:1020500000230024002791F803C00CF00F0591F82D
:1020600003C00CF0100CBCF1000F03D091F802C0BB
:102070004CEA050591F800C0BCF1000F31D014689E
:1020800000202BE04FF0010C0CFA00F3B1F800C077
:102090000CEA03069E4220D183004FF00F0C0CFA8D
:1020A00003F7BC4305FA03FC4CEA040491F803C0AF
:1020B000BCF1280F06D14FF0010C0CFA00FCC2F85D
:1020C00014C00AE091F803C0BCF1480F05D14FF0ED
:1020D000010C0CFA00FCC2F810C0401C0828D1D337
:1020E0001460B1F800C0BCF1FF0F34DD546800206B
:1020F0002EE000F1080C4FF0010808FA0CF3B1F8DB
:1021000000C00CEA03069E4221D183004FF00F0C61
:102110000CFA03F7BC4305FA03FC4CEA040491F8FB
:1021200003C0BCF1280F05D100F1080C08FA0CF827
:10213000C2F8148091F803C0BCF1480F07D100F138
:10214000080C4FF0010808FA0CF8C2F81080401C87
:102150000828CED35460BDE8F08141617047016129
:10216000704710B501F038FC03F064F8FFF748FF42
:1021700002F064FB10BD2DE9F0410746002525E083
:10218000002620E005EB450007EB001050F8264044
:10219000022C04D13146284602F096FD12E0A01C24
:1021A00020B93146284602F00BFE0BE0601C20B936
:1021B0003146284602F0D2FD04E01CB931462846DB
:1021C00002F0B2FD761C0C2EDCDB6D1C202DD7DB63
:1021D00002F034FBBDE8F08110B500200B4C226802
:1021E000636801210CE0094C54F83140944206D157
:1021F000064C04EBC10464689C4200D10120491CD8
:10220000034C2468A142EEDB10BD0000F034002036
:10221000282A002010B500F043F917480078032859
:1022200007D116480068012803D00220134908602E
:1022300021E011480078022807D1104800680228E0
:1022400003D001200D49086015E00B4800780128F3
:1022500007D10A480068032803D004200749086012
:1022600009E00548007830B904480068042802D025
:1022700003200249086010BDA8000020302A002079
:102280000E4800681F2803D101200C49086014E0A3
:102290000A48006818B91E20084908600DE0074880
:1022A00040680B2803D101200449486005E0034839
:1022B000406810B90A20014948607047F034002096
:1022C00000BFFEE710B54FF480510C48FFF747FF01
:1022D0004FF400610948FFF742FF00F041F84FF466
:1022E00080510648FFF739FF00F03AF84FF40061DB
:1022F0000248FFF732FF00F033F810BD000801403C
:1023000010B54FF480510848FFF727FF4FF40061E4
:102310000548FFF724FF00F023F84FF480510248EE
:10232000FFF71DFF10BD00000008014010B54FF47D
:1023300080510A48FFF713FF00F012F84FF40061D4
:102340000648FFF70CFF00F00BF84FF4006103485C
:10235000FFF703FF00F004F810BD00000008014083
:10236000032000BF011EA0F10102D0B2FAD17047D4
:1023700000B587B00121042002F06AFD0121480266
:1023800002F066FD4FF4004002F036FD0F20ADF87C
:10239000180000208DF81B0006A92748FFF752FE01
:1023A0000020019001208DF808008DF809004FF4FD
:1023B000602003900020049004208DF8140001A9EF
:1023C0001E48FFF78FFB01211C48FFF761FB01212D
:1023D0001A48FFF768FB1948FFF708FC072301229A
:1023E00000211648FFF7A6FB07230222012113480C
:1023F000FFF7A0FB0723032202211048FFF79AFBF7
:102400000723042203210D48FFF794FB00BF0B486C
:10241000FFF75EFB0028FAD10848FFF7F7FB00BF83
:102420000648FFF74BFB0028FAD101210348FFF7CC
:10243000E2FB07B000BD000000080140002401409D
:1024400000B58BB00121084602F0E2FC1148FFF70D
:1024500025FC1148009011480190002002900420B2
:10246000039000200490802005904000069080009A
:102470000790202008900002099000200A906946E9
:102480000448FFF7B1FC01210248FFF7FAFB0BB04B
:1024900000BD0000080002404C24014090000020D4
:1024A0002DE9F05FE949888805F08BFE824600221D
:1024B000E74B05F0C3FC80464FF06632E54B05F074
:1024C00093FE06460022E44B05F08EFE044605F01E
:1024D00049FEE2490860DD49C88805F072FE0646FB
:1024E0000022DB4B05F0AAFC80464FF06632D94B48
:1024F00005F07AFE04460022D74B05F075FE8246B1
:1025000005F030FED6490860D049088805F059FE2C
:1025100080460022CE4B05F091FC06464FF0663215
:10252000CC4B05F061FE04460022CB4B05F05CFE6F
:10253000824605F017FECB490860C449488805F07B
:1025400040FE80460022C24B05F078FC06464FF064
:102550006632C04B05F048FE04460022BE4B05F033
:1025600043FE824605F0FEFDBF490860BB48006897
:1025700082280EDBB9480068C8280ADCB848006821
:10258000002806DBB64800683C2802DC0020B7497A
:102590000880B2480068822810DBB0480068C8286C
:1025A0000CDCAF480068B0F5967F07DBAC480068EC
:1025B000B0F5A57F02DC0120AC490880A74800687F
:1025C000B0F5877F0FDBA5480068B0F5A57F0ADC72
:1025D000A3480068822806DBA1480068C82802DCFE
:1025E0000220A24908809D48006800280EDB9B4815
:1025F00000683C280ADC9A480068822806DB984874
:102600000068C82802DC03209849088093480068C5
:10261000B0F5877F0FDB91480068B0F5A57F0ADC35
:102620008F480068002806DB8D4800683C2802DCE3
:1026300004208E4908808948006800280EDB8748FE
:1026400000683C280ADC86480068002806DB8448CD
:1026500000683C2802DC0520844908807F48006827
:10266000B0F5877F11DB7D480068B0F5A57F0CDCF5
:102670007B480068B0F5877F07DB79480068B0F5D4
:10268000A57F02DC0620794908807448006800288C
:1026900010DB724800683C280CDC71480068B0F51B
:1026A000877F07DB6E480068B0F5A57F02DC072056
:1026B0006E4908806B48006882280EDB6948006814
:1026C000C8280ADC68480068002806DB66480068FD
:1026D0003C2802DC0820664908806248006882289D
:1026E00010DB60480068C8280CDC5F480068B0F563
:1026F000877F07DB5C480068B0F5A57F02DC092016
:102700005B49088057480068B0F5877F0FDB554864
:102710000068B0F5A57F0ADC53480068822806DB14
:1027200051480068C82802DC0A20514908804D48F9
:10273000006800280EDB4B4800683C280ADC4A4849
:102740000068822806DB48480068C82802DC0B20A5
:102750004749088043480068B0F5877F0FDB414850
:102760000068B0F5A57F0ADC3F480068002806DB5A
:102770003D4800683C2802DC0C203D49088039486F
:10278000006800280EDB374800683C280ADC364821
:102790000068002806DB344800683C2802DC0D2075
:1027A000334908802F480068B0F5877F11DB2D483A
:1027B0000068B0F5A57F0CDC2B480068B0F5877F7A
:1027C00007DB29480068B0F5A57F02DC0E20284908
:1027D000088024480068002810DB224800683C2854
:1027E0000CDC21480068B0F5877F07DB1E480068D5
:1027F000B0F5A57F02DC0F201D490880174800684E
:1028000082280EDB15480068C8280ADC14480068D6
:10281000822806DB12480068C82802DC1020134911
:1028200008801048006882280EDB0E480068C8281F
:102830000ADC0D480068822806DB0B480068C828BF
:1028400002DC11200A490880BDE8F09F90000020BA
:1028500000FEAF4066660A40000059409800002024
:102860009C000020A0000020A4000020A800002060
:10287000AA00002000B587B014228E4902A8FDF7F7
:1028800025FF64208C4908808C490880FFF708FEEA
:10289000012005237D2219460090184601F096FC80
:1028A00001202D23052211460090104601F08EFCD8
:1028B00001202D237D2219460090052001F086FC81
:1028C00001202D237D2205210090104601F07EFC81
:1028D000012010237AA2082100900C2002F0B3F905
:1028E000012010210323CDE9001076480821026859
:1028F000242002F0F7F80120102373A20821009091
:10290000442002F0A0F9012010210323CDE900109A
:102910006E4808210268642002F0E4F801201023C8
:102920006BA2182100900C2002F08DF901201021DB
:102930000323CDE90010674818210268242002F023
:10294000D1F80120102364A218210090442002F045
:102950007AF9012010210323CDE900105F481821E6
:102960000268642002F0BEF801F068FF5A200A23D2
:102970004FF4A572002100905248006800F0D6FD87
:10298000574908605A200A234FF4A572002100908D
:102990004E48006800F0CAFD524908605A200A23D8
:1029A0004FF4A572002100904A48006800F0BEFD77
:1029B0004D4908605A200A234FF4A5720021009067
:1029C0004648006800F0B2FD484908604C208DF888
:1029D000080058208DF80900414800680A2190FB42
:1029E000F1F03030C0B28DF80A003D48006890FB2D
:1029F000F1F201FB12003030C0B28DF80B0059200B
:102A00008DF80C003748006890FBF1F03030C0B210
:102A10008DF80D003348006890FBF1F201FB1200C5
:102A20003030C0B28DF80E0052208DF80F005820C3
:102A30008DF810002C48006890FBF1F03030C0B2E7
:102A40008DF811002848006890FBF1F201FB12009C
:102A50003030C0B28DF8120059208DF81300234891
:102A6000006890FBF1F03030C0B28DF814001F48C0
:102A7000006890FBF1F201FB12003030C0B28DF81B
:102A8000150030208DF81B0000F0C6FE02A800F0F3
:102A9000F7FE202806D116480068C0431549C1F842
:102AA000B40102E014A0FDF733FC0A2003F0D0FAD1
:102AB00007B000BD08BF0008A8000020AA00002041
:102AC0004C783A00980000204C793A009C00002095
:102AD00052783A00A000002052793A00A400002069
:102AE000AC000020B0000020B4000020B80000209E
:102AF000B40122420000224253656E64206661697F
:102B00006C656420210A000010B5FFF799FC00F005
:102B100003F8FFF72DFC10BD1FB50121082002F0BE
:102B200097F90121084602F093F90320ADF800005F
:102B300004208DF8030069461648FFF783FA032046
:102B4000019000208DF808000C208DF8090001206C
:102B50008DF80A0001A8FFF7DBF906208DF80C00BC
:102B600000208DF80D0001208DF80E008DF80F006B
:102B700003A800F0EFFE07208DF80C0001208DF86F
:102B80000D008DF80E008DF80F0003A800F0E2FE96
:102B90001FBD0000000C014008B50121102002F00B
:102BA00057F94FF40050ADF8000010208DF80300E5
:102BB00003208DF8020069460148FFF743FA08BD7B
:102BC0000010014038B500F081FB1DE0002010230B
:102BD00024A219460090184602F035F801F02EFEA6
:102BE00020A0FDF795FB24A0FDF792FB00F06EFB03
:102BF0000446214621A0FDF78BFB1FA0FDF788FBB3
:102C00004FF47A7003F024FA00F060FB0028DDD165
:102C10001DE0002010231BA219460090184602F068
:102C200012F801F00BFE17A0FDF772FB12A0FDF7E2
:102C30006FFB04F0E1F80446214610A0FDF768FBA5
:102C40000DA0FDF765FB4FF47A7003F001FA04F074
:102C5000D3F80028DDD111A0FDF75AFB06A0FDF73F
:102C600057FB38BD4D50555F496E697420666169E8
:102C70006C656421000000000A0000007265733D6D
:102C8000256400006D70755F646D705F696E6974B6
:102C9000206661696C656421000000004D50555F3D
:102CA000496E6974207375636365737366756C6CC4
:102CB000792100002DE9FF4100200190029003904E
:102CC00000240025464A4749474803F083FF00286F
:102CD0007ED14548006805F061FD064632460B4648
:102CE00042A101A8FDF720FB3E48006805F056FD13
:102CF000064632460B4640A101A8FDF715FB3848B1
:102D0000006805F04BFD064632460B463DA101A882
:102D1000FDF70AFB3E493448006806F003F802D28A
:102D20003B48314908603B492F48006805F0FAFEEE
:102D300002D238482C49086035492A48006805F015
:102D4000F1FF02D23248284908603249254800681C
:102D500005F0E8FE02D22F482349086022480068A7
:102D600005F078FE06465A200A234622514200907A
:102D7000304600F0DBFB04461A48006805F06AFEA6
:102D800006465A200A23462251420090304600F05F
:102D9000CDFB05465020204908700A2094FBF0F036
:102DA000303048700A2094FBF0F100FB11403030C5
:102DB000194988705220C8700A2095FBF0F0303015
:102DC00008710A2095FBF0F100FB1150303000E053
:102DD00001E011494871642003F03AF9BDE8FF8130
:102DE0003C0000203800002034000020506974634B
:102DF000683A252E32660000526F6C6C203A252E00
:102E00003266000059617720203A252E3266000094
:102E100000008C4200008CC2500000202DE9FF41D0
:102E20000020019002900390002400256C4A6D4917
:102E30006D4803F0CFFE00287ED16B48006805F096
:102E4000ADFC064632460B4668A101A8FDF76CFAB8
:102E50000120102301AA0A210090184601F0F3FE78
:102E60006048006805F09AFC064632460B4662A1AF
:102E700001A8FDF759FA0120102301AA1A21009098
:102E8000184601F0E0FE5648006805F087FC06464B
:102E900032460B465BA101A8FDF746FA012010233C
:102EA00001AA2E210090184601F0CDFE0120052335
:102EB0007D2219460090184601F088F901203E2332
:102EC000052211460090104601F080F901203E23B2
:102ED0007D2219460090052001F078F901203E235B
:102EE0007D2205210090104601F070F901F0A6FC4A
:102EF00047493D48006805F015FF02D244483A4969
:102F0000086044493848006805F00CFE02D2414888
:102F1000354908603E493348006805F003FF02D296
:102F20003B48314908603B492E48006805F0FAFDEE
:102F300004D238482C4900E04CE008602A48006878
:102F400005F088FD06465A200A2346225142009089
:102F5000304600F0EBFA04462248006805F07AFD9E
:102F600006465A200A23462251420090304600F07D
:102F7000DDFA05465020284908700A2094FBF0F03D
:102F8000303048700A2094FBF0F100FB11403030E3
:102F9000214988705220C8700A2095FBF0F030302B
:102FA00008710A2095FBF0F100FB115030301A49EE
:102FB000487100F031FC184800F062FC202806D16E
:102FC0001548FDF799F915A0FDF7A2F902E014A044
:102FD000FDF79EF9642003F03BF8BDE8FF81000097
:102FE0003C00002038000020340000205069746349
:102FF000683A252E32660000526F6C6C203A252EFE
:103000003266000059617720203A252E3266000092
:1030100000008C4200008CC2500000200A0000001A
:1030200052656365697665206661696C6564202117
:103030000A00000010B500200E4908600E48006824
:1030400020F0F0000C4908600846006840F03000AD
:10305000086000200949C1F8A40100F011F801201E
:103060000449086000F00CF800200449C1F8A001F0
:1030700010BD0000A0812142040C014000802142CB
:1030800010B5022003F00AF810BD000008B50121B8
:10309000082001F0DDFE4FF44070ADF80000102074
:1030A0008DF8030003208DF8020069460448FEF7FE
:1030B000C9FF4FF440710248FFF751F808BD000006
:1030C000000C014010B500200E4908600E48006851
:1030D00020F0F0000C4908600846006840F030001D
:1030E000086001200949C1F8A401FFF7C9FF0120C8
:1030F00004490860FFF7C4FF00200449C1F8A0019B
:1031000010BD0000A0812142040C0140008021423A
:1031100070B5054600241648006820F0F0001449F8
:1031200008600846006840F080000860002614E04F
:10313000002010490860FFF7A3FF01200E49C1F8E5
:10314000A0016006040E0B487C38006808B1601CC2
:10315000C4B2FFF795FF701CC6B2082EE8DB15B9A4
:10316000FFF7B0FF01E0FFF765FF204670BD0000EC
:10317000040C0140A08121420080214270B5044628
:103180001248006820F0F000104908600846006806
:1031900040F03000086000200D490860002512E072
:1031A000E0090B49091D08606006040E0120094969
:1031B000C1F8A001FFF764FF002005490860FFF790
:1031C0005FFF681CC5B2082DEADB70BD040C01402E
:1031D000A08121420080214210B50E48006820F0F5
:1031E000F0000C4908600846006840F030000860B4
:1031F0000120094908600949C1F8A001FFF740FF13
:10320000002005490860FFF73BFF00200349C1F893
:10321000A00110BD040C0140A48121420080214284
:1032200010B50E48006820F0F0000C490860084610
:10323000006840F030000860002009490860094932
:10324000C1F8A401FFF71CFF0120054908600549EA
:10325000C1F8A401FFF714FF10BD0000040C0140E9
:10326000A08121420080214210B50024144800684A
:1032700020F0F000124908600846006840F0800025
:10328000086001200F490860FFF7FAFE01200E498F
:10329000C1F8A001FFF7F4FE07E0601CC4B2FA2CED
:1032A00003DDFFF7BDFF012010BD06488038006830
:1032B0000028F2D10349091F086000BFF4E70000AD
:1032C000040C0140A48121420080214210B5FFF787
:1032D000DDFE80216B2000F0D7F8642002F0B8FEFC
:1032E00000216B2000F0D0F8032000F08BF80020C4
:1032F00000F080F8322000F0AAF80021382000F019
:10330000C3F800216A2000F0BFF80021232000F05C
:10331000BBF88021372000F0B7F8752000F013F8D3
:103320000446682C0BD101216B2000F0ADF8002180
:103330006C2000F0A9F8322000F089F801E00120AB
:1033400010BD0020FCE770B50446FFF745FFD02014
:10335000FFF714FFFFF788FF2046FFF70FFFFFF787
:1033600083FFFFF739FFD120FFF708FFFFF77CFF4E
:103370000020FFF7CDFE0546FFF752FF284670BD3F
:103380002DE9F04106460F4614461D46FFF724FF7F
:10339000002141EA4601C8B2FFF7F0FEFFF764FFE3
:1033A00020B1FFF73DFF0120BDE8F0813846FFF76F
:1033B000E5FEFFF759FFFFF70FFF012101EB460183
:1033C000C8B2FFF7DBFEFFF74FFF0DE0012C04D181
:1033D0000020FFF79DFE287003E00120FFF798FE14
:1033E0002870601EC4B26D1C002CEFD1FFF718FFCF
:1033F0000020D9E710B50446E006010E1C2000F0BD
:1034000043F810BD10B50446E006010E1B2000F085
:103410003BF810BD70B504460025BC2C01DB01252E
:1034200010E0622C01DB02250CE02A2C01DB0325D5
:1034300008E0142C01DB042504E00A2C01DB05253F
:1034400000E0062529461A2000F01EF870BD70B570
:103450000446B4F57A7F01DD4FF47A74042C00DA67
:1034600004244FF47A7090FBF4F0401EC5B2294654
:10347000192000F009F80546264604EBD671C1F381
:103480004F00FFF7C7FF70BD70B505460C46FFF74C
:10349000A3FED020FFF772FEFFF7E6FE18B1FFF79C
:1034A000BFFE012070BD2846FFF768FEFFF7DCFE77
:1034B0002046FFF763FEFFF7D7FE18B1FFF7B0FE17
:1034C0000120EFE7FFF7ACFE0020EBE72DE9F0412C
:1034D00005460E4617469846FFF77EFE002141EA54
:1034E0004501C8B2FFF74AFEFFF7BEFE20B1FFF765
:1034F00097FE0120BDE8F0813046FFF73FFEFFF761
:10350000B3FE00240CE018F80400FFF737FEFFF7C5
:10351000ABFE18B1FFF784FE0120EBE7601CC4B2DC
:10352000BC42F0DBFFF77CFE0020E3E770B5044609
:10353000049D601AEE1A7043561A90FBF6F0184478
:1035400070BD00BFFEE7000010B500212C480068E8
:10355000401E2C4B53F8300000EB40002A4B03EB8D
:10356000001327480068401E264C04EBC00040684A
:1035700043F820102548007838B121480068401CE5
:103580001F4908600020214908701D480068421E3C
:103590000DE0501E1B4951F8300041F83200501E1A
:1035A00001EBC000406801EBC2014860521E002AD6
:1035B000EFDC17480068012812D0022816D0032833
:1035C00002D0042818D105E00E484068401E0D497D
:1035D000486011E00B484068401C0A4948600BE015
:1035E00008480068401E0749086005E00548006873
:1035F000401C0449086000BF00BFFEF741FE10BD3B
:10360000282A0020F0340020F02E0020382A002044
:10361000302A0020704700001CB511A103C9CDE974
:103620000001102001F0FEFC05226946302000F068
:103630005BF905226946102000F0BAF8002406E084
:103640001DF80400A52800D003E0601CC4B2052CBE
:10365000F6DB00BF052C01D001201CBD0020FCE7DB
:10366000A5A5A5A5A500000010B509E00AA0FCF7D6
:103670004FFE0FA0FCF74CFE4FF47A7002F0E8FC0E
:10368000FFF7CAFF0028F1D10AA0FCF741FE08A00D
:10369000FCF73EFE10BD00004E524632344C303135
:1036A0005F436865636B206661696C656420210017
:1036B0000A0000004E524632344C30315F43686598
:1036C000636B2073756363656564202100000000EF
:1036D00000B587B00121082001F0BAFB4FF48050FB
:1036E000ADF8180010208DF81B0003208DF81A008B
:1036F00006A92B48FEF7A6FC4FF480512848FEF798
:103700002EFD4FF4C040ADF8180006A92448FEF77E
:1037100099FC4FF4C0412248FEF71FFD4FF40040D2
:10372000ADF8180028208DF81B0006A91C48FEF7EC
:1037300089FC4FF400411A48FEF70FFD01F002FC2E
:103740000021184801F082FC0020ADF804004FF47D
:103750008270ADF806000020ADF80800ADF80A0050
:10376000ADF80C004FF40070ADF80E001820ADF865
:1037700010000020ADF812000720ADF8140001A9D8
:10378000084801F07DFC0121064801F05FFC0020A3
:103790000549086001200549C1F8B80107B000BD1E
:1037A000000C014000300140B481214200802142E0
:1037B0002DE9F04107460D46164600200A490860EB
:1037C000384601F005FC8046002405E0FF2001F0AA
:1037D000FFFB2855601CC4B2B442F7DB012002494C
:1037E00008604046BDE8F081B881214270B50446CA
:1037F000002007490860204601F0EAFBFF2001F0A5
:10380000E7FB054601200349C1F8B801284670BD11
:10381000B88121420080214210B50020144908607F
:1038200005221449302000F05FF8052212492A20B1
:1038300000F05AF80121212000F074F80121222023
:1038400000F070F81A21242000F06CF828212520BF
:1038500000F068F80F21262000F064F80E212020E7
:1038600000F060F801200549C1F8B40110BD000066
:10387000B48121421CBF000821BF00080080214202
:1038800070B50546102001F0CDFB002014490860FA
:1038900020222946A02000F027F801201149C1F874
:1038A000B40100BF0E48783800680028FAD107201C
:1038B000FFF79CFF04462146272000F033F804F070
:1038C000100028B1FF21E12000F02CF8102070BD7D
:1038D00004F0200008B12020F9E7FF20F7E70000FE
:1038E000B4812142008021422DE9F04107460C4677
:1038F000154600200A490860384601F069FB8046F9
:10390000002605E014F8010B01F062FB701CC6B242
:10391000AE42F7DB0120024908604046BDE8F08175
:10392000B881214270B505460C4600200749086061
:10393000284601F04DFB0646204601F049FB0120D8
:103940000349C1F8B801304670BD0000B88121427A
:103950000080214270B5002100230F22C47804B3F7
:10396000154C246804F4E064C4F5E064210AC1F154
:103970000403CA40447804FA03F1847814402143D4
:1039800009010E4C0678A155047804F01F050124A6
:10399000AC4005786D11AD0005F1E025C5F800419A
:1039A00009E0047804F01F050124AC40044D0678BA
:1039B000761145F8264070BD0CED00E000E400E013
:1039C00080E100E002490143024A116070470000B3
:1039D0000000FA050CED00E070B500240CE00025B5
:1039E00006E00020074901EBC5010855681CC5B277
:1039F000802DF6DB601CC4B2082CF0DB00F01EFF4B
:103A000070BD0000402A002070B50B46CE1701EBB8
:103A10005676C6F3C702CE1701EB5676F610A1EB29
:103A2000C606F4B20123A340DDB20E4B03EBC00384
:103A30009B5CDB430B4E06EBC006B354094B03EB18
:103A4000C0039B5C2B43074E06EBC006B354054BEB
:103A500003EBC0039B5CDB43024E06EBC006B35492
:103A600070BD0000402A00207CB5FEF719FDFD481E
:103A7000007800F0E3FC00F0E1FEFB48008803283A
:103A800018D1F8480078401CF649087000F0D6FEBE
:103A9000F448007800F0D2FC0AE0FEF701FDF2489D
:103AA0000088102804D1F1480088112800D100E0D6
:103AB000F3E700BFEC480088022818D1E9480078F5
:103AC000401EE849087000F0B9FEE648007800F0B2
:103AD000B5FC0AE0FEF7E4FCE3480088102804D1B6
:103AE000E2480088112800D100E0F3E700BFDD487C
:103AF0000078072802DD0120DA490870D9480078EB
:103B0000012802DA0720D7490870D6480078012832
:103B100048D1D64800880B2843D1FFF75DFF01202C
:103B200010230E2218210090084600F059FF0120B2
:103B300010230F2218210090282000F051FF0120AF
:103B400010231A4618210090382000F049FF012068
:103B50001023112218210090482000F041FF01207D
:103B60001023122218210090582000F039FF00F095
:103B700065FE15E0FEF794FCFFF74EFE4C20BC49B5
:103B800008705920487000BFB948FFF779FE202817
:103B9000FAD0B64800880A2802D1FFF71DFF00E0DE
:103BA000E8E7EFE2AF480078022835D1AF48008857
:103BB0000B28F6D1FFF710FF00F040FE26E0FEF7DD
:103BC0006FFCFEF757FEFFF775F8AA48006804F08F
:103BD000E5FD044622460B46A7A0FCF799FBA94940
:103BE000A448006805F09EF80DD80020A14908609F
:103BF000FFF712FE00BFA448FFF742FE2028FAD0CC
:103C0000FFF7EAFE03E000209A490860D7E700BF0B
:103C1000002098490860B5E29248007803281DD139
:103C2000924800880B28BCD1FFF7D6FE00F006FEB4
:103C300012E0FEF735FCFFF7F1F88C4800880A28FF
:103C40000AD1FFF7E9FD00BF9048FFF719FE2028D1
:103C5000FAD0FFF7C1FE00E0EBE793E2814800787D
:103C6000042860D1814800880B289AD1FFF7B4FE60
:103C7000012010230A2218210090282000F0B0FE15
:103C8000012010230B2218210090382000F0A8FEFC
:103C9000012010237EA218210090482000F0D3FFBD
:103CA000012010236C2219460090142000F08EFA97
:103CB00001203023142210210090104600F086FAD3
:103CC000012030236C2219460090142000F07EFA67
:103CD000012030236C2210210090104600F076FA6B
:103CE00000F0ACFD1DE0FEF7DBFBFFF795FD422089
:103CF0005F4908705A20487000BF5D48FFF7C0FD5B
:103D00002028FAD0594800880A280AD1FFF784FDF4
:103D100000BF6048FFF7B4FD2028FAD0FFF75CFE33
:103D200000E0E0E72EE24F480078052858D14F48E0
:103D300000880B2891D1FFF74FFE012010230822A5
:103D400018210090282000F04BFE012010230922AA
:103D500018210090382000F043FE012010234CA2CF
:103D600018210090482000F06EFF012010236C22E3
:103D700019460090142000F029FA01203023142263
:103D800010210090104600F021FA012030236C220F
:103D900019460090142000F019FA012030236C22FB
:103DA00010210090104600F011FA00F047FD15E0D8
:103DB000FEF776FBFFF730FD47202D4908705320B2
:103DC000487000BF2A48FFF75BFD2028FAD027483B
:103DD00000880A2802D1FFF7FFFD00E0E8E7D1E103
:103DE0002048007806287DD1204800880B2899D1EA
:103DF000FFF7F2FD78E12848007890BB01202749C1
:103E000010231A46CDE9001008210A2000F0B0FE68
:103E10000120234910231A46CDE9001018210A2059
:103E200000F0A6FE01201E4910231A46CDE900101D
:103E300028210A2000F09CFE01201A4910231A466E
:103E4000CDE9001018210A2000F092FE012015494A
:103E500010231A46CDE9001028210A2000F088FE20
:103E600090E021E0052A0020A8000020AA00002000
:103E7000232A00203400002070697463683D252ED9
:103E800032660A0000004842072A0020112A00205A
:103E9000696E67001B2A0020272A0020A528002021
:103EA000D02E0020C5280020B7480078012833D143
:103EB000B64910231A46CDE9001008210A2000F067
:103EC00057FE0120B24910231A46CDE900100821FF
:103ED0000A2000F04DFE0120AE4910231A46CDE91C
:103EE000001000E002E118210A2000F041FE01204C
:103EF000A64910231A46CDE9001028210A2000F017
:103F000037FE0120A24910231A46CDE900102821CE
:103F10000A2000F02DFE35E09B480078022831D1C0
:103F200001209A4910231A46CDE9001008210A20E1
:103F300000F01EFE0120954910231A46CDE900101D
:103F400018210A2000F014FE0120914910231A467E
:103F5000CDE9001008210A2000F00AFE01208C495A
:103F600010231A46CDE9001018210A2000F000FEA7
:103F70000120884910231A46CDE9001028210A2083
:103F800000F0F6FD0120102383A2082100902020DC
:103F900000F059FE012010231B2208210090302040
:103FA00000F01EFD012010231C220821009040205B
:103FB00000F016FD012010231A2208210090502045
:103FC00000F00EFD0120102374A218210090202083
:103FD00000F039FE012010231D221821009030200E
:103FE00000F0FEFC012010231E221821009040202A
:103FF00000F0F6FC012010231A2218210090502016
:1040000000F0EEFC0120102365A228210090202062
:1040100000F019FE012010231F22282100903020DB
:1040200000F0DEFC012010232022282100904020F7
:1040300000F0D6FC012010231A22282100905020E5
:1040400000F0CEFC00F0FAFBFEF72AFAFFF7E4FBE3
:10405000432054490870442048704B48007810B9F8
:10406000302088700EE048480078012803D13120C4
:104070004C49887006E044480078022802D132207A
:104080004849887000BF4748FFF7FAFB2028FAD05C
:1040900045480088092818D13B480078401C3A4917
:1040A000087008460078032801D1002008700AE053
:1040B000FEF7F6F93D480088102804D13A480088F8
:1040C000112800D100E0F3E700BF374800880A2834
:1040D0000AD1FFF7A1FB00BF3548FFF7D1FB20282D
:1040E000FAD0FFF779FC00E085E64BE03148007834
:1040F000072847D12C4800880B2843D101221146BC
:104100002D4801F0A5F9FEF72CF839E0FEF782F80A
:1041100001F074F82948FEF72EF8234800880A2891
:1041200009D100220121244801F092F9FDF77AFE1D
:10413000FFF752FC25E0FEF74FF808B3FFF74CFC01
:104140001CE0FEF7ADF9012010231DA218210090FC
:104150001E2000F078FD00F071FB134800880A284B
:104160000CD100220121144801F072F9FDF75AFE2A
:10417000FFF732FC642001F06BFF00E0E1E700BFD5
:10418000C4E700BF7CBD0000272A0020D02E0020FD
:10419000C5280020A5280020312E0000322E000066
:1041A000332E0000232A0020AA000020A8000020AF
:1041B0001F2A0020052A002000040040F02E0020C5
:1041C00047616D65204F7665722021002DE9FF4F14
:1041D00084B081468A460020029083460698A0EB70
:1041E00009040798A0EB0A06CDF80490CDF800A0CA
:1041F000002C01DD012705E00CB9002702E04FF09B
:10420000FF376442002E02DD4FF0010806E016B9C8
:104210004FF0000802E04FF0FF386642B44201DD83
:10422000254600E03546002003901EE0009AD1B2FA
:10423000019AD0B2119A00F01FF80298204402901F
:10424000B3440298A84205DD0298401B02900198F1
:1042500038440190AB4504DDABEB050B00984044BE
:1042600000900398401C80B20390691C0398884218
:10427000DCDB08B0BDE8F08FF0B514460B46CF1775
:1042800001EB5777C7F3C702CF1701EB5777FF1042
:10429000A1EBC707FEB20123B340DDB24CB1134B13
:1042A00003EBC0039B5C2B43104F07EBC007BB54D1
:1042B0001AE00E4B03EBC0039B5CDB430B4F07EB99
:1042C000C007BB54094B03EBC0039B5C2B43074F58
:1042D00007EBC007BB54054B03EBC0039B5CDB4300
:1042E000024F07EBC007BB54F0BD0000402A00207E
:1042F00008B50121042000F0ABFD4FF4C050ADF82B
:10430000000014208DF8030003208DF80200694698
:104310004948FDF797FE4FF4C0514748FDF71FFF8E
:104320004FF40040ADF8000010208DF8030003208A
:104330008DF8020069464048FDF784FE4FF40041C5
:104340003D48FDF70CFF4FF400413B48FDF705FFEA
:10435000C82001F07DFE4FF400413748FDF7FFFE15
:104360000021AE2000F094FC0021084600F090FCF3
:104370000021102000F08CFC0021402000F088FC7F
:104380000021812000F084FC0021CF2000F080FC7F
:104390000021A12000F07CFC0021C82000F078FC66
:1043A0000021A62000F074FC0021A82000F070FC81
:1043B00000213F2000F06CFC0021D32000F068FCBD
:1043C0000021084600F064FC0021D52000F060FCCC
:1043D0000021802000F05CFC0021D92000F058FC76
:1043E0000021F12000F054FC0021DA2000F050FC04
:1043F0000021122000F04CFC0021DB2000F048FCE2
:104400000021302000F044FC0021202000F040FC7E
:104410000021022000F03CFC00218D2000F038FC3F
:104420000021142000F034FCFFF7D6FA0021AF2061
:1044300000F02EFC08BD0000000801401CB5044639
:10444000012C41D11023182230210090202000F0AF
:10445000C7FA01201023182230210090382000F0E4
:10446000BFFA01201023182230210090502000F0C4
:10447000B7FA0120E44930231A46CDE900100021A3
:10448000282000F075FB012010230022302100902D
:10449000142000F0A5FA01201023024630210090DC
:1044A0002C2000F09DFA01201023062230210090DC
:1044B000442000F095FA01201023072230210090BB
:1044C0005C2000F08DFA9CE1022C42D101201023E7
:1044D000182230210090202000F082FA01201023C1
:1044E000182230210090382000F07AFA01201023A1
:1044F000182230210090502000F072FA0120C349A8
:1045000030231A46CDE900100021282000F030FBAE
:1045100001201023022230210090142000F060FAC4
:10452000012010230322302100902C2000F058FAA3
:1045300001201023062230210090442000F050FA80
:10454000012010230722302100905C2000F048FA5F
:1045500057E1032C42D10120102318223021009072
:10456000202000F03DFA0120102318223021009075
:10457000382000F035FA0120102318223021009055
:10458000502000F02DFA0120A14930231A46CDE930
:1045900000100021282000F0EBFA01201023042253
:1045A00030210090142000F01BFA01201023052276
:1045B000302100902C2000F013FA01201023062255
:1045C00030210090442000F00BFA01201023072234
:1045D000302100905C2000F003FA12E1042C42D15B
:1045E00001201023182230210090202000F0F8F93B
:1045F00001201023182230210090382000F0F0F91B
:1046000001201023182230210090502000F0E8F9FA
:104610000120804930231A46CDE9001000212820CE
:1046200000F0A6FA012010230A2230210090142065
:1046300000F0D6F9012010230B22302100902C200D
:1046400000F0CEF9012010230622302100904420F2
:1046500000F0C6F9012010230722302100905C20D1
:1046600000F0BEF9CDE0052C42D101201023182224
:1046700030210090202000F0B3F9012010231822EF
:1046800030210090382000F0ABF9012010231822CF
:1046900030210090502000F0A3F901205E49302322
:1046A0001A46CDE900100021282000F061FA01200F
:1046B0001023082230210090142000F091F90120ED
:1046C00010230922302100902C2000F089F90120CC
:1046D0001023062230210090442000F081F90120AF
:1046E00010230722302100905C2000F079F988E047
:1046F000062C42D1012010231822302100902020C6
:1047000000F06EF90120102318223021009038208B
:1047100000F066F90120102318223021009050206B
:1047200000F05EF901203D4930231A46CDE9001022
:104730000021282000F01CFA01201023192230212A
:104740000090142000F04CF9012010231A2230218F
:1047500000902C2000F044F9012010230622302183
:104760000090442000F03CF9012010230722302162
:1047700000905C2000F034F943E0072C41D1012087
:104780001023182230210090142000F029F9012074
:1047900010231822302100902C2000F021F9012054
:1047A0001023182230210090442000F019F9012034
:1047B00010231822302100905C2000F011F9012014
:1047C000174930231A46CDE900100021282000F0B7
:1047D000CFF901201023152230210090202000F075
:1047E000FFF801201023162230210090382000F01D
:1047F000F7F801201023172230210090502000F0FC
:10480000EFF800F01BF81CBDC5200020E5210020BA
:104810000523002025240020452500208527002091
:10482000E528002010B50246012000E050430B1E91
:10483000A1F10104E1B2F9D110BD000070B500246E
:104840002BE004F1B001C8B2002100F021FA0021F0
:10485000084600F01DFA0021102000F019FAFDF7BB
:1048600031FD782000F02CFCFDF760FD402000F0C9
:1048700027FCFDF75BFD002509E0094901EBC501B7
:10488000085D00F01DFCFDF751FD681CC5B2802DD0
:10489000F3DBFDF735FD601CC4B2082CD1DB70BD25
:1048A000402A00202DE9FE4F0746884692461C46C6
:1048B0000197CDF80080082C02D14FF006091FE0C7
:1048C0002046E31704EB5373DB1021464FEAE47CE8
:1048D00004EB5C7C4FEAEC0CA4EBCC0CBCF1000FBD
:1048E00002D04FF0010C01E04FF0000C634422466F
:1048F00004EBD27C4FEA6C0C03FB0CF303F0FF09D2
:10490000AAF12000C6B200255EE0082C07D106EB14
:1049100046002F4901EB400010F805B01DE00C2CBB
:1049200007D106EB46002B4901EB800010F805B0DB
:1049300013E0102C05D1284800EB061010F805B044
:104940000BE0182C07D106EBC600244901EB8000D0
:1049500010F805B001E0BDE8FE8F002002901CE0D9
:104960000BF0010028B1414638460C9AFFF784FC51
:1049700009E00C9808B9012000E0002002464146F9
:104980003846FFF779FC4FEA6B0B08F1010000F0A5
:10499000FF080298401CC0B2029002980828DFDB92
:1049A000781CC7B2082C0BD004EBD4714A100199C3
:1049B000791A8A4204D1019F00980830C0B2009051
:1049C000DDF80080681CC5B24D459EDB00BFC2E724
:1049D000668F00088E91000802960008F29B00087E
:1049E0002DE9FC4F0746884616461C46BB46CDF8C7
:1049F00004802046E21704EB5272D2102146E317DE
:104A000004EB5373DB10A4EBC3030BB1012300E0F1
:104A100000231A44624392B20092002555E0102C04
:104A200005D12C4800EB461010F805A01BE0182C0F
:104A300007D106EBC600284901EBC00010F805A01D
:104A400011E0202C05D1254800EBC61010F805A078
:104A500009E0402C05D1224800EB462010F805A0C3
:104A600001E0BDE8FC8F4FF000091CE00AF00100F6
:104A700028B1414638460B9AFFF7FEFB09E00B9838
:104A800008B9012000E00020024641463846FFF701
:104A9000F3FB4FEA6A0A08F1010000F0FF0809F190
:104AA000010000F0FF09B9F1080FDFDB781CC7B285
:104AB000A7EB0B00A04204D15F4601980830C0B2BA
:104AC0000190DDF80480681C85B200988542A6DB61
:104AD00000BFC6E74EA900086EAD00083EB0000852
:104AE000BEB000082DE9FF4F82B0064691461F4632
:104AF000DDE90F4A4FF0000B082C01D14FF0020BFB
:104B0000002530E0781B401EC1B20A20FFF78AFE64
:104B1000B9FBF0F00A21B0FBF1F201FB1208B8F189
:104B2000000F0ED104EBD4710BEB610101FB0561A9
:104B3000C8B223463022CDE900A40399FFF7B2FEA4
:104B40000FE004EBD4710BEB610101FB0561C8B20E
:104B500008F13001CAB22346CDE900A40399FFF75A
:104B6000A1FE681CC5B2BD42CCDB06B0BDE8F08F2B
:104B70002DE9FF4F05460E4617461C46DDF83890D6
:104B80004FF0000A0095B3462046E21704EB52723C
:104B9000D2102146E31704EB5373DB10A4EBC303DD
:104BA0000BB1012300E000231A44D4B24FF00008F7
:104BB00045E0002003903BE00D9810F80A000290B9
:104BC0000AF101001FFA80FA002001901DE002980E
:104BD00000F0010028B14A4631462846FFF74CFB59
:104BE0000AE0B9F1000F01D1012000E000200246E7
:104BF00031462846FFF740FB029840100290701C97
:104C0000C6B20198401CC0B2019001980828DEDBB2
:104C1000681CC5B20098281AB84204D1009D0BF157
:104C2000080000F0FF0B5E460398401CC0B20390E2
:104C30000398B842C0DB08F1010000F0FF08A0456E
:104C4000B7DBBDE8FF8F2DE9F84106460F46144655
:104C50001D46DDF81C8013E0CDF8008022782B463D
:104C600039463046FFF71EFE082D02D1B01DC6B2F0
:104C700005E0284605EBD07106EB6101CEB2641C5D
:104C80002078202802DB20787E28E5DDBDE8F88149
:104C900070B505460C46FDF715FB782000F010FABC
:104CA000FDF744FB1CB1402000F00AFA02E00020AE
:104CB00000F006FAFDF73AFB284600F001FAFDF78E
:104CC00035FBFDF71DFB70BD2DE9F04106460F4693
:104CD000BC0023E0B5001CE0B800A04203D0B8003F
:104CE000C01CA04206D104F11002D1B2E8B20122E8
:104CF000FFF7C2FAB000A84203D0B000C01CA8421F
:104D000006D104F11002D1B2E8B20122FFF7B4FAE1
:104D10006D1CB000001DA842DEDC641CB800001D44
:104D2000A042D7DCBDE8F0812DE9F04104460D46F4
:104D3000AE000DE0A70006E006F11002D1B2F8B215
:104D4000FEF762FE7F1CA000001DB842F4DC761C5A
:104D5000A800001DB042EDDCBDE8F0812DE9F04176
:104D600006460F46BC0025E0B5001EE0B800401C1A
:104D7000A04203D0B800801CA04206D104F110026A
:104D8000D1B2E8B20122FFF777FAB000401CA84286
:104D900003D0B000801CA84206D104F11002D1B2A9
:104DA000E8B20122FFF768FA6D1CB000001DA842AE
:104DB000DCDC641CB800001DA042D5DCBDE8F0813D
:104DC0002DE9F04104460D46AE000EE0A70007E0D5
:104DD00006F11002D1B2F8B20122FFF74DFA7F1CA2
:104DE000A000001DB842F3DC761CA800001DB042F4
:104DF000ECDCBDE8F081704701460020034A5068B2
:104E000020F440400843506070470000001002400A
:104E100029B1064A52690243044B5A6104E0034A2D
:104E200052698243014B5A617047000000100240F2
:104E300029B1064AD2690243044BDA6104E0034A0D
:104E4000D2698243014BDA617047000000100240D2
:104E500029B1064A92690243044B9A6104E0034A6D
:104E600092698243014B9A61704700000010024032
:104E700030B500210022002400232D4D6D6805F07F
:104E80000C0121B1042905D0082923D105E0294DC1
:104E9000056022E0274D05601FE0254D6D6805F493
:104EA0007012234D6D6805F48034022505EB9242A3
:104EB0001CB9214D554305600BE01D4D6D6805F48F
:104EC00000351DB11C4D5543056002E0194D554399
:104ED000056002E0174D056000BF00BF144D6D680E
:104EE00005F0F0010909154D6B5C0568DD40456072
:104EF0000F4D6D6805F4E061090A104D6B5C456863
:104F0000DD4085600A4D6D6805F46051C90A0B4D9E
:104F10006B5C4568DD40C560054D6D6805F440413A
:104F2000890B074D6B5CC568B5FBF3F5056130BDBA
:104F30000010024000127A0000093D00200000200D
:104F40003000002000B587B001210420FFF780FF6A
:104F500001210803FFF77CFFF020ADF818001820AE
:104F60008DF81B0003208DF81A0006A91648FDF7DE
:104F700069F8E0211448FDF7F2F80020ADF80400CC
:104F80004FF48270ADF806000020ADF80800022052
:104F9000ADF80A000120ADF80C004002ADF80E009B
:104FA0003820ADF810000020ADF812000720ADF851
:104FB000140001A9054800F063F80121034800F03E
:104FC00045F807B000BD0000000801400030014076
:104FD00070B50546002405E0601CC4B2C82C01DD94
:104FE000002070BD02210E4800F03CF80028F3D0EC
:104FF00029460B4800F042F8002405E0601CC4B2CA
:10500000C82C01DD0020ECE70121054800F02AF85A
:105010000028F3D0024800F02EF8C0B2E1E700000B
:105020000030014010B50446074800884FF6C771AC
:10503000084005490880084600882043088001216F
:10504000014800F003F810BD0030014021B1028892
:1050500042F04002028004E002884FF6BF731A401B
:10506000028070470246002013890B400BB10120DB
:1050700000E00020704701468889704781817047B1
:1050800010B50022028802F441520B884C88234359
:105090008C882343CC8823430C8923434C892343A6
:1050A0008C892343CC8923431A430280838B4FF29C
:1050B000FF74234083830B8A038210BD7047000076
:1050C00070B5044600251FE004F0800028B14FF4BD
:1050D00080510F48FDF743F804E04FF480510C482D
:1050E000FDF73BF8FDF73CF94FF400610848FDF788
:1050F00036F8FDF735F94FF400610548FDF72DF856
:105100006006040E681CC5B2082DDDDB70BD000012
:105110000008014010B500F001F810BD0CB50020EA
:10512000019000903348006840F4803031490860B5
:1051300000BF3048006800F4003000900198401C27
:105140000190009818B90198B0F5A06FF1D12948E5
:10515000006800F4003010B10120009001E0002050
:1051600000900098012843D12348006840F01000C7
:10517000214908600846006820F0030008600846DE
:10518000006840F0020008601A4840681949486009
:105190000846406848600846406840F480604860BF
:1051A0000846406820F47C1048600846406840F497
:1051B000E81048600846006840F08070086000BF52
:1051C0000C48006800F000700028F9D009484068D9
:1051D00020F00300074948600846406840F002009C
:1051E000486000BF0348406800F00C000828F9D16F
:1051F0000CBD000000100240002002401CB5012040
:10520000102309A2002100901E20FFF71CFD0120A1
:1052100010210223CDE9001005480021026850202A
:10522000FFF760FC1CBD000053636F72653A00001D
:105230002C2A002010B505201049086000201049D4
:10524000086007200F4908600520486001240BE032
:105250000C480068001B0B4941F8340008464068C0
:1052600001EBC4014860641C052CF1DB02200649F7
:1052700008600648FCF7E2FC10BD0000282A002068
:105280002C2A0020F0340020302A0020F02E0020AC
:10529000042808D14FF0E021096941F004014FF0E2
:1052A000E022116107E04FF0E021096921F00401DB
:1052B0004FF0E022116170477047000010B51348AD
:1052C000006840F001001149086008464068104934
:1052D00008400E494860084600680E4908400B49DE
:1052E00008600846006820F480200860084640688E
:1052F00020F4FE0048604FF41F008860FFF70AFFAB
:105300004FF000600449086010BD0000001002402A
:105310000000FFF8FFFFF6FE08ED00E010B50121E8
:10532000880700F084F848B105480068C043054983
:10533000C1F8B4010121880700F06AF810BD00002F
:10534000B40122420000224210B501210A4800F0B7
:105350006EF878B109480068C0430949C1F8B40142
:10536000FEF7F2F8FCF71EFE01F068FB012102488F
:1053700000F04EF810BD000000040040B4012242CD
:10538000000022427FB505460C4601210220FFF7AE
:105390004FFD1D208DF8000003208DF801008DF8D1
:1053A000020001208DF803006846FEF7D3FAA8B288
:1053B000ADF80800A0B2ADF804000020ADF80A0076
:1053C000ADF806008DF80C0001A9044800F04AF879
:1053D0000121024800F01FF87FBD000000040040DA
:1053E00010B50121074800F022F848B106480068CE
:1053F000C0430649C1F8B4010121024800F008F891
:1054000010BD000000080040B4012242000022420A
:10541000CA430282704721B1028842F00102028031
:1054200004E002884FF6FE731A400280704730B5E0
:105430000246002000230024158A05EA010395890D
:1054400005EA010413B10CB1012000E0002030BDD9
:105450001AB183890B43838102E083898B43838163
:1054600070470000002202881D4B98420ED01D4B51
:1054700098420BD0B0F1804F08D01B4B984205D01A
:105480001A4B984202D01A4B984204D14FF68F73B0
:105490001A404B881A43174B984207D0164B984234
:1054A00004D04FF6FF431A40CB881A4302808B8802
:1054B00083850B8803850A4B98420BD0094B984291
:1054C00008D00E4B984205D00D4B984202D00D4BA0
:1054D000984201D10B7A0386012383827047000032
:1054E000002C01400034014000040040000800404E
:1054F000000C00400010004000140040004001403B
:10550000004401400048014010B540F225511348C5
:1055100000F0D9F8E8B1114800F090F9C4B2612C5C
:1055200006D0622C08D0632C0AD0642C10D10BE07A
:1055300001200B4908700BE002200949087007E0C0
:1055400003200749087003E004200549087000BFE4
:1055500000BF2146014800F076F910BD0038014037
:105560001800002010B586B00446012144F2040062
:10557000FFF76EFC01210846FFF76AFC4FF400704C
:10558000ADF8140003208DF8160018208DF81700D0
:1055900005A91C48FCF756FD4FF48060ADF81400D7
:1055A00004208DF8170005A91648FCF74BFD2520AF
:1055B0008DF8000003208DF801008DF80200012015
:1055C0008DF803006846FEF7C5F901940020ADF898
:1055D0000800ADF80A00ADF80C00ADF810000C2082
:1055E000ADF80E0001A9084800F0BCF8012240F215
:1055F0002551054800F091F80121034800F04AF8D0
:1056000006B010BD000801400038014010B540F25E
:1056100025510D4800F057F888B10B4800F00EF9FD
:10562000C4B2612C02D0622C08D103E001200749EA
:10563000087003E002200549087000BF00BF214642
:10564000014800F000F910BD00440040180000209F
:1056500010B540F225510D4800F035F888B10B48DF
:1056600000F0ECF8C4B2612C02D0622C08D103E047
:1056700001200749087003E002200549087000BFB7
:1056800000BF2146014800F0DEF810BD0048004090
:105690001800002021B1828942F40052828104E086
:1056A00082894DF6FF731A408281704702460020BE
:1056B000B1F5007F00D100BF13880B400BB1012072
:1056C00000E00020704770B502460024002300254A
:1056D000002040F66A16B14200D100BFC1F3421566
:1056E00001F01F03012606FA03F3012D02D196896A
:1056F000334006E0022D02D1168A334001E0968A3B
:1057000033400C12012606FA04F41688344013B113
:105710000CB1012000E0002070BDF0B5034600246C
:1057200000260025002040F66A17B94200D100BFCC
:105730001846C1F3421401F01F06012707FA06F5C7
:10574000012C01D10C3004E0022C01D1103000E01A
:1057500014301AB107682F43076002E00768AF43AF
:105760000760F0BD2DE9F04786B005460E460024DF
:10577000A24600BFA1460027B08900B100BF2F4656
:105780002C8A4CF6FF700440F08804432C82AC89CC
:105790004EF6F3100440B0883189084371890843FC
:1057A0000443AC81AC8A4FF6FF400440B089044307
:1057B000AC8201A8FFF75CFB1F48874202D1DDF8ED
:1057C00010A001E0DDF80CA0A88900F4004040B171
:1057D0000AEBCA0000EB0A1031684900B0FBF1F88F
:1057E00007E00AEBCA0000EB0A1031688900B0FB41
:1057F000F1F86420B8FBF0F004012009642101FBFA
:105800001089A88900F4004040B1322000EBC900A3
:10581000B0FBF1F000F00700044308E0322000EB99
:1058200009106421B0FBF1F000F00F0004432C815B
:1058300006B0BDE8F08700000038014001468888C6
:10584000C0F30800704770B504460D46C5F3080064
:10585000A08000BF80212046FFF728FF0028F9D054
:1058600070BDC1F308028280704700BFFEE74900A7
:1058700050EAC12018BF04204A0D18BF40F00100B3
:1058800040F2FF72B2EB515F08BF40F00200012806
:1058900008BF052070472DE9F0414F1E00EBC701FE
:1058A0000446D1E9000115461E4637F006020DD028
:1058B0002A46334602F098FC7F1E04EBC703D3E967
:1058C000002302F0FFF937F00602F1D1022F25D0B4
:1058D000042F13D0062F18BFBDE8F0812A463346A7
:1058E00002F082FCD4E90A2302F0ECF92A4633469E
:1058F00002F07AFCD4E9082302F0E4F92A463346A0
:1059000002F072FCD4E9062302F0DCF92A463346A1
:1059100002F06AFCD4E9042302F0D4F92A463346A3
:1059200002F062FCD4E9022302F0CCF92A463346A5
:1059300002F05AFCD4E90023BDE8F04102F0C2B9FC
:10594000012203F0CABA02F0BDB900221346104684
:10595000114602F073BA0000024A0020110703F05A
:10596000BCBA000001FDFFFF30380A2801D2012037
:10597000704700207047014600BF70472DE9F04D89
:105980008D4F21F0004A86B005460C46BA452ADB09
:10599000AAEB070028430AD08848824501DC1AD1C7
:1059A000CDB106B02846BDE8F04DFFF7C9BF844A27
:1059B000844B284602F018FC07460E46824A834B69
:1059C0002846214602F010FC06B03A463346BDE8B0
:1059D000F04D02F077B90120FAF7E2FE06B0BDE81B
:1059E000F04DFFF7B2BF7A48824542DABAF1795FEB
:1059F0000BDA2846FFF73BFF042808BFFFF7ACFF90
:105A0000284606B02146BDE8F08D2A460B461046D2
:105A100002F0EAFB834602466E480E460B4606211C
:105A20007844FFF738FF5A46334602F0DDFB8046E4
:105A300069488A465A46334604217844FFF72BFFCB
:105A40005A46334602F0D0FB00223B4602F03AF9B8
:105A500002460B464046514602F0F0F92A462346DC
:105A600002F0C2FB06B02A462346BDE8F04D02F024
:105A700029B9284624F0004100223D463B4602F069
:105A8000B1FC4FF0FF3203F028FA064602465348B5
:105A90000F460B4606217844FFF7FDFE32463B4693
:105AA00002F0A2FBCDE900014D4832463B460421FD
:105AB0007844FFF7F0FE32463B4602F095FB0022A9
:105AC0002B4602F0FFF8834602913046394602F039
:105AD00075F8804643480D46504517DCDDE9000166
