:020000040800F2
:100000008804002005010008D5020008A1020008AC
:10001000D1020008850100089F0B000800000000C5
:10002000000000000000000000000000750400084F
:1000300089010008000000005D0300088905000830
:100040001F0100081F0100081F0100081F01000810
:100050001F0100081F0100081F0100081F01000800
:100060001F0100081F0100081F0100081F010008F0
:100070001F0100081F0100081F0100081F010008E0
:100080001F0100081F0100081F0100081F010008D0
:100090001F0100081F0100081F0100081F010008C0
:1000A0001F0100081F0100081F0100081F010008B0
:1000B0001F0100081F0100081F0100081F010008A0
:1000C0001F0100081F0100081F0100081F01000890
:1000D0001F0100081F0100086D06000885090008BF
:1000E0001F0100081F0100081F010008DFF810D0E1
:1000F00000F036F800480047050C0008AFF3008018
:10010000880400200648804706480047FEE7FEE7CF
:10011000FEE7FEE7FEE7FEE7FEE7FEE7FEE7FEE7B7
:100120008D050008ED000008D2B201E000F8012BB7
:10013000491EFBD270470022F6E710B513460A4667
:1001400004461946FFF7F0FF204610BD034611F89C
:10015000012B00F8012B002AF9D118467047000046
:10016000064C074D06E0E06840F0010394E8070004
:1001700098471034AC42F6D3FFF7BCFF280C0008B8
:10018000480C000800BFFEE770472DE9F041024629
:1001900000250026002000230024002791F803C03A
:1001A0000CF00F0591F803C00CF0100CBCF1000F1F
:1001B00003D091F802C04CEA050591F800C0BCF1EB
:1001C000000F31D0146800202BE04FF0010C0CFA26
:1001D00000F3B1F800C00CEA03069E4220D1830070
:1001E0004FF00F0C0CFA03F7BC4305FA03FC4CEA82
:1001F000040491F803C0BCF1280F06D14FF0010CA4
:100200000CFA00FCC2F814C00AE091F803C0BCF17B
:10021000480F05D14FF0010C0CFA00FCC2F810C0D9
:10022000401C0828D1D31460B1F800C0BCF1FF0F06
:1002300034DD546800202EE000F1080C4FF0010876
:1002400008FA0CF3B1F800C00CEA03069E4221D173
:1002500083004FF00F0C0CFA03F7BC4305FA03FCC4
:100260004CEA040491F803C0BCF1280F05D100F159
:10027000080C08FA0CF8C2F8148091F803C0BCF11D
:10028000480F07D100F1080C4FF0010808FA0CF8EC
:10029000C2F81080401C0828CED35460BDE8F0811D
:1002A00000BFFEE708B50121042000F069F8032033
:1002B000ADF8000010208DF8030003208DF8020037
:1002C00069460248FFF761FF08BD000000080140D1
:1002D00000BFFEE77047000070B5002100230F2229
:1002E000C47804B3154C246804F4E064C4F5E064F5
:1002F000210AC1F10403CA40447804FA03F1847866
:100300001440214309010E4C0678A155047804F0ED
:100310001F050124AC4005786D11AD0005F1E02505
:10032000C5F8004109E0047804F01F050124AC4041
:10033000044D0678761145F8264070BD0CED00E0BE
:1003400000E400E080E100E002490143024A11605C
:10035000704700000000FA050CED00E07047000057
:1003600029B1064AD2690243044BDA6104E0034A28
:10037000D2698243014BDA617047000000100240ED
:1003800029B1064A92690243044B9A6104E0034A88
:1003900092698243014B9A6170470000001002404D
:1003A00030B500210022002400232D4D6D6805F09A
:1003B0000C0121B1042905D0082923D105E0294DDC
:1003C000056022E0274D05601FE0254D6D6805F4AE
:1003D0007012234D6D6805F48034022505EB9242BE
:1003E0001CB9214D554305600BE01D4D6D6805F4AA
:1003F00000351DB11C4D5543056002E0194D5543B4
:10040000056002E0174D056000BF00BF144D6D6828
:1004100005F0F0010909154D6B5C0568DD4045608C
:100420000F4D6D6805F4E061090A104D6B5C45687D
:10043000DD4085600A4D6D6805F46051C90A0B4DB9
:100440006B5C4568DD40C560054D6D6805F4404155
:10045000890B074D6B5CC568B5FBF3F5056130BDD5
:100460000010024000127A0000093D002300002025
:1004700033000020704710B500F002F810BD0000F6
:100480000CB50020019000903348006840F48030A3
:100490003149086000BF3048006800F40030009027
:1004A0000198401C0190009818B90198B0F5A06F10
:1004B000F1D12948006800F4003010B1012000900B
:1004C00001E0002000900098012843D123480068F3
:1004D00040F01000214908600846006820F0030041
:1004E00008600846006840F0020008601A4840684A
:1004F000194948600846406848600846406840F42A
:10050000806048600846406820F47C1048600846D7
:10051000406840F4E81048600846006840F0807089
:10052000086000BF0C48006800F000700028F9D097
:100530000948406820F003000749486008464068C1
:1005400040F00200486000BF0348406800F00C0023
:100550000828F9D10CBD0000001002400020024024
:10056000042808D14FF0E021096941F004014FF05F
:10057000E022116107E04FF0E021096921F0040158
:100580004FF0E022116170477047000010B513482A
:10059000006840F0010011490860084640681049B1
:1005A00008400E494860084600680E4908400B495B
:1005B00008600846006820F480200860084640680B
:1005C00020F4FE0048604FF41F008860FFF753FFDF
:1005D0004FF000600449086010BD000000100240A8
:1005E0000000FFF8FFFFF6FE08ED00E010B586B052
:1005F000044601210420FFF7C3FE01218803FFF711
:10060000BFFE4FF40070ADF8140003208DF8160003
:1006100018208DF8170005A91248FFF7B6FD4FF412
:100620008060ADF8140004208DF8170005A90D486E
:10063000FFF7ABFD01940020ADF80800ADF80A000B
:10064000ADF80C00ADF810000C20ADF80E0001A9BB
:10065000054800F021FA0121034800F0B5F906B081
:1006600010BD0000000801400038014010B540F204
:100670002551894800F0C1F900287DD0864800F056
:1006800077FAC4B22146854800F085FA612C03D17F
:1006900001208349087022E0622C03D102208049A6
:1006A00008701CE0632C03D103207D49087016E01C
:1006B000642C03D104207A49087010E0652C03D122
:1006C0000520774908700AE0662C03D1062074499A
:1006D000087004E0672C02D1072071490870714846
:1006E000007848B96E480078042805D100206C498C
:1006F000087001206B4908706948007802287DD095
:100700004C2C0ED1612C0CD0622C0AD0632C08D05A
:10071000642C06D0652C04D0662C02D001206249DE
:10072000087061480078012830D1612C2ED0622CED
:100730002CD0632C2AD0642C28D0652C26D0662C93
:1007400024D05A485A490978445459480078401CE2
:10075000574908702A2C19D15648007858B956487C
:1007600000210160416001815048016041600181C8
:1007700001205049087000E04EE04C494E48FFF718
:10078000E5FC00204849087049490870522C0ED1F8
:10079000612C0CD0622C0AD0632C08D0642C06D0BB
:1007A000652C04D0662C02D00120444908704348CF
:1007B000007801286ED1612C6CD0622C6AD0632C39
:1007C00068D0642C66D0652C64D0662C62D03C481E
:1007D0003C49097844543B480078401C394908702A
:1007E0002A2C57D13848007868B938480021016070
:1007F0004160018132480160416000E00DE001810B
:100800000120314908702E493048FFF79FFC002035
:100810002A4908702B4908703CE0412C16D1612C04
:1008200014D0622C12D0632C10D0642C0ED0652C06
:100830000CD0662C0AD001202549087014212548C7
:10084000FFF779FC14212448FFF775FC2048007855
:1008500001281FD1612C1DD0622C1BD0632C19D014
:10086000642C17D0652C15D0662C13D01A481B4960
:100870000978445419480078401C184908702A2CFB
:1008800008D115491348FFF761FC00201049087092
:100890001249087010BD00000044004000380140BB
:1008A000190000201A000020200000206000002015
:1008B0001D0000201B000020380000202100002027
:1008C0006A0000201E0000201C00002042000020C2
:1008D000220000204C000020740000201F00002097
:1008E00010B586B0044601210420FFF749FD01211F
:1008F0004804FFF735FD0420ADF8140003208DF8FF
:10090000160018208DF8170005A91C48FFF73DFCBC
:100910000820ADF8140004208DF8170005A9174829
:10092000FFF733FC26208DF8000003208DF801002E
:100930008DF8020001208DF803006846FFF7CCFC1B
:1009400001940020ADF80800ADF80A00ADF80C00E5
:10095000ADF810000C20ADF80E0001A9084800F019
:100960009BF8012240F22551054800F070F8012162
:10097000034800F029F806B010BD0000000801404F
:100980000044004010B540F225510D4800F035F804
:1009900088B10B4800F0ECF8C4B2612C02D0622C94
:1009A00008D103E001200749087003E0022005494F
:1009B000087000BF00BF2146014800F0DEF810BDFE
:1009C000004400401800002021B1828942F4005206
:1009D000828104E082894DF6FF731A40828170475C
:1009E00002460020B1F5007F00D100BF13880B4004
:1009F0000BB1012000E00020704770B502460024D2
:100A000000230025002040F66A16B14200D100BF45
:100A1000C1F3421501F01F03012606FA03F3012D6D
:100A200002D19689334006E0022D02D1168A334066
:100A300001E0968A33400C12012606FA04F4168867
:100A4000344013B10CB1012000E0002070BDF0B5BE
:100A50000346002400260025002040F66A17B9420C
:100A600000D100BF1846C1F3421401F01F06012750
:100A700007FA06F5012C01D10C3004E0022C01D15B
:100A8000103000E014301AB107682F43076002E00D
:100A90000768AF430760F0BD2DE9F04786B0054613
:100AA0000E460024A24600BFA1460027B08900B12F
:100AB00000BF2F462C8A4CF6FF700440F088044398
:100AC0002C82AC894EF6F3100440B088318908437B
:100AD000718908430443AC81AC8A4FF6FF4004405F
:100AE000B0890443AC8201A8FFF75AFC1F48874233
:100AF00002D1DDF810A001E0DDF80CA0A88900F417
:100B0000004040B10AEBCA0000EB0A10316849000E
:100B1000B0FBF1F807E00AEBCA0000EB0A103168FD
:100B20008900B0FBF1F86420B8FBF0F00401200963
:100B3000642101FB1089A88900F4004040B13220F3
:100B400000EBC900B0FBF1F000F00700044308E03F
:100B5000322000EB09106421B0FBF1F000F00F002F
:100B600004432C8106B0BDE8F08700000038014046
:100B700001468888C0F30800704770B504460D46EA
:100B8000C5F30800A08000BF80212046FFF728FFA2
:100B90000028F9D070BDC1F308028280704700BF01
:100BA000FEE702E008C8121F08C1002AFAD1704708
:100BB0007047002001E001C1121F002AFBD17047DD
:100BC00010B56FF00400FFF7CBFC0A4800680A4933
:100BD000B0FBF1F0094908700846007800EB4001CD
:100BE000C1EBC0104FF6FF7101EAC0000449088054
:100BF00010BD00000000002000127A001400002048
:100C000016000020FFF7DCFF4FF4A060FFF79CFB0D
:100C1000FFF748FB4FF4E130FFF7E8FC4FF41650C4
:100C2000FFF75EFE00BFFEE7480C00080000002052
:100C300038000000A20B0008800C000838000020DB
:100C400050040000B20B000800A24A04000000009B
:100C5000000000000102030406070809000000006C
:100C60000000000000000000000000000000000183
:100C7000020304010203040607080902040608002F
:0400000508000105E9
:00000001FF
