:020000040800F2
:10000000900400200501000805030008A90200086B
:100010000103000885010008470A000800000000ED
:1000200000000000000000000000000015040008AF
:1000300089010008000000001D03000829050008D0
:100040001F0100081F0100081F0100081F01000810
:100050001F0100081F0100081F0100081F01000800
:100060001F0100081F0100081F0100081F010008F0
:100070001F0100081F0100081F0100081F010008E0
:100080001F0100081F0100081F0100081F010008D0
:100090001F0100081F0100081F0100081F010008C0
:1000A0001F0100081F0100081F0100081F010008B0
:1000B0001F0100081F0100081F0100081F010008A0
:1000C0001F0100081F0100081F0100081F01000890
:1000D0001F0100081F0100080D0600087508000830
:1000E0001F0100081F0100081F010008DFF810D0E1
:1000F00000F036F800480047510B0008AFF30080CD
:10010000900400200648804706480047FEE7FEE7C7
:10011000FEE7FEE7FEE7FEE7FEE7FEE7FEE7FEE7B7
:100120002D050008ED000008D2B201E000F8012B17
:10013000491EFBD270470022F6E710B513460A4667
:1001400004461946FFF7F0FF204610BD034611F89C
:10015000012B00F8012B002AF9D118467047000046
:10016000064C074D06E0E06840F0010394E8070004
:1001700098471034AC42F6D3FFF7BCFFA40B00083D
:10018000C40B000800BFFEE770472DE9F0410246AE
:1001900000250026002000230024002791F803C03A
:1001A0000CF00F0591F803C00CF0100CBCF1000F1F
:1001B00003D091F802C04CEA050591F800C0BCF1EB
:1001C000000F31D0146800202BE04FF0010C0CFA26
:1001D00000F3B1F800C00CEA03069E4220D1830070
:1001E0004FF00F0C0CFA03F7BC4305FA03FC4CEA82
:1001F000040491F803C0BCF1280F06D14FF0010CA4
:100200000CFA00FCC2F814C00AE091F803C0BCF17B
:10021000480F05D14FF0010C0CFA00FCC2F810C0D9
:10022000401C0828D1D31460B1F800C0BCF1FF0F06
:1002300034DD546800202EE000F1080C4FF0010876
:1002400008FA0CF3B1F800C00CEA03069E4221D173
:1002500083004FF00F0C0CFA03F7BC4305FA03FCC4
:100260004CEA040491F803C0BCF1280F05D100F159
:10027000080C08FA0CF8C2F8148091F803C0BCF11D
:10028000480F07D100F1080C4FF0010808FA0CF8EC
:10029000C2F81080401C0828CED35460BDE8F0811D
:1002A000416170470161704700BFFEE708B5012159
:1002B000042000F035F80320ADF8000010208DF880
:1002C000030003208DF8020069460248FFF75DFF36
:1002D00008BD00000008014010B504462146024850
:1002E000FFF7DEFF10BD00000008014010B5044616
:1002F00021460248FFF7D6FF10BD0000000801406C
:1003000000BFFEE77047000002490143024A116046
:10031000704700000000FA050CED00E07047000097
:1003200029B1064A92690243044B9A6104E0034AE8
:1003300092698243014B9A617047000000100240AD
:1003400030B500210022002400232D4D6D6805F0FA
:100350000C0121B1042905D0082923D105E0294D3C
:10036000056022E0274D05601FE0254D6D6805F40E
:100370007012234D6D6805F48034022505EB92421E
:100380001CB9214D554305600BE01D4D6D6805F40A
:1003900000351DB11C4D5543056002E0194D554314
:1003A000056002E0174D056000BF00BF144D6D6889
:1003B00005F0F0010909154D6B5C0568DD404560ED
:1003C0000F4D6D6805F4E061090A104D6B5C4568DE
:1003D000DD4085600A4D6D6805F46051C90A0B4D1A
:1003E0006B5C4568DD40C560054D6D6805F44041B6
:1003F000890B074D6B5CC568B5FBF3F5056130BD36
:100400000010024000127A0000093D002300002085
:1004100033000020704710B500F002F810BD000056
:100420000CB50020019000903348006840F4803003
:100430003149086000BF3048006800F40030009087
:100440000198401C0190009818B90198B0F5A06F70
:10045000F1D12948006800F4003010B1012000906B
:1004600001E0002000900098012843D12348006853
:1004700040F01000214908600846006820F00300A1
:1004800008600846006840F0020008601A484068AA
:10049000194948600846406848600846406840F48A
:1004A000806048600846406820F47C104860084638
:1004B000406840F4E81048600846006840F08070EA
:1004C000086000BF0C48006800F000700028F9D0F8
:1004D0000948406820F00300074948600846406822
:1004E00040F00200486000BF0348406800F00C0084
:1004F0000828F9D10CBD0000001002400020024085
:10050000042808D14FF0E021096941F004014FF0BF
:10051000E022116107E04FF0E021096921F00401B8
:100520004FF0E022116170477047000010B513488A
:10053000006840F001001149086008464068104911
:1005400008400E494860084600680E4908400B49BB
:1005500008600846006820F480200860084640686B
:1005600020F4FE0048604FF41F008860FFF753FF3F
:100570004FF000600449086010BD00000010024008
:100580000000FFF8FFFFF6FE08ED00E010B586B0B2
:10059000044601210420FFF7C3FE01218803FFF771
:1005A000BFFE4FF40070ADF8140003208DF8160064
:1005B00018208DF8170005A91248FFF7E6FD4FF443
:1005C0008060ADF8140004208DF8170005A90D48CF
:1005D000FFF7DBFD01940020ADF80800ADF80A003C
:1005E000ADF80C00ADF810000C20ADF80E0001A91C
:1005F000054800F0A5F90121034800F05DF906B0B7
:1006000010BD0000000801400038014010B540F264
:100610002551874800F069F900287DD0844800F012
:10062000FBF9C4B2612C03D101208249087022E099
:10063000622C03D102207F4908701CE0632C03D197
:1006400003207C49087016E0642C03D1042079490A
:10065000087010E0652C03D10520764908700AE087
:10066000662C03D106207349087004E0672C02D180
:100670000720704908707048007848B96D480078C4
:10068000042805D100206B49087001206A490870D0
:100690006848007802287DD04C2C0ED1612C0CD0FB
:1006A000622C0AD0632C08D0642C06D0652C04D0B0
:1006B000662C02D00120614908706048007801284A
:1006C00030D1612C2ED0622C2CD0632C2AD0642CFB
:1006D00028D0652C26D0662C24D059485949097851
:1006E000445458480078401C564908702A2C19D1A7
:1006F0005548007858B95548002101604160018192
:100700004F4801604160018101204F4908704C4908
:100710004E48FFF71BFD00E04AE000204749087003
:1007200048490870522C0ED1612C0CD0622C0AD092
:10073000632C08D0642C06D0652C04D0662C02D023
:100740000120434908704248007801286ED1612C8D
:100750006CD0622C6AD0632C68D0642C66D0652C77
:1007600064D0662C62D03B483B49097844543A48EF
:100770000078401C384908702A2C57D13748007837
:1007800068B937480021016041600181314801604A
:10079000416000E00DE001810120304908702D49E1
:1007A0002F48FFF7D3FC0020294908702A49087018
:1007B0003CE0412C16D1612C14D0622C12D0632C59
:1007C00010D0642C0ED0652C0CD0662C0AD00120E1
:1007D0002449087014212448FFF7ADFC1421234854
:1007E000FFF7A9FC1F48007801281FD1612C1DD0FC
:1007F000622C1BD0632C19D0642C17D0652C15D01B
:10080000662C13D019481A490978445418480078BE
:10081000401C174908702A2C08D114491248FFF7C8
:1008200095FC00200F4908701149087010BD0000A8
:1008300000380140190000201A000020200000208C
:10084000640000201D0000201B0000203C00002050
:10085000210000206E0000201E0000201C0000204F
:1008600046000020220000205000002078000020D8
:100870001F00002010B540F225510D4800F035F85A
:1008800088B10B4800F0C8F8C4B2612C02D0622CC9
:1008900008D103E001200749087003E00220054960
:1008A000087000BF00BF2146014800F0BAF810BD33
:1008B000004400401800002021B1828942F4005217
:1008C000828104E082894DF6FF731A40828170476D
:1008D00002460020B1F5007F00D100BF13880B4015
:1008E0000BB1012000E00020704770B502460024E3
:1008F00000230025002040F66A16B14200D100BF57
:10090000C1F3421501F01F03012606FA03F3012D7E
:1009100002D19689334006E0022D02D1168A334077
:1009200001E0968A33400C12012606FA04F4168878
:10093000344013B10CB1012000E0002070BD000074
:100940002DE9F04786B005460E460024A24600BFBA
:10095000A1460027B08900B100BF2F462C8A4CF673
:10096000FF700440F08804432C82AC894EF6F310EB
:100970000440B08831890843718908430443AC813D
:10098000AC8A4FF6FF400440B0890443AC8201A812
:10099000FFF7D6FC1F48874202D1DDF810A001E026
:1009A000DDF80CA0A88900F4004040B10AEBCA00B1
:1009B00000EB0A1031684900B0FBF1F807E00AEBE0
:1009C000CA0000EB0A1031688900B0FBF1F864201E
:1009D000B8FBF0F004012009642101FB1089A8890B
:1009E00000F4004040B1322000EBC900B0FBF1F050
:1009F00000F00700044308E0322000EB09106421F6
:100A0000B0FBF1F000F00F0004432C8106B0BDE80C
:100A1000F08700000038014001468888C0F30800D4
:100A2000704770B504460D46C5F30800A08000BFAE
:100A300080212046FFF74CFF0028F9D070BDC1F39C
:100A400008028280704700BFFEE70000014A0249A9
:100A500000F013B82D0B00083800002002E008C891
:100A6000121F08C1002AFAD170477047002001E028
:100A700001C1121F002AFBD170472DE9F041164633
:100A80000F460446002503E03946B047641C6D1C40
:100A900020780028F8D12846BDE8F08110B56FF025
:100AA0000400FFF72DFD0A4800680A49B0FBF1F089
:100AB000094908700846007800EB4001C1EBC010FE
:100AC0004FF6FF7101EAC0000449088010BD000024
:100AD0000000002000127A00140000201600002000
:100AE0000146114A12884A434FF0E0235A6100221E
:100AF0009A611A46126942F001021A6100BF4FF072
:100B0000E022106900F001021AB100F48032002ADC
:100B1000F5D04FF0E022126922F001024FF0E023FD
:100B20001A6100229A6170471600002070B50446D1
:100B30000D46E1B20548FFF782FF00BF8021034860
:100B4000FFF7C6FE0128F9D1204670BD00380140EC
:100B5000FFF7A4FF4FF4A060FFF7D6FBFFF7A6FB5B
:100B60004FF4E130FFF712FD16E00CA0FFF76EFF27
:100B70000120FFF7BBFB0220FFF7AEFB4FF47A70BA
:100B8000FFF7AEFF0220FFF7B1FB0120FFF7A4FB48
:100B90004FF47A70FFF7A4FFE7E700007465737401
:100BA00000000000C40B0008000000203C00000012
:100BB0005C0A0008000C00083C00002054040000FF
:100BC0006C0A000800A24A040000000000000000B7
:100BD00001020304060708090000000000000000ED
:100BE00000000000000000000000000102030401FA
:100BF00002030406070809020406080000000000BA
:0400000508000105E9
:00000001FF
