:020000040800F2
:10000000D0040020050100087D18000869140008CC
:10001000F7150008A5110008EB27000800000000F4
:10002000000000000000000000000000391B000874
:100030007D12000800000000E1190008911C000872
:100040001F0100081F0100081F0100081F01000810
:100050001F0100081F0100081F0100081F01000800
:100060001F0100081F0100081F0100081F010008F0
:100070001F0100081F0100081F0100081F010008E0
:100080001F0100081F0100081F0100081F010008D0
:100090001F0100081F0100081F0100081F010008C0
:1000A0001F0100081F0100081F0100081F010008B0
:1000B0001F0100081F010008F51C00081F010008AF
:1000C0001F0100081F0100081F0100081F01000890
:1000D0001F0100081F010008A92300081F010008D4
:1000E0001F0100081F0100081F010008DFF810D0E1
:1000F00000F066FC004800477D340008AFF3008044
:10010000D00400200648804706480047FEE7FEE787
:10011000FEE7FEE7FEE7FEE7FEE7FEE7FEE7FEE7B7
:10012000951C0008ED000008D2B201E000F8012B98
:10013000491EFBD270470022F6E710B513460A4667
:1001400004461946FFF7F0FF204610BD034611F89C
:10015000012B00F8012B002AF9D118467047F0B4A2
:1001600080EA0102D40F4200B2EB410F02D20246F4
:10017000084611464A0042D0C30DDDB2C1F3C75252
:10018000AD1A202D35DAC1F3160141F4000204B195
:100190005242C5F1200602FA06F12A411044B3EB9F
:1001A000D05F23D0C4B1012DA0EBC35009DCF0BC5B
:1001B0004FF0004202EAC352DBB200F5000000F04B
:1001C0002CBB400000F1807000EBC350A0F18070A8
:1001D00040EAD170490009E0490841EAC071A0EB4A
:1001E000C35000F50000400800EBC350F0BC00F025
:1001F0000BBB6142012202EB4101001BF6E7F0BCA0
:10020000704781F00041AAE780F00040A7E780EA4C
:10021000010210B502F00043400022D04A001FD076
:10022000010E01EB1261C0F35600C2F3560240F416
:10023000000042F40002A0FB022000047F391404F5
:1002400000D0401C50EA124001D44000491EC2B206
:100250000C0604EBD010401C4008802A02D003E0BA
:10026000002010BD20F00100002900DA0020184312
:1002700010BD30B480EA010202F0004530F00042C7
:1002800021F0004013D090B1C30DD40DC2F316017C
:10029000C0F31600E41A41F4000140F400027D347A
:1002A000914201D3641C00E04900002C02DA30BC0A
:1002B000002070474FF400000023914201D3891AB7
:1002C000034340084FEA4101F7D151B1914202D1B5
:1002D0004FF0004105E002D24FF0010101E06FF064
:1002E000010103EBC450284430BC00F08DBA2DE965
:1002F000FE4F804681EA0300C00F0C46009021F0BB
:10030000004123F00045B8EB0200A94105D2404668
:10031000214690461C460B46024623F000401043FF
:1003200047D0270DC7F30A00C3F30A510290401AC1
:10033000019040286BDAC3F3130040F4801B00984F
:10034000924620B10023D2EB030A63EB0B0B01981A
:100350005946C0F14002504600F025FA06460D46C7
:1003600050465946019A00F03DFA10EB08006141F1
:10037000002487EA115284EAE7731A4340D0009AB6
:1003800062B3019A012A4FEA075215DC001B61EBA8
:1003900002014FF0004202EA0752CDE90042001C80
:1003A00041F5801132462B4600F074FA03B0BDE8E7
:1003B000F08F40462146F9E7001B61EB0201001C6B
:1003C00041F5801300185B412018A2F5001747EB98
:1003D000030140EAD570B6196D4111E06D084FEA8E
:1003E000360645EAC0754FEA0752001B61EB020171
:1003F000001C41F5801149084FEA300000195141B5
:1004000032462B4603B0BDE8F04F00F034BA0098F6
:10041000012240000023D0EB020263EBE07300985E
:1004200021464FEAE074B8EB000061EB0401E9E714
:1004300083F000435BE781F0004158E72DE9FE4F70
:1004400081EA030404F0004421F0004100944FF0DD
:10045000000B23F0004350EA01045ED052EA03048B
:100460005BD0C3F30A54C1F30A552C44A4F2F3340D
:100470000194A0FB0254C1F3130141F48011C3F3B2
:10048000130343F4801301FB024400FB034E840A70
:10049000970A44EA815447EA8357A4FB0768029508
:1004A0008D0A05FB07854FEA932C04FB0C542705A6
:1004B000029D4FEA065847EA1637B5EB08056EEB82
:1004C000070C870E920E47EA811742EA8312A7FBB8
:1004D0000201B6EB0B0164EB00042B0D43EA0C3375
:1004E0005E1844EB1C50DA465146E7FB0201C5F3A7
:1004F00013044FEA0B3343EA14534FEA0432019CCE
:1005000043EA0603A4F10C040294009CCDE900B474
:1005100000F0C0F903B0BDE8F08F00200146F9E714
:100520002DE9F04D81EA030404F0004B21F0004571
:1005300014464FF0000A23F0004150EA050220D093
:1005400054EA01021DD0C5F30A570246C5F313034E
:10055000C1F31300C1F30A5640F4801543F480132D
:10056000A7EB0608101BD64608F2FD3873EB050012
:1005700002D308F1010801E092185B41B8F1000FC5
:1005800003DA00200146BDE8F08D00204FF4801111
:10059000064684460EE0171B73EB050705D3121BB6
:1005A00063EB050306434CEA010C49084FEA3000AF
:1005B00092185B4150EA0107EDD152EA030012D0D4
:1005C00082EA040083EA0501084305D0101BAB4111
:1005D00006D20122002306E000224FF0004302E091
:1005E0006FF0010253101AEB06004CEB085110EBB0
:1005F0000A0041EB0B01BDE8F04D00F03CB9962339
:100600000022114600F009B90EB5C10F80EAE07072
:100610000844CA07002140F233438DE80E000A4621
:100620000B4600F037F903B000BD20F00040C10DCB
:10063000C0F3160040F400007F2901DA0020704763
:10064000962903DCC1F19601C8407047963988406D
:10065000704770B5C1F30A5201F000450024C1F3A0
:10066000130140F2FF3341F480119A4201DA002075
:1006700070BD40F233439A42A2F2334203DC52424D
:1006800000F0A0F800E090402C43F1D0404270BD53
:1006900000F0004230F000400AD0C10D01F5607159
:1006A000C0F3160042EA0151C208400711437047E7
:1006B00000200146704701F0004330B421F00041B2
:1006C00050EA010206D00A0DA2F56072C1F31301CF
:1006D000002A02DC30BC00207047440F44EAC10409
:1006E000C100E01830BC00EBC25000F08DB8000033
:1006F000002801DBC0F10040002901DBC1F100410D
:1007000081427047002801DBC0F10040002901DB75
:10071000C1F100418842704730B50B4601460020C8
:100720002022012409E021FA02F59D4205D303FAB3
:1007300002F5491B04FA02F52844151EA2F1010234
:10074000F1DC30BD2DE9F05F0546002092469B4666
:1007500088460646814640241BE0284641464746D7
:10076000224600F02FF853465A46C01A914110D342
:1007700011461846224600F016F82D1A67EB0108BC
:100780004F4622460120002100F00DF817EB00092A
:100790004E41201EA4F10104DFDC484631462A46C2
:1007A0004346BDE8F09F202A04DB203A00FA02F11C
:1007B000002070479140C2F1200320FA03F319434F
:1007C00090407047202A04DB203A21FA02F00021F1
:1007D000704721FA02F3D040C2F120029140084351
:1007E00019467047202A06DBCB17203A41FA02F05F
:1007F00043EAE07306E041FA02F3D040C2F120027E
:1008000091400843194670470029A8BF7047401C13
:10081000490008BF20F00100704710B4B0FA80FC16
:1008200000FA0CF050EA010404BF10BC704749B153
:10083000CCF1200421FA04F411FA0CF118BF0121C3
:1008400021430843A3EB0C01CB1D4FEA00614FEAA3
:10085000102042BF002010BC704700EBC350104472
:100860000029A4BF10BC7047401C490008BF20F0FD
:10087000010010BC704710B5141E73F1000408DAB3
:10088000401C41F1000192185B411A4301D120F054
:10089000010010BD2DE9F04D92469B4611B1B1FA11
:1008A00081F202E0B0FA80F220329046FFF77BFF3F
:1008B00004460F4640EA0A0041EA0B0153465A46F5
:1008C000084313D0114653EA010019D0C8F1400281
:1008D0005046FFF777FF05460E46504659464246BA
:1008E000FFF761FF084305D0012004E020463946A8
:1008F000BDE8F08D0020054346EAE0762C433743FF
:100900000A986305E40AA0EB08000022FD0A44EA05
:1009100047540A3002D500200146E9E701051019C5
:100920006941DDE9084500196941BDE8F04DA2E7DC
:1009300070B521F0004303430CD0C1F30A550024E5
:10094000D5EB040564EB0403D617AD1AB34102DB03
:100950000020014670BD201841EB025170BDC1F36B
:100960000A52C1F3130140F2FF3341F480119A425D
:1009700002DA00200146704740F233439A42A2F265
:10098000334202DC5242FFF71DBFFFF70CBF0000ED
:1009900030B5041E71F1000404DB4FF00044404206
:1009A00064EB0101141E73F1000405DB1C464FF0DB
:1009B0000043524263EB0403994208BF904230BDAA
:1009C000064C074D06E0E06840F0010394E807009C
:1009D00098471034AC42F6D3FFF78CFB803F0008F9
:1009E000A03F00082DE9F04D00231A461B1A8A414A
:1009F00003DB00200146BDE8F08DC1F30A52C1F3CC
:100A0000130141F480154FF0000BD10702D10018FB
:100A10006D41521E0027044640F2FF11384601EB9B
:100A2000620A3E468046024600204FF48011FFF7DE
:100A3000C9FEC2197141BB1846EB0100B4EB030CAF
:100A400075EB000C04D3E41A65EB000517460E465F
:100A5000241908F101006D4180463428E3DDF919BD
:100A600046EB0600091BA84103D24FF0FF321346A4
:100A700001E0002213461BEB070046EB0A51BDE8DC
:100A8000F04DFFF7F8BE00002DE9F04F99B00025BA
:100A900000201890179016900120159014900124B2
:100AA0000AE0DE48005D2E2800D107E0DB48015D4A
:100AB000601E0EAA1154641C142CF2DB00BF00242B
:100AC00015E0D648005D2C2802D101201890641C46
:100AD000189801280AD1D148005D2E2801D100259F
:100AE00007E0CE48005D11A948556D1C641C142C0C
:100AF000E7DB00BF00250A2439E00EA8005D30289E
:100B00002DDB0EA8005D392829DC2846FFF77CFD87
:100B100002460B46CDE900010020C14902F0D4FC99
:100B2000CDE904010EA9095DA1F13000FFF76CFDCC
:100B3000CDE90201DDE90423FFF780FCCDE90801DE
:100B40001698FFF761FDCDE90601DDE90823FFF7FF
:100B5000CEFBCDE90A01FFF77CFD16906D1C9DF8D8
:100B600038002D2802D14FF0FF301490641E002C65
:100B7000C3DA00250A2439E011A8005D30282DDBF6
:100B800011A8005D392829DC2846FFF73DFD024603
:100B90000B46CDE900010020A14902F095FCCDE90A
:100BA000040111A9095DA1F13000FFF72DFDCDE988
:100BB0000201DDE90423FFF741FCCDE908011798A4
:100BC000FFF722FDCDE90601DDE90823FFF78FFBE2
:100BD000CDE90A01FFF73DFD17906D1C9DF844001B
:100BE0002D2802D14FF0FF301590641E002CC3DA7F
:100BF00017991598484317901699149848431690DA
:100C00008849894A1798126841F822008749864A1C
:100C10001698126841F8220083480068401C8249F7
:100C200008600846006805287ED10020086000257D
:100C300035E000242EE07B4850F824100246601C6A
:100C400052F8200081420DDD104650F824000D902E
:100C50001146601C51F8200041F82400611C0D98D9
:100C600042F82100714850F824100246601C52F8E6
:100C7000200081420DDD104650F824000C901146F2
:100C8000601C51F8200041F82400611C0C9842F8C7
:100C90002100641CC5F10500A042CCDC6D1C042DB4
:100CA000C7DB6048806817906048806816907F2096
:100CB00043425A2251420090179800F091FC82461C
:100CC0007F2043425A2251420090169800F088FC3F
:100CD0008346CAF1000000EB0B06CAF10000A0EB4E
:100CE0000B07CAF1000000EB0B08CAF10000A0EBF3
:100CF0000B0940F2F31043427F22514200903046EC
:100D000000F06EFC064640F2F31043427F2251424F
:100D10000090384600F064FC074640F2F31043426E
:100D20007F225142009000E06AE0404600F058FC0B
:100D3000804640F2F31043427F22514200904846E1
:100D400000F04EFC8146142E03DA16F1140F00DD7C
:100D50000026142F03DA17F1140F00DD0027B8F175
:100D6000140F04DA18F1140F01DD4FF00008B9F187
:100D7000140F04DA19F1140F01DD4FF00009B6F574
:100D8000FA7F01DB40F2F316B7F5FA7F01DB40F2A0
:100D9000F317B8F5FA7F01DB40F2F318B9F5FA7FE3
:100DA00001DB40F2F31916F5FA7F01DC6FF4F976F6
:100DB00017F5FA7F01DC6FF4F97718F5FA7F01DC9B
:100DC0006FF4F97819F5FA7F01DC6FF4F979002EE8
:100DD00000DA00BF002F00DA00BFB8F1000F00DA20
:100DE00000BFB9F1000F00DA00BF14210D48FFF772
:100DF000A2F914210D48FFF79EF9012002F0E0FA54
:100E000000200E900F9010901190129013900120DE
:100E100002F0D6FA19B0BDE8F08F00006C00002097
:100E200000002440A800002048000020BC00002052
:100E30002DE9F04F85B0322004900390029001908C
:100E4000954800784C2815D19348C078303892499D
:100E50008978303901EB810100EB410004908E4824
:100E6000807930388C494979303901EB810100EBC8
:100E70004100039089480078522815D18748C078EE
:100E8000303886498978303901EB810100EB410027
:100E9000029082488079303880494979303901EBB5
:100EA000810100EB410001907F2043425A220A2138
:100EB0000090049800F094FB80467F2043425A2221
:100EC0000A210090039800F08BFB81467F2043426B
:100ED0005A220A210090029800F082FB82467F206D
:100EE00043425A220A210090019800F079FB834680
:100EF000C9F100004044A0EB0B0000EB0A04C9F16B
:100F00000000A0EB0800A0EB0B00A0EB0A05C9F164
:100F100000004044A0EB0B00A0EB0A06C9F1000062
:100F2000A0EB0800A0EB0B0000EB0A074FF47A706F
:100F300043427F2251420090204600F051FB04467C
:100F40004FF47A7043427F2251420090284600F0CD
:100F500047FB05464FF47A7043427F22514200908E
:100F6000304600F03DFB06464FF47A7043427F2244
:100F700051420090384600F033FB0746C82C03DA94
:100F800014F1C80F00DD0024C82D03DA15F1C80FD5
:100F900000DD0025C82E03DA16F1C80F00DD00269B
:100FA000C82F03DA17F1C80F00DD0027B4F57A7FE8
:100FB00001DD4FF47A74B5F57A7F01DD4FF47A756F
:100FC000B6F57A7F01DD4FF47A76B7F57A7F01DDE9
:100FD0004FF47A7714F57A7F00DA314C15F57A7F81
:100FE00000DA2F4D16F57A7F00DA2D4E17F57A7F4D
:100FF00000DA2B4F21462BA001F062FC21462CA0E9
:1010000001F05EFC21462DA001F05AFC21462EA0E5
:1010100001F056FC2FA001F053FC002C04DBA1B220
:10102000012000F009FB06E0002C04DA604281B2E6
:10103000002000F001FB002D04DBA9B2012000F02C
:1010400019FB06E0002D04DA684281B2002000F0AE
:1010500011FB002E04DBB1B2012000F02BFB06E0F7
:10106000002E04DA704281B2002000F023FB002F32
:1010700004DBB9B2012000F0C1FA06E0002F04DA67
:10108000784281B2002000F0B9FA0A2002F098F903
:1010900005B0BDE8F08F000058000020620000207D
:1010A00018FCFFFF70776D313A25640900000000DD
:1010B00070776D323A2564090000000070776D3357
:1010C0003A2564090000000070776D343A25640900
:1010D000000000000D0A000008B50121102000F0FA
:1010E000A1FC4FF48040ADF8000010208DF8030003
:1010F00003208DF802006946044800F0C4F84FF45C
:101100008041024800F094F908BD00000010014041
:1011100010B5002004490860C82002F051F90120F0
:101120000249C1F8B80110BDB801224200002242B4
:1011300010B5002006490860642002F041F9012042
:101140000449C1F8B801642002F03AF910BD00006A
:10115000B80122420000224210B50D480078012853
:1011600002D1FFF765FE12E009480078022802D19B
:10117000FFF78AFC0BE006480078032802D100F054
:101180007EF804E00248017802A001F099FB10BD4E
:10119000190000206D6F64655F666C61673A2564B5
:1011A0000D0A000000BFFEE710B5044621460020EE
:1011B00000F024FA2146002000F03EFA21460020EB
:1011C00000F058FA2146002000F074FA10BD10B566
:1011D00004462146012000F011FA2146012000F0CA
:1011E0002BFA2146012000F045FA2146012000F0AB
:1011F00061FA10BD10B50021012000F0FFF90021B7
:10120000012000F019FA0021012000F033FA00213A
:10121000012000F04FFA10BD10B504462146002011
:1012200000F0ECF92146002000F006FA21460120EA
:1012300000F020FA2146012000F03CFA10BD10B564
:1012400004462146012000F0D9F92146012000F092
:10125000F3F92146002000F00DFA2146002000F0AD
:1012600029FA10BD10B50021014800F05DFD10BD48
:101270000008004010B5FFF76FFF10BD704710B5B4
:1012800002F014F810BD2DE9F041024600250026B9
:10129000002000230024002791F803C00CF00F0564
:1012A00091F803C00CF0100CBCF1000F03D091F8C2
:1012B00002C04CEA050591F800C0BCF1000F31D026
:1012C000146800202BE04FF0010C0CFA00F3B1F889
:1012D00000C00CEA03069E4220D183004FF00F0CA1
:1012E0000CFA03F7BC4305FA03FC4CEA040491F83A
:1012F00003C0BCF1280F06D14FF0010C0CFA00FC22
:10130000C2F814C00AE091F803C0BCF1480F05D13F
:101310004FF0010C0CFA00FCC2F810C0401C082869
:10132000D1D31460B1F800C0BCF1FF0F34DD5468B4
:1013300000202EE000F1080C4FF0010808FA0CF331
:10134000B1F800C00CEA03069E4221D183004FF0A1
:101350000F0C0CFA03F7BC4305FA03FC4CEA040437
:1013600091F803C0BCF1280F05D100F1080C08FA70
:101370000CF8C2F8148091F803C0BCF1480F07D1F3
:1013800000F1080C4FF0010808FA0CF8C2F81080C0
:10139000401C0828CED35460BDE8F081F0B50A4661
:1013A000002300240021002500F00046B6F1004F84
:1013B00002D11D4EF16901E01B4E7168C0F3034577
:1013C00083B200F44016B6F5401F08D121F07061D9
:1013D000154E766826F07066134F7E6012E000F4BA
:1013E0008016B6F5801F06D1032606FA05F4A14340
:1013F00041F0706106E0460D360103FA06F6B1438E
:1014000041F0706122B1460D360103FA06F6314310
:1014100000F00046B6F1004F02D1034EF16101E049
:10142000014E7160F0BD0000000001404161704755
:101430000161704710B500BF094800884FF47A7108
:1014400000FB01F4074800F07FFD0444002005493B
:1014500024310880322001F0B3FF204610BD000087
:101460004C0000200008004000BFFEE72DE9F84FC7
:101470000024A146A246A346012018490860142072
:1014800001F0C4FF00201649C1F8A00100BF1348B5
:101490007C3800680028FAD000F034FA09F101091C
:1014A00000BF0E487C3800680128FAD0FFF7DAFE4A
:1014B000FFF7C0FF04462046FFF7A1F80090FFF7B2
:1014C000E7F807460022074BFFF72AF80546FFF723
:1014D000F2F882465046BDE8F88F0000A081214214
:1014E0000080214200004D401FB50121082000F07E
:1014F00099FA0121042000F075FA4FF48070ADF8DC
:101500000C0003208DF80E0010208DF80F0003A9A9
:101510001E48FFF7B8FE4FF480711C48FFF786FFA6
:101520004FF40070ADF80C0004208DF80F0003A9F3
:101530001648FFF7A8FE4FF400711448FFF776FF36
:10154000134800F00DFC684600F0E4FE40F2E7307E
:10155000ADF804004720ADF800000020ADF806000B
:10156000ADF8020069460A4800F082FE01210848F1
:1015700000F0D4FB01221146054800F0F9FC00F010
:1015800009F80021024800F0CFFB1FBD000C01400C
:101590000008004008B51E208DF8000000208DF8DE
:1015A00001008DF8020001208DF80300684600F06C
:1015B00067F908BD08B50121042000F033FA0320C3
:1015C000ADF8000010208DF8030003208DF8020014
:1015D00069460248FFF757FE08BD000000080140B9
:1015E00070B50446049D601AEE1A7043561A90FBBB
:1015F000F6F0184470BD00BFFEE7000070B5044669
:101600000D46B5F57A7F01DB4FF47A7544B10021C0
:10161000084800F028FE2946064800F022FE08E0AF
:101620003CB90021034800F01CFE2946014800F0A7
:101630001AFE70BD0004004070B504460D46B5F5B5
:101640007A7F01DB4FF47A7544B10021084800F03D
:1016500006FE2946064800F000FE08E03CB90021DD
:10166000034800F0FAFD2946014800F0F8FD70BD7E
:101670000004004070B504460D46B5F57A7F01DBE5
:101680004FF47A7554B100214FF0804000F0E9FD2D
:1016900029464FF0804000F0E6FD0AE04CB90021F9
:1016A0004FF0804000F0DFFD29464FF0804000F011
:1016B000D8FD70BD70B504460D46B5F57A7F01DBE7
:1016C0004FF47A7554B100214FF0804000F0C5FD11
:1016D00029464FF0804000F0C2FD0AE04CB90021DD
:1016E0004FF0804000F0BBFD29464FF0804000F0F5
:1016F000B4FD70BD00B589B00121084600F092F933
:101700000121042000F08EF90121082000F08AF95F
:101710000121084600F066F90121022000F062F97B
:1017200001215148FFF73AFE01215048FFF736FEEC
:1017300018208DF8230040F60B40ADF82000032060
:101740008DF8220008A94A48FFF79DFD18208DF862
:10175000230048F2C000ADF8200003208DF82200DD
:1017600008A94448FFF78FFD434800F00AFC4FF0FA
:10177000804000F006FC05A800F0CCFD0020ADF88C
:101780001A00ADF8160040F2CF20ADF8140040F278
:10179000E730ADF8180000208DF81C0005A9364888
:1017A00000F066FD05A94FF0804000F061FD01A842
:1017B00000F049FD6020ADF804000020ADF80C00F9
:1017C0000120ADF806000020ADF80A0001A92A4862
:1017D00000F0DEFB01A9284800F030FC01A92648F2
:1017E00000F08CFC01A9244800F0E2FC01A94FF0B4
:1017F000804000F0CDFB01A94FF0804000F01EFCBE
:1018000001A94FF0804000F079FC01A94FF0804021
:1018100000F0CEFC0821184800F006FC082116480C
:1018200000F05EFC0821144800F0B8FC08211248C2
:1018300000F0FCFC0821C80600F0F6FB0821C806F1
:1018400000F04EFC0821C80600F0A8FC0821C806DC
:1018500000F0ECFC0121084800F066FA012188073D
:1018600000F062FA09B000BD000230000003180069
:10187000000C0140000801400004004070470000D7
:1018800070B5002100230F22C47804B3154C2468DE
:1018900004F4E064C4F5E064210AC1F10403CA4021
:1018A000447804FA03F184781440214309010E4C72
:1018B0000678A155047804F01F050124AC40057892
:1018C0006D11AD0005F1E025C5F8004109E004788F
:1018D00004F01F050124AC40044D0678761145F84C
:1018E000264070BD0CED00E000E400E080E100E087
:1018F00002490143024A1160704700000000FA05E6
:101900000CED00E010B50021054800F0AFFC002010
:10191000044908800121024800F006FA10BD0000C9
:10192000000800404C00002000B589B00121C80229
:1019300000F078F80121042000F074F818208DF8E8
:1019400023004FF48070ADF8200003208DF82200B2
:1019500008A91C48FFF797FC1B4800F012FB05A8DC
:1019600000F0D8FC0020ADF81A00ADF8160044F6DF
:101970001F60ADF818004720ADF8140000208DF866
:101980001C0005A9104800F073FC01A800F05BFCE6
:101990006020ADF804000020ADF80C000120ADF887
:1019A00006000020ADF80A0001A9074800F0F0FA8F
:1019B0000121054800F0B8F90121034800F0C0F901
:1019C00009B000BD00080140002C014010B50446DC
:1019D0002146024800F041FC10BD0000002C0140EF
:1019E0007047000029B1064AD2690243044BDA610C
:1019F00004E0034AD2698243014BDA617047000078
:101A00000010024029B1064A12690243044B1A61D0
:101A100004E0034A12698243014B1A6170470000D7
:101A20000010024029B1064A92690243044B9A61B0
:101A300004E0034A92698243014B9A6170470000B7
:101A40000010024029B1064AD2680243044BDA6012
:101A500004E0034AD2688243014BDA607047000019
:101A60000010024030B500210022002400232D4D3B
:101A70006D6805F00C0121B1042905D0082923D196
:101A800005E0294D056022E0274D05601FE0254D4A
:101A90006D6805F47012234D6D6805F480340225DD
:101AA00005EB92421CB9214D554305600BE01D4DDD
:101AB0006D6805F400351DB11C4D5543056002E00D
:101AC000194D5543056002E0174D056000BF00BF8A
:101AD000144D6D6805F0F0010909154D6B5C056842
:101AE000DD4045600F4D6D6805F4E061090A104D59
:101AF0006B5C4568DD4085600A4D6D6805F460519A
:101B0000C90A0B4D6B5C4568DD40C560054D6D68CD
:101B100005F44041890B074D6B5CC568B5FBF3F5D7
:101B2000056130BD0010024000127A0000093D003E
:101B30002300002033000020704710B5FFF7F4FEAB
:101B400010BD00002DE9F04104460A492046FEF789
:101B500090FB80460849FEF75AFB07460749FEF707
:101B6000FEFA0646FEF761FD85B22846FFF72EFF16
:101B7000BDE8F081000034430000FA440000FA435D
:101B800010B500F001F810BD0CB5002001900090D8
:101B90003348006840F480303149086000BF304865
:101BA000006800F4003000900198401C01900098FB
:101BB00018B90198B0F5A06FF1D12948006800F478
:101BC000003010B10120009001E00020009000984A
:101BD000012843D12348006840F0100021490860E3
:101BE0000846006820F0030008600846006840F0DE
:101BF000020008601A484068194948600846406871
:101C000048600846406840F4806048600846406884
:101C100020F47C1048600846406840F4E8104860B2
:101C20000846006840F08070086000BF0C480068FB
:101C300000F000700028F9D00948406820F0030047
:101C4000074948600846406840F00200486000BF0D
:101C50000348406800F00C000828F9D10CBD0000D2
:101C60000010024000200240042808D14FF0E0217B
:101C7000096941F004014FF0E022116107E04FF0E3
:101C8000E021096921F004014FF0E0221161704761
:101C90007047000010B51348006840F0010011497A
:101CA000086008464068104908400E4948600846E8
:101CB00000680E4908400B4908600846006820F497
:101CC000802008600846406820F4FE0048604FF419
:101CD0001F008860FFF754FF4FF000600449086060
:101CE00010BD0000001002400000FFF8FFFFF6FEEC
:101CF00008ED00E010B50121064800F028F940B1D8
:101D00000121044800F00DF803480088401C0249F6
:101D1000088010BD000800404C000020CA43028229
:101D20007047CA430282704721B1028842F0010223
:101D3000028004E002884FF6FE731A40028070476A
:101D400031B1B0F8442042F40042A0F8442005E04C
:101D5000B0F84420C2F30E02A0F8442070470000FF
:101D600010B504466848844208D10121C014FFF729
:101D700069FE0021E014FFF765FEC4E0B4F1804F76
:101D800008D101210846FFF73DFE00210120FFF7A1
:101D900039FEB8E05D48844208D101210220FFF7F6
:101DA00031FE00210220FFF72DFEACE058488442AE
:101DB00008D101210420FFF725FE00210420FFF7B0
:101DC00021FEA0E05348844208D101210820FFF7FA
:101DD00019FE00210820FFF715FE94E04E488442CA
:101DE00008D101211020FFF70DFE00211020FFF780
:101DF00009FE88E04948844208D101212020FFF7EC
:101E000001FE00212020FFF7FDFD7CE044488442D4
:101E100008D101214014FFF715FE00216014FFF7DF
:101E200011FE70E03F48844209D10121C804FFF748
:101E300009FE00214FF40020FFF704FE63E03A485A
:101E4000844209D101210805FFF7FCFD00214FF470
:101E50008010FFF7F7FD56E03448844209D1012194
:101E60004805FFF7EFFD00214FF40010FFF7EAFDF2
:101E700049E02F48844208D101214020FFF7C2FDEC
:101E800000214020FFF7BEFD3DE02A48844208D1F2
:101E900001218020FFF7B6FD00218020FFF7B2FD71
:101EA00031E02548844208D101218015FFF7AAFDC1
:101EB0000021A015FFF7A6FD25E02048844209D1A6
:101EC00001210804FFF7BEFD00214FF48030FFF729
:101ED000B9FD18E01A48844209D101214804FFF7EE
:101EE000B1FD00214FF40030FFF7ACFD0BE01548C9
:101EF000844208D101218804FFF7A4FD00214FF49A
:101F00008020FFF79FFD10BD002C01400004004021
:101F100000080040000C0040001000400014004089
:101F200000340140004C0140005001400054014089
:101F300000180040001C004000200040004001400C
:101F400000440140004801400146888C704730B58C
:101F50000246002000230024158A05EA0103958922
:101F600005EA010413B10CB1012000E0002030BDEE
:101F70001AB183890B43838102E083898B43838178
:101F8000704701894FF6F8721140018170470000D7
:101F900070B5002400220023058C4FF6FE763540F4
:101FA0000584028C8388048B4FF68F752C40B51EF8
:101FB0002C400D882C43751E2A400D892A434D88DC
:101FC0002A43144DA8420BD0134DA84208D0134DFC
:101FD000A84205D0124DA84202D0124DA84213D1FA
:101FE0004FF6F7752A404D892A434FF6FB752A4074
:101FF0008D882A434FF6FF652B404FF6FF552B4047
:102000008D892B43CD892B4383800483CD8885869E
:10201000028470BD002C01400034014000400140AA
:1020200000440140004801400A460021018B4FF660
:10203000F7731940114301837047000070B5002405
:1020400000220023058C4FF6EF7635400584028C84
:102050008388048B48F6FF752C404FF6FF452C40D3
:102060000D884FF6FF7606EA05252C434FF6DF75FF
:102070002A400D8906EA05152A434D8806EA05150A
:102080002A43154DA84202D0144DA8421DD14FF647
:102090007F752A404D894FF6FF7606EA05152A43DB
:1020A0004FF6BF752A408D8806EA05152A434FF67C
:1020B000FF352B404FF2FF752B408D8906EA8505D1
:1020C0002B43CD8906EA85052B4383800483CD8885
:1020D0000587028470BD0000002C014000340140DF
:1020E0000A460021018B4FF2FF7319404FF6FF7330
:1020F00003EA0223194301837047000070B50024EE
:1021000000220023058C4FF6FF6635400584028CC3
:102110008388848B4FF68F752C404FF6FC752C40CE
:102120000D882C434FF6FF552A400D894FF6FF7658
:1021300006EA05252A434D8806EA05252A43154D5A
:10214000A84202D0144DA8421DD14FF2FF752A407B
:102150004D894FF6FF7606EA05252A434FF6FF35EF
:102160002A408D8806EA05252A434EF6FF752B4046
:102170004DF6FF752B408D8906EA05152B43CD8959
:1021800006EA05152B4383808483CD8885870284E6
:1021900070BD0000002C0140003401400A460021BF
:1021A000818B4FF6F773194011438183704700000C
:1021B00070B5002200230024058C4EF6FF763540D2
:1021C0000584038C8488828B48F6FF752A404FF67D
:1021D000FF452A400D884FF6FF7606EA05252A437B
:1021E0004DF6FF752B400D8906EA05352B434D88CA
:1021F00006EA05352B430B4DA84202D00A4DA842F2
:1022000008D14BF6FF752C408D894FF6FF7606EA14
:1022100085152C4384808283CD88A0F840500384A8
:1022200070BD0000002C0140003401400A4600212E
:10223000818B4FF2FF7319404FF6FF7303EA0223BD
:102240001943818370470021018041808180C180D2
:10225000018141818181C1817047818670470187F9
:10226000704781877047A0F840107047818470479D
:10227000002202881D4B98420ED01D4B98420BD075
:10228000B0F1804F08D01B4B984205D01A4B9842B2
:1022900002D01A4B984204D14FF68F731A404B88E4
:1022A0001A43174B984207D0164B984204D04FF66A
:1022B000FF431A40CB881A4302808B8883850B88A2
:1022C00003850A4B98420BD0094B984208D00E4B1D
:1022D000984205D00D4B984202D00D4B984201D147
:1022E0000B7A03860123838270470000002C014093
:1022F000003401400004004000080040000C004091
:102300000010004000140040004001400044014023
:10231000004801404FF6FF71818000210180C1809B
:10232000418001727047000010B586B0044601215B
:102330000420FFF777FB01218803FFF773FB4FF4BD
:102340000070ADF8140003208DF8160018208DF8E9
:10235000170005A91248FEF796FF4FF48060ADF80C
:10236000140004208DF8170005A90D48FEF78BFF17
:1023700001940020ADF80800ADF80A00ADF80C009B
:10238000ADF810000C20ADF80E0001A9054800F0D2
:10239000B7F90121034800F04BF906B010BD000069
:1023A000000801400038014010B540F2255169484D
:1023B00000F057F900287DD0664800F00DFAC4B24D
:1023C000612C05D1012064490870FEF7B1FE2EE0B2
:1023D000622C05D1022060490870FEF7A9FE26E0B4
:1023E000632C05D103205C490870FEF7A1FE1EE0B6
:1023F000642C05D1042058490870FEF799FE16E0B8
:10240000652C05D1052054490870FEF791FE0EE0B9
:10241000662C05D1062050490870FEF789FE06E0BB
:10242000672C04D107204C490870FEF781FE4B4809
:10243000007848B948480078042805D1002046496A
:1024400008700120454908704348007802285AD096
:102450004C2C02D1012042490870414800780128E3
:1024600022D140484049097844543F480078401CF4
:102470003D4908702A2C17D13C48007858B93C488F
:1024800000210160416001813648016041600181A5
:1024900001203649087033493548FDF757FE0020C2
:1024A0002F49087030490870522C02D1012031495F
:1024B000087000E026E02F480078012848D12E4817
:1024C0002E49097844542D480078401C2B49087047
:1024D0002A2C3DD12A48007858B92A4800210160A9
:1024E000416001812448016041600181012024494B
:1024F000087021492348FDF729FE00201D49087076
:102500001E49087024E0412C0AD101201E490870A0
:1025100014211E48FDF70FFE14211D48FDF70BFE88
:1025200019480078012813D119481A4909784454E8
:1025300018480078401C174908702A2C08D1144903
:102540001248FDF703FE00200F490870114908707A
:1025500010BD000000440040190000201A000020B7
:1025600020000020800000201D0000201B00002013
:1025700058000020210000208A0000201E000020BA
:102580001C00002062000020220000206C000020BF
:10259000940000201F00002010B586B004460121E1
:1025A0000420FFF73FFA01214804FFF71BFA04203B
:1025B000ADF8140003208DF8160018208DF81700D0
:1025C00005A91948FEF75FFE0820ADF814000420A5
:1025D0008DF8170005A91448FEF755FE26208DF842
:1025E000000003208DF801008DF8020001208DF815
:1025F00003006846FFF744F901940020ADF8080095
:10260000ADF80A00ADF80C00ADF810000C20ADF8E4
:102610000E0001A9054800F073F80121034800F0FD
:1026200007F806B010BD000000080140004400405B
:1026300021B1828942F40052828104E082894DF600
:10264000FF731A408281704702460020B1F5007F77
:1026500000D100BF13880B400BB1012000E0002027
:10266000704770B50246002400230025002040F684
:102670006A16B14200D100BFC1F3421501F01F0339
:10268000012606FA03F3012D02D19689334006E0B4
:10269000022D02D1168A334001E0968A33400C1293
:1026A000012606FA04F41688344013B10CB1012057
:1026B00000E0002070BDF0B5034600240026002590
:1026C000002040F66A17B94200D100BF1846C1F396
:1026D000421401F01F06012707FA06F5012C01D16B
:1026E0000C3004E0022C01D1103000E014301AB19B
:1026F00007682F43076002E00768AF430760F0BD3B
:102700002DE9F04786B005460E460024A24600BFDC
:10271000A1460027B08900B100BF2F462C8A4CF695
:10272000FF700440F08804432C82AC894EF6F3100D
:102730000440B08831890843718908430443AC815F
:10274000AC8A4FF6FF400440B0890443AC8201A834
:10275000FFF788F91F48874202D1DDF810A001E099
:10276000DDF80CA0A88900F4004040B10AEBCA00D3
:1027700000EB0A1031684900B0FBF1F807E00AEB02
:10278000CA0000EB0A1031688900B0FBF1F8642040
:10279000B8FBF0F004012009642101FB1089A8892D
:1027A00000F4004040B1322000EBC900B0FBF1F072
:1027B00000F00700044308E0322000EB0910642118
:1027C000B0FBF1F000F00F0004432C8106B0BDE82F
:1027D000F08700000038014001468888C0F30800F7
:1027E0007047C1F308028280704700BFFEE7000017
:1027F00070B5002556E04FE02B48FFF7EDFFC4B25F
:10280000092D43D2DFE805F0050B11171D23292FF1
:102810003500432C01D1012500E000253BE04F2C81
:1028200001D1022500E0002535E04E2C01D1032521
:1028300000E000252FE04E2C01D1042500E000250A
:1028400029E0452C01D1052500E0002523E0432C9B
:1028500001D1062500E000251DE0542C01D10725FB
:1028600000E0002517E0452C01D1082500E00025F7
:1028700011E0442C08D1012240F225510A48FFF70B
:102880001AFFFEF755FC70BD002504E0002507A0E7
:1028900000F016F800BF00BF20210348FFF7D4FE68
:1028A0000028A9D1A7E7000000440040CEB4C3FC33
:1028B000D6D0434F4E4E45435445440D0A000000C8
:1028C0000FB4054B10B503A9044A029800F06AF949
:1028D00010BC5DF814FB00005934000850000020C3
:1028E000490050EAC12018BF04204A0D18BF40F02B
:1028F000010040F2FF72B2EB515F08BF40F00200EE
:10290000012808BF052070472DE9F0414F1E00EB5C
:10291000C7010446D1E9000115461E4637F00602FC
:102920000DD02A463346FDF789FD7F1E04EBC70311
:10293000D3E90023FDF7DBFC37F00602F1D1022FCB
:1029400025D0042F13D0062F18BFBDE8F0812A46EA
:102950003346FDF773FDD4E90A23FDF7C8FC2A4688
:102960003346FDF76BFDD4E90823FDF7C0FC2A468A
:102970003346FDF763FDD4E90623FDF7B8FC2A468C
:102980003346FDF75BFDD4E90423FDF7B0FC2A468E
:102990003346FDF753FDD4E90223FDF7A8FC2A4690
:1029A0003346FDF74BFDD4E90023BDE8F041FDF7C8
:1029B0009EBC00000022134610460149FDF7B0BD41
:1029C0000000F03FFDF793BC00221346104611466D
:1029D000FDF7A6BD40F2013200204FF0E041FDF7C7
:1029E000A7BF0000024A00201107FDF7A1BF0000A9
:1029F00001FDFFFF02E008C8121F08C1002AFAD13A
:102A000070477047002001E001C1121F002AFBD16E
:102A10007047000001490860704700005400002022
:102A20002DE9FF5F82B00021DDE90430020DDDF801
:102A300040B0034318D044F61050A2F2FF32424394
:102A40001514119801281FD0A5EB0B00401C5FEA5C
:102A5000000A4FF000064E4FDFF83891B04650465E
:102A600015D5CAF1000413E0119801244AA30128E6
:102A700001D16FEA0B010298119AC0E90031C0E957
:102A8000024206B0BDE8F09FCBF10000DFE704464C
:102A90000021404A491842EB0450CDE9001012E0F1
:102AA000E00707D032463B4640464946FDF7C6FCA4
:102AB0008046894632463B4610461946FDF7BEFC25
:102AC00006460F466410002CEAD1DDE90401DDE979
:102AD0000023BAF1000F06DAFDF7B0FC42464B4680
:102AE000FDF7ACFC05E0FDF71BFD42464B46FDF74C
:102AF00017FD04460E460022284BFDF749FF03D878
:102B00004FF0FF30014607E00022254B20463146BA
:102B1000FDF7EDFBFDF723FF102409E0002C0ADB95
:102B20000A220023FDF70EFE039B30321A55641E65
:102B300050EA0102F2D1641C039AC4F11103144457
:102B4000119A012A03D0012208430DD10AE008435B
:102B500004D000204FF0110B119072E7A3EB0B058E
:102B60006D1E0DE05B4504DD4FF0000205F101052F
:102B700004E003DA4FF00002A5F10105002AECD0D1
:102B800002981199C0E90231C0E9004579E70000D7
:102B9000000014400000F03F300000000000F0434F
:102BA0000000E03F2DE9FF4F95B09A468846064663
:102BB0000025EEE1252877D100242746F94A012196
:102BC000039400E0044316F8013F203B01FA03F0B0
:102BD0001042F7D130782A2811D06FF02F033078C7
:102BE000A0F13002092A16D8039A44F0020402EB3D
:102BF000820203EB42021044761C0390EFE758F880
:102C0000042B0392002A03DA504244F40054039048
:102C100044F00204761C30782E2816D116F8010FE5
:102C200044F004042A280DD06FF02F023078A0F170
:102C30003003092B09D807EB870302EB4303C718BE
:102C4000761CF3E758F8047B761C30786C280FD09C
:102C500006DC4C2817D068280DD06A2814D104E06F
:102C6000742810D07A280FD10DE044F400140AE043
:102C700044F4801401E044F440147278824202D19A
:102C800004F58014761C761C307866280BD013DC93
:102C9000582877D009DC002875D04528F6D046287A
:102CA000F4D047281AD193E118E0632835D064287E
:102CB00079D0652812D18BE1702873D008DC6728A1
:102CC000F1D069286FD06E280DD06F2806D1ACE006
:102CD00073282CD0752874D0782853D05246179971
:102CE00090476D1C54E1C4F30250022809D0032818
:102CF0000DD0D8F8001004280DD00D6008F104089C
:102D000046E1D8F80010EA17C1E90052F6E7D8F812
:102D100000100D80F2E70D70F0E718F8041B8DF835
:102D2000001000208DF80100EB46012003E058F868
:102D300004BB4FF0FF3061074FF0000102D40DE0FB
:102D400009F101018946B9420FDA8145F8DB1BF828
:102D500009100029F4D108E009F1010189468142F6
:102D6000FADB1BF809100029F6D103985346A0EBB3
:102D7000090721463846179A00F080FA284400EBEC
:102D8000090507E044E008E10DE01BF8010B52469D
:102D900017999047B9F10109F7D2534621463846B1
:102DA000179AF2E039E00A21C4F302524FF0000B07
:102DB0000091022A06D058F8040BC117032A09D043
:102DC0000AE023E008F1070020F00702F2E8020120
:102DD000904605E000B2C117042A01D140B2C117E4
:102DE000002906DA0A460021404261EB02012D2249
:102DF00002E0220504D52B228DF80420012203E0F5
:102E0000E20701D02022F7E7914657E00A2100E0CF
:102E100010214FF0000B00910BE010214FF0000B40
:102E200044F004040827009103E008204FF0000B51
:102E30000090C4F30252022A05D058F8040B002176
:102E4000032A08D008E008F1070020F00702F2E8A2
:102E50000201904603E080B2042A00D1C0B24FF0D4
:102E6000000922072AD53278702A07D0DDF800C081
:102E70008CF0100C5CEA0B0C05D00EE040228DF8B3
:102E80000420012208E050EA010306D030238DF827
:102E900004308DF8052002229146009B83F0080340
:102EA00053EA0B030AD150EA010201D1620705D5AA
:102EB00030228DF804204FF001097F1E3278582A05
:102EC00004D039A20C920CAA02920BE03BA2F9E7C3
:102ED0005B46009AFDF736FC0C9B9B5C029A521EE7
:102EE0000292137050EA0102F2D1029804A9081A62
:102EF00000F1200B600702D524F4803400E00127A4
:102F00005F4502DDA7EB0B0000E0002000EB0B01AA
:102F1000009003984944401A0390E00306D45346B6
:102F20002146179A039800F0A9F90544002706E006
:102F300001A85246C05D179990476D1C7F1C4F45F4
:102F4000F6DBE0030CD553462146179A039800F0B0
:102F500095F9054404E030205246179990476D1CBE
:102F60000099481E00900029F5DC08E002980299BB
:102F700052460078491C0291179990476D1CBBF18D
:102F80000001ABF1010BF1DC5BE100F065F90544F8
:102F9000761C307800287FF40DAE19B02846BDE8C5
:102FA000F08F0000092801003031323334353637D4
:102FB0003839616263646566000000003031323385
:102FC0003435363738394142434445460000000025
:102FD000600700D4062708F1070020F00700F0E89A
:102FE0000223804603F0004C5FEA0C0001D097A05A
:102FF00009E0200501D596A005E0E00701D095A0E5
:1030000001E0AFF24C001390307823F000436528C4
:103010000CD006DC452809D046281DD047287FD192
:103020003BE0662818D067287AD136E00021112FBE
:1030300001DB112000E0781CCDE9000104A90CA8F7
:10304000FFF7EEFCDDE90D010C9A4FF0000B07F1E4
:103050000109109200914EE04FF000400097CDE939
:10306000011004A90CA8FFF7DBFCDDE90D020C9BA5
:103070000F994FF0000B91461093009211B9791CF3
:1030800000EB0109B7EB090003D4C0F1FF3B07F1E6
:103090000109A9EB0700019042E0012F00DA0127A6
:1030A0000021112F01DD112000E03846CDE900019B
:1030B00004A90CA8FFF7B4FCDDE90D010C9A0091FE
:1030C0004FF0000BB946109221070FD4009A4A45E1
:1030D00003DA914601E0A9F10109B9F1010F05DD1B
:1030E000109AA9F10101515C3029F4D0B84202DAFA
:1030F00010F1040F03DA0121CDE9011010E00028DE
:1031000003DC8344A9EB000102E0411C494500DDDA
:103110008946A0EB0B00401C01904FF0004002904C
:10312000200705D40198484502DB4FF0FF3001909D
:1031300000208DF84B0002980DF14B07B0F1004FC5
:1031400025D002200C902B200D90029800280CDA3C
:10315000404202902D200D9007E00A210298FDF7D1
:10316000DBFA3031029007F8011D0C99481E0C90D3
:103170000029F2DC02980028EFD1791E0D98087022
:10318000307800F0200040F0450007F8020D11A84B
:10319000C01BC01D02901398007800B1012000EB05
:1031A0000901019801EBE071029801440398401A6B
:1031B000401E0390E00306D453462146179A039815
:1031C00000F05CF805441398007818B1524617993E
:1031D00090476D1CE00323D553462146179A039868
:1031E00000F04CF805441BE0BBF1000F07DB009832
:1031F000584504DD1098179910F80B0001E0179955
:1032000030205246904701980BF1010B401E05F10A
:103210000105019004D12E205246179990476D1C4C
:10322000B9F10001A9F10109DEDC05E017F8010B95
:103230005246179990476D1C0299481E029000292A
:10324000F4DC53462146179A03989EE62D000000B1
:103250002B000000200000002DE9F041044600256D
:103260001E461746880404D405E039462020B0479E
:103270006D1C641EF9D52846BDE8F0812DE9F041AA
:10328000044600251E469046C80301D5302700E0BD
:103290002027880404D505E041463846B0476D1C18
:1032A000641EF9D52846BDE8F081000010B5FEF790
:1032B000DDF82C4908602C492A480068FDF722FAFD
:1032C00004D24FF4AF70FDF782FF4AE0274925484A
:1032D0000068FDF717FA3AD2234922480068FDF743
:1032E00007FA34D2FDF786FF0020FEF72BFCFEF72D
:1032F000BDF81F4908604FF4967000F061F81D4852
:10330000FEF720FCFEF7B2F81B4908604FF49670F8
:1033100000F056F81648016817480068FDF7F2F902
:103320000AD24FF4AF70FDF78AFF4FF4967000F0A9
:1033300047F8FDF75FFF14E04FF4AF70FDF76CFF47
:103340004FF4967000F03CF8FDF754FF09E04FF49D
:10335000AF70FDF729FF4FF4967000F031F8FDF7DC
:1033600049FF10BD3C00002000000C42000020413D
:1033700040000020000034434400002010B56FF0EE
:103380000400FEF771FC0A4800680A49B0FBF1F03E
:10339000094908700846007800EB4001C1EBC010F5
:1033A0004FF6FF7101EAC0000449088010BD00001B
:1033B0000000002000127A001400002016000020F7
:1033C0000146114A12884A434FF0E0235A61002215
:1033D0009A611A46126942F001021A6100BF4FF069
:1033E000E022106900F001021AB100F48032002AD4
:1033F000F5D04FF0E022126922F001024FF0E023F5
:103400001A6100229A617047160000200146114A95
:1034100012784A434FF0E0235A6100229A611A461B
:10342000126942F001021A6100BF4FF0E0221069F8
:1034300000F001021AB100F48032002AF5D04FF0FA
:10344000E022126922F001024FF0E0231A6100220B
:103450009A6170471400002070B504460D46E1B231
:103460000548FFF7BEF900BF80210348FFF7ECF8DD
:103470000128F9D1204670BD00380140FFF77EFFDA
:103480004FF4A060FEF734FAFEF794F84FF4E13001
:10349000FEF74AFF4FF41650FFF77EF8FEF72AF9C1
:1034A000FEF722F8FDF718FEFDF732FEFEF745FBAA
:1034B0000448FEF747FBFFF79BF901E0FDF7DAFE52
:1034C000FCE700000000B4422DE9F04D1D460C461B
:1034D00098B0174621F0004123F00043002814BFA4
:1034E0004FF0010C4FF0000C0CEB440CFE4A0CEBBF
:1034F00002064FEA620C66452BD33E0018BF012638
:1035000006EB45061644F94A964222D3F84A53EA96
:10351000070C02D0944205D148B918B000201146DA
:10352000BDE8F08D002808BF4FF0000C01D04FF02F
:10353000010C0CEB440212F5001F0AD8002F14BF37
:103540004FF0010C4FF0000C0CEB450212F5001F80
:1035500007D918B03A462B462146BDE8F04DFFF793
:1035600031BA0022DFF88CA3002CB8BF534526DA0D
:10357000DFF884C36345A8BF022220DADFF870C3F6
:103580009C451CDCDFF874C30CEB235CBCF1140F0E
:1035900008DDCCF1340627FA06FC0CFA06F6BE422A
:1035A0000DD108E05FB9CCF1140623FA06FC0CFA41
:1035B00006F69E4203D10CF00102C2F1020251EA6A
:1035C000000C19D1002D17DA002C18BF022A01D0E7
:1035D000012A07D00220FFF71DFA18B0BDE8F04D10
:1035E000FFF7E8B90220FFF715FAFFF7E3F918B083
:1035F00081F00041BDE8F08DB7F1000C6CD153456E
:1036000025D104F1804212F5801201BF002800206C
:10361000B74918B008BFBDE8F08DB548884207DC4F
:10362000002DA1BF6046294618B0BDE8F08D07E027
:10363000281E05DA80F0004118B06046BDE8F08D24
:10364000AF497944D1E9000118B0BDE8F08DDFF849
:10365000A0C2634525D1002D1FDA19B1514512D101
:10366000D8B909E0002840F0EC82A24A214618B0FF
:1036700062F31E01BDE8F08D0020214618B060F312
:103680001E01BDE8F08D08DA18B02346BDE8F04D04
:10369000024600206146FCF743BF18B02146BDE852
:1036A000F08D514518DAB5F1804F0DD0A5F1005CD1
:1036B000BCF1FF5C10D1B4F1000C0DDB18B0614619
:1036C000BDE8F04D00F0ECBB234618B00246BDE863
:1036D000F04D1946FCF7B2BE060024F0004C3BD179
:1036E000D9B1514533D1002C06DD002DA1BF0020FA
:1036F000514618B0BDE8F08D002C01DD002D1BDB1C
:10370000002C13DA002D11DB012A4FF0000014BF4A
:1037100078497C4918B0BDE8F08D022A18BF002C0A
:103720000AD0012A08D1002C06DA0AE0002CB8BF22
:10373000002D11DA012A04D0002018B00146BDE89E
:10374000F08D18B000204FF00041BDE8F08DA1F1E0
:103750004050B0F17F601AD0012000EBE47050EAD5
:10376000020421D0624C521E4FF0000B104304BFE4
:103770004FF0000B644C654883427CDD644A654829
:1037800093421FDD884217DB002D25DB37E0002C3C
:1037900000DA4AB1022A0CBF01204FF0FF3018B006
:1037A000BDE8F04DFCF730BF0120FFF733F918B04A
:1037B000BDE8F04DFFF708B94D4A8A4202DC002D02
:1037C0000ADC1CE0814202DA002D18DA04E0484BE2
:1037D000994220DD002D12DD0220FFF71BF9FFF7D3
:1037E000F9F805460E460022534658462146FCF796
:1037F00025FE18B066F31E012846BDE8F08D0220B4
:10380000FFF708F9FFF7EEF80A46214618B062F311
:103810001E01BDE8F08D002230466146FCF708FE2F
:1038200080460E466FF00102FDF782F84FF05532E8
:10383000394BFCF700FE42463346FCF7FFFD002201
:10384000364BFCF7F8FD824642463346049110465B
:103850001946FCF7F3FD5246049BFCF7EFFD8A4640
:1038600000904FF0C0422E4B40463146FCF7E6FD3B
:103870002C4A2B4B00E027E0CDE906015146009889
:10388000FCF7DCFD82460191274A284B4046314631
:10389000FCF7D4FD5246019BFCF7CAFD82460B465D
:1038A00002460591DDE90601FCF721FDDDE906236D
:1038B000002688463046FCF7BBFD5246059BFCF7C8
:1038C000BAFD024600F07EB90020B1F5801F07DA8C
:1038D000352230466146FDF72BF806466FF034007E
:1038E00000EB215024E00000FFFF1F00FFFF0F004E
:1038F0000000F03F0000F07F0000404301FCFFFFAC
:10390000320900000000F0FF0000F0BF0000E041BD
:103910000000F043FFFFEF3F5555D53F0000E03F6B
:103920004715F73FFE822B6544DF5DF80BAE543E32
:10393000A0F2FF300190C1F3130040F07F6141F02D
:1039400040510291FE498842D8BF002004DDFD4964
:103950008142C8BF012001DD0D9008E000200D90DC
:103960000198401C01900298A0F5801002900299E5
:10397000F54878440B910D9900EBC100D0E9002384
:103980000F9330460A920B99FCF752FDCDE90601E0
:10399000DDE90A2130460F9BFCF7A9FC02460B46E5
:1039A0000020EA49FCF7BCFD059102460B46009059
:1039B000DDE90601FCF742FD1490E5488A464FF028
:1039C000000878440299006812904FF0005040EAD5
:1039D00061010D980F9B01EB804000F500210991DA
:1039E0000A9A1298FCF724FD32460B9BFCF723FD44
:1039F00042465346FCF722FD064602914046514698
:103A0000099B129AFCF71AFDDDE90623FCF713FD6A
:103A10003246029BFCF70CFD059B009AFCF70EFD5D
:103A20000091149A0490534610461946FCF706FD7F
:103A300006460246C7480B46029106217844FEF727
:103A400063FFCDE90510029B324610461946FCF78C
:103A5000F5FCDDE90532FCF7F1FC0591064653461D
:103A600040461946149AFCF742FC009B049AFCF766
:103A7000E5FC3246059BFCF73AFCCDE905104246D1
:103A8000534610461946FCF7D9FC0022B24B02916E
:103A90000A90FCF72CFCDDE90532FCF728FC0E4609
:103AA0004246AD4B4046FCF7C3FC029B0A9AFCF72A
:103AB000BFFCDDE90532FCF7BEFC424602910A90EC
:103AC000334610465146FCF7B9FCCDE90601534692
:103AD000149A02990A98FCF7B1FC8A460290334680
:103AE000424600990498FCF7A9FC5346029AFCF759
:103AF000FEFB82460B4602460591DDE90601FCF716
:103B0000F6FBDDE90623002088460646FCF790FC1C
:103B10005246059BFCF78FFC824609914FF06042AC
:103B20008E4B30464146FCF789FC049006918C4A46
:103B30008A4B50460999FCF781FC82460291894ADA
:103B4000894B30464146FCF779FC5246029BFCF714
:103B5000CEFB864B7B440D9A03EBC203D3E90023D3
:103B6000FCF7C5FB0E9007910198FCF74DFD059100
:103B7000DDE9061382460E9A0498FCF7B8FB7C4AEE
:103B80007A440D9B02EBC303D3E900230093029216
:103B9000FCF7ADFB5246059BFCF7A9FB00268846C7
:103BA00052463046059BFCF743FC009B029AFCF70B
:103BB0003FFC069B049AFCF73BFC079B0E9AFCF724
:103BC0003AFC024600200B46029038462946FCF794
:103BD00035FC824601912B4638461946029AFCF77D
:103BE00027FC32464346FCF729FC5246019BFCF772
:103BF0007EFB07468A463246434629460298FCF732
:103C00001DFC05460E463A465346FCF770FB594AE2
:103C10008846914221DBA8EB020353EA000210D14F
:103C20002A463346FCF704FCCDE90401524A534BC3
:103C300038465146FCF75BFBDDE90423FCF7A8FEA0
:103C400021D20220FEF7E6FEFEF7C4FE0A46214618
:103C500018B062F31E01BDE8F08D494B28F0004218
:103C60009A4210D3474A08EB020353EA00027FF45A
:103C7000C6AD2A463346FCF7DBFB3A465346FCF713
:103C800087FE7FF6BCAD0022019228F000403E493D
:103C90003E4A01EB2051824223DA481C4FF4801146
:103CA00021FA00F040443A4AC0F30A517A44394BB1
:103CB000A1F2FF31CB4020EA0303C0F3130040F42C
:103CC0008010C1F11401C84012680190B8F1000FD2
:103CD000BCBF4042019028463146FCF7A9FB05468F
:103CE0000E462A46334638465146FCF700FB4FF055
:103CF00000084246284B40460591FCF79FFBCDE962
:103D00000601264A264B40460599FCF797FB009191
:103D100002902A46334640460599FCF789FB3A460D
:103D20005346FCF788FB1F4A1F4BFCF787FB009BA1
:103D3000029AFCF7DCFA0746884602460B4635E055
:103D40008E9803007AB60B007A0500000000F03F61
:103D5000B2050000E00400000000084009C7EE3F83
:103D6000FD033ADCF5015B14E02F3EBEB803000012
:103D70007C03000000009040FE822B654715973CB5
:103D800000CC904000346F3F01FCFFFF0000E03F9B
:103D9000C8020000FFFF0F00432EE63F396CA80C5D
:103DA000615C20BEEF39FAFE422EE63FDDE90601F6
:103DB000FCF79DFADDE9062305460E46FCF738FBC5
:103DC0003A464346FCF737FB0F462A4633460090F7
:103DD00010461946FCF732FB824602462E488846BA
:103DE0000B4605217844FEF78FFD52464346FCF70B
:103DF00025FB2A463346FCF71EFB80468A463B4697
:103E000028463146009AFCF719FB3B46009AFCF71E
:103E10006EFA0691009000224FF0804340465146D2
:103E2000FCF706FB0F460C904246534628463146A7
:103E3000FCF704FB3B460C9AFCF772FB069B009ACE
:103E4000FCF7F6FA2A463346FCF7F2FA0022134B47
:103E5000FCF7F1FA054601980E4601EB00510815F2
:103E6000002810DC28463146019AFCF761FDFEF778
:103E700037FD042808BFFEF7B5FD28463146019AF4
:103E8000FCF756FD05460B4618B02A465846214613
:103E9000BDE8F04DFCF7D2BA680100000000F03F29
:103EA0002DE9F04106460F46FCF79CFD041E0D4629
:103EB00018BF0120284320F00040C0F17F6000F1CE
:103EC000E040C00F0ED0301C18BF0120384320F056
:103ED0000040C0F17F6000F1E040C00F04BF01204E
:103EE000FEF798FD20462946BDE8F081000000005D
:103EF000000000000000F03F000000000000F83F5C
:103F000000000000000000000000004003B8E23F95
:103F1000000000000000000006D0CF43EBFD4C3E47
:103F2000033333333333E33FFFAB6FDBB66DDB3F3C
:103F30004D268F515555D53F01411DA96074D13F84
:103F400065DBC9934A86CD3FEF4E454A287ECA3F7E
:103F50003E5555555555C53F93BDBE166CC166BF00
:103F60002CDE25AF6A56113FF16BD2C541BDBBBEF9
:103F7000D0A4BE726937663E000000000000000059
:103F8000A03F00080000002058000000F4290008AD
:103F9000F83F00085800002078040000042A0008B8
:103FA00000A24A0400000000000000000102030417
:103FB00006070809000000000000000000000000E3
:103FC00000000000000000010203040102030406D7
:103FD00007080902040608000000000000000000B5
:103FE00000000000000000000000000000000000D1
:083FF0000000000000000000C9
:0400000508000105E9
:00000001FF
