:020000040800F2
:10000000C80400200501000801170008ED120008CF
:100010007B140008ED0F00085325000800000000C5
:1000200000000000000000000000000005190008AA
:100030007D10000800000000AD170008191A000824
:100040001F0100081F0100081F0100081F01000810
:100050001F0100081F0100081F0100081F01000800
:100060001F0100081F0100081F0100081F010008F0
:100070001F0100081F0100081F0100081F010008E0
:100080001F0100081F0100081F0100081F010008D0
:100090001F0100081F0100081F0100081F010008C0
:1000A0001F0100081F0100081F0100081F010008B0
:1000B0001F0100081F0100087D1A00081F01000829
:1000C0001F0100081F0100081F0100081F01000890
:1000D0001F0100081F010008112100081F0100086E
:1000E0001F0100081F0100081F010008DFF810D0E1
:1000F00000F08AFB0048004715310008AFF300808C
:10010000C80400200648804706480047FEE7FEE78F
:10011000FEE7FEE7FEE7FEE7FEE7FEE7FEE7FEE7B7
:100120001D1A0008ED000008D2B201E000F8012B12
:10013000491EFBD270470022F6E710B513460A4667
:1001400004461946FFF7F0FF204610BD034611F89C
:10015000012B00F8012B002AF9D1184670472DE930
:10016000FE4F804681EA0300C00F0C46009021F04C
:10017000004123F00045B8EB0200A94105D24046FA
:10018000214690461C460B46024623F00040104391
:1001900047D0270DC7F30A00C3F30A510290401A53
:1001A000019040286BDAC3F3130040F4801B0098E1
:1001B000924620B10023D2EB030A63EB0B0B0198AC
:1001C0005946C0F14002504600F011FA06460D466D
:1001D00050465946019A00F029FA10EB0800614197
:1001E000002487EA115284EAE7731A4340D0009A48
:1001F00062B3019A012A4FEA075215DC001B61EB3A
:1002000002014FF0004202EA0752CDE90042001C11
:1002100041F5801132462B4600F060FA03B0BDE88C
:10022000F08F40462146F9E7001B61EB0201001CFC
:1002300041F5801300185B412018A2F5001747EB29
:10024000030140EAD570B6196D4111E06D084FEA1F
:10025000360645EAC0754FEA0752001B61EB020102
:10026000001C41F5801149084FEA30000019514146
:1002700032462B4603B0BDE8F04F00F020BA00989C
:10028000012240000023D0EB020263EBE0730098F0
:1002900021464FEAE074B8EB000061EB0401E9E7A6
:1002A00083F000435BE781F0004158E72DE9FE4F02
:1002B00081EA030404F0004421F0004100944FF06F
:1002C000000B23F0004350EA01045ED052EA03041D
:1002D0005BD0C3F30A54C1F30A552C44A4F2F3349F
:1002E0000194A0FB0254C1F3130141F48011C3F344
:1002F000130343F4801301FB024400FB034E840A02
:10030000970A44EA815447EA8357A4FB0768029599
:100310008D0A05FB07854FEA932C04FB0C54270537
:10032000029D4FEA065847EA1637B5EB08056EEB13
:10033000070C870E920E47EA811742EA8312A7FB49
:100340000201B6EB0B0164EB00042B0D43EA0C3306
:100350005E1844EB1C50DA465146E7FB0201C5F338
:1003600013044FEA0B3343EA14534FEA0432019C5F
:1003700043EA0603A4F10C040294009CCDE900B406
:1003800000F0ACF903B0BDE8F08F00200146F9E7BA
:100390002DE9F04D81EA030404F0004B21F0004503
:1003A00014464FF0000A23F0004150EA050220D025
:1003B00054EA01021DD0C5F30A570246C5F31303E0
:1003C000C1F31300C1F30A5640F4801543F48013BF
:1003D000A7EB0608101BD64608F2FD3873EB0500A4
:1003E00002D308F1010801E092185B41B8F1000F57
:1003F00003DA00200146BDE8F08D00204FF48011A3
:10040000064684460EE0171B73EB050705D3121B47
:1004100063EB050306434CEA010C49084FEA300040
:1004200092185B4150EA0107EDD152EA030012D065
:1004300082EA040083EA0501084305D0101BAB41A2
:1004400006D20122002306E000224FF0004302E022
:100450006FF0010253101AEB06004CEB085110EB41
:100460000A0041EB0B01BDE8F04D00F028B99623DE
:100470000022114600F0F5B80EB5C10F80EAE07019
:100480000844CA07002140F233438DE80E000A46B3
:100490000B4600F023F903B000BD70B5C1F30A525A
:1004A00001F000450024C1F3130140F2FF3341F491
:1004B00080119A4201DA002070BD40F233439A4223
:1004C000A2F2334203DC524200F0A0F800E0904078
:1004D0002C43F1D0404270BD00F0004230F00040AB
:1004E0000AD0C10D01F56071C0F3160042EA015156
:1004F000C20840071143704700200146704701F0D1
:10050000004330B421F0004150EA010206D00A0D48
:10051000A2F56072C1F31301002A02DC30BC002096
:100520007047440F44EAC104C100E01830BC00EB3E
:10053000C25000F08DB80000002801DBC0F100407F
:10054000002901DBC1F1004181427047002801DB35
:10055000C0F10040002901DBC1F100418842704731
:1005600030B50B46014600202022012409E021FA83
:1005700002F59D4205D303FA02F5491B04FA02F580
:100580002844151EA2F10102F1DC30BD2DE9F05F17
:100590000546002092469B468846064681464024F2
:1005A0001BE0284641464746224600F02FF85346B6
:1005B0005A46C01A914110D311461846224600F0FF
:1005C00016F82D1A67EB01084F462246012000213C
:1005D00000F00DF817EB00094E41201EA4F10104B4
:1005E000DFDC484631462A464346BDE8F09F202AD4
:1005F00004DB203A00FA02F1002070479140C2F17A
:10060000200320FA03F3194390407047202A04DBAB
:10061000203A21FA02F00021704721FA02F3D0407B
:10062000C2F120029140084319467047202A06DB98
:10063000CB17203A41FA02F043EAE07306E041FAB0
:1006400002F3D040C2F1200291400843194670479E
:100650000029A8BF7047401C490008BF20F00100D6
:10066000704710B4B0FA80FC00FA0CF050EA0104B4
:1006700004BF10BC704749B1CCF1200421FA04F446
:1006800011FA0CF118BF012121430843A3EB0C011F
:10069000CB1D4FEA00614FEA102042BF002010BC82
:1006A000704700EBC35010440029A4BF10BC704732
:1006B000401C490008BF20F0010010BC704710B575
:1006C000141E73F1000408DA401C41F10001921875
:1006D0005B411A4301D120F0010010BD2DE9F04D1E
:1006E00092469B4611B1B1FA81F202E0B0FA80F273
:1006F00020329046FFF77BFF04460F4640EA0A008F
:1007000041EA0B0153465A46084313D0114653EAB7
:10071000010019D0C8F140025046FFF777FF0546A7
:100720000E46504659464246FFF761FF084305D042
:10073000012004E020463946BDE8F08D0020054345
:1007400046EAE0762C4337430A986305E40AA0EBB7
:1007500008000022FD0A44EA47540A3002D500206E
:100760000146E9E7010510196941DDE9084500196D
:100770006941BDE8F04DA2E770B521F000430343A5
:100780000CD0C1F30A550024D5EB040564EB040337
:10079000D617AD1AB34102DB0020014670BD201808
:1007A00041EB025170BDC1F30A52C1F3130140F293
:1007B000FF3341F480119A4202DA0020014670476B
:1007C00040F233439A42A2F2334202DC5242FFF734
:1007D0001DBFFFF70CBF000030B5041E71F100040F
:1007E00004DB4FF00044404264EB0101141E73F13E
:1007F000000405DB1C464FF00043524263EB040348
:10080000994208BF904230BD064C074D06E0E068B3
:1008100040F0010394E8070098471034AC42F6D347
:10082000FFF768FC083C0008283C00082DE9F04D63
:1008300000231A461B1A8A4103DB00200146BDE84B
:10084000F08DC1F30A52C1F3130141F480154FF04A
:10085000000BD10702D100186D41521E002704463B
:1008600040F2FF11384601EB620A3E4680460246DE
:1008700000204FF48011FFF7C9FEC2197141BB1867
:1008800046EB0100B4EB030C75EB000C04D3E41A47
:1008900065EB000517460E46241908F101006D416D
:1008A00080463428E3DDF91946EB0600091BA84110
:1008B00003D24FF0FF32134601E0002213461BEB38
:1008C000070046EB0A51BDE8F04DFFF7F8BE000007
:1008D0002DE9F04F99B00025002018901790169040
:1008E00001201590149001240AE0DE48005D2E28B6
:1008F00000D107E0DB48015D601E0EAA1154641CA4
:10090000142CF2DB00BF002415E0D648005D2C2833
:1009100002D101201890641C189801280AD1D148EE
:10092000005D2E2801D1002507E0CE48005D11A909
:1009300048556D1C641C142CE7DB00BF00250A24FD
:1009400039E00EA8005D30282DDB0EA8005D3928A7
:1009500029DC2846FFF790FD02460B46CDE9000151
:100960000020C14902F0F4FBCDE904010EA9095DA4
:10097000A1F13000FFF780FDCDE90201DDE904239C
:10098000FFF794FCCDE908011698FFF775FDCDE956
:100990000601DDE90823FFF7E2FBCDE90A01FFF7D5
:1009A0007CFD16906D1C9DF838002D2802D14FF06B
:1009B000FF301490641E002CC3DA00250A2439E0AD
:1009C00011A8005D30282DDB11A8005D392829DC35
:1009D0002846FFF751FD02460B46CDE900010020F5
:1009E000A14902F0B5FBCDE9040111A9095DA1F10E
:1009F0003000FFF741FDCDE90201DDE90423FFF7F7
:100A000055FCCDE908011798FFF736FDCDE9060141
:100A1000DDE90823FFF7A3FBCDE90A01FFF73DFD60
:100A200017906D1C9DF844002D2802D14FF0FF3027
:100A30001590641E002CC3DA179915984843179037
:100A400016991498484316908849894A179812684D
:100A500041F822008749864A1698126841F8220018
:100A600083480068401C82490860084600680528E1
:100A70007ED100200860002535E000242EE07B4870
:100A800050F824100246601C52F8200081420DDD0F
:100A9000104650F824000D901146601C51F82000BB
:100AA00041F82400611C0D9842F82100714850F86B
:100AB00024100246601C52F8200081420DDD1046D1
:100AC00050F824000C901146601C51F8200041F8A9
:100AD0002400611C0C9842F82100641CC5F105003B
:100AE000A042CCDC6D1C042DC7DB604880681790E9
:100AF0006048806816907F2043425A2251420090FD
:100B0000179800F0AFFC82467F2043425A225142A0
:100B10000090169800F0A6FC8346CAF1000000EB96
:100B20000B06CAF10000A0EB0B07CAF1000000EBB6
:100B30000B08CAF10000A0EB0B0940F2F31043428E
:100B40007F2251420090304600F08CFC064640F275
:100B5000F31043427F2251420090384600F082FC5D
:100B6000074640F2F31043427F225142009000E0DA
:100B70006AE0404600F076FC804640F2F3104342C3
:100B80007F2251420090484600F06CFC8146142EB2
:100B900003DA16F1140F00DD0026142F03DA17F123
:100BA000140F00DD0027B8F1140F04DA18F1140F48
:100BB00001DD4FF00008B9F1140F04DA19F1140F38
:100BC00001DD4FF00009B6F5FA7F01DB40F2F316C4
:100BD000B7F5FA7F01DB40F2F317B8F5FA7F01DBD6
:100BE00040F2F318B9F5FA7F01DB40F2F31916F57C
:100BF000FA7F01DC6FF4F97617F5FA7F01DC6FF408
:100C0000F97718F5FA7F01DC6FF4F97819F5FA7FB6
:100C100001DC6FF4F979002E00DA00BF002F00DA52
:100C200000BFB8F1000F00DA00BFB9F1000F00DA21
:100C300000BF14210D48FFF77EFA14210D48FFF77D
:100C40007AFA012002F008FA00200E900F9010901E
:100C5000119012901390012002F0FEF919B0BDE836
:100C6000F08F00006400002000002440A00000205D
:100C700040000020B40000202DE9F04F85B0322064
:100C80000490039002900190954800784C2815D16B
:100C90009348C078303892498978303901EB810126
:100CA00000EB410004908E48807930388C494979B6
:100CB000303901EB810100EB410003908948007855
:100CC000522815D18748C07830388649897830391C
:100CD00001EB810100EB41000290824880793038BD
:100CE00080494979303901EB810100EB41000190E5
:100CF0007F2043425A220A210090049800F0B2FB60
:100D000080467F2043425A220A210090039800F037
:100D1000A9FB81467F2043425A220A210090029873
:100D200000F0A0FB82467F2043425A220A21009015
:100D3000019800F097FB8346C9F100004044A0EB06
:100D40000B0000EB0A04C9F10000A0EB0800A0EBC7
:100D50000B00A0EB0A05C9F100004044A0EB0B001A
:100D6000A0EB0A06C9F10000A0EB0800A0EB0B0005
:100D700000EB0A074FF47A7043427F225142009001
:100D8000204600F06FFB04464FF47A7043427F2206
:100D900051420090284600F065FB05464FF47A70FA
:100DA00043427F2251420090304600F05BFB0646F2
:100DB0004FF47A7043427F2251420090384600F04F
:100DC00051FB0746C82C03DA14F1C80F00DD0024DC
:100DD000C82D03DA15F1C80F00DD0025C82E03DA8F
:100DE00016F1C80F00DD0026C82F03DA17F1C80F6F
:100DF00000DD0027B4F57A7F01DD4FF47A74B5F594
:100E00007A7F01DD4FF47A75B6F57A7F01DD4FF414
:100E10007A76B7F57A7F01DD4FF47A7714F57A7F29
:100E200000DA314C15F57A7F00DA2F4D16F57A7F0E
:100E300000DA2D4E17F57A7F00DA2B4F21462BA0D2
:100E400001F0F2FB21462CA001F0EEFB21462DA083
:100E500001F0EAFB21462EA001F0E6FB2FA001F0F5
:100E6000E3FB002C04DBA1B2012000F027FB06E02D
:100E7000002C04DA604281B2002000F01FFB002D3C
:100E800004DBA9B2012000F037FB06E0002D04DAF4
:100E9000684281B2002000F02FFB002E04DBB1B2CB
:100EA000012000F049FB06E0002E04DA704281B216
:100EB000002000F041FB002F04DBB9B2012000F05C
:100EC000DFFA06E0002F04DA784281B2002000F059
:100ED000D7FA0A2002F0C0F805B0BDE8F08F000094
:100EE000500000205A00002018FCFFFF70776D3181
:100EF0003A2564090000000070776D323A256409D4
:100F00000000000070776D333A256409000000008E
:100F100070776D343A256409000000000D0A000066
:100F200008B50121102000F063FC4FF40050ADF82B
:100F3000000010208DF8030003208DF802006946A0
:100F4000044800F0E1F84FF40051024800F0B2F913
:100F500008BD00000010014010B5002004490860E1
:100F6000C82002F079F801200249C1F8B40110BD8F
:100F7000B40122420000224210B500200649086058
:100F8000642002F069F801200449C1F8B40164202A
:100F900002F062F810BD0000B401224200002242BB
:100FA00010B50D480078012802D1FFF765FE12E068
:100FB00009480078022802D1FFF78AFC0BE00648B6
:100FC0000078032802D100F05BF804E002480178C1
:100FD00002A001F029FB10BD190000206D6F6465AF
:100FE0005F666C61673A25640D0A000000BFFEE78A
:100FF00010B504462146002000F042FA21460020A8
:1010000000F05CFA2146002000F076FA214600202C
:1010100000F092FA10BD10B504462146012000F000
:101020002FFA2146012000F049FA2146012000F064
:1010300063FA2146012000F07FFA10BD10B5044686
:101040002146002000F01CFA2146002000F036FA6C
:101050002146012000F050FA2146012000F06CFAF0
:1010600010BD000010B50021014800F021FD10BDA9
:101070000008004010B5FFF793FF10BD7047000057
:1010800010B500F035F904464FF4AF70FFF7C3FF19
:101090001A492046FFF750FA13D801201849087062
:1010A0004FF4AF70FFF7A4FF4FF4FA7001F0D4FFD4
:1010B0004FF4AF70FFF7C2FF4FF4FA7001F0CCFFAE
:1010C0001BE00F480078012814D10E492046FFF795
:1010D0003DFA0FD24FF4AF70FFF78AFF4FF4FA706A
:1010E00001F0BAFF4FF4AF70FFF7A8FF4FF4FA70AA
:1010F00001F0B2FF00200249087010BD00007041ED
:101100003C000020000016432DE9F0410246002576
:101110000026002000230024002791F803C00CF0D3
:101120000F0591F803C00CF0100CBCF1000F03D0B8
:1011300091F802C04CEA050591F800C0BCF1000F1F
:1011400031D0146800202BE04FF0010C0CFA00F3B2
:10115000B1F800C00CEA03069E4220D183004FF094
:101160000F0C0CFA03F7BC4305FA03FC4CEA040429
:1011700091F803C0BCF1280F06D14FF0010C0CFA16
:1011800000FCC2F814C00AE091F803C0BCF1480F9B
:1011900005D14FF0010C0CFA00FCC2F810C0401C45
:1011A0000828D1D31460B1F800C0BCF1FF0F34DDC2
:1011B000546800202EE000F1080C4FF0010808FAF6
:1011C0000CF3B1F800C00CEA03069E4221D1830063
:1011D0004FF00F0C0CFA03F7BC4305FA03FC4CEA82
:1011E000040491F803C0BCF1280F05D100F1080CEC
:1011F00008FA0CF8C2F8148091F803C0BCF1480F4B
:1012000007D100F1080C4FF0010808FA0CF8C2F8F9
:101210001080401C0828CED35460BDE8F081000047
:10122000F0B50A46002300240021002500F0004606
:10123000B6F1004F02D11D4EF16901E01B4E7168FD
:10124000C0F3034583B200F44016B6F5401F08D141
:1012500021F07061154E766826F07066134F7E603F
:1012600012E000F48016B6F5801F06D1032606FAB8
:1012700005F4A14341F0706106E0460D360103FA22
:1012800006F6B14341F0706122B1460D360103FA12
:1012900006F6314300F00046B6F1004F02D1034E8E
:1012A000F16101E0014E7160F0BD000000000140FD
:1012B000416170470161704710B500BF094800885F
:1012C0004FF47A7100FB01F4074800F0F1FC04448C
:1012D0000020054924310880322001F0BDFE20465F
:1012E00010BD0000440000200008004000BFFEE7E1
:1012F0002DE9F84F0024A146A246A3460120184933
:101300000860142001F0CEFE00201649C1F8A001AB
:1013100000BF13487C3800680028FAD000F034FA87
:1013200009F1010900BF0E487C3800680128FAD095
:10133000FFF798FEFFF7C0FF04462046FFF797F837
:101340000090FFF7C9F807460022074BFFF720F887
:101350000546FFF7D4F882465046BDE8F88F0000F6
:10136000A08121420080214200004D401FB5012193
:10137000082000F03DFA0121042000F019FA4FF492
:101380008070ADF80C0003208DF80E0010208DF851
:101390000F0003A91E48FFF7B7FE4FF480711C48E9
:1013A000FFF786FF4FF40070ADF80C0004208DF8B5
:1013B0000F0003A91648FFF7A7FE4FF40071144869
:1013C000FFF776FF134800F07FFB684600F056FEFB
:1013D00040F2E730ADF804004720ADF800000020EF
:1013E000ADF80600ADF8020069460A4800F0F4FDC9
:1013F0000121084800F056FB01221146054800F083
:101400006BFC00F009F80021024800F051FB1FBD01
:10141000000C01400008004008B51E208DF80000B7
:1014200000208DF801008DF8020001208DF80300E6
:10143000684600F067F908BD08B50121042000F0F6
:10144000D7F90320ADF8000010208DF80300032029
:101450008DF8020069460248FFF756FE08BD0000FD
:101460000008014070B50446049D601AEE1A7043EE
:10147000561A90FBF6F0184470BD00BFFEE700005E
:1014800070B504460D46B5F57A7F01DB4FF47A75E9
:1014900044B10021084800F09AFD2946064800F0B2
:1014A00094FD08E03CB90021034800F08EFD294678
:1014B000014800F08CFD70BD0004004070B504468A
:1014C0000D46B5F57A7F01DB4FF47A7544B1002102
:1014D000084800F078FD2946064800F072FD08E053
:1014E0003CB90021034800F06CFD2946014800F09A
:1014F0006AFD70BD0004004070B504460D46B5F5A8
:101500007A7F01DB4FF47A7554B100214FF08040AF
:1015100000F05BFD29464FF0804000F058FD0AE0E6
:101520004CB900214FF0804000F051FD29464FF0AA
:10153000804000F04AFD70BD70B504460D46B5F51B
:101540007A7F01DB4FF47A7554B100214FF080406F
:1015500000F037FD29464FF0804000F034FD0AE0EE
:101560004CB900214FF0804000F02DFD29464FF08E
:10157000804000F026FD70BD00B589B0012108460D
:1015800000F036F90121042000F032F90121082091
:1015900000F02EF90121084600F00AF9012102208D
:1015A00000F006F901215148FFF73AFE01215048A9
:1015B000FFF736FE18208DF8230040F60B40ADF8FB
:1015C000200003208DF8220008A94A48FFF79CFD5F
:1015D00018208DF8230048F2C000ADF82000032049
:1015E0008DF8220008A94448FFF78EFD434800F01B
:1015F0007CFB4FF0804000F078FB05A800F03EFD3A
:101600000020ADF81A00ADF8160040F2CF20ADF87A
:10161000140040F2E730ADF8180000208DF81C00EF
:1016200005A9364800F0D8FC05A94FF0804000F02D
:10163000D3FC01A800F0BBFC6020ADF80400002042
:10164000ADF80C000120ADF806000020ADF80A004E
:1016500001A92A4800F050FB01A9284800F0A2FB8C
:1016600001A9264800F0FEFB01A9244800F054FC23
:1016700001A94FF0804000F03FFB01A94FF08040EE
:1016800000F090FB01A94FF0804000F0EBFB01A9B6
:101690004FF0804000F040FC0821184800F078FB33
:1016A0000821164800F0D0FB0821144800F02AFC5D
:1016B0000821124800F06EFC0821C80600F068FB03
:1016C0000821C80600F0C0FB0821C80600F01AFC7B
:1016D0000821C80600F05EFC0121084800F0E8F986
:1016E0000121880700F0E4F909B000BD00023000D4
:1016F00000031800000C01400008014000040040F5
:101700007047000070B5002100230F22C47804B395
:10171000154C246804F4E064C4F5E064210AC1F1C6
:101720000403CA40447804FA03F184781440214346
:1017300009010E4C0678A155047804F01F05012418
:10174000AC4005786D11AD0005F1E025C5F800410C
:1017500009E0047804F01F050124AC40044D06782C
:10176000761145F8264070BD0CED00E000E400E085
:1017700080E100E002490143024A11607047000025
:101780000000FA050CED00E010B50021054800F05E
:1017900021FC0020044908800121024800F088F95A
:1017A00010BD000000080040440000207047000009
:1017B00029B1064AD2690243044BDA6104E0034AC4
:1017C000D2698243014BDA61704700000010024089
:1017D00029B1064A12690243044B1A6104E0034A24
:1017E00012698243014B1A617047000000100240E9
:1017F00029B1064A92690243044B9A6104E0034A04
:1018000092698243014B9A617047000000100240C8
:1018100029B1064AD2680243044BDA6004E0034A65
:10182000D2688243014BDA6070470000001002402A
:1018300030B500210022002400232D4D6D6805F0F5
:101840000C0121B1042905D0082923D105E0294D37
:10185000056022E0274D05601FE0254D6D6805F409
:101860007012234D6D6805F48034022505EB924219
:101870001CB9214D554305600BE01D4D6D6805F405
:1018800000351DB11C4D5543056002E0194D55430F
:10189000056002E0174D056000BF00BF144D6D6884
:1018A00005F0F0010909154D6B5C0568DD404560E8
:1018B0000F4D6D6805F4E061090A104D6B5C4568D9
:1018C000DD4085600A4D6D6805F46051C90A0B4D15
:1018D0006B5C4568DD40C560054D6D6805F44041B1
:1018E000890B074D6B5CC568B5FBF3F5056130BD31
:1018F0000010024000127A0000093D002300002081
:1019000033000020704710B500F002F810BD000051
:101910000CB50020019000903348006840F48030FE
:101920003149086000BF3048006800F40030009082
:101930000198401C0190009818B90198B0F5A06F6B
:10194000F1D12948006800F4003010B10120009066
:1019500001E0002000900098012843D1234800684E
:1019600040F01000214908600846006820F003009C
:1019700008600846006840F0020008601A484068A5
:10198000194948600846406848600846406840F485
:10199000806048600846406820F47C104860084633
:1019A000406840F4E81048600846006840F08070E5
:1019B000086000BF0C48006800F000700028F9D0F3
:1019C0000948406820F0030007494860084640681D
:1019D00040F00200486000BF0348406800F00C007F
:1019E0000828F9D10CBD0000001002400020024080
:1019F000042808D14FF0E021096941F004014FF0BB
:101A0000E022116107E04FF0E021096921F00401B3
:101A10004FF0E022116170477047000010B5134885
:101A2000006840F00100114908600846406810490C
:101A300008400E494860084600680E4908400B49B6
:101A400008600846006820F4802008600846406866
:101A500020F4FE0048604FF41F008860FFF753FF3A
:101A60004FF000600449086010BD00000010024003
:101A70000000FFF8FFFFF6FE08ED00E010B50121C1
:101A8000064800F018F940B10121044800F00DF8B3
:101A900003480088401C0249088010BD000800402F
:101AA00044000020CA4302827047CA430282704742
:101AB00021B1028842F00102028004E002884FF660
:101AC000FE731A400280704710B50446684884428D
:101AD00008D10121C014FFF79BFE0021E014FFF79D
:101AE00097FEC4E0B4F1804F08D101210846FFF70A
:101AF0006FFE00210120FFF76BFEB8E05D488442D5
:101B000008D101210220FFF763FE00210220FFF728
:101B10005FFEACE05848844208D101210420FFF761
:101B200057FE00210420FFF753FEA0E053488442F3
:101B300008D101210820FFF74BFE00210820FFF704
:101B400047FE94E04E48844208D101211020FFF75F
:101B50003FFE00211020FFF73BFE88E04948844209
:101B600008D101212020FFF733FE00212020FFF7BC
:101B70002FFE7CE04448844208D101214014FFF745
:101B800047FE00216014FFF743FE70E03F488442A7
:101B900009D10121C804FFF73BFE00214FF40020CA
:101BA000FFF736FE63E03A48844209D10121080577
:101BB000FFF72EFE00214FF48010FFF729FE56E0BC
:101BC0003448844209D101214805FFF721FE002154
:101BD0004FF40010FFF71CFE49E02F48844208D163
:101BE00001214020FFF7F4FD00214020FFF7F0FD28
:101BF0003DE02A48844208D101218020FFF7E8FD1A
:101C000000218020FFF7E4FD31E02548844208D11F
:101C100001218015FFF7DCFD0021A015FFF7D8FD9D
:101C200025E02048844209D101210804FFF7F0FD96
:101C300000214FF48030FFF7EBFD18E01A48844292
:101C400009D101214804FFF7E3FD00214FF40030E2
:101C5000FFF7DEFD0BE01548844208D1012188041E
:101C6000FFF7D6FD00214FF48020FFF7D1FD10BD16
:101C7000002C01400004004000080040000C00401F
:101C8000001000400014004000340140004C0140AE
:101C9000005001400054014000180040001C00406A
:101CA0000020004000400140004401400048014045
:101CB0000146888C704730B502460020002300247E
:101CC000158A05EA0103958905EA010413B10CB1EF
:101CD000012000E0002030BD1AB183890B438381CD
:101CE00002E083898B438381704701894FF6F87244
:101CF000114001817047000070B5002400220023CC
:101D0000058C4FF6FE7635400584028C8388048B63
:101D10004FF68F752C40B51E2C400D882C43751E38
:101D20002A400D892A434D882A43144DA8420BD0DE
:101D3000134DA84208D0134DA84205D0124DA84219
:101D400002D0124DA84213D14FF6F7752A404D89A3
:101D50002A434FF6FB752A408D882A434FF6FF65CC
:101D60002B404FF6FF552B408D892B43CD892B43BC
:101D700083800483CD888586028470BD002C014059
:101D8000003401400040014000440140004801404F
:101D90000A460021018B4FF6F77319401143018366
:101DA0007047000070B5002400220023058C4FF618
:101DB000EF7635400584028C8388048B48F6FF75E6
:101DC0002C404FF6FF452C400D884FF6FF7606EA73
:101DD00005252C434FF6DF752A400D8906EA0515C7
:101DE0002A434D8806EA05152A43154DA84202D01C
:101DF000144DA8421DD14FF67F752A404D894FF6EC
:101E0000FF7606EA05152A434FF6BF752A408D88EE
:101E100006EA05152A434FF6FF352B404FF2FF75B2
:101E20002B408D8906EA85052B43CD8906EA850579
:101E30002B4383800483CD880587028470BD000016
:101E4000002C0140003401400A460021018B4FF272
:101E5000FF7319404FF6FF7303EA0223194301830E
:101E60007047000070B5002400220023058C4FF657
:101E7000FF6635400584028C8388848B4FF68F750E
:101E80002C404FF6FC752C400D882C434FF6FF5527
:101E90002A400D894FF6FF7606EA05252A434D882C
:101EA00006EA05252A43154DA84202D0144DA84242
:101EB0001DD14FF2FF752A404D894FF6FF7606EA95
:101EC00005252A434FF6FF352A408D8806EA052569
:101ED0002A434EF6FF752B404DF6FF752B408D893A
:101EE00006EA05152B43CD8906EA05152B438380A9
:101EF0008483CD888587028470BD0000002C01405A
:101F0000003401400A460021818B4FF6F7731940D7
:101F1000114381837047000070B500220023002424
:101F2000058C4EF6FF7635400584038C8488828BC1
:101F300048F6FF752A404FF6FF452A400D884FF6B8
:101F4000FF7606EA05252A434DF6FF752B400D89DD
:101F500006EA05352B434D8806EA05352B430B4D24
:101F6000A84202D00A4DA84208D14BF6FF752C407A
:101F70008D894FF6FF7606EA85152C43848082838F
:101F8000CD88A0F84050038470BD0000002C0140B3
:101F9000003401400A460021818B4FF2FF73194043
:101FA0004FF6FF7303EA0223194381837047002130
:101FB000018041808180C180018141818181C18115
:101FC0007047818670470187704781877047A0F806
:101FD0004010704781847047002202881D4B984250
:101FE0000ED01D4B98420BD0B0F1804F08D01B4B48
:101FF000984205D01A4B984202D01A4B984204D10D
:102000004FF68F731A404B881A43174B984207D0EC
:10201000164B984204D04FF6FF431A40CB881A4320
:1020200002808B8883850B8803850A4B98420BD0EE
:10203000094B984208D00E4B984205D00D4B984260
:1020400002D00D4B984201D10B7A03860123838283
:1020500070470000002C01400034014000040040A3
:1020600000080040000C0040001000400014004038
:102070000040014000440140004801404FF6FF711C
:10208000818000210180C180418001727047000081
:1020900010B586B0044601210420FFF7A9FB0121F9
:1020A0008803FFF7A5FB4FF40070ADF81400032080
:1020B0008DF8160018208DF8170005A91248FFF7B3
:1020C00023F84FF48060ADF8140004208DF8170059
:1020D00005A90D48FFF718F801940020ADF8080095
:1020E000ADF80A00ADF80C00ADF810000C20ADF80A
:1020F0000E0001A9054800F0B7F90121034800F0DE
:102100004BF906B010BD0000000801400038014046
:1021100010B540F22551694800F057F900287DD0EC
:10212000664800F00DFAC4B2612C05D10120644963
:102130000870FEF721FF2EE0622C05D102206049D5
:102140000870FEF719FF26E0632C05D103205C49D7
:102150000870FEF711FF1EE0642C05D104205849D9
:102160000870FEF709FF16E0652C05D105205449DB
:102170000870FEF701FF0EE0662C05D106205049DD
:102180000870FEF7F9FE06E0672C04D107204C49E1
:102190000870FEF7F1FE4B48007848B948480078CF
:1021A000042805D1002046490870012045490870DF
:1021B0004348007802285AD04C2C02D101204249D1
:1021C000087041480078012822D1404840490978E8
:1021D00044543F480078401C3D4908702A2C17D1D0
:1021E0003C48007858B93C480021016041600181B9
:1021F0003648016041600181012036490870334949
:102200003548FDF7A3FF00202F49087030490870BA
:10221000522C02D101203149087000E026E02F48FD
:102220000078012848D12E482E49097844542D4879
:102230000078401C2B4908702A2C3DD12A48007890
:1022400058B92A4800210160416001812448016099
:102250004160018101202449087021492348FDF78C
:1022600075FF00201D4908701E49087024E0412CAC
:102270000AD101201E49087014211E48FDF75BFF9A
:1022800014211D48FDF757FF19480078012813D184
:1022900019481A490978445418480078401C1749CD
:1022A00008702A2C08D114491248FDF74FFF00206E
:1022B0000F4908701149087010BD0000004400402B
:1022C000190000201A0000202000002078000020C3
:1022D0001D0000201B0000205000002021000020D5
:1022E000820000201E0000201C0000205A00002058
:1022F00022000020640000208C0000201F0000202D
:1023000010B586B0044601210420FFF771FA0121BF
:102310004804FFF74DFA0420ADF8140003208DF8AF
:10232000160018208DF8170005A91948FEF7ECFED5
:102330000820ADF8140004208DF8170005A91448F2
:10234000FEF7E2FE26208DF8000003208DF8010044
:102350008DF8020001208DF803006846FFF7D2F9DE
:1023600001940020ADF80800ADF80A00ADF80C00AB
:10237000ADF810000C20ADF80E0001A9054800F0E2
:1023800073F80121034800F007F806B010BD000003
:10239000000801400044004021B1828942F400520B
:1023A000828104E082894DF6FF731A408281704772
:1023B00002460020B1F5007F00D100BF13880B401A
:1023C0000BB1012000E00020704770B502460024E8
:1023D00000230025002040F66A16B14200D100BF5C
:1023E000C1F3421501F01F03012606FA03F3012D84
:1023F00002D19689334006E0022D02D1168A33407D
:1024000001E0968A33400C12012606FA04F416887D
:10241000344013B10CB1012000E0002070BDF0B5D4
:102420000346002400260025002040F66A17B94222
:1024300000D100BF1846C1F3421401F01F06012766
:1024400007FA06F5012C01D10C3004E0022C01D171
:10245000103000E014301AB107682F43076002E023
:102460000768AF430760F0BD2DE9F04786B0054629
:102470000E460024A24600BFA1460027B08900B145
:1024800000BF2F462C8A4CF6FF700440F0880443AE
:102490002C82AC894EF6F3100440B0883189084391
:1024A000718908430443AC81AC8A4FF6FF40044075
:1024B000B0890443AC8201A8FFF7BAF91F488742EC
:1024C00002D1DDF810A001E0DDF80CA0A88900F42D
:1024D000004040B10AEBCA0000EB0A103168490025
:1024E000B0FBF1F807E00AEBCA0000EB0A10316814
:1024F0008900B0FBF1F86420B8FBF0F0040120097A
:10250000642101FB1089A88900F4004040B1322009
:1025100000EBC900B0FBF1F000F00700044308E055
:10252000322000EB09106421B0FBF1F000F00F0045
:1025300004432C8106B0BDE8F0870000003801405C
:1025400001468888C0F308007047C1F30802828002
:10255000704700BFFEE7000070B5002556E04FE071
:102560002B48FFF7EDFFC4B2092D43D2DFE805F099
:10257000050B11171D23292F3500432C01D10125EF
:1025800000E000253BE04F2C01D1022500E00025B2
:1025900035E04E2C01D1032500E000252FE04E2C24
:1025A00001D1042500E0002529E0452C01D10525B5
:1025B00000E0002523E0432C01D1062500E00025A2
:1025C0001DE0542C01D1072500E0002517E0452C23
:1025D00001D1082500E0002511E0442C08D101229A
:1025E00040F225510A48FFF71AFFFEF7C5FC70BDFF
:1025F000002504E0002507A000F016F800BF00BF8A
:1026000020210348FFF7D4FE0028A9D1A7E7000046
:1026100000440040CEB4C3FCD6D0434F4E4E454399
:102620005445440D0A0000000FB4054B10B503A932
:10263000044A029800F06AF910BC5DF814FB00002F
:10264000F130000848000020490050EAC12018BFBE
:1026500004204A0D18BF40F0010040F2FF72B2EBB7
:10266000515F08BF40F00200012808BF05207047F5
:102670002DE9F0414F1E00EBC7010446D1E90001EE
:1026800015461E4637F006020DD02A463346FDF7A2
:102690000DFE7F1E04EBC703D3E90023FDF75FFDAA
:1026A00037F00602F1D1022F25D0042F13D0062FC8
:1026B00018BFBDE8F0812A463346FDF7F7FDD4E99F
:1026C0000A23FDF74CFD2A463346FDF7EFFDD4E91A
:1026D0000823FDF744FD2A463346FDF7E7FDD4E91C
:1026E0000623FDF73CFD2A463346FDF7DFFDD4E91E
:1026F0000423FDF734FD2A463346FDF7D7FDD4E920
:102700000223FDF72CFD2A463346FDF7CFFDD4E921
:102710000023BDE8F041FDF722BD00000022134672
:1027200010460149FDF734BE0000F03FFDF717BD2C
:102730000022134610461146FDF72ABE40F2013230
:1027400000204FF0E041FEF717B80000024A0020D9
:102750001107FEF711B8000001FDFFFF02E008C8F5
:10276000121F08C1002AFAD170477047002001E00B
:1027700001C1121F002AFBD1704700000149086007
:10278000704700004C0000202DE9FF5F82B000215F
:10279000DDE90430020DDDF840B0034318D044F603
:1027A0001050A2F2FF3242431514119801281FD095
:1027B000A5EB0B00401C5FEA000A4FF000064E4FED
:1027C000DFF83891B046504615D5CAF1000413E041
:1027D000119801244AA3012801D16FEA0B01029844
:1027E000119AC0E90031C0E9024206B0BDE8F09F8D
:1027F000CBF10000DFE704460021404A491842EBD4
:102800000450CDE9001012E0E00707D032463B4605
:1028100040464946FDF74AFD8046894632463B46DA
:1028200010461946FDF742FD06460F466410002C7F
:10283000EAD1DDE90401DDE90023BAF1000F06DA8F
:10284000FDF734FD42464B46FDF730FD05E0FDF750
:102850009FFD42464B46FDF79BFD04460E46002277
:10286000284BFDF7B9FF03D84FF0FF30014607E0D2
:102870000022254B20463146FDF771FCFDF793FF02
:10288000102409E0002C0ADB0A220023FDF77EFE5B
:10289000039B30321A55641E50EA0102F2D1641CC7
:1028A000039AC4F111031444119A012A03D001229E
:1028B00008430DD10AE0084304D000204FF0110B6B
:1028C000119072E7A3EB0B056D1E0DE05B4504DD77
:1028D0004FF0000205F1010504E003DA4FF00002B9
:1028E000A5F10105002AECD002981199C0E9023146
:1028F000C0E9004579E70000000014400000F03F07
:10290000300000000000F0430000E03F2DE9FF4FE1
:1029100095B09A46884606460025EEE1252877D1EF
:1029200000242746F94A0121039400E0044316F8E5
:10293000013F203B01FA03F01042F7D130782A28FA
:1029400011D06FF02F033078A0F13002092A16D889
:10295000039A44F0020402EB820203EB42021044A9
:10296000761C0390EFE758F8042B0392002A03DA51
:10297000504244F40054039044F00204761C307832
:102980002E2816D116F8010F44F004042A280DD081
:102990006FF02F023078A0F13003092B09D807EB34
:1029A000870302EB4303C718761CF3E758F8047B50
:1029B000761C30786C280FD006DC4C2817D068289D
:1029C0000DD06A2814D104E0742810D07A280FD1D1
:1029D0000DE044F400140AE044F4801401E044F4EF
:1029E00040147278824202D104F58014761C761C61
:1029F000307866280BD013DC582877D009DC002803
:102A000075D04528F6D04628F4D047281AD193E14E
:102A100018E0632835D0642879D0652812D18BE17D
:102A2000702873D008DC6728F1D069286FD06E2831
:102A30000DD06F2806D1ACE073282CD0752874D047
:102A4000782853D05246179990476D1C54E1C4F32F
:102A50000250022809D003280DD0D8F8001004280D
:102A60000DD00D6008F1040846E1D8F80010EA170F
:102A7000C1E90052F6E7D8F800100D80F2E70D70BA
:102A8000F0E718F8041B8DF8001000208DF8010005
:102A9000EB46012003E058F804BB4FF0FF3061071C
:102AA0004FF0000102D40DE009F101018946B9425D
:102AB0000FDA8145F8DB1BF809100029F4D108E092
:102AC00009F1010189468142FADB1BF8091000294E
:102AD000F6D103985346A0EB090721463846179ACA
:102AE00000F080FA284400EB090507E044E008E123
:102AF0000DE01BF8010B524617999047B9F10109F7
:102B0000F7D2534621463846179AF2E039E00A21B7
:102B1000C4F302524FF0000B0091022A06D058F87D
:102B2000040BC117032A09D00AE023E008F10700CB
:102B300020F00702F2E80201904605E000B2C1175A
:102B4000042A01D140B2C117002906DA0A46002141
:102B5000404261EB02012D2202E0220504D52B2226
:102B60008DF80420012203E0E20701D02022F7E7DC
:102B7000914657E00A2100E010214FF0000B009130
:102B80000BE010214FF0000B44F0040408270091E3
:102B900003E008204FF0000B0090C4F30252022A19
:102BA00005D058F8040B0021032A08D008E008F1EA
:102BB000070020F00702F2E80201904603E080B22D
:102BC000042A00D1C0B24FF0000922072AD532787A
:102BD000702A07D0DDF800C08CF0100C5CEA0B0CFA
:102BE00005D00EE040228DF80420012208E050EAD2
:102BF000010306D030238DF804308DF80520022221
:102C00009146009B83F0080353EA0B030AD150EA74
:102C1000010201D1620705D530228DF804204FF062
:102C200001097F1E3278582A04D039A20C920CAACE
:102C300002920BE03BA2F9E75B46009AFDF7A6FC87
:102C40000C9B9B5C029A521E0292137050EA010286
:102C5000F2D1029804A9081A00F1200B600702D5EE
:102C600024F4803400E001275F4502DDA7EB0B0070
:102C700000E0002000EB0B01009003984944401A4B
:102C80000390E00306D453462146179A039800F0B8
:102C9000A9F90544002706E001A85246C05D17992E
:102CA00090476D1C7F1C4F45F6DBE0030CD5534667
:102CB0002146179A039800F095F9054404E0302066
:102CC0005246179990476D1C0099481E00900029A4
:102CD000F5DC08E00298029952460078491C0291FE
:102CE000179990476D1CBBF10001ABF1010BF1DCB2
:102CF0005BE100F065F90544761C307800287FF42C
:102D00000DAE19B02846BDE8F08F0000092801007B
:102D10003031323334353637383961626364656651
:102D20000000000030313233343536373839414213
:102D30004344454600000000600700D4062708F120
:102D4000070020F00700F0E80223804603F0004C63
:102D50005FEA0C0001D097A009E0200501D596A0FC
:102D600005E0E00701D095A001E0AFF24C00139020
:102D7000307823F0004365280CD006DC452809D0C4
:102D800046281DD047287FD13BE0662818D0672809
:102D90007AD136E00021112F01DB112000E0781CF0
:102DA000CDE9000104A90CA8FFF7EEFCDDE90D0157
:102DB0000C9A4FF0000B07F10109109200914EE0C0
:102DC0004FF000400097CDE9011004A90CA8FFF7CF
:102DD000DBFCDDE90D020C9B0F994FF0000B9146D7
:102DE0001093009211B9791C00EB0109B7EB0900AF
:102DF00003D4C0F1FF3B07F10109A9EB07000190E3
:102E000042E0012F00DA01270021112F01DD1120FE
:102E100000E03846CDE9000104A90CA8FFF7B4FC96
:102E2000DDE90D010C9A00914FF0000BB9461092AC
:102E300021070FD4009A4A4503DA914601E0A9F12F
:102E40000109B9F1010F05DD109AA9F10101515CE9
:102E50003029F4D0B84202DA10F1040F03DA01216C
:102E6000CDE9011010E0002803DC8344A9EB000148
:102E700002E0411C494500DD8946A0EB0B00401CE7
:102E800001904FF000400290200705D4019848457A
:102E900002DB4FF0FF30019000208DF84B000298CC
:102EA0000DF14B07B0F1004F25D002200C902B20E4
:102EB0000D90029800280CDA404202902D200D90CF
:102EC00007E00A210298FDF74BFB3031029007F82A
:102ED000011D0C99481E0C900029F2DC0298002874
:102EE000EFD1791E0D980870307800F0200040F086
:102EF000450007F8020D11A8C01BC01D02901398D1
:102F0000007800B1012000EB0901019801EBE071AC
:102F1000029801440398401A401E0390E00306D42F
:102F200053462146179A039800F05CF8054413981D
:102F3000007818B15246179990476D1CE00323D5CD
:102F400053462146179A039800F04CF805441BE0BD
:102F5000BBF1000F07DB0098584504DD1098179966
:102F600010F80B0001E01799302052469047019865
:102F70000BF1010B401E05F10105019004D12E203B
:102F80005246179990476D1CB9F10001A9F101094A
:102F9000DEDC05E017F8010B5246179990476D1CCF
:102FA0000299481E02900029F4DC53462146179AE4
:102FB00003989EE62D0000002B000000200000007A
:102FC0002DE9F041044600251E461746880404D426
:102FD00005E039462020B0476D1C641EF9D528460F
:102FE000BDE8F0812DE9F041044600251E469046DB
:102FF000C80301D5302700E02027880404D505E068
:1030000041463846B0476D1C641EF9D52846BDE8D8
:10301000F081000010B56FF00400FEF7E9FC0A48EB
:1030200000680A49B0FBF1F00949087008460078C9
:1030300000EB4001C1EBC0104FF6FF7101EAC00088
:103040000449088010BD00000000002000127A0032
:1030500014000020160000200146114A12884A433D
:103060004FF0E0235A6100229A611A46126942F039
:1030700001021A6100BF4FF0E022106900F0010266
:103080001AB100F48032002AF5D04FF0E022126924
:1030900022F001024FF0E0231A6100229A6170478A
:1030A000160000200146114A12784A434FF0E023EF
:1030B0005A6100229A611A46126942F001021A61AD
:1030C00000BF4FF0E022106900F001021AB100F4D5
:1030D0008032002AF5D04FF0E022126922F001027E
:1030E0004FF0E0231A6100229A617047140000201B
:1030F00070B504460D46E1B20548FFF726FA00BF59
:1031000080210348FFF754F90128F9D1204670BD0A
:1031100000380140FFF77EFF4FF4A060FEF72AFB66
:10312000FEF78AF94FF4E130FEF7B2FF4FF4165084
:10313000FFF7E6F8FEF720FAFEF718F9FDF7F0FEC4
:10314000FDF70AFFFFF708FA01E0FDF793FFFCE740
:103150002DE9F04D1D460C4698B0174621F0004170
:1031600023F00043002814BF4FF0010C4FF0000C77
:103170000CEB440CFE4A0CEB02064FEA620C66456F
:103180002BD33E0018BF012606EB45061644F94A2C
:10319000964222D3F84A53EA070C02D0944205D152
:1031A00048B918B000201146BDE8F08D002808BFCE
:1031B0004FF0000C01D04FF0010C0CEB440212F563
:1031C000001F0AD8002F14BF4FF0010C4FF0000C65
:1031D0000CEB450212F5001F07D918B03A462B46F2
:1031E0002146BDE8F04DFFF7A1BA0022DFF88CA31D
:1031F000002CB8BF534526DADFF884C36345A8BF67
:10320000022220DADFF870C39C451CDCDFF874C3AF
:103210000CEB235CBCF1140F08DDCCF1340627FA6B
:1032200006FC0CFA06F6BE420DD108E05FB9CCF1FF
:10323000140623FA06FC0CFA06F69E4203D10CF0A3
:103240000102C2F1020251EA000C19D1002D17DA75
:10325000002C18BF022A01D0012A07D00220FFF754
:103260008DFA18B0BDE8F04DFFF758BA0220FFF70D
:1032700085FAFFF753FA18B081F00041BDE8F08DF0
:10328000B7F1000C6CD1534525D104F1804212F501
:10329000801201BF00280020B74918B008BFBDE860
:1032A000F08DB548884207DC002DA1BF6046294655
:1032B00018B0BDE8F08D07E0281E05DA80F0004167
:1032C00018B06046BDE8F08DAF497944D1E90001FE
:1032D00018B0BDE8F08DDFF8A0C2634525D1002D00
:1032E0001FDA19B1514512D1D8B909E0002840F0D0
:1032F000EC82A24A214618B062F31E01BDE8F08DAF
:103300000020214618B060F31E01BDE8F08D08DAF8
:1033100018B02346BDE8F04D024600206146FDF797
:1033200037B818B02146BDE8F08D514518DAB5F12F
:10333000804F0DD0A5F1005CBCF1FF5C10D1B4F161
:10334000000C0DDB18B06146BDE8F04D00F0ECBBA1
:10335000234618B00246BDE8F04D1946FCF7A6BF5B
:10336000060024F0004C3BD1D9B1514533D1002C9B
:1033700006DD002DA1BF0020514618B0BDE8F08D3C
:10338000002C01DD002D1BDB002C13DA002D11DBDE
:10339000012A4FF0000014BF78497C4918B0BDE8FD
:1033A000F08D022A18BF002C0AD0012A08D1002C67
:1033B00006DA0AE0002CB8BF002D11DA012A04D089
:1033C000002018B00146BDE8F08D18B000204FF085
:1033D0000041BDE8F08DA1F14050B0F17F601AD0FE
:1033E000012000EBE47050EA020421D0624C521E2E
:1033F0004FF0000B104304BF4FF0000B644C6548C6
:1034000083427CDD644A654893421FDD884217DBB6
:10341000002D25DB37E0002C00DA4AB1022A0CBF70
:1034200001204FF0FF3018B0BDE8F04DFDF724B893
:103430000120FFF7A3F918B0BDE8F04DFFF778B908
:103440004D4A8A4202DC002D0ADC1CE0814202DA8D
:10345000002D18DA04E0484B994220DD002D12DDE2
:103460000220FFF78BF9FFF769F905460E460022A7
:10347000534658462146FCF719FF18B066F31E0163
:103480002846BDE8F08D0220FFF778F9FFF75EF9D6
:103490000A46214618B062F31E01BDE8F08D0022F5
:1034A00030466146FCF7FCFE80460E466FF0010296
:1034B000FDF762F94FF05532394BFCF7F4FE424606
:1034C0003346FCF7F3FE0022364BFCF7ECFE824657
:1034D00042463346049110461946FCF7E7FE524631
:1034E000049BFCF7E3FE8A4600904FF0C0422E4B4F
:1034F00040463146FCF7DAFE2C4A2B4B00E027E031
:10350000CDE9060151460098FCF7D0FE82460191B4
:10351000274A284B40463146FCF7C8FE5246019BDD
:10352000FCF7BEFE82460B4602460591DDE9060128
:10353000FCF715FEDDE90623002688463046FCF739
:10354000AFFE5246059BFCF7AEFE024600F07EB988
:103550000020B1F5801F07DA352230466146FDF7BD
:103560000BF906466FF0340000EB215024E0000018
:10357000FFFF1F00FFFF0F000000F03F0000F07F83
:103580000000404301FCFFFF320900000000F0FF93
:103590000000F0BF0000E0410000F043FFFFEF3FFC
:1035A0005555D53F0000E03F4715F73FFE822B659C
:1035B00044DF5DF80BAE543EA0F2FF300190C1F342
:1035C000130040F07F6141F040510291FE49884272
:1035D000D8BF002004DDFD498142C8BF012001DDC4
:1035E0000D9008E000200D900198401C0190029879
:1035F000A0F5801002900299F54878440B910D993E
:1036000000EBC100D0E900230F9330460A920B99DA
:10361000FCF746FECDE90601DDE90A2130460F9BA5
:10362000FCF79DFD02460B460020EA49FCF7B0FE80
:10363000059102460B460090DDE90601FCF736FED7
:103640001490E5488A464FF00008784402990068D3
:1036500012904FF0005040EA61010D980F9B01EB72
:10366000804000F5002109910A9A1298FCF718FE93
:1036700032460B9BFCF717FE42465346FCF716FEFC
:103680000646029140465146099B129AFCF70EFEEF
:10369000DDE90623FCF707FE3246029BFCF700FE3D
:1036A000059B009AFCF702FE0091149A0490534681
:1036B00010461946FCF7FAFD06460246C7480B4677
:1036C000029106217844FEF7D3FFCDE90510029B55
:1036D000324610461946FCF7E9FDDDE90532FCF7F4
:1036E000E5FD05910646534640461946149AFCF7F7
:1036F00036FD009B049AFCF7D9FD3246059BFCF78A
:103700002EFDCDE905104246534610461946FCF7FA
:10371000CDFD0022B24B02910A90FCF720FDDDE9BD
:103720000532FCF71CFD0E464246AD4B4046FCF709
:10373000B7FD029B0A9AFCF7B3FDDDE90532FCF701
:10374000B2FD424602910A90334610465146FCF7BC
:10375000ADFDCDE906015346149A02990A98FCF78B
:10376000A5FD8A4602903346424600990498FCF72C
:103770009DFD5346029AFCF7F2FC82460B46024638
:103780000591DDE90601FCF7EAFCDDE906230020EE
:1037900088460646FCF784FD5246059BFCF783FDF0
:1037A000824609914FF060428E4B30464146FCF70D
:1037B0007DFD049006918C4A8A4B50460999FCF78E
:1037C00075FD82460291894A894B30464146FCF795
:1037D0006DFD5246029BFCF7C2FC864B7B440D9A62
:1037E00003EBC203D3E90023FCF7B9FC0E90079169
:1037F0000198FCF741FE0591DDE9061382460E9A19
:103800000498FCF7ACFC7C4A7A440D9B02EBC303A2
:10381000D3E9002300930292FCF7A1FC5246059BDA
:10382000FCF79DFC0026884652463046059BFCF777
:1038300037FD009B029AFCF733FD069B049AFCF7C8
:103840002FFD079B0E9AFCF72EFD024600200B462B
:10385000029038462946FCF729FD824601912B4605
:1038600038461946029AFCF71BFD32464346FCF7E0
:103870001DFD5246019BFCF772FC07468A46324604
:10388000434629460298FCF711FD05460E463A4686
:103890005346FCF764FC594A8846914221DBA8EB69
:1038A000020353EA000210D12A463346FCF7F8FC23
:1038B000CDE90401524A534B38465146FCF74FFCC0
:1038C000DDE90423FCF788FF21D20220FEF756FF32
:1038D000FEF734FF0A46214618B062F31E01BDE828
:1038E000F08D494B28F000429A4210D3474A08EB2A
:1038F000020353EA00027FF4C6AD2A463346FCF7C2
:10390000CFFC3A465346FCF767FF7FF6BCAD00227A
:10391000019228F000403E493E4A01EB205182428C
:1039200023DA481C4FF4801121FA00F040443A4A4F
:10393000C0F30A517A44394BA1F2FF31CB4020EA5F
:103940000303C0F3130040F48010C1F11401C84018
:1039500012680190B8F1000FBCBF404201902846A8
:103960003146FCF79DFC05460E462A46334638464E
:103970005146FCF7F4FB4FF000084246284B404606
:103980000591FCF793FCCDE90601264A264B4046FB
:103990000599FCF78BFC009102902A46334640467D
:1039A0000599FCF77DFC3A465346FCF77CFC1F4A20
:1039B0001F4BFCF77BFC009B029AFCF7D0FB0746F1
:1039C000884602460B4635E08E9803007AB60B0017
:1039D0007A0500000000F03FB2050000E00400009E
:1039E0000000084009C7EE3FFD033ADCF5015B1417
:1039F000E02F3EBEB80300007C03000000009040B2
:103A0000FE822B654715973C00CC904000346F3FF9
:103A100001FCFFFF0000E03FC8020000FFFF0F00B5
:103A2000432EE63F396CA80C615C20BEEF39FAFEEC
:103A3000422EE63FDDE90601FCF791FBDDE90623B6
:103A400005460E46FCF72CFC3A464346FCF72BFC99
:103A50000F462A463346009010461946FCF726FCCE
:103A6000824602462E4888460B4605217844FEF7DA
:103A7000FFFD52464346FCF719FC2A463346FCF745
:103A800012FC80468A463B4628463146009AFCF79F
:103A90000DFC3B46009AFCF762FB06910090002269
:103AA0004FF0804340465146FCF7FAFB0F460C901E
:103AB0004246534628463146FCF7F8FB3B460C9AF3
:103AC000FCF766FC069B009AFCF7EAFB2A463346A5
:103AD000FCF7E6FB0022134BFCF7E5FB05460198DB
:103AE0000E4601EB00510815002810DC284631462F
:103AF000019AFCF741FEFEF7A7FD042808BFFEF778
:103B000025FE28463146019AFCF736FE05460B464F
:103B100018B02A4658462146BDE8F04DFCF7C6BB12
:103B2000680100000000F03F2DE9F04106460F4615
:103B3000FCF77CFE041E0D4618BF0120284320F030
:103B40000040C0F17F6000F1E040C00F0ED0301C9B
:103B500018BF0120384320F00040C0F17F6000F121
:103B6000E040C00F04BF0120FEF708FE20462946B2
:103B7000BDE8F08100000000000000000000F03F00
:103B8000000000000000F83F0000000000000000FE
:103B90000000004003B8E23F000000000000000009
:103BA00006D0CF43EBFD4C3E033333333333E33F97
:103BB000FFAB6FDBB66DDB3F4D268F515555D53FC3
:103BC00001411DA96074D13F65DBC9934A86CD3F91
:103BD000EF4E454A287ECA3F3E5555555555C53F7F
:103BE00093BDBE166CC166BF2CDE25AF6A56113F71
:103BF000F16BD2C541BDBBBED0A4BE726937663E73
:103C00000000000000000000283C00080000002028
:103C1000500000005C270008783C0008500000209D
:103C2000780400006C27000800A24A04000000008D
:103C3000000000000102030406070809000000005C
:103C40000000000000000000000000000000000173
:103C5000020304010203040607080902040608001F
:103C60000000000000000000000000000000000054
:083C700000000000000000004C
:0400000508000105E9
:00000001FF
