:020000040800F2
:100000002805002049010008A91D00089D190008C5
:10001000471B0008111300084B31000800000000C6
:10002000000000000000000000000000B9230008EC
:100030001116000800000000612200080D260008CB
:100040006301000863010008630100086301000800
:1000500063010008630100086301000863010008F0
:100060006301000863010008151600086301000819
:1000700063010008630100086301000863010008D0
:1000800063010008630100086301000863010008C0
:1000900063010008630100086301000863010008B0
:1000A000630100087126000863010008630100086D
:1000B00063010008630100089D2600086301000831
:1000C0006301000863010008630100086301000880
:1000D000630100086301000863010008512D000856
:1000E0006301000863010008630100086301000860
:1000F0006301000863010008630100086301000850
:10010000630100086301000863010008630100083F
:10011000630100086301000863010008630100082F
:10012000630100086301000863010008630100081F
:10013000DFF810D000F06EFC00480047B13E000828
:10014000AFF3008028050020064880470648004796
:10015000FEE7FEE7FEE7FEE7FEE7FEE7FEE7FEE777
:10016000FEE7FEE71126000831010008D2B201E0E7
:1001700000F8012B491EFBD270470022F6E710B5AC
:1001800013460A4604461946FFF7F0FF204610BD05
:10019000034611F8012B00F8012B002AF9D118466B
:1001A0007047F0B480EA0102D40F4200B2EB410F75
:1001B00002D20246084611464A0042D0C30DDDB2C3
:1001C000C1F3C752AD1A202D35DAC1F3160141F43F
:1001D000000204B15242C5F1200602FA06F12A419A
:1001E0001044B3EBD05F23D0C4B1012DA0EBC350BA
:1001F00009DCF0BC4FF0004202EAC352DBB200F56A
:10020000000000F034BB400000F1807000EBC350F0
:10021000A0F1807040EAD170490009E0490841EA44
:10022000C071A0EBC35000F50000400800EBC350C4
:10023000F0BC00F013BB6142012202EB4101001B44
:10024000F6E7F0BC704781F00041AAE780F000407B
:10025000A7E780EA010210B502F00043400022D077
:100260004A001FD0010E01EB1261C0F35600C2F329
:10027000560240F4000042F40002A0FB02200004F9
:100280007F39140400D0401C50EA124001D44000D1
:10029000491EC2B20C0604EBD010401C4008802A54
:1002A00002D003E0002010BD20F00100002900DA98
:1002B0000020184310BD30B480EA010202F000456E
:1002C00030F0004221F0004013D090B1C30DD40DA6
:1002D000C2F31601C0F31600E41A41F4000140F421
:1002E00000027D34914201D3641C00E04900002CDF
:1002F00002DA30BC002070474FF400000023914226
:1003000001D3891A034340084FEA4101F7D151B1A3
:10031000914202D14FF0004105E002D24FF00101BD
:1003200001E06FF0010103EBC450284430BC00F041
:1003300095BA2DE9FE4F804681EA0300C00F0C46B6
:10034000009021F0004123F00045B8EB0200A941E4
:1003500005D24046214690461C460B46024623F0F5
:100360000040104347D0270DC7F30A00C3F30A51DA
:100370000290401A019040286BDAC3F3130040F456
:10038000801B0098924620B10023D2EB030A63EB56
:100390000B0B01985946C0F14002504600F02DFA6F
:1003A00006460D4650465946019A00F045FA10EBB4
:1003B00008006141002487EA115284EAE7731A4376
:1003C00040D0009A62B3019A012A4FEA075215DC25
:1003D000001B61EB02014FF0004202EA0752CDE937
:1003E0000042001C41F5801132462B4600F07CFA99
:1003F00003B0BDE8F08F40462146F9E7001B61EBF2
:100400000201001C41F5801300185B412018A2F581
:10041000001747EB030140EAD570B6196D4111E0B2
:100420006D084FEA360645EAC0754FEA0752001BD1
:1004300061EB0201001C41F5801149084FEA3000D0
:100440000019514132462B4603B0BDE8F04F00F091
:100450003CBA0098012240000023D0EB020263EB7B
:10046000E073009821464FEAE074B8EB000061EBBE
:100470000401E9E783F000435BE781F0004158E7BE
:100480002DE9FE4F81EA030404F0004421F000410D
:1004900000944FF0000B23F0004350EA01045ED0BB
:1004A00052EA03045BD0C3F30A54C1F30A552C4447
:1004B000A4F2F3340194A0FB0254C1F3130141F4FC
:1004C0008011C3F3130343F4801301FB024400FBC8
:1004D000034E840A970A44EA815447EA8357A4FBEF
:1004E000076802958D0A05FB07854FEA932C04FBEC
:1004F0000C542705029D4FEA065847EA1637B5EB1C
:1005000008056EEB070C870E920E47EA811742EA48
:100510008312A7FB0201B6EB0B0164EB00042B0D69
:1005200043EA0C335E1844EB1C50DA465146E7FBB5
:100530000201C5F313044FEA0B3343EA14534FEAA5
:100540000432019C43EA0603A4F10C040294009CCB
:10055000CDE900B400F0C8F903B0BDE8F08F002089
:100560000146F9E72DE9F04D81EA030404F0004B60
:1005700021F0004514464FF0000A23F0004150EAF4
:10058000050220D054EA01021DD0C5F30A570246E5
:10059000C5F31303C1F31300C1F30A5640F48015E9
:1005A00043F48013A7EB0608101BD64608F2FD386B
:1005B00073EB050002D308F1010801E092185B41DA
:1005C000B8F1000F03DA00200146BDE8F08D0020ED
:1005D0004FF48011064684460EE0171B73EB0507A7
:1005E00005D3121B63EB050306434CEA010C4908D3
:1005F0004FEA300092185B4150EA0107EDD152EA10
:10060000030012D082EA040083EA0501084305D002
:10061000101BAB4106D20122002306E000224FF05E
:10062000004302E06FF0010253101AEB06004CEB9E
:10063000085110EB0A0041EB0B01BDE8F04D00F052
:1006400044B9C10F80EAE0700844CA07962300212C
:1006500000F00DB996230022114600F008B90EB53E
:10066000C10F80EAE0700844CA07002140F233431A
:100670008DE80E000A460B4600F036F903B000BDC7
:1006800020F00040C10DC0F3160040F400007F29A7
:1006900001DA00207047962903DCC1F19601C840B9
:1006A000704796398840704770B5C1F30A5201F01F
:1006B00000450024C1F3130140F2FF3341F48011DF
:1006C0009A4201DA002070BD40F233439A42A2F20E
:1006D000334203DC524200F09FF800E090402C438C
:1006E000F1D0404270BD00F0004230F000400AD02E
:1006F000C10D01F56071C0F3160042EA0151C20854
:1007000040071143704700200146704701F0004345
:1007100030B421F0004150EA010206D00A0DA2F5E2
:100720006072C1F31301002A02DC30BC0020704764
:10073000440F44EAC104C100E01830BC00EBC250D1
:1007400000F08CB8002801DBC0F10040002901DB7B
:10075000C1F1004181427047002801DBC0F1004037
:10076000002901DBC1F100418842704730B50B46DA
:10077000014600202022012409E021FA02F59D42D1
:1007800005D303FA02F5491B04FA02F52844151EA5
:10079000A2F10102F1DC30BD2DE9F05F0546002039
:1007A00092469B4688460646814640241BE02846E2
:1007B00041464746224600F02FF853465A46C01A93
:1007C000914110D311461846224600F016F82D1A12
:1007D00067EB01084F4622460120002100F00DF88A
:1007E00017EB00094E41201EA4F10104DFDC48464E
:1007F00031462A464346BDE8F09F202A04DB203AD2
:1008000000FA02F1002070479140C2F1200320FA63
:1008100003F3194390407047202A04DB203A21FA61
:1008200002F00021704721FA02F3D040C2F1200209
:100830009140084319467047202A06DBCB17203A1F
:1008400041FA02F043EAE07306E041FA02F3D040D5
:10085000C2F1200291400843194670470029A8BF01
:100860007047401C490008BF20F00100704710B4D9
:10087000B0FA80FC00FA0CF050EA010404BF10BC8E
:10088000704749B1CCF1200421FA04F411FA0CF1BB
:1008900018BF012121430843A3EB0C01CB1D4FEAF4
:1008A00000614FEA102042BF002010BC704700EBEF
:1008B000C35010440029A4BF10BC7047401C49001D
:1008C00008BF20F0010010BC704710B5141E73F172
:1008D000000408DA401C41F1000192185B411A4300
:1008E00001D120F0010010BD2DE9F04D92469B464C
:1008F00011B1B1FA81F202E0B0FA80F220329046F2
:10090000FFF77BFF04460F4640EA0A0041EA0B016D
:1009100053465A46084313D0114653EA010019D0F2
:10092000C8F140025046FFF777FF05460E46504695
:1009300059464246FFF761FF084305D0012004E015
:1009400020463946BDE8F08D0020054346EAE076B2
:100950002C4337430A986305E40AA0EB0800002201
:10096000FD0A44EA47540A3002D500200146E9E76F
:10097000010510196941DDE9084500196941BDE823
:10098000F04DA2E770B521F0004303430CD0C1F352
:100990000A550024D5EB040564EB0403D617AD1A01
:1009A000B34102DB0020014670BD201841EB02512B
:1009B00070BDC1F30A52C1F3130140F2FF3341F499
:1009C00080119A4202DA00200146704740F2334318
:1009D0009A42A2F2334202DC5242FFF71DBFFFF7F8
:1009E0000CBF000030B5041E71F1000404DB4FF0B1
:1009F0000044404264EB0101141E73F1000405DB66
:100A00001C464FF00043524263EB0403994208BF77
:100A1000904230BD064C074D06E0E06840F001030F
:100A200094E8070098471034AC42F6D3FFF784FBF4
:100A3000F8500008185100082DE9F04D00231A461F
:100A40001B1A8A4103DB00200146BDE8F08DC1F38B
:100A50000A52C1F3130141F480154FF0000BD10786
:100A600002D100186D41521E0027044640F2FF11CA
:100A7000384601EB620A3E468046024600204FF4AB
:100A80008011FFF7C9FEC2197141BB1846EB010086
:100A9000B4EB030C75EB000C04D3E41A65EB000512
:100AA00017460E46241908F101006D41804634288E
:100AB000E3DDF91946EB0600091BA84103D24FF00C
:100AC000FF32134601E0002213461BEB070046EB02
:100AD0000A51BDE8F04DFFF7F8BE00002DE9F04FD8
:100AE00099B04FF00009002018901790169001203F
:100AF0001590149003F082FF01240AE0FE48005D87
:100B00002E2800D107E0FC48015D601E0EAA11549A
:100B1000641C142CF2DB00BF002418E0F648005DD2
:100B20002C2802D101201890641C189801280DD19E
:100B3000F148005D2E2802D14FF0000909E0EE488F
:100B4000005D11A901F8090009F10109641C142CC8
:100B5000E4DB00BF4FF000090A243AE00EA8005D74
:100B600030282EDB0EA8005D39282ADC4846FFF726
:100B700076FD02460B46CDE900010020DF4903F077
:100B800041FACDE904010EA9095DA1F13000FFF79A
:100B900066FDCDE90201DDE90423FFF771FCCDE933
:100BA00008011698FFF75BFDCDE90601DDE9082392
:100BB000FFF7BFFBCDE90A01FFF776FD169009F1BB
:100BC00001099DF838002D2802D14FF0FF30149014
:100BD000641E002CC2DA4FF000090A243AE011A882
:100BE000005D30282EDB11A8005D39282ADC48463C
:100BF000FFF735FD02460B46CDE900010020BF4955
:100C000003F000FACDE9040111A9095DA1F130005A
:100C1000FFF725FDCDE90201DDE90423FFF730FCF4
:100C2000CDE908011798FFF71AFDCDE90601DDE9C6
:100C30000823FFF77EFBCDE90A01FFF735FD17908A
:100C400009F101099DF844002D2802D14FF0FF3031
:100C50001590641E002CC2DA179915984843179016
:100C60001699149848431690A549A64A17981268F1
:100C700041F82200A449A34A1698126841F82200BC
:100C8000A0480068401C9F49086008460068052885
:100C90007ED100200860814636E000242EE098488E
:100CA00050F824100246601C52F8200081420DDDED
:100CB000104650F824000D901146601C51F8200099
:100CC00041F82400611C0D9842F821008E4850F82C
:100CD00024100246601C52F8200081420DDD1046AF
:100CE00050F824000C901146601C51F8200041F887
:100CF0002400611C0C9842F82100641CC9F1050015
:100D0000A042CCDC09F10109B9F1040FC5DB7C4834
:100D1000806817907C48806816907F2043425A2252
:100D200051420090179800F003FF82467F20434213
:100D30005A2251420090169800F0FAFE8346CAF1FA
:100D4000000000EB0B05CAF10000A0EB0B06CAF196
:100D5000000000EB0B07CAF10000A0EB0B084FF4FA
:100D60007A7043427F2251420090284600F0E0FE14
:100D700005464FF47A7043427F225142009030463C
:100D800000F0D6FE06464FF47A7043427F2200E020
:100D9000ADE051420090384600F0CAFE07464FF4DD
:100DA0007A7043427F2251420090404600F0C0FEDC
:100DB0008046B5F5967F03DA15F5967F00DD0025B0
:100DC000B6F5967F03DA16F5967F00DD0026B7F5B7
:100DD000967F03DA17F5967F00DD0027B8F5967F3A
:100DE00004DA18F5967F01DD4FF0000847480068E7
:100DF000854201DD4548056844480068864201DDBA
:100E00004248066841480068874201DD3F4807685C
:100E10003E480068804502DD3C48D0F800803B48F1
:100E200000684042854202DA384800684542374847
:100E300000684042864202DA34480068464233483D
:100E400000684042874202DA3048006847422F4833
:100E500000684042804503DA2C480068C0F1000871
:100E6000002D04DBA9B2012000F08EFE06E0002D6B
:100E700004DA684281B2002000F086FE002E04DB16
:100E8000B1B2012000F09EFE06E0002E04DA7042AE
:100E900081B2002000F096FE002F04DBB9B20120E1
:100EA00000F0B0FE06E0002F04DA784281B20020A4
:100EB00000F0A8FEB8F1000F05DB1FFA88F1012051
:100EC00000F044FE08E0B8F1000F05DAC8F10000B8
:100ED00081B2002000F03AFE14210948FFF74DF9D5
:100EE00014210948FFF749F9012002F083FF00208F
:100EF0000E900F9010900BE0D800002000002440CE
:100F00009C00002078000020B00000205800002045
:100F1000119012901390012002F06CFF19B0BDE8FF
:100F2000F08F00002DE9F04F85B03220049003903F
:100F30000290019003F062FDAF48007850281BD169
:100F4000AD484078303864214843AB49897830391E
:100F500001EB810100EB4101A748C078303808441B
:100F6000A649086008460168A5A002F059F9A348FF
:100F70000168A7A001F070FAA74800784C2815D1A5
:100F8000A548C0783038A4498978303901EB81010F
:100F900000EB41000490A048807930389E4949799F
:100FA000303901EB810100EB410003909B48007850
:100FB000522815D19948C078303898498978303905
:100FC00001EB810100EB41000290944880793038B8
:100FD00092494979303901EB810100EB41000190E0
:100FE0007F2043425A220A210090049800F0A0FD7D
:100FF00080467F2043425A220A210090039800F045
:1010000097FD81467F2043425A220A210090029890
:1010100000F08EFD82467F2043425A220A21009032
:10102000019800F085FD8346C9F100004044A0EB23
:101030000B0000EB0A04C9F10000A0EB0800A0EBD4
:101040000B00A0EB0A05C9F100004044A0EB0B0027
:10105000A0EB0A06C9F10000A0EB0800A0EB0B0012
:1010600000EB0A074FF47A7043427F22514200900E
:10107000204600F05DFD04464FF47A7043427F2223
:1010800051420090284600F053FD05464FF47A7017
:1010900043427F2251420090304600F049FD06460F
:1010A0004FF47A7043427F2251420090384600F05C
:1010B0003FFD0746C82C03DA14F1C80F00DD0024F9
:1010C000C82D03DA15F1C80F00DD0025C82E03DA9C
:1010D00016F1C80F00DD0026C82F03DA17F1C80F7C
:1010E00000DD002745480068844201DD434804686C
:1010F00042480068854201DD404805683F48006875
:10110000864201DD3D4806683C480068874201DDB3
:101110003A480768394800684042844202DA374852
:1011200000684442354800684042854202DA33484C
:1011300000684542314800684042864202DA2F4842
:10114000006846422D4800684042874202DA2B4838
:1011500000684742214632A002F062F8214633A0DF
:1011600002F05EF8214634A002F05AF8214635A07C
:1011700002F056F836A002F053F8002C04DBA1B2BE
:10118000012000F001FD06E0002C04DA604281B28B
:10119000002000F0F9FC002D04DBA9B2012000F0D2
:1011A00011FD06E0002D04DA684281B2002000F053
:1011B00009FD002E04DBB1B2012000F023FD06E0A2
:1011C000002E04DA704281B2002000F01BFD002FD7
:1011D00004DBB9B2012000F0B9FC06E0002F04DA0C
:1011E000784281B2002000F0B1FC0A2002F002FE39
:1011F00005B0BDE8F08F0000EC0000205800002092
:1012000070776D5F6C696D69743A25640900000040
:101210002A4725642A000000C4000020CE000020D8
:1012200070776D313A2564202009000070776D32A7
:101230003A2564202009000070776D333A25642038
:101240002009000070776D343A25642020090000E1
:101250000D0A000008B50121202001F023F801202B
:10126000ADF8000010208DF8030003208DF8020077
:101270006946044800F092FA0121024800F06DFB33
:1012800008BD00000014014010B5002004490860AA
:10129000C82002F0AFFD01200249C1F8800110BD55
:1012A000808122420080224210B500200649086059
:1012B000642002F09FFD01200449C1F880016420F0
:1012C00002F098FD10BD0000808122420080224281
:1012D00010B50E480078012802D1FFF723FE13E075
:1012E0000A480078022802D1FFF7F8FB0CE0074813
:1012F0000078032802D100F009FA05E003480078DD
:10130000042801D100F006FA10BD0000850000207D
:1013100000BFFEE710B504462146002000F016FC91
:101320002146002000F030FC2146002000F04AFC5D
:101330002146002000F066FC10BD10B50446214691
:10134000012000F003FC2146012000F01DFC214695
:10135000012000F037FC2146012000F053FC10BDB5
:1013600010B50021012000F0F1FB0021012000F068
:101370000BFC0021012000F025FC0021012000F0E1
:1013800041FC10BD10B504462146002000F0DEFBF4
:101390002146002000F0F8FB2146012000F012FC5D
:1013A0002146012000F02EFC10BD10B50446214658
:1013B000012000F0CBFB2146012000F0E5FB214697
:1013C000002000F0FFFB2146002000F01BFC10BDB8
:1013D00010B50021014801F07BF910BD0008004064
:1013E00010B5FFF775FF10BD1FB50121082000F0F3
:1013F00059FF0121084600F055FF0121194800F06E
:1014000059FA48208DF80F001020ADF80C00032089
:101410008DF80E0003A9144800F0C0F90421012042
:1014200000F09CF91020019001208DF80A000020A6
:101430008DF808000C208DF8090001A800F01CF9B7
:101440004FF4A06000F0EAFC0A208DF800000120B3
:101450008DF803008DF801008DF80200684600F059
:10146000A5FC1FBD00013000000C014010B5002498
:101470001548006820F0F00013490860084600682D
:1014800040F08000086004E0601CC4B2012002F05B
:10149000D7FC0E48006808B1642CF5DB642C01DB36
:1014A000012010BD002404E0601CC4B2012002F041
:1014B000C7FC0648006808B9642CF5DB642C01DB26
:1014C0000120EEE70020ECE70014014004812242F5
:1014D00008B50121202000F0E5FE0220ADF8000053
:1014E00010208DF8030003208DF80200694606489D
:1014F00000F054F90221044800F02FFA00F068F8D7
:10150000FFF7B4FF08BD00000014014010B500242F
:1015100004E0601CC4B2012002F092FC0D48006897
:1015200008B1642CF5DB002404E0601CC4B2012087
:1015300002F086FC0748006808B9642CF5DB282017
:1015400002F07EFC0348006808B1012010BD0020B5
:10155000FCE700000481224270B50024002506E06B
:101560006006040EFFF7D2FF0443681CC5B2082DC5
:10157000F6DB204670BD7CB505460E4600F028F827
:10158000FFF774FFF8B9002405E0FFF7E5FF0DF859
:101590000400601CC4B2052CF7DB9DF800009DF828
:1015A000011008449DF8021008449DF803100844F7
:1015B0009DF80410884208D19DF8000030709DF815
:1015C0000200287001E001207CBD0020FCE7000043
:1015D00010B50C48006820F0F0000A490860084681
:1015E000006840F0300008600020074908601420BF
:1015F00002F000FC01200549C1F884011E2002F020
:101600001FFC10BD00140140848122420080224250
:101610007047000010B5102000F01AF801280CD116
:101620001021064800F08EF920B905480068401CDA
:1016300003490860102000F005F810BD000C0140BF
:101640008000002001490860704700001404014038
:10165000014600200022074B1B6803EA0102054BEC
:1016600014331B680B4013B10AB1012000E00020C5
:101670007047000000040140002123498279002ABC
:101680003AD00A46126803689A430B461A600A1D4C
:10169000126803689A430B1D1A60027911440A68A4
:1016A00003681A430A60184A0832126803689A43AA
:1016B000154B08331A601A1D126803689A43124BBF
:1016C0000C331A604279102A0ED11A1F126803686F
:1016D0001A430D4B08331A601A1D126803681A4327
:1016E000094B0C331A600DE00749427911440A682E
:1016F00003681A430A6005E0027911440A68036826
:101700009A430A60704700000004014010B502F0DF
:10171000DBFA10BD10B500F043F904460C49204631
:10172000FFF710F804D84FF4C870FFF7F3FD0DE091
:1017300008492046FFF706F808D807492046FFF772
:101740000BF803D84FF4C870FFF7F7FD10BD000089
:10175000000020410000F0410000A04130B500220F
:101760008B071C0F0F2303FA04F20B4B8C1053F85A
:1017700024309343084C8D1044F8253023468C10B8
:1017800053F824308C07240F00FA04F42343024C4E
:101790008D1044F8253030BD080001402DE9F0419E
:1017A000024600250026002000230024002791F88F
:1017B00003C00CF00F0591F803C00CF0100CBCF145
:1017C000000F03D091F802C04CEA050591F800C063
:1017D000BCF1000F31D0146800202BE04FF0010C59
:1017E0000CFA00F3B1F800C00CEA03069E4220D1C7
:1017F00083004FF00F0C0CFA03F7BC4305FA03FC0F
:101800004CEA040491F803C0BCF1280F06D14FF054
:10181000010C0CFA00FCC2F814C00AE091F803C0F5
:10182000BCF1480F05D14FF0010C0CFA00FCC2F8D6
:1018300010C0401C0828D1D31460B1F800C0BCF11E
:10184000FF0F34DD546800202EE000F1080C4FF04B
:10185000010808FA0CF3B1F800C00CEA03069E4236
:1018600021D183004FF00F0C0CFA03F7BC4305FAAB
:1018700003FC4CEA040491F803C0BCF1280F05D125
:1018800000F1080C08FA0CF8C2F8148091F803C0B3
:10189000BCF1480F07D100F1080C4FF0010808FA1D
:1018A0000CF8C2F81080401C0828CED35460BDE864
:1018B000F0810000F0B50A46002300240021002535
:1018C00000F00046B6F1004F02D11D4EF16901E073
:1018D0001B4E7168C0F3034583B200F44016B6F5A1
:1018E000401F08D121F07061154E766826F07066B1
:1018F000134F7E6012E000F48016B6F5801F06D10B
:10190000032606FA05F4A14341F0706106E0460D96
:10191000360103FA06F6B14341F0706122B1460D7B
:10192000360103FA06F6314300F00046B6F1004FE7
:1019300002D1034EF16101E0014E7160F0BD000083
:10194000000001400246002093680B400BB10120CB
:1019500000E00020704741617047016170470AB1A3
:10196000016100E04161704710B500BF094800887F
:101970004FF47A7100FB01F4074800F0B9FF04440A
:101980000020054924310880322002F033FA204635
:1019900010BD00007C0000200008004000BFFEE7F2
:1019A0002DE9F84F0024A246A146A346012017497D
:1019B0000860142002F044FA00201549C1F8A00183
:1019C00000BF12487C3800680028FAD000F0C2FB43
:1019D00000BF0E487C3800680128FAD0FFF7F8FCF9
:1019E000FFF7C2FF04462046FEF734FE0090FEF7E4
:1019F0007AFE07460022074BFEF7B4FD0546FEF7C8
:101A000085FE81464846BDE8F88F0000A08121424E
:101A10000080214200804D401FB50121082000F0C8
:101A200041FC0121042000F01DFC4FF48070ADF852
:101A30000C0003208DF80E0010208DF80F0003A974
:101A40001E48FFF7ABFE4FF480711C48FFF783FF81
:101A50004FF40070ADF80C0004208DF80F0003A9BE
:101A60001648FFF79BFE4FF400711448FFF773FF11
:101A7000134800F049FE684601F020F940F2E730D3
:101A8000ADF804004720ADF800000020ADF80600D6
:101A9000ADF8020069460A4801F0BEF80121084885
:101AA00000F010FE01221146054800F035FF00F05D
:101AB00009F80021024800F00BFE1FBD000C014098
:101AC0000008004008B51E208DF8000000208DF8A9
:101AD00001008DF8020001208DF80300684600F037
:101AE00065F908BD08B50121102000F0DBFB2020BE
:101AF000ADF8000010208DF8030003208DF80200DF
:101B000069460948FFF74AFE20210748FFF725FFED
:101B10002020ADF8000069460448FFF73FFE202171
:101B20000248FFF71AFF08BD000C014000180140F1
:101B300070B50446049D601AEE1A7043561A90FB65
:101B4000F6F0184470BD00BFFEE7000070B5044613
:101B50000D46B5F57A7F01DB4FF47A7544B100216B
:101B6000084801F054F82946064801F04EF808E00C
:101B70003CB90021034801F048F82946014801F02A
:101B800046F870BD0004004070B504460D46B5F53A
:101B90007A7F01DB4FF47A7544B10021084801F0E7
:101BA00032F82946064801F02CF808E03CB900213B
:101BB000034801F026F82946014801F024F870BDD9
:101BC0000004004070B504460D46B5F57A7F01DB90
:101BD0004FF47A7554B100214FF0804001F015F8B0
:101BE00029464FF0804001F012F80AE04CB900217C
:101BF0004FF0804001F00BF829464FF0804001F093
:101C000004F870BD70B504460D46B5F57A7F01DB6A
:101C10004FF47A7554B100214FF0804000F0F1FF8D
:101C200029464FF0804000F0EEFF0AE04CB9002159
:101C30004FF0804000F0E7FF29464FF0804000F071
:101C4000E0FF70BD00B589B00121042000F02AFB3F
:101C50000121082000F026FB0121084600F002FBCC
:101C60000121022000F0FEFA18208DF82300032045
:101C7000ADF820008DF8220008A94848FFF78EFD36
:101C800018208DF82300CF20ADF8200003208DF818
:101C9000220008A94248FFF781FD424800F045FEB6
:101CA0004FF0804000F041FE05A801F007F8002049
:101CB000ADF81A00ADF8160040F2CF20ADF81400D0
:101CC00040F2E730ADF8180000208DF81C0005A99F
:101CD000344800F0A1FF05A94FF0804000F09CFFC0
:101CE00001A800F084FF6020ADF804000020ADF8EA
:101CF0000C000120ADF806004FF47A70ADF80A0030
:101D000001A9284800F018FE01A9264800F06AFE43
:101D100001A9244800F0C6FE01A9224800F01CFFDA
:101D200001A94FF0804000F007FE01A94FF080406C
:101D300000F058FE01A94FF0804000F0B3FE01A969
:101D40004FF0804000F008FF0821164800F040FEE8
:101D50000821144800F098FE0821124800F0F2FE15
:101D60000821104800F036FF0821C80600F030FEB8
:101D70000821C80600F088FE0821C80600F0E2FE2F
:101D80000821C80600F026FF0121064800F0A0FC4B
:101D90000121880700F09CFC09B000BD000C014047
:101DA00000080140000400407047000070B50021A9
:101DB00000230F22C47804B3154C246804F4E064B3
:101DC000C4F5E064210AC1F10403CA40447804FA6E
:101DD00003F184781440214309010E4C0678A15583
:101DE000047804F01F050124AC4005786D11AD00A6
:101DF00005F1E025C5F8004109E0047804F01F056D
:101E00000124AC40044D0678761145F8264070BD9B
:101E10000CED00E000E400E080E100E00249014355
:101E2000024A1160704700000000FA050CED00E066
:101E300070B500240EE00021204600F0EAF80025ED
:101E400004E0002000F076F9681CC5B2802DF8DBB4
:101E5000601CC4B2082CEEDB70BD000008B5012187
:101E6000082000F01FFA14208DF8030003208DF8DD
:101E700002004020ADF8000069460A48FFF78EFCDA
:101E80008020ADF8000069460648FFF787FC012274
:101E900040210448FFF763FD012280210148FFF73C
:101EA0005EFD08BD000C014070B50546002413E03E
:101EB0008020204100EA050280210E48FFF74FFDF7
:101EC000012240210B48FFF74AFD0022402109482A
:101ED000FFF745FD601CC4B2082CE9DB012240215C
:101EE0000448FFF73CFD002240210248FFF737FD80
:101EF00070BD0000000C014010B50122802109488E
:101F0000FFF72DFD012240210648FFF728FD0022A2
:101F100080210448FFF723FD002240210148FFF7FC
:101F20001EFD10BD000C014010B5002280210748A5
:101F3000FFF715FD012240210448FFF710FD0122A3
:101F400080210248FFF70BFD10BD0000000C01408E
:101F500070B5002406E0002500E06D1CB5F57A7F21
:101F6000FBD3641CB4F57A7FF5D3FFF777FFAE207F
:101F700000F0D0F8D52000F0CDF8802000F0CAF8AD
:101F8000A82000F0C7F83F2000F0C4F8D32000F0EC
:101F9000C1F8002000F0BEF8402000F0BBF8A120FE
:101FA00000F0B8F8C82000F0B5F8DA2000F0B2F878
:101FB000122000F0AFF8812000F0ACF8CF2000F044
:101FC000A9F8D92000F0A6F8F12000F0A3F8DB2052
:101FD00000F0A0F8302000F09DF8A42000F09AF85E
:101FE000A62000F097F88D2000F094F8142000F05F
:101FF00091F8AF2000F08EF8FFF71AFF70BD10B512
:102000000246012000E050430B1EA1F10101FAD16C
:1020100010BD70B505460C4645F0B00000F07AF8EA
:10202000102141EA141000F075F804F00F0000F0E0
:1020300071F870BD2DE9F04105460E461746721E37
:10204000D206110E6A1E5206100EFFF7E2FF0024A0
:1020500009E0A7F12001134A02EB0111085D00F02D
:1020600069F8601CC4B2082CF3DB721ED206110E94
:102070006A1E012303EB4202D0B2FFF7CAFF00241D
:102080000BE0A7F12001074A02EB011204F108015D
:10209000505C00F04FF8601CC4B2082CF1DBBDE8C6
:1020A000F0810000784A00082DE9F04780460E468E
:1020B00017461D46002415E0281B411E0A20FFF785
:1020C0009EFFB7FBF0F00A21B0FBF1F201FB12001A
:1020D00000F130093019C1B24A464046FFF7AAFF65
:1020E000601CC4B2AC42E7DBBDE8F0872DE9F041EB
:1020F00007460E461546002407E02A5D3019C1B296
:102100003846FFF797FF601CC4B2285D0028F4D161
:10211000BDE8F08110B50446FFF7EEFE7820FFF72A
:10212000C3FE0020FFF7C0FE2046FFF7BDFEFFF70D
:10213000FBFE10BD10B50446FFF7DEFE7820FFF76A
:10214000B3FE4020FFF7B0FE2046FFF7ADFEFFF7DD
:10215000EBFE10BD10B50021054800F05BFD00202E
:10216000044908800121024800F0B2FA10BD0000C5
:10217000000800407C00002000B589B00121C802A1
:1021800000F090F80121042000F08CF818208DF860
:1021900023004FF48070ADF8200003208DF822005A
:1021A00008A92848FFF7FAFA274800F0BEFB05A85F
:1021B00000F084FD0020ADF81A00ADF8160044F6DA
:1021C0001F60ADF818004720ADF8140000208DF80E
:1021D0001C0005A91C4800F01FFD01211A4800F051
:1021E00071FA01221146184800F096FB19208DF86B
:1021F000100001208DF813008DF8110002208DF8D9
:10220000120004A8FFF7D2FD684600F0F0FC602041
:10221000ADF800000020ADF808000120ADF8020084
:102220000020ADF806006946074800F085FB012153
:10223000054800F04DFA0121034800F055FA09B0B5
:1022400000BD000000080140002C014010B504460C
:102250002146024800F0D5FC10BD0000002C0140D2
:102260007047000029B1064AD2690243044BDA6183
:1022700004E0034AD2698243014BDA6170470000EF
:102280000010024029B1064A12690243044B1A6148
:1022900004E0034A12698243014B1A61704700004F
:1022A0000010024029B1064A92690243044B9A6128
:1022B00004E0034A92698243014B9A61704700002F
:1022C0000010024029B1064AD2680243044BDA608A
:1022D00004E0034AD2688243014BDA607047000091
:1022E0000010024030B500210022002400232D4DB3
:1022F0006D6805F00C0121B1042905D0082923D10E
:1023000005E0294D056022E0274D05601FE0254DC1
:102310006D6805F47012234D6D6805F48034022554
:1023200005EB92421CB9214D554305600BE01D4D54
:102330006D6805F400351DB11C4D5543056002E084
:10234000194D5543056002E0174D056000BF00BF01
:10235000144D6D6805F0F0010909154D6B5C0568B9
:10236000DD4045600F4D6D6805F4E061090A104DD0
:102370006B5C4568DD4085600A4D6D6805F4605111
:10238000C90A0B4D6B5C4568DD40C560054D6D6845
:1023900005F44041890B074D6B5CC568B5FBF3F54F
:1023A000056130BD0010024000127A0000093D00B6
:1023B00034000020440000207047000010B586B0B3
:1023C000044601210820FFF76DFF01218804FFF773
:1023D00049FF4FF48060ADF8140003208DF816001B
:1023E00018208DF8170005A91948FFF7D7F94FF401
:1023F0000060ADF8140004208DF8170005A91448FA
:10240000FFF7CCF927208DF8000003208DF801009C
:102410008DF8020001208DF803006846FFF7C6FC26
:1024200001940020ADF80800ADF80A00ADF80C00EA
:10243000ADF810000C20ADF80E0001A9054800F021
:102440000FFE0121034800F0A3FD06B010BD0000FF
:10245000000C0140004800400FB400B59BB01DA81F
:10246000019002A8019A1C9900F0EAFE0020019058
:1024700002A800F013F81BB05DF814FB10B5044679
:102480002146054800F05DFE00BF8021024800F0B3
:102490008BFD0028F9D010BD0048004070B50446FF
:1024A000002504E0605DFFF7E9FF681CC5B2605DD0
:1024B0000028F7D170BD10B5FFF75EFE10BD00001B
:1024C0002DE9F04104460A492046FDF7F4FE804616
:1024D0000849FDF7BEFE07460749FDF762FE0646BE
:1024E000FEF7CEF885B22846FFF7B0FEBDE8F081D2
:1024F000000034430000FA440000FA4310B500F035
:1025000001F810BD0CB50020019000903348006820
:1025100040F480303149086000BF3048006800F462
:10252000003000900198401C0190009818B9019863
:10253000B0F5A06FF1D12948006800F4003010B167
:102540000120009001E0002000900098012843D174
:102550002348006840F010002149086008460068E0
:1025600020F0030008600846006840F002000860A0
:102570001A4840681949486008464068486008465B
:10258000406840F4806048600846406820F47C1051
:1025900048600846406840F4E81048600846006813
:1025A00040F08070086000BF0C48006800F00070C8
:1025B0000028F9D00948406820F003000749486026
:1025C0000846406840F00200486000BF0348406889
:1025D00000F00C000828F9D10CBD000000100240EA
:1025E00000200240042808D14FF0E021096941F0A1
:1025F00004014FF0E022116107E04FF0E02109698A
:1026000021F004014FF0E022116170477047000093
:1026100010B51348006840F00100114908600846F1
:102620004068104908400E494860084600680E4955
:1026300008400B4908600846006820F480200860C4
:102640000846406820F4FE0048604FF41F00886090
:10265000FFF754FF4FF000600449086010BD000010
:10266000001002400000FFF8FFFFF6FE08ED00E05A
:1026700010B50121074800F03EF9012808D10648AD
:102680000068401C044908600121024800F01DF860
:1026900010BD0000002C01401800002010B50121E1
:1026A000064800F028F940B10121044800F00DF877
:1026B00003480088401C0249088010BD0008004003
:1026C0007C000020CA4302827047CA4302827047DE
:1026D00021B1028842F00102028004E002884FF634
:1026E000FE731A400280704731B1B0F8442042F4C2
:1026F0000042A0F8442005E0B0F84420C2F30E02E6
:10270000A0F844207047000010B504466848844291
:1027100008D10121C014FFF7D5FD0021E014FFF717
:10272000D1FDC4E0B4F1804F08D101210846FFF784
:10273000A9FD00210120FFF7A5FDB8E05D48844216
:1027400008D101210220FFF79DFD00210220FFF7A3
:1027500099FDACE05848844208D101210420FFF7DC
:1027600091FD00210420FFF78DFDA0E05348844235
:1027700008D101210820FFF785FD00210820FFF77F
:1027800081FD94E04E48844208D101211020FFF7DA
:1027900079FD00211020FFF775FD88E0494884424B
:1027A00008D101212020FFF76DFD00212020FFF737
:1027B00069FD7CE04448844208D101214014FFF7C0
:1027C00081FD00216014FFF77DFD70E03F488442E9
:1027D00009D10121C804FFF775FD00214FF4002045
:1027E000FFF770FD63E03A48844209D101210805F2
:1027F000FFF768FD00214FF48010FFF763FD56E0FE
:102800003448844209D101214805FFF75BFD0021CE
:102810004FF40010FFF756FD49E02F48844208D1DD
:1028200001214020FFF72EFD00214020FFF72AFD67
:102830003DE02A48844208D101218020FFF722FD93
:1028400000218020FFF71EFD31E02548844208D199
:1028500001218015FFF716FD0021A015FFF712FDDD
:1028600025E02048844209D101210804FFF72AFD10
:1028700000214FF48030FFF725FD18E01A4884420C
:1028800009D101214804FFF71DFD00214FF400305C
:10289000FFF718FD0BE01548844208D10121880498
:1028A000FFF710FD00214FF48020FFF70BFD10BD56
:1028B000002C01400004004000080040000C0040D3
:1028C000001000400014004000340140004C014062
:1028D000005001400054014000180040001C00401E
:1028E00000200040004001400044014000480140F9
:1028F0000146888C704730B5024600200023002432
:10290000158A05EA0103958905EA010413B10CB1A2
:10291000012000E0002030BD1AB183890B43838180
:1029200002E083898B438381704701894FF6F872F7
:10293000114001817047000070B50024002200237F
:10294000058C4FF6FE7635400584028C8388048B17
:102950004FF68F752C40B51E2C400D882C43751EEC
:102960002A400D892A434D882A43144DA8420BD092
:10297000134DA84208D0134DA84205D0124DA842CD
:1029800002D0124DA84213D14FF6F7752A404D8957
:102990002A434FF6FB752A408D882A434FF6FF6580
:1029A0002B404FF6FF552B408D892B43CD892B4370
:1029B00083800483CD888586028470BD002C01400D
:1029C0000034014000400140004401400048014003
:1029D0000A460021018B4FF6F7731940114301831A
:1029E0007047000070B5002400220023058C4FF6CC
:1029F000EF7635400584028C8388048B48F6FF759A
:102A00002C404FF6FF452C400D884FF6FF7606EA26
:102A100005252C434FF6DF752A400D8906EA05157A
:102A20002A434D8806EA05152A43154DA84202D0CF
:102A3000144DA8421DD14FF67F752A404D894FF69F
:102A4000FF7606EA05152A434FF6BF752A408D88A2
:102A500006EA05152A434FF6FF352B404FF2FF7566
:102A60002B408D8906EA85052B43CD8906EA85052D
:102A70002B4383800483CD880587028470BD0000CA
:102A8000002C0140003401400A460021018B4FF226
:102A9000FF7319404FF6FF7303EA022319430183C2
:102AA0007047000070B5002400220023058C4FF60B
:102AB000FF6635400584028C8388848B4FF68F75C2
:102AC0002C404FF6FC752C400D882C434FF6FF55DB
:102AD0002A400D894FF6FF7606EA05252A434D88E0
:102AE00006EA05252A43154DA84202D0144DA842F6
:102AF0001DD14FF2FF752A404D894FF6FF7606EA49
:102B000005252A434FF6FF352A408D8806EA05251C
:102B10002A434EF6FF752B404DF6FF752B408D89ED
:102B200006EA05152B43CD8906EA05152B4383805C
:102B30008483CD888587028470BD0000002C01400D
:102B4000003401400A460021818B4FF6F77319408B
:102B5000114381837047000070B5002200230024D8
:102B6000058C4EF6FF7635400584038C8488828B75
:102B700048F6FF752A404FF6FF452A400D884FF66C
:102B8000FF7606EA05252A434DF6FF752B400D8991
:102B900006EA05352B434D8806EA05352B430B4DD8
:102BA000A84202D00A4DA84208D14BF6FF752C402E
:102BB0008D894FF6FF7606EA85152C438480828343
:102BC000CD88A0F84050038470BD0000002C014067
:102BD000003401400A460021818B4FF2FF731940F7
:102BE0004FF6FF7303EA02231943818370470021E4
:102BF000018041808180C180018141818181C181C9
:102C00007047818670470187704781877047A0F8B9
:102C10004010704781847047002202881D4B984203
:102C20000ED01D4B98420BD0B0F1804F08D01B4BFB
:102C3000984205D01A4B984202D01A4B984204D1C0
:102C40004FF68F731A404B881A43174B984207D0A0
:102C5000164B984204D04FF6FF431A40CB881A43D4
:102C600002808B8883850B8803850A4B98420BD0A2
:102C7000094B984208D00E4B984205D00D4B984214
:102C800002D00D4B984201D10B7A03860123838237
:102C900070470000002C0140003401400004004057
:102CA00000080040000C00400010004000140040EC
:102CB0000040014000440140004801404FF6FF71D0
:102CC000818000210180C180418001727047000035
:102CD00010B586B0044601210420FFF7E3FA012174
:102CE0008803FFF7DFFA4FF40070ADF814000320FB
:102CF0008DF8160018208DF8170005A91248FEF768
:102D00004DFD4FF48060ADF8140004208DF81700DD
:102D100005A90D48FEF742FD01940020ADF808001A
:102D2000ADF80A00ADF80C00ADF810000C20ADF8BD
:102D30000E0001A9054800F093F90121034800F0B5
:102D400027F906B010BD000000080140003801401E
:102D500010B540F22551794800F033F900287DD0B4
:102D6000764800F0E9F9C4B2612C05D1012074491C
:102D70000870FEF799FA2EE0622C05D10220704906
:102D80000870FEF791FA26E0632C05D103206C4908
:102D90000870FEF789FA1EE0642C05D1042068490A
:102DA0000870FEF781FA16E0652C05D1052064490C
:102DB0000870FEF779FA0EE0662C05D1062060490E
:102DC0000870FEF771FA06E0672C04D107205C4911
:102DD0000870FEF769FA5A48007802287ED04C2C19
:102DE00002D101205749087056480078012822D1A5
:102DF000554856490978445454480078401C534972
:102E000008702A2C17D15248007858B9514800212F
:102E10000160416001814C480160416001810120F5
:102E20004B49087048494B48FDF7B2F90020454925
:102E3000087046490870522C02D10120464908709A
:102E400045480078012824D144484549097844542C
:102E500043480078401C4249087000E047E02A2CB3
:102E600017D14048007858B93F48002101604160BF
:102E700001813A48016041600181012039490870AF
:102E800036493948FDF784F9002033490870344940
:102E90000870502C02D10120344908703348007862
:102EA00001284AD1324833490978445431480078DE
:102EB000401C304908702A2C3FD12F48007858B95F
:102EC0002E48002101604160018129480160416074
:102ED0000181012028490870254900E008E02748C1
:102EE000FDF756F90020214908702249087024E0B6
:102EF000412C0AD101202249087014212148FDF7F4
:102F00003CF914212048FDF738F91D4800780128C4
:102F100013D11D481D49097844541C480078401CB1
:102F20001A4908702A2C08D117491648FDF730F9BC
:102F30000020134908701549087010BD0048004072
:102F40008500002086000020F60000208E00002072
:102F50008B000020C400002087000020000100201A
:102F60008F0000208C000020CE0000208800002070
:102F70001E010020910000208D000020EC000020A8
:102F800089000020D80000200A01002090000020C5
:102F900021B1828942F40052828104E082894DF697
:102FA000FF731A408281704702460020B1F5007F0E
:102FB00000D100BF13880B400BB1012000E00020BE
:102FC000704770B50246002400230025002040F61B
:102FD0006A16B14200D100BFC1F3421501F01F03D0
:102FE000012606FA03F3012D02D19689334006E04B
:102FF000022D02D1168A334001E0968A33400C122A
:10300000012606FA04F41688344013B10CB10120ED
:1030100000E0002070BDF0B5034600240026002526
:10302000002040F66A17B94200D100BF1846C1F32C
:10303000421401F01F06012707FA06F5012C01D101
:103040000C3004E0022C01D1103000E014301AB131
:1030500007682F43076002E00768AF430760F0BDD1
:103060002DE9F04786B005460E460024A24600BF73
:10307000A1460027B08900B100BF2F462C8A4CF62C
:10308000FF700440F08804432C82AC894EF6F310A4
:103090000440B08831890843718908430443AC81F6
:1030A000AC8A4FF6FF400440B0890443AC8201A8CB
:1030B000FFF718F91F48874202D1DDF810A001E0A0
:1030C000DDF80CA0A88900F4004040B10AEBCA006A
:1030D00000EB0A1031684900B0FBF1F807E00AEB99
:1030E000CA0000EB0A1031688900B0FBF1F86420D7
:1030F000B8FBF0F004012009642101FB1089A889C4
:1031000000F4004040B1322000EBC900B0FBF1F008
:1031100000F00700044308E0322000EB09106421AE
:10312000B0FBF1F000F00F0004432C8106B0BDE8C5
:10313000F08700000038014001468888C0F308008D
:103140007047C1F308028280704700BFFEE70000AD
:1031500070B5002556E04FE02B48FFF7EDFFC4B2F5
:10316000092D43D2DFE805F0050B11171D23292F88
:103170003500432C01D1012500E000253BE04F2C18
:1031800001D1022500E0002535E04E2C01D10325B8
:1031900000E000252FE04E2C01D1042500E00025A1
:1031A00029E0452C01D1052500E0002523E0432C32
:1031B00001D1062500E000251DE0542C01D1072592
:1031C00000E0002517E0452C01D1082500E000258E
:1031D00011E0442C08D1012240F225510A48FFF7A2
:1031E0001AFFFEF761F870BD002504E0002507A076
:1031F00000F016F800BF00BF20210348FFF7D4FEFF
:103200000028A9D1A7E7000000480040CEB4C3FCC5
:10321000D6D0434F4E4E45435445440D0A0000005E
:103220000FB4054B10B503A9044A029800F07CF9CD
:1032300010BC5DF814FB00008D3E000894000020D7
:1032400037B514460846064B6A46214600F06CF92D
:1032500004466946002000F0EAFC20463EBD00001E
:103260002F3C0008490050EAC12018BF04204A0D35
:1032700018BF40F0010040F2FF72B2EB515F08BF8F
:1032800040F00200012808BF052070472DE9F041F9
:103290004F1E00EBC7010446D1E9000115461E464A
:1032A00037F006020DD02A463346FDF7E9F87F1EB7
:1032B00004EBC703D3E90023FDF73BF837F0060220
:1032C000F1D1022F25D0042F13D0062F18BFBDE84F
:1032D000F0812A463346FDF7D3F8D4E90A23FDF7F7
:1032E00028F82A463346FDF7CBF8D4E90823FDF742
:1032F00020F82A463346FDF7C3F8D4E90623FDF744
:1033000018F82A463346FDF7BBF8D4E90423FDF745
:1033100010F82A463346FDF7B3F8D4E90223FDF747
:1033200008F82A463346FDF7ABF8D4E90023BDE898
:10333000F041FCF7FEBF0000002213461046014991
:10334000FDF710B90000F03FFCF7F3BF0022134671
:1033500010461146FDF706B940F2013200204FF049
:10336000E041FDF70FBB0000024A00201107FDF706
:1033700009BB000001FDFFFF02E008C8121F08C1E1
:10338000002AFAD170477047002001E001C1121FE6
:10339000002AFBD170470000014908607047000017
:1033A000980000202DE9FF5F82B00021DDE90430A4
:1033B000020DDDF840B0034318D044F61050A2F2DD
:1033C000FF3242431514119801281FD0A5EB0B00C2
:1033D000401C5FEA000A4FF000064E4FDFF83891BC
:1033E000B046504615D5CAF1000413E011980124E7
:1033F0004AA3012801D16FEA0B010298119AC0E992
:103400000031C0E9024206B0BDE8F09FCBF10000F8
:10341000DFE704460021404A491842EB0450CDE959
:10342000001012E0E00707D032463B4640464946CE
:10343000FDF726F88046894632463B461046194637
:10344000FDF71EF806460F466410002CEAD1DDE9B0
:103450000401DDE90023BAF1000F06DAFDF710F8E8
:1034600042464B46FDF70CF805E0FDF77BF8424677
:103470004B46FDF777F804460E460022284BFDF731
:10348000B1FA03D84FF0FF30014607E00022254B88
:1034900020463146FCF74DFFFDF78BFA102409E07A
:1034A000002C0ADB0A220023FDF776F9039B303259
:1034B0001A55641E50EA0102F2D1641C039AC4F149
:1034C00011031444119A012A03D0012208430DD19B
:1034D0000AE0084304D000204FF0110B119072E76E
:1034E000A3EB0B056D1E0DE05B4504DD4FF0000204
:1034F00005F1010504E003DA4FF00002A5F1010532
:10350000002AECD002981199C0E90231C0E90045C7
:1035100079E70000000014400000F03F3000000098
:103520000000F0430000E03F2DE9FF4F95B09A46C0
:10353000884606460025EEE1252877D10024274657
:10354000F94A0121039400E0044316F8013F203BAF
:1035500001FA03F01042F7D130782A2811D06FF029
:103560002F033078A0F13002092A16D8039A44F0CC
:10357000020402EB820203EB42021044761C039029
:10358000EFE758F8042B0392002A03DA504244F480
:103590000054039044F00204761C30782E2816D193
:1035A00016F8010F44F004042A280DD06FF02F0202
:1035B0003078A0F13003092B09D807EB870302EB21
:1035C0004303C718761CF3E758F8047B761C307861
:1035D0006C280FD006DC4C2817D068280DD06A283C
:1035E00014D104E0742810D07A280FD10DE044F4EF
:1035F00000140AE044F4801401E044F440147278AA
:10360000824202D104F58014761C761C307866283C
:103610000BD013DC582877D009DC002875D045285A
:10362000F6D04628F4D047281AD193E118E0632851
:1036300035D0642879D0652812D18BE1702873D0F9
:1036400008DC6728F1D069286FD06E280DD06F286C
:1036500006D1ACE073282CD0752874D0782853D0CC
:103660005246179990476D1C54E1C4F3025002284A
:1036700009D003280DD0D8F8001004280DD00D6013
:1036800008F1040846E1D8F80010EA17C1E9005231
:10369000F6E7D8F800100D80F2E70D70F0E718F8A3
:1036A000041B8DF8001000208DF80100EB4601206E
:1036B00003E058F804BB4FF0FF3061074FF0000102
:1036C00002D40DE009F101018946B9420FDA8145C2
:1036D000F8DB1BF809100029F4D108E009F1010119
:1036E00089468142FADB1BF809100029F6D10398BC
:1036F0005346A0EB090721463846179A00F080FA96
:10370000284400EB090507E044E008E10DE01BF860
:10371000010B524617999047B9F10109F7D2534668
:1037200021463846179AF2E039E00A21C4F30252E2
:103730004FF0000B0091022A06D058F8040BC11775
:10374000032A09D00AE023E008F1070020F007026D
:10375000F2E80201904605E000B2C117042A01D147
:1037600040B2C117002906DA0A460021404261EB47
:1037700002012D2202E0220504D52B228DF804201F
:10378000012203E0E20701D02022F7E7914657E04B
:103790000A2100E010214FF0000B00910BE01021F6
:1037A0004FF0000B44F004040827009103E00820C8
:1037B0004FF0000B0090C4F30252022A05D058F8D3
:1037C000040B0021032A08D008E008F1070020F0CC
:1037D0000702F2E80201904603E080B2042A00D119
:1037E000C0B24FF0000922072AD53278702A07D0DC
:1037F000DDF800C08CF0100C5CEA0B0C05D00EE07C
:1038000040228DF80420012208E050EA010306D08E
:1038100030238DF804308DF8052002229146009B5C
:1038200083F0080353EA0B030AD150EA010201D1E5
:10383000620705D530228DF804204FF001097F1E64
:103840003278582A04D039A20C920CAA02920BE0CA
:103850003BA2F9E75B46009AFCF79EFF0C9B9B5C42
:10386000029A521E0292137050EA0102F2D102989B
:1038700004A9081A00F1200B600702D524F4803453
:1038800000E001275F4502DDA7EB0B0000E0002010
:1038900000EB0B01009003984944401A0390E003A9
:1038A00006D453462146179A039800F0A9F9054417
:1038B000002706E001A85246C05D179990476D1C8D
:1038C0007F1C4F45F6DBE0030CD553462146179A83
:1038D000039800F095F9054404E03020524617990A
:1038E00090476D1C0099481E00900029F5DC08E007
:1038F0000298029952460078491C02911799904704
:103900006D1CBBF10001ABF1010BF1DC5BE100F0E0
:1039100065F90544761C307800287FF40DAE19B0A7
:103920002846BDE8F08F000009280100303132330D
:1039300034353637383961626364656600000000EB
:1039400030313233343536373839414243444546D5
:1039500000000000600700D4062708F1070020F0EF
:103960000700F0E80223804603F0004C5FEA0C00F9
:1039700001D097A009E0200501D596A005E0E00759
:1039800001D095A001E0AFF24C001390307823F005
:10399000004365280CD006DC452809D046281DD0F8
:1039A00047287FD13BE0662818D067287AD136E0D7
:1039B0000021112F01DB112000E0781CCDE900016E
:1039C00004A90CA8FFF7EEFCDDE90D010C9A4FF0FD
:1039D000000B07F10109109200914EE04FF00040FA
:1039E0000097CDE9011004A90CA8FFF7DBFCDDE985
:1039F0000D020C9B0F994FF0000B91461093009213
:103A000011B9791C00EB0109B7EB090003D4C0F12F
:103A1000FF3B07F10109A9EB0700019042E0012FEC
:103A200000DA01270021112F01DD112000E03846C6
:103A3000CDE9000104A90CA8FFF7B4FCDDE90D01F4
:103A40000C9A00914FF0000BB946109221070FD449
:103A5000009A4A4503DA914601E0A9F10109B9F15A
:103A6000010F05DD109AA9F10101515C3029F4D054
:103A7000B84202DA10F1040F03DA0121CDE9011096
:103A800010E0002803DC8344A9EB000102E0411CA4
:103A9000494500DD8946A0EB0B00401C01904FF02A
:103AA00000400290200705D40198484502DB4FF002
:103AB000FF30019000208DF84B0002980DF14B076C
:103AC000B0F1004F25D002200C902B200D900298D1
:103AD00000280CDA404202902D200D9007E00A21C8
:103AE0000298FCF743FE3031029007F8011D0C9953
:103AF000481E0C900029F2DC02980028EFD1791EB4
:103B00000D980870307800F0200040F0450007F86C
:103B1000020D11A8C01BC01D02901398007800B1BF
:103B2000012000EB0901019801EBE07102980144CA
:103B30000398401A401E0390E00306D453462146E2
:103B4000179A039800F05CF805441398007818B1B0
:103B50005246179990476D1CE00323D553462146E2
:103B6000179A039800F04CF805441BE0BBF1000FD6
:103B700007DB0098584504DD1098179910F80B00E2
:103B800001E0179930205246904701980BF1010B44
:103B9000401E05F10105019004D12E2052461799CF
:103BA00090476D1CB9F10001A9F10109DEDC05E0C7
:103BB00017F8010B5246179990476D1C0299481E41
:103BC00002900029F4DC53462146179A03989EE69A
:103BD0002D0000002B000000200000002DE9F04126
:103BE000044600251E461746880404D405E03946DD
:103BF0002020B0476D1C641EF9D52846BDE8F08131
:103C00002DE9F041044600251E469046C80301D523
:103C1000302700E02027880404D505E041463846D7
:103C2000B0476D1C641EF9D52846BDE8F0810A68CE
:103C3000531C0B601070704770B51B480068322829
:103C400031D100201849086018480068FCF7F9FCD9
:103C5000044617480068FCF7F4FC05462146FCF7CB
:103C60002AFB144908601448016812480068FCF7F0
:103C7000F0FA1249086000200D4908600D480068FC
:103C8000FCF7FEFC04460223224606210320FEF731
:103C90000BFA0A480068FCF726FD044622460B464C
:103CA00007A0FEF7D9FB70BD18000020040000201B
:103CB00080000020080000200C00002014000020DC
:103CC0002A44252E32662A0010B500F097FEFDF733
:103CD00067FE3149086031492F480068FCF73CFD18
:103CE00008D24FF4C870FDF728FB4FF4C87000F0FD
:103CF00081F84CE02A4928480068FCF723FD08D2E7
:103D00004FF4C870FDF706FB4FF4C87000F072F86E
:103D10003DE0FDF725FB00F061FE01202149087020
:103D20004FF4967000F066F8FDF73AFE1E49086001
:103D300000F074FE02201B4908704FF4967000F0EA
:103D400059F8FDF72DFE1949086008460168164824
:103D50000068FCF7F7FC09D24FF4C870FDF725FBAB
:103D60004FF47A7000F046F8FDF7FAFA0E48016851
:103D70000E480068FCF7E6FC09D24FF4C870FDF766
:103D800001FB4FF47A7000F035F8FDF7E9FA3220C4
:103D900000F030F810BD00005C00002000000C4274
:103DA000000070417E0000206000002064000020C0
:103DB00010B56FF00400FEF715FC0A4800680A49C8
:103DC000B0FBF1F0094908700846007800EB4001AB
:103DD000C1EBC0104FF6FF7101EAC0000449088032
:103DE00010BD00001C00002000127A0030000020EE
:103DF000320000200146114A12884A434FF0E02366
:103E00005A6100229A611A46126942F001021A614F
:103E100000BF4FF0E022106900F001021AB100F477
:103E20008032002AF5D04FF0E022126922F0010220
:103E30004FF0E0231A6100229A617047320000209F
:103E40000146114A12784A434FF0E0235A6100229A
:103E50009A611A46126942F001021A6100BF4FF0DE
:103E6000E022106900F001021AB100F48032002A49
:103E7000F5D04FF0E022126922F001024FF0E0236A
:103E80001A6100229A6170473000002070B5044624
:103E90000D46E1B20548FFF754F900BF8021034801
:103EA000FFF782F80128F9D1204670BD00380140A3
:103EB000FFF77EFF4FF4A060FDF7B0FFFDF712FEA5
:103EC0004FF4E130FEF704FF4FF41650FEF776FA98
:103ED000FDF7B8FEFDF7A0FDFDF786FAFEF738F80E
:103EE000FDF7B8F9FDF7D0F9FEF7E5FA3048FEF72F
:103EF000E7FA30A201210846FEF7F8F82FA20121C7
:103F00000220FEF7F3F82FA201210320FEF7EEF8BE
:103F10002EA0FFF785F905E02EA0FFF781F9C82054
:103F2000FFF768FFFDF7D4FA0028F5D1FFF710F985
:103F30003DE0FDF755FAFFF77FFE2A4800780A2199
:103F400090FBF1F201FB1200D8B927492748FDF791
:103F500012FB02232548027806210120FEF7A4F86F
:103F600002232148027806211846FEF79DF81F48D3
:103F700001781FA0FEF770FA1B4801781EA0FEF71B
:103F80006BFA0A20FFF736FF16480078401C1549E7
:103F9000087008460078142809D1002008701848D5
:103FA000006808B9012000E0002015490860C0E75A
:103FB0000000B44254656D703A30300048756D6948
:103FC0003A3030006C61703A303000003132330DDD
:103FD0000A0000004448543131204572726F720D5E
:103FE0000A00000000000020020000200100002064
:103FF0002A5425642A0000002A4825642A0000006B
:10400000B40122422DE9F04D1D460C4698B01746EA
:1040100021F0004123F00043002814BF4FF0010CB1
:104020004FF0000C0CEB440CFE4A0CEB02064FEA7E
:10403000620C66452BD33E0018BF012606EB4506F1
:104040001644F94A964222D3F84A53EA070C02D0A2
:10405000944205D148B918B000201146BDE8F08D52
:10406000002808BF4FF0000C01D04FF0010C0CEB02
:10407000440212F5001F0AD8002F14BF4FF0010CA4
:104080004FF0000C0CEB450212F5001F07D918B0D9
:104090003A462B462146BDE8F04DFFF755B90022C0
:1040A000DFF88CA3002CB8BF534526DADFF884C3B1
:1040B0006345A8BF022220DADFF870C39C451CDCF0
:1040C000DFF874C30CEB235CBCF1140F08DDCCF1FA
:1040D000340627FA06FC0CFA06F6BE420DD108E0BB
:1040E0005FB9CCF1140623FA06FC0CFA06F69E42E0
:1040F00003D10CF00102C2F1020251EA000C19D105
:10410000002D17DA002C18BF022A01D0012A07D08F
:104110000220FFF741F918B0BDE8F04DFFF70CB9E8
:104120000220FFF739F9FFF707F918B081F00041D5
:10413000BDE8F08DB7F1000C6CD1534525D104F1E9
:10414000804212F5801201BF00280020B74918B044
:1041500008BFBDE8F08DB548884207DC002DA1BF3F
:104160006046294618B0BDE8F08D07E0281E05DA44
:1041700080F0004118B06046BDE8F08DAF49794449
:10418000D1E9000118B0BDE8F08DDFF8A0C26345A9
:1041900025D1002D1FDA19B1514512D1D8B909E046
:1041A000002840F0EC82A24A214618B062F31E01BA
:1041B000BDE8F08D0020214618B060F31E01BDE877
:1041C000F08D08DA18B02346BDE8F04D0246002015
:1041D0006146FCF7C7B918B02146BDE8F08D5145DE
:1041E00018DAB5F1804F0DD0A5F1005CBCF1FF5C91
:1041F00010D1B4F1000C0DDB18B06146BDE8F04DF4
:1042000000F014BC234618B00246BDE8F04D194634
:10421000FCF736B9060024F0004C3BD1D9B151452A
:1042200033D1002C06DD002DA1BF0020514618B06F
:10423000BDE8F08D002C01DD002D1BDB002C13DA16
:10424000002D11DB012A4FF0000014BF78497C4992
:1042500018B0BDE8F08D022A18BF002C0AD0012A40
:1042600008D1002C06DA0AE0002CB8BF002D11DAC4
:10427000012A04D0002018B00146BDE8F08D18B026
:1042800000204FF00041BDE8F08DA1F14050B0F1A9
:104290007F601AD0012000EBE47050EA020421D0C4
:1042A000624C521E4FF0000B104304BF4FF0000B46
:1042B000644C654883427CDD644A654893421FDD57
:1042C000884217DB002D25DB37E0002C00DA4AB1ED
:1042D000022A0CBF01204FF0FF3018B0BDE8F04DAE
:1042E000FCF7BDB90120FFF757F818B0BDE8F04D55
:1042F000FFF72CB84D4A8A4202DC002D0ADC1CE094
:10430000814202DA002D18DA04E0484B994220DDA0
:10431000002D12DD0220FFF73FF8FFF71DF80546DC
:104320000E460022534658462146FCF7A9F818B01D
:1043300066F31E012846BDE8F08D0220FFF72CF839
:10434000FFF712F80A46214618B062F31E01BDE8D5
:10435000F08D002230466146FCF78CF880460E4610
:104360006FF00102FCF70EFB4FF05532394BFCF7B2
:1043700084F842463346FCF783F80022364BFCF7BC
:104380007CF8824642463346049110461946FCF7B3
:1043900077F85246049BFCF773F88A4600904FF07A
:1043A000C0422E4B40463146FCF76AF82C4A2B4B54
:1043B00000E027E0CDE9060151460098FCF760F8DF
:1043C00082460191274A284B40463146FCF758F86F
:1043D0005246019BFCF74EF882460B460246059179
:1043E000DDE90601FBF7A5FFDDE906230026884687
:1043F0003046FCF73FF85246059BFCF73EF8024674
:1044000000F07EB90020B1F5801F07DA3522304672
:104410006146FCF7B7FA06466FF0340000EB215016
:1044200024E00000FFFF1F00FFFF0F000000F03F2F
:104430000000F07F0000404301FCFFFF6E0F000012
:104440000000F0FF0000F0BF0000E0410000F0437A
:10445000FFFFEF3F5555D53F0000E03F4715F73FC1
:10446000FE822B6544DF5DF80BAE543EA0F2FF30B8
:104470000190C1F3130040F07F6141F0405102917F
:10448000FE498842D8BF002004DDFD498142C8BFF3
:10449000012001DD0D9008E000200D900198401CE6
:1044A00001900298A0F5801002900299F548784496
:1044B0000B910D9900EBC100D0E900230F9330461A
:1044C0000A920B99FBF7D6FFCDE90601DDE90A2137
:1044D00030460F9BFBF72DFF02460B460020EA49B2
:1044E000FCF740F8059102460B460090DDE9060115
:1044F000FBF7C6FF1490E5488A464FF00008784461
:104500000299006812904FF0005040EA61010D9846
:104510000F9B01EB804000F5002109910A9A129847
:10452000FBF7A8FF32460B9BFBF7A7FF424653461B
:10453000FBF7A6FF0646029140465146099B129A98
:10454000FBF79EFFDDE90623FBF797FF3246029B50
:10455000FBF790FF059B009AFBF792FF0091149ADE
:104560000490534610461946FBF78AFF064602465A
:10457000C7480B46029106217844FEF787FECDE935
:104580000510029B324610461946FBF779FFDDE91C
:104590000532FBF775FF059106465346404619461E
:1045A000149AFBF7C6FE009B049AFBF769FF32469C
:1045B000059BFBF7BEFECDE905104246534610466B
:1045C0001946FBF75DFF0022B24B02910A90FBF700
:1045D000B0FEDDE90532FBF7ACFE0E464246AD4BC0
:1045E0004046FBF747FF029B0A9AFBF743FFDDE9D2
:1045F0000532FBF742FF424602910A9033461046CD
:104600005146FBF73DFFCDE906015346149A029946
:104610000A98FBF735FF8A460290334642460099D6
:104620000498FBF72DFF5346029AFBF782FE824661
:104630000B4602460591DDE90601FBF77AFEDDE94E
:104640000623002088460646FBF714FF5246059BCA
:10465000FBF713FF824609914FF060428E4B3046C4
:104660004146FBF70DFF049006918C4A8A4B504659
:104670000999FBF705FF82460291894A894B30462A
:104680004146FBF7FDFE5246029BFBF752FE864B6E
:104690007B440D9A03EBC203D3E90023FBF749FEE9
:1046A0000E9007910198FBF7DAFF0591DDE90613FB
:1046B00082460E9A0498FBF73CFE7C4A7A440D9B96
:1046C00002EBC303D3E9002300930292FBF731FE10
:1046D0005246059BFBF72DFE002688465246304683
:1046E000059BFBF7C7FE009B029AFBF7C3FE069BE8
:1046F000049AFBF7BFFE079B0E9AFBF7BEFE02462D
:1047000000200B46029038462946FBF7B9FE824648
:1047100001912B4638461946029AFBF7ABFE32460A
:104720004346FBF7ADFE5246019BFBF702FE0746F0
:104730008A463246434629460298FBF7A1FE0546C3
:104740000E463A465346FBF7F4FD594A88469142D5
:1047500021DBA8EB020353EA000210D12A463346BC
:10476000FBF788FECDE90401524A534B38465146C7
:10477000FBF7DFFDDDE90423FCF734F921D2022049
:10478000FEF70AFEFEF7E8FD0A46214618B062F37E
:104790001E01BDE8F08D494B28F000429A4210D32B
:1047A000474A08EB020353EA00027FF4C6AD2A46EB
:1047B0003346FBF75FFE3A465346FCF713F97FF6A4
:1047C000BCAD0022019228F000403E493E4A01EB78
:1047D0002051824223DA481C4FF4801121FA00F064
:1047E00040443A4AC0F30A517A44394BA1F2FF31AE
:1047F000CB4020EA0303C0F3130040F48010C1F162
:104800001401C84012680190B8F1000FBCBF4042CB
:10481000019028463146FBF72DFE05460E462A46F6
:10482000334638465146FBF784FD4FF000084246B8
:10483000284B40460591FBF723FECDE90601264AA9
:10484000264B40460599FBF71BFE009102902A4635
:10485000334640460599FBF70DFE3A465346FBF7B3
:104860000CFE1F4A1F4BFBF70BFE009B029AFBF747
:1048700060FD0746884602460B4635E08E980300E9
:104880007AB60B00B60B00000000F03FEE0B000004
:104890001C0B00000000084009C7EE3FFD033ADC96
:1048A000F5015B14E02F3EBEF4090000B8090000DA
:1048B00000009040FE822B654715973C00CC90404D
:1048C00000346F3F01FCFFFF0000E03F04090000DF
:1048D000FFFF0F00432EE63F396CA80C615C20BE41
:1048E000EF39FAFE422EE63FDDE90601FBF721FD36
:1048F000DDE9062305460E46FBF7BCFD3A46434676
:10490000FBF7BBFD0F462A4633460090104619467A
:10491000FBF7B6FD824602462E4888460B46052127
:104920007844FEF7B3FC52464346FBF7A9FD2A46FE
:104930003346FBF7A2FD80468A463B462846314671
:10494000009AFBF79DFD3B46009AFBF7F2FC0691AF
:10495000009000224FF0804340465146FBF78AFD0D
:104960000F460C904246534628463146FBF788FDD9
:104970003B460C9AFBF7F6FD069B009AFBF77AFD87
:104980002A463346FBF776FD0022134BFBF775FDF5
:10499000054601980E4601EB00510815002810DC71
:1049A00028463146019AFBF7EDFFFEF75BFC042831
:1049B00008BFFEF7D9FC28463146019AFBF7E2FF13
:1049C00005460B4618B02A4658462146BDE8F04D2C
:1049D000FBF756BDA40700000000F03F10B50248E9
:1049E000FDF76EFD10BD00000000204110B502482B
:1049F000FDF766FD10BD00000000B44210B506488A
:104A0000007840B1FFF7F2FF0020034908704FF42F
:104A10009670FFF7EFF910BD7E00002010B5024838
:104A2000FDF74EFD10BD000000002A432DE9F041C6
:104A300006460F46FCF700F8041E0D4618BF01207D
:104A4000284320F00040C0F17F6000F1E040C00F3B
:104A50000ED0301C18BF0120384320F00040C0F1B8
:104A60007F6000F1E040C00F04BF0120FEF794FC1E
:104A700020462946BDE8F08100000000000000004B
:104A80000000000000000000000000F8000000002E
:104A9000000000333000000000100C06100C06006F
:104AA000000000000000000040C07840C0784000D6
:104AB000043F04043F040400007088FC0830000038
:104AC000001820FF211E0000F008F000E018000090
:104AD00000211C031E211E0000F008887000000049
:104AE0001E2123241927211010160E00000000009B
:104AF0000000000000000000000000E018040200B8
:104B0000000000071820400000020418E000000028
:104B10000040201807000000404080F08040400026
:104B20000202010F01020200000000F0000000007C
:104B30000101011F01010100000000000000000050
:104B400080B07000000000000000000000000000C5
:104B5000000101010101010100000000000000004E
:104B600000303000000000000000000080601804E9
:104B7000006018060100000000E010080810E000C6
:104B8000000F102020100F00001010F8000000008F
:104B90000020203F202000000070080808887000D6
:104BA0000030282422213000003008888848300056
:104BB0000018202020110E000000C02010F8000076
:104BC00000070424243F240000F80888880808000F
:104BD0000019212020110E0000E010888818000024
:104BE000000F112020110E0000380808C8380800F6
:104BF0000000003F00000000007088080888700076
:104C0000001C222121221C0000E010080810E000F6
:104C10000000312222110F00000000C0C00000007F
:104C200000000030300000000000008000000000A4
:104C3000000080600000000000008040201008009C
:104C40000001020408102000404040404040400065
:104C50000404040404040400000810204080000040
:104C60000020100804020100007048080808F00045
:104C70000000003036010000C030C828E810E00015
:104C80000718272423140B000000C038E0000000A0
:104C9000203C23020227382008F88888887000000A
:104CA000203F202020110E00C030080808083800DE
:104CB000071820202010080008F808080810E00055
:104CC000203F202020100F0008F88888E8081000F6
:104CD000203F20202320180008F88888E8081000CA
:104CE000203F200003000000C03008080838000002
:104CF00007182020221E020008F808000008F80803
:104D0000203F210101213F20000808F80808000089
:104D10000020203F2020000000000808F8080800BC
:104D2000C08080807F00000008F888C02818080034
:104D3000203F20012638200008F80800000000006D
:104D4000203F20202020300008F8F800F8F8080064
:104D5000203F003F003F200008F830C00008F8085E
:104D6000203F200007183F00E01008080810E0006E
:104D70000F10202020100F0008F808080808F00085
:104D8000203F210101010000E01008080810E000A8
:104D90000F18242438504F0008F88888888870003D
:104DA000203F2000030C30200070880808083800DD
:104DB0000038202121221C00180808F808081800D3
:104DC0000000203F2000000008F808000008F80854
:104DD000001F202020201F000878880000C8380805
:104DE000000007380E010000F80800F80008F8007D
:104DF000033C0700073C0300081868808068180817
:104E000020302C03032C30200838C800C838080094
:104E10000000203F2000000010080808C8380800E3
:104E20002038262120201800000000FE0202020087
:104E30000000007F40404000000C30C00000000037
:104E4000000000010638C00000020202FE0000005F
:104E5000004040407F000000000004020202040005
:104E60000000000000000000000000000000000042
:104E7000808080808080808000020204000000002A
:104E80000000000000000000000080808080000022
:104E90000019242222223F2008F800808000000010
:104EA000003F112020110E000000008080800000D3
:104EB000000E112020201100000000808088F800E2
:104EC000000E112020103F20000080808080000014
:104ED000001F222222221300008080F08888881878
:104EE0000020203F20200000000080808080800083
:104EF000006B94949493600008F800808080000018
:104F0000203F210000203F200080989800000000F2
:104F10000020203F20200000000000809898000022
:104F200000C08080807F000008F800008080800042
:104F3000203F24022D302000000808F80000000067
:104F40000020203F20200000808080808080800022
:104F5000203F20003F20003F8080008080800000B4
:104F6000203F210000203F20000080808080000042
:104F7000001F202020201F00808000808000000073
:104F800080FFA12020110E000000008080808000A2
:104F9000000E112020A0FF80808080008080800093
:104FA00020203F21200001000000808080808000C0
:104FB0000033242424241900008080E08080000035
:104FC0000000001F20200000808000000080800082
:104FD000001F202020103F208080800000808080E3
:104FE00000010E3008060100808000800080808073
:104FF0000F300C030C300F00008080008080800098
:105000000020312E0E3120008080800000808080C2
:1050100080818E7018060100008080808080800072
:105020000021302C2221300000000000807C020290
:1050300000000000003F404000000000FF000000B2
:1050400000000000FF0000000002027C8000000061
:105050000040403F0000000000060101020204047D
:105060000000000000000000000000000000F03F11
:10507000000000000000F83F0000000000000000F9
:105080000000004003B8E23F000000000000000004
:1050900006D0CF43EBFD4C3E033333333333E33F92
:1050A000FFAB6FDBB66DDB3F4D268F515555D53FBE
:1050B00001411DA96074D13F65DBC9934A86CD3F8C
:1050C000EF4E454A287ECA3F3E5555555555C53F7A
:1050D00093BDBE166CC166BF2CDE25AF6A56113F6C
:1050E000F16BD2C541BDBBBED0A4BE726937663E6E
:1050F000000000000000000018510008000000201F
:105100009C00000078330008B45100089C00002087
:105110008C04000088330008000000001400000028
:10512000000000009A99014100000000000000000A
:105130000000000000A24A0400000000000000007F
:105140000102030406070809000000000000000037
:105150000102030401020304060708090204060809
:10516000000000000000000000000000000000003F
:10517000E703000000000000000000000000000045
:10518000000000000000000000000000000000001F
:10519000000000000000000000000000000000000F
:1051A00000000000000000000000000000000000FF
:0451B00000000000FB
:0400000508000149A5
:00000001FF
